:020000040800F2
:1000000050C20020E902000897D4000885A000082B
:1000100095D400082324000869210108000000008D
:100020000000000000000000000000005102000875
:1000300065270008000000009502000899E100080B
:100040000303000803030008030300080303000878
:100050000303000803030008030300080303000868
:100060000303000803030008030300080303000858
:100070000303000803030008030300080303000848
:100080000303000803030008030300080303000838
:100090000303000803030008030300080303000828
:1000A0000303000803030008030300080303000818
:1000B00003030008E5110108991201080303000871
:1000C00003030008030300080303000803030008F8
:1000D00003030008CD1F0108030300080303000801
:1000E00003030008030300080303000803030008D8
:1000F00003030008030300080303000803030008C8
:1001000003030008030300080303000803030008B7
:1001100003030008030300080303000803030008A7
:100120000303000803030008030300080303000897
:1001300000F002F800F07CF80AA090E8000C82447D
:100140008344AAF10107DA4501D100F071F8AFF25A
:10015000090EBAE80F0013F0010F18BFFB1A43F0A5
:100160000103184784C00700A4C007000A444FF0E9
:10017000000C10F8013B13F0070408BF10F8014B06
:100180001D1108BF10F8015B641E05D010F8016B4B
:10019000641E01F8016BF9D113F0080F1EBF10F8AF
:1001A000014BAD1C0C1B09D16D1E58BF01F801CBD2
:1001B000FAD505E014F8016B01F8016B6D1EF9D555
:1001C0009142D6D37047000000230024002500266A
:1001D000103A28BF78C1FBD8520728BF30C148BFAA
:1001E0000B607047662924F04084642900F0E880A1
:1001F000752900F0E580782900F01E81632900F060
:100200003C86732900F04186002070471FB500F03E
:10021000F7FE04000020002123F072FA401C606009
:100220000020002123F056FAE0601FBD10B510BD7C
:1002300001F032F81146FFF7E9FF21F0BBF801F0B9
:100240005EF803B4FFF7F2FF03BC20F05EFE00008F
:10025000224B19680868B0E8F00F80F30988BFF3F3
:100260006F8F4FF0000080F311884EF00D0E704735
:100270000000000006480068006880F3088862B645
:1002800061B6BFF34F8FBFF36F8F00DF00BF00BFBA
:1002900008ED00E0EFF30980BFF36F8F0F4B1A6892
:1002A00020E9F00F106008B54FF0500080F311887E
:1002B000BFF34F8FBFF36F8F22F002FC4FF00000AF
:1002C00080F31188BDE8084019680868B0E8F00FAD
:1002D00080F30988BFF36F8F704700BFD400002000
:1002E000EFF3058070470000094880470948004740
:1002F000FEE7FEE7FEE7FEE7FEE7FEE7FEE7FEE7D6
:10030000FEE7FEE704480549054A064B7047000032
:10031000ADE100083101000850BC002050C20020AF
:1003200050BE002050BE0020704700000FB40449AA
:1003300010B503AA029800F0ADFD10BC5DF814FBE7
:10034000A00000200FB41CB5074B06AA7B446946E9
:100350000090059800F06FFD0020694600F07EFDDA
:100360001CBC5DF814FB00000D0B000070B50C46C2
:100370000546012A05D02878800600D5EA690023C1
:1003800002E0012305E05B1C934202D2E05C0028FE
:10039000F9D1A869E618C01AA861286A1844286229
:1003A0002846AFF3008004E0D5E9012114F8010BE1
:1003B0009047B442F8D32846AFF3008070BD0000E8
:1003C0002DE9F0410646002410687529314616A52E
:1003D00010D0AFF30080002802DA404213A507E0F6
:1003E00031688A0701D512A502E0490704D511A595
:1003F000012401E0AFF3008000210A2206F1240766
:1004000009E0B0FBF2FCB0FBF2F302FB1C00303061
:1004100078541846491C0028F3D123462A46304612
:10042000BDE8F04100F09BBA000000002D00000084
:100430002B0000002000000070B504460D46214648
:100440001068AFF300802188090502D50F4A7A446D
:1004500002E00E4A7A440E32002104F1240305E042
:1004600000F00F060009965D5E54491C0028F7D184
:1004700020780023000704D5702D02D009B1022393
:1004800011322046BDE8704000F069BA8ABB07000F
:100490002DE9F0474FF0000A89460446C0F820A035
:1004A0002046E1688847002876D0252806D0D4E980
:1004B00001219047206A401C2062F1E7E168204654
:1004C00000268847C4F81CA005460027C4F818A0D9
:1004D0002A2D09D0284620F011FD38B304EB8708F7
:1004E000303DC8F8185019E059F8041B204604EBB9
:1004F00087029161E1688847012F054618D1E069BC
:10050000002820DA26F020061DE0D8F8180000EBBD
:10051000800005EB40003038C8F818002046E1683C
:100520008847054620F0EAFC0028EED1012F0AD0CA
:100530002E2D08D12046E16888477F1C0546022FF2
:1005400046F02006C4DBA069002803DA404246F0EA
:100550000106A061F00701D026F010066C2D0AD02C
:10056000682D08D04C2D39D06A2D35D0742D35D05A
:100570007A2D33D016E0E1682F4620468847B842EE
:1005800005460AD16C2F27D04FF48060E1680643FE
:1005900020468847054605E027E06C2F1AD04FF427
:1005A000807006430DB3A5F14100192802D820350B
:1005B00046F400664A462946204626604E46FFF726
:1005C00011FE80B101280BD0F61D26F0070000F1C6
:1005D000080965E74020E4E78020D7E70020D5E759
:1005E00006F104095CE7284661E7206ABDE8F08768
:1005F00070B5064600F0A4F90468054630460A22A4
:10060000002100F059FC2C6070BD40EA010310B5D8
:100610009B070FD1042A0DD310C808C9121F9C4292
:10062000F8D020BA19BA884201D9012010BD4FF084
:10063000FF3010BD1AB1D30703D0521C07E00020D1
:1006400010BD10F8013B11F8014B1B1B07D110F82E
:10065000013B11F8014B1B1B01D1921EF1D1184631
:1006600010BD40EA0103024630B59B0710D14FF0A0
:10067000013400E008C208C91D1B9D4315EAC41FD0
:10068000F8D013F0FF0102F8011B0DD01B0AF8E7A8
:1006900011F8013B002B02F8013B05D011F8013B9A
:1006A000002B02F8013BF3D130BD10B5431C02E032
:1006B00010F8011B71B18107FAD14FF0013202C865
:1006C0008C1A8C4314EAC211F9D0C01A0A0603D05E
:1006D000C01E10BDC01A10BD0A0401D0801E10BD7E
:1006E0000902FCD0401E10BD032A40F2308010F0F9
:1006F000030C00F0158011F8013BBCF1020F6244BD
:1007000098BF11F801CB00F8013B38BF11F8013B4D
:10071000A2F1040298BF00F801CB38BF00F8013BFA
:1007200011F0030300F06780083AC0F0088051F828
:10073000043B083A51F804CBA0E80810F5E7121D75
:100740005CBF51F8043B40F8043BAFF30080D20794
:1007500024BF11F8013B11F801CB48BF11F8012B60
:1007600024BF00F8013B00F801CB48BF00F8012B83
:100770007047431A28BF9A427FF6B6AF032A104447
:10078000114440F2268010F0030F1EBF11F8013D06
:10079000521E00F8013D10F0030F7FF4F6AF11F088
:1007A000030300F0D483083AC0F00B8051F8043DF5
:1007B000083A51F804CD40F8043D40F804CDFFF765
:1007C000F3BF121D5CBF51F8043D40F8043DAFF388
:1007D0000080D20724BF11F8013D11F801CD48BFB8
:1007E00011F8012C24BF00F8013D00F801CD48BFED
:1007F00000F8012C704710B5203AC0F00B80B1E82A
:100800001850203AA0E81850B1E81850A0E8185045
:10081000BFF4F5AF5FEA027C24BFB1E81850A0E84E
:10082000185044BF18C918C0BDE810405FEA827C68
:1008300024BF51F8043B40F8043B08BF7047D2077F
:1008400028BF31F8023B48BF11F8012B28BF20F820
:10085000023B48BF00F8012B704702F0FF0343EA58
:10086000032242EA024200F09EBB4FF0000200B5B4
:10087000134694469646203922BFA0E80C50A0E8C3
:100880000C50B1F12001BFF4F7AF090728BFA0E871
:100890000C5048BF0CC05DF804EB890028BF40F83D
:1008A000042B08BF704748BF20F8022B11F0804F7F
:1008B00018BF00F8012B70474FF0013C50F8042B93
:1008C00051F8043B9A4221D1A2EB0C03934313EA63
:1008D000CC1317D150F8042B51F8043B9A4215D190
:1008E000A2EB0C03934313EACC130BD150F8042B67
:1008F00051F8043B9A4209D1A2EB0C03934313EA4B
:10090000CC13DBD04FF00000704700BFD01A01BA03
:10091000B1FA81F101F0180122FA01F0CB40C1F1E6
:100920002001DBB2C0B2C01A2CFA01F3D11A9143F4
:1009300011EAC311E6D1704770477047704770479E
:1009400000487047F0BB002010B5FFF7F9FF0068C2
:1009500010BD10B50446FFF7F3FF046010BD2DE98C
:10096000F0470D4699469246044600F12408016876
:10097000880604D5E06921F01001216000E0012023
:10098000A84201DD471B00E00027A1697A1902EBAC
:100990000900081AA0612078C00602D42046AFF3EF
:1009A0000080002608E0D4E901211AF806009047EB
:1009B000206A401C761C20624E45F4DB2078C0067D
:1009C0000AD52046AFF3008006E0D4E901213020AB
:1009D0009047206A401C2062381EA7F10107F4DC12
:1009E00007E0D4E9012118F805009047206A401C6F
:1009F0002062281EA5F10105F3DC2046AFF300803C
:100A00002078000602D50220BDE8F0870120FBE730
:100A100070472DE9FF4F0C461E464FF0FF378BB055
:100A2000D2E90001DDF860800A908A46C1F30A55D8
:100A300005B93D46002108464FF00000BAF1000F0D
:100A400000F4400005DA00EB80004FF4400101EAB9
:100A500050004FEA9059B9F1010F00DDB9460A98EC
:100A600050EA4A000ED044F61050A5F2FF35454337
:100A70002F14B8F1000F1ED07542291E1EDDC9F1DA
:100A800000021CE0B8F1010F4FF0000001D030214E
:100A900003E0F24305E02154401CB042FBDB30464A
:100AA0000022002121540B99C1F80880C1E90020DF
:100AB0000FB0BDE8F08FBD1B6D1CDEE74A4600DAC3
:100AC000694206A800F076FB06AB93E8070003AB8B
:100AD00083E8070050460A9900F017FC8DE80700EC
:100AE000A0F500501F3800900398002D09DD42F258
:100AF0001F014A46084403A90390684600F076FEA9
:100B000008E0A0F500504A461F3803A90390684644
:100B100000F080FE8DE807000004000C03D04FF0C9
:100B2000FF30410800E01046B8F1000F03D000226A
:100B3000009215461EE0751E05D400F065FA3032AD
:100B400062556D1EF9D5B3460122084302D000223A
:100B50007F1C04E02078302801D100227F1E002A6B
:100B6000099786D01DE0112D07DA00F04DFA3032DA
:100B700062556D1C50EA0102F5D1084302D000987D
:100B8000C8B10EE00021681E05E0235C625C63547E
:100B90002254401E491C8142F7DBAB46A81B401E75
:100BA0000990002004F80B000B98099AC0F80880FF
:100BB000C0E9002B7CE711264FF0000859E72DE92A
:100BC000F04F88460446D21D22F0070191B0D1E9CA
:100BD0000001CDE90A011FF00FFB02460B98C00F80
:100BE00001D02D2007E02068810701D52B2002E0ED
:100BF000202101EAC000032A099001D0072A05DB61
:100C000003464146204600F045FA0BE12078800675
:100C100001D5E06900E00620B8F1650F814606D0F5
:100C2000B8F1660F18D0B8F1670F70D131E000202D
:100C3000B9F1110F009001DB112301E009F101036B
:100C40000AAA01A90CA8FFF7E4FEDDE90C70002652
:100C500009F10105834647E001204B4600904FF023
:100C600000470AAA01A90CA8FFF7D3FEDDE90DB0E1
:100C70000C995D46002610B909F101000D18B9EB79
:100C8000050003D4C0F1FF3609F10105A5EB090009
:100C90002BE0B9F1010F01DA4FF001090020B9F1A1
:100CA000110F0090484601DD112300E003460AAA17
:100CB00001A90CA8FFF7ADFEDDE90C704D4600263A
:100CC0008346207800070AD4AB4500DA5D4601A8C8
:100CD000012D04DD411911F8011C302907D04F45C1
:100CE00002DA17F1040F04DA012082460FE06D1ECC
:100CF000EEE7002F02DCED1B3E4403E0781CA84227
:100D000000DD7D1CB81B00F1010A4FF00047207880
:100D1000000703D4AA4501DB4FF0FF3A0021B7F1E9
:100D2000004F0DF143088DF8431024D002202B23EF
:100D3000002F01DA7F422D230A21021EA0F10100BB
:100D400000DC5FB197FBF1FC97FBF1F201FB1C7C2F
:100D500017460CF1300C08F801CDEEE7A8F10100C0
:100D600003702188090501D5452100E06521A0F126
:100D7000010800F8011C09980FA9A1EB0807FF1D45
:100D800000B10120411901EBEA70A1693844081A49
:100D9000401EA0612078C00602D42046AFF3008038
:100DA000099828B1D4E901219047206A401C2062AB
:100DB0002078C00622D52046AFF300801EE0002E2A
:100DC00004DBB34502DD01A8805D00E03020D4E9FA
:100DD00001219047206A401C2062761CAAF1010084
:100DE0005FEA000A0AD100F00BF9C0680168405CB4
:100DF000D4E901219047206A401C2062281EA5F1F9
:100E00000105DCDC07E0D4E9012118F8010B90476B
:100E1000206A401C2062381EA7F10107F3DC20463F
:100E2000AFF30080032011B043E6000001694A1CC3
:100E300002610878704700B58FB0CDE9013100211B
:100E4000059105497944CDE9031011466846FFF73D
:100E50001FFB0FB000BD0000E5FFFFFF0A6802F8AE
:100E6000010B0A60704710B5436913B1AFF30080FE
:100E700001E0FFF77BFA012010BD127800F1240198
:100E80000A7000224A700122EDE711684FF0FF322C
:100E9000E9E70000074B70B50D467B44FFF7CBFF39
:100EA0000446284600F0F4F910B14FF0FF3070BD51
:100EB000204670BD570402002DE9F04791460F46C9
:100EC00080460446002614F8015B2DB100F090F82E
:100ED0000068405DC007F6D12B2D02D02D2D18D013
:100EE000641E4A463946204600F014F927B1396895
:100EF000A14201D1C7F800804FF0020471050BD563
:100F00004042002803DDFFF71BFD0460A007BDE899
:100F1000F08746F48066E4E70028F8DAFFF710FD72
:100F200004606FF00040F2E7431A28BF9A427FF650
:100F300062AC104410F0030F11441EBF11F8013DC4
:100F4000521E00F8013D10F0030F7FF4F6AF103A87
:100F5000C0F00A8010B531E91850103A20E9185055
:100F6000BFF4F9AFBDE81040530724BF31E90810C2
:100F700020E9081044BF51F8043D40F8043D12F048
:100F8000030F08BF7047D20728BF31F8023D48BFA2
:100F900011F8012C28BF20F8023D48BF00F8012CB1
:100FA00070474FF000020429C0F0128010F0030CCB
:100FB0003FF45DACCCF1040CBCF1020F18BF00F89B
:100FC000012BA8BF20F8022BA1EB0C01FFF74FBCAF
:100FD0005FEAC17C24BF00F8012B00F8012B48BF59
:100FE00000F8012B7047000000487047F0BB00205C
:100FF00010B500F005F8001D10BD00BF0527020068
:101000000048704710BC002030B5B0F10A024FEA2A
:10101000900E71F100034EEA817EB0EB0E0061EBA1
:1010200091014FEA101E4EEA017E10EB0E0041EBDB
:1010300011114FEA102E4EEA016E10EB0E0041EB3B
:1010400011214FEA104E4EEA014E10EB0E0041EB1B
:101050001141401841F100014FEAD00040EA4170CF
:101060004FEAD10110EB80054FEA810444EA907405
:1010700044EB01046D1944EB0404521BA3414FF0EF
:10108000000348BF0A3200D530BD401C41F10001C9
:1010900030BD00002DE9F0411F46044603260168DB
:1010A000072A01F4006004DB08B116A505E016A5C7
:1010B00003E008B115A500E015A521F0100020609F
:1010C000A069C01EA0610FB1401EA0612046AFF311
:1010D00000804FB1D4E9012138469047206A401C76
:1010E0002062C01C206206E0206AFAE7D4E90121F0
:1010F00015F8010B9047761EF8D22046AFF300801A
:10110000BDE8F0814E414E006E616E00494E4600D2
:10111000696E66002DE9F05F824615468B46002712
:101120000AF10104B9460078302801D09DB113E0DE
:1011300014F8010B0127782803D0582801D045B1B5
:101140000AE00DB1102D07D1002714F8010B10256E
:1011500002E0082500E00A250026B0460EE005FB67
:10116000080005FB06F101271FFA80F801EB104685
:10117000B6F5803F00D3B94614F8010B294600F0BC
:10118000B0F80028EBDABBF1000F05D00FB1641EF8
:1011900000E05446CBF80040B9F1000F06D0FFF74D
:1011A000CFFB02210160C81EBDE8F09F48EA06405F
:1011B000FAE700002DE9F047814616468AB0334829
:1011C00078440DC88DE80D0030487844801C03AC8D
:1011D0000DC884E80D0041F69B300844372190FB90
:1011E000F1F290FBF1F5A5F1800501FB12041B3C27
:1011F00002D56442012000E00020DFF890A0804684
:101200000027FA44AAF1BE0A0DE0E00709D03246F1
:10121000684607EB47010AEB810100F0FBFA8DE815
:10122000070064107F1C002CEFD1184F7F44AC3FA7
:1012300018E0E80714D007EB04100DF1180A90E845
:101240000E008AE80E00C068F04201D1981908909B
:10125000324606A903A800F0DDFA03AB83E80700D5
:101260006D10641C002DE4D132466946B8F1000FC0
:1012700003A802D000F0BAFA01E000F0CBFAC9E905
:101280000001C9F808200AB0BDE8F087BCAE07002D
:10129000007B00F0800070477546FFF7A5FEAE4664
:1012A00005006946534620F00700854618B020B572
:1012B000FFF728F8BDE820404FF000064FF0000788
:1012C0004FF000084FF0000B21F00701AC46ACE8EE
:1012D000C009ACE8C009ACE8C009ACE8C0098D465B
:1012E00070473A2800D2303820F02002412A01D33A
:1012F000A2F13700884201D34FF0FF307047044617
:10130000AFF300802046FEF79CFF5FEA400C08BF69
:1013100091F0000F4FEA8C234FEAC12243EA51516A
:101320004FEA1C5018BF00F5F0404FEA300018BFDC
:1013300041F000415FEA6C5C00F02980BCF1FF3FA6
:1013400008BF40F080407047130C06BF12044FF0F6
:10135000100C4FF0000C130E04BF12020CF1080C1D
:10136000130F04BF12010CF1040C930F04BF920081
:101370000CF1020CD30F04BF52000CF1010C11460A
:101380004FF00002A0F11F00A0EB0C00704711F01D
:10139000004F08BF704731F000413FF4D5AF0B0C50
:1013A00006BF09044FF0100C4FF0000C0B0E04BFE9
:1013B00009020CF1080C0B0F04BF09010CF1040C1D
:1013C0008B0F04BF89000CF1020CCB0F04BF490046
:1013D0000CF1010CCCF12003A0EB0C0022FA03F37A
:1013E00002FA0CF241EA030100F10100704720F01B
:1013F0007F4C80EA030023F07F47ACEB070303F543
:101400007C5300F0004003F1FF032DE980494FEACF
:10141000154B09B44FEA144325EA0B4E24EA03485E
:101420000FF2042606EB132749083E785FEA3202E2
:1014300003FB0667C7F5000707FB06F64FEA5437BC
:101440004FEAD64606F1020607FB066CCCF1005CBB
:101450004FEA1C472CEA074C07FB06F40CFB06F589
:1014600004EB15464FEA961634BF00204FF00040BB
:101470004FEAD13706FB07FC4FEA1C4C0CFB0BF77D
:10148000D21B03FB0CF761EB07010CFB0EF7B0EB73
:10149000074072EB17420CFB08F734BFA2EB074280
:1014A000B2EB074261EB17414FEA0C444FEA910758
:1014B00006FB07FC4FEA1C4C0CFB0BF7B0EBC740DC
:1014C00072EB573203FB0CF734BFA2EBC742B2EB0F
:1014D000C74261EB57310CFB0EF7B0EBC70072EB64
:1014E00057720CFB08F734BFA2EBC702B2EBC7027E
:1014F00061EB5771039F4FEA816141EA921104EB5E
:10150000CC044FEAD1374FEA826206FB07FC42EA7D
:1015100090124FEA80604FEA1C4C0CFB0BF7D21B79
:1015200003FB0CF761EB07010CFB0EF7B0EB074078
:1015300072EB17420CFB08F734BFA2EB0742B2EB89
:10154000074261EB17414FEA8C554FEA910704EBD4
:101550009C2406FB07FC4FEA1C4C0CFB0BF7B0EB82
:10156000C74072EB573203FB0CF734BFA2EBC74204
:10157000B2EBC74261EB57310CFB0EF7B0EBC70083
:1015800072EB57720CFB08F734BFA2EBC702B2EB49
:10159000C70261EB577115EB4C254FEA816141EAB7
:1015A00092114FEA82624FEAD13742EA901206FB6B
:1015B00007FC44F100044FEA80604FEA1C4C0CFB2E
:1015C0000BF7D21B03FB0CF761EB07010CFB0EF7CB
:1015D000B0EB074072EB17420CFB08F734BFA2EBED
:1015E0000742B2EB074261EB174115EB1C154FEABE
:1015F000813141EA92414FEA823242EA90424FEA17
:1016000080304FEA0C7644F1000448EA03434EEA86
:101610000B484FF0000EB2EB080C71EB030724BF30
:10162000624639464EEB0E0E4FF0000B0018524149
:1016300049414BEB0B0BB2EB080C71EB03077BF151
:10164000000B24BF624639464EEB0E0E4FF0000BE6
:101650000018524149414BEB0B0BB2EB080C71EBFC
:1016600003077BF1000B24BF624639464EEB0E0E9A
:1016700051EA020718BF46F0010616EB0E7655F147
:10168000000254F1000103D5BDE88901BDE80088DE
:10169000BDE88901BDE80048B619524141EB01019E
:1016A000A3F10103704780807F7E7D7C7B7A79780F
:1016B000777676757473727171706F6E6E6D6C6C17
:1016C0006B6A6A69686867666665646463636261B9
:1016D0006160605F5F5E5E5D5D5C5C5B5B5A5A593A
:1016E00059585857575656555555545453535252A6
:1016F0005251515050504F4F4F4E4E4D4D4D4C4CFE
:101700004C4B4B4B4A4A4A49494948484847474746
:101710004746464645454544444444434343434283
:10172000424242414141002B26D4770021D01CB5D2
:101730004FEA370703B44FF010004FF010014FF09D
:1017400000000FBCBDE810400BF1010BBBF1010F15
:1017500008BF5FEA170722BF12F1010211F1010170
:101760004FF0004143F1000300F0004043EA000065
:101770007047F9D35708DAE746EA064613F1400FF7
:101780004FEA16461FDD13F1200FDFBF16430A464E
:10179000002120335B42C8D0C3F1200746EA064649
:1017A00002FA07F74FEA164646EA0706C3F1200792
:1017B00022FA03F201FA07F721FA03F14FF00003CE
:1017C00042EA0702B1E746EA020646EA06464FEA5F
:1017D000164646EA0106BCBF46EA0646360C4FF0FE
:1017E00000034FF000024FF000019EE72DE9C048D2
:1017F000934630B491E8380007C831EA400C48BF3E
:1018000034EA430C03D5FFF7F2FDFFF78CFFF0BC81
:10181000BDE800882DE9C048934630B491E838000F
:1018200007C810F0804F08BF13F0804F03D100F0BD
:1018300005F8FFF778FFF0BCBDE8008820F07F478F
:1018400080EA030023F07F4C07EB0C03A3F57C53E5
:1018500000F00040A3F1FE0392F0000F00F0B3800F
:1018600095F0000F00F077802DE901494FEA114013
:101870004FEA144621EA004800FB06FC24EA06472A
:1018800008FB06F607FB08F800FB07F718EB06480D
:101890004CEB164C4FEA124B18EB07484FEA154633
:1018A0004CEB174022EA0B4E0BFB06FC25EA0647E1
:1018B0000EFB06F607FB0EFE0BFB07F71EEB064EB4
:1018C0004CEB164C4FF000061EEB074E4CEB174B43
:1018D00018EB0B0840F1000018EB0E0B58EB00085A
:1018E00040F100008F1A4FF000013CBFC943661B56
:1018F00014BFB5EB040C00213CBFC943F61B4FEAF3
:1019000017444EEA8E0E27EA04454FEA1C4704FBB3
:1019100007622CEA074C05FB07F70CFB05F604FBF6
:101920000CFC16EB074642EB174216EB0C4642EB5B
:101930001C421BEB060658EB0202414146EA9E069A
:1019400001D5BDE80189B619524141EB0101A3F16E
:101950000103BDE801894FEA14454FEA114724EA23
:10196000054621EA074C05FB07F406FB07F70CFBCD
:1019700006F105FB0CFC11EB074144EB17444FEA61
:10198000124711EB0C4144EB1C4422EA074C05FBC7
:1019900007F206FB07F70CFB06F605FB0CFC16EB43
:1019A000074642EB174216EB0C4642EB1C456A1801
:1019B00054F1000148BF7047B619524141EB010193
:1019C000A3F10103704795F0000F37D04FEA1142A1
:1019D0004FEA144721EA024624EA074C02FB07F1CA
:1019E00006FB07F70CFB06F402FB0CFC14EB0744A8
:1019F00041EB17414FEA154714EB0C4441EB1C41F6
:101A000025EA074C02FB07F506FB07F70CFB06F679
:101A100002FB0CFC16EB074645EB174516EB0C4694
:101A200045EB1C42121951F1000148BF7047B6192D
:101A3000524141EB0101A3F1010370474FEA144504
:101A40004FEA114724EA054621EA074C05FB07F156
:101A500006FB07F70CFB06F24FF0000605FB0CFC3B
:101A600012EB074241EB174112EB0C4251EB1C41C8
:101A700048BF7047921841EB0101A3F10103704781
:101A80001CB511F0C3F90346002000900190034AF1
:101A90000421034803F0A6FF1CBD00002102020838
:101AA000246003080029816802D041F0010101E0AF
:101AB00021F00101816070470D4910B5884202D1C3
:101AC000012144150AE00B49884202D10121041585
:101AD00004E0094988420AD10121CC0320460BF0D9
:101AE000ADFE2046BDE8104000210BF0A7BE10BDA2
:101AF0000024014000280140003C01400146002034
:101B00008968490700D501207047C06C80B27047D2
:101B10000246002012680A4200D0012070470146A8
:101B200000208968090700D50120704710B5426878
:101B30000E4B0C791A400B6842EA042213434360AF
:101B400082680B4B1A40D1E9024323434C7942EAA5
:101B5000440213438360C26A097C22F47002491E66
:101B6000C9B242EA0151C16210BD0000FFFEF0FFA0
:101B7000FDF7F1FF10B504210022084621F052F8CC
:101B80000149086010BD00000400002070B5072660
:101B900009290AD9C568A1F10A0404EB4404A64046
:101BA000B543A3401D43C56007E0056901EB41044F
:101BB000A640B543A3401D4305611F23072A09D250
:101BC000446B521E02EB820293409C4391400C43B3
:101BD000446370BD0D2A09D2046BD21F02EB82024E
:101BE00093409C4391400C43046370BDC46A0D3A1A
:101BF00002EB820293409C4391400C43C46270BD4F
:101C0000816841F00801816070470029816802D035
:101C100041F4A00101E021F4A001816070478168D6
:101C200041F004018160704708B50020234E244F25
:101C3000DFF89080DFF89090244C4FF069554FF01A
:101C4000FF3A00900A21012008F008FA22F052FD24
:101C5000294622F097FD22F063FB0022334621F053
:101C60004BFE3A46434621F047FE00224B4622F007
:101C700047F821F05BFD1FF049FB0090002352461E
:101C80006946206821F020F90146206878B110A04B
:101C9000FEF74CFB009822F043FB02460B4611A0D6
:101CA000FEF744FB4FF4FA7020F062FC02E012A051
:101CB000FEF73CFB0A2020F05BFCC3E70000244059
:101CC0004A0C022B8716ED3F00408F400400002095
:101CD000414443CFFBCFA2B7A2CBCDB3C9B9A60D28
:101CE0000A000000B7A2CBCDB5C4CFFBCFA2CAC7B4
:101CF00025660D0A00000000414443CFFBCFA2B788
:101D0000A2CBCDCAA7B0DC203A256C64000000004D
:101D100008F01EBC70B515460E46044608E0204685
:101D2000641CA4B200F007F86D1E06F8010BADB2FA
:101D3000002DF4D170BD10B5044608F0ADFC200AAA
:101D4000A02101EB4000C0B208F072FC08F0E6FCF4
:101D5000E0B208F06DFC08F0E1FC08F09DFCA12069
:101D600008F066FC08F0DAFC002008F02BFC0446C2
:101D700008F0B2FC204610BD70B514460D4606466C
:101D800006E02978304600F007F8761CB6B26D1CE4
:101D9000641EA4B2F5D270BD70B50D46044608F0BD
:101DA0007BFC200AA02101EB4000C0B208F040FCFF
:101DB00008F0B4FCE0B208F03BFC08F0AFFC2846A9
:101DC00008F036FC08F0AAFC08F086FCBDE870407C
:101DD0000A201FF02DB9002800DC404270470000A7
:101DE00030B587B001214FF401700BF01BFD0024CA
:101DF0008DF817400220ADF8140003208DF816006E
:101E000005A9184802F000FB4FF400400BF0E8FC75
:101E1000154D2846FFF750FE4FF46020CDE902042F
:101E200001208DF805408DF8100000948DF80440D5
:101E300069462846FFF77AFE01212846FFF732FE61
:101E40002846FFF7DDFE2846FFF769FE0028FAD195
:101E50002846FFF7E4FE2846FFF750FE0028FAD197
:101E600007B030BD00080140002401401CB500212E
:101E7000009103460191034A0421034803F0B2FD97
:101E80001CBD000021020208246003081CB50021CB
:101E9000009103460191034A0321034803F0A2FD88
:101EA0001CBD000099050208D05F03081CB5002185
:101EB000009103460191034A0421034803F092FD77
:101EC0001CBD0000B5060208006C020838B5456864
:101ED00004460146284610F0C6F900282BD0206899
:101EE000304A11280DD006DC0B2825D00E2833D01F
:101EF0000F2852D112E0282849D0B0F5107F4CD1DC
:101F000008E09268002A16D02146284601B0BDE8B4
:101F100030401047214628465268F7E7284603F02C
:101F200025FB0090406E0468684603F089FB002C96
:101F300001D02846A04738BD284603F017FB009083
:101F4000683003F069FA009803216C3003F072FAEC
:101F5000684603F075FB20E0E168486809680D29D0
:101F600002D0202913D105E0002810DD28461AF000
:101F700097FF06E0002804DD2846BDE838401AF047
:101F80008FBF2846BDE8384002211AF09FBFE068A5
:101F900018B90021284600F0EFF92046BDE8384086
:101FA00010F0C2BDD8020020F0B5044685B08069AB
:101FB000B4F90850668A0027CDE90265CDE900171B
:101FC0000490B4F90C00B4F91060C118B4F90A0017
:101FD000B4F90E50104433462A4600F007F805467F
:101FE000616800F0D2F905B02846F0BD2DE9F04F48
:101FF00085B01F46DDE911B4DDE90E5690468946ED
:10200000824604F04DFF16484C34CDE90204CDE978
:1020100000563B4642464946504610F0CDFC04006F
:1020200018D003F0A3FA10225946049010F0E8FAF1
:10203000049830220B493430FEF7DDFB094D04993A
:102040000C3D2868486604A803F0FAFA286841683D
:102050002046884706F0D8FC05B02046BDE8F08F42
:10206000CD1E0008E4020020F0B5044680688B49CC
:1020700089B051F82050606800287DD0052804D030
:1020800006287AD0122879D1AEE0E86900284FD02E
:1020900095E80E008DE80F0004F110010FC907F05C
:1020A000EDFA002655F8260005F02FFDA169E86934
:1020B0000A1A216901446069304404F0C5F8A16935
:1020C000E8690A1A21690144E069801B04F0BCF840
:1020D000E169E8690A1A616901442069304404F041
:1020E00089F9E169E8690A1A61690144A069801BFC
:1020F00004F080F9761C022ED4DBA86805F005FDFB
:10210000E069E9696669431A206942183144801C14
:10211000521E04F0DDF9E169E869A2690B1A6169F0
:102120000144101A401C921E04F0D2F9EE6913E02B
:102130005FF0000655F8260005F0E7FCE069831B18
:10214000A069821B606981192069304404F0F2F8AB
:10215000761C022EEEDB0226D5E90301CDE9000153
:102160006169E06908444310A069891C821B2069E9
:10217000304404F003F802E089E012E08AE0D5E997
:102180000501CDE90001E36960690121184401EB13
:102190006001A0699B1E821B2069304403F0EEFFA2
:1021A00078E0206803F0E2F90490206812F0D4F996
:1021B00040B1A06808B1002008E00498006F28B181
:1021C000012003E00498406F00B10220049901EB64
:1021D0008000C56E04A803F033FA00231A4628468F
:1021E000216803F03FFD55E0206803F0BFF904903B
:1021F000866EEEB3B0F95C70A168D1B3032942D00A
:102200005FF0000100EB8101406D0C6C05F0B8FC43
:10221000204605F07AFC05A804F01CFABDF814105D
:10222000A88B0144ADF81410BDF81810081AADF8C9
:102230001800BDF81600801CADF81600BDF81A0095
:10224000801EADF81A000498B0F96020B0F95E1055
:1022500005A805F007FB04A803F0F2F9022005F039
:10226000FBFC304603F082F93A4605A9079001E0ED
:102270000BE006E003F01CFE0DF11C0003F0E0F99A
:1022800008E00121BEE70221BCE704A8F6E72068C8
:1022900011F07AFD09B00020F0BD0000C4B60708B7
:1022A0002DE9FC4115460E46040022D004F0F8FD4D
:1022B000204603F05BF90190806E002798B103F08F
:1022C00055F90090FEF7F1F90446681E844200DDDE
:1022D0000446224630460099FEF706FA684603F0A7
:1022E000AFF9375500E0377001A803F0A9F906F0FF
:1022F0008BFBBDE8FC8138B505004FF000040DD024
:1023000004F0CEFD284603F031F90090408EC0F372
:102310000024684603F094F906F076FB204638BDA9
:1023200070B516460C46054619463046049A03F029
:1023300079FC024621462846BDE8704000F052B8BC
:1023400000294FF0100101D010F021B80FF072BF3A
:1023500038B50D4604000ED004F0A2FD204603F06F
:1023600005F900904565684603F06AF9204611F0CA
:10237000A1F906F049FB38BD4FF4807200291146DF
:1023800001D010F004B80FF055BF2DE9FF410E4603
:1023900005004FF0010421D004F082FD284603F02F
:1023A000E5F80190876E01A8009703F049F93146DE
:1023B000684607F019FD78B100980024B84208D0AB
:1023C000284603F0D3F801900099816601A803F034
:1023D00037F9284611F06EF906F016FB04B02046D6
:1023E000BDE8F081F8B515460C46060018D004F09B
:1023F00057FD304603F0BAF80090032C0BD200EBE7
:1024000084006C3003F008F8009800EB8400C56687
:10241000304611F04FF9684603F012F906F0F4FA6D
:10242000F8BDFEE770B50F4C0025C4F884510E4886
:10243000016821F0F0010160016841F030010160A4
:10244000052004F5C2741EF00FFE0848C0F8A45120
:1024500005201EF009FE0120206005201EF004FE6C
:10246000256070BD00802142041C01400080234291
:102470001348816941F008018161816941F080015F
:1024800081611048016821F0F0010160016841F0AC
:10249000300101600C48016821F0F0010160016821
:1024A00041F03001016007480C30016841F0020141
:1024B000016005480830016841F40071016070470F
:1024C00000100240000C0140041C014070B50F4C8C
:1024D0000026C4F884610E48016821F0F001016013
:1024E000016841F030010160052004F5C2741EF05E
:1024F000BBFD08480125C0F8A45105201EF0B4FD1D
:10250000256005201EF0B0FD266070BD00802142D0
:10251000041C0140008023422DE9F0478246184800
:102520000024016821F0F0010160016841F08001A0
:1025300001601E201EF098FD0025124EDFF8489025
:102540002F464FF00108C6F8847105201EF08CFD5F
:10255000C6F884816006040ED9F8240108B1641C11
:10256000E4B26D1CEDB2082DEDD3BAF1000F04D02A
:10257000FFF758FF2046BDE8F087FFF7A7FFF9E710
:10258000041C014000802142008023422DE9F047D5
:1025900005461548016821F0F0010160016841F02D
:1025A00030010160114E0027C6F8847105201EF02D
:1025B0005BFDDFF83C8000244FF00109E909C8F811
:1025C000A4116806050EC6F8849105201EF04CFD86
:1025D000C6F8847105201EF047FD641CE4B2082C87
:1025E000ECD3BDE8F0870000041C014000802142CC
:1025F0000080234270B50F48016821F0F0010160AE
:10260000016841F0300101600B4E0120C6F8A401C1
:102610000A4DC5F884011E2005F5C27506F5D2766F
:102620001EF022FD0024346005201EF01DFD2C60EC
:1026300070BD0000041C0140008023420080214244
:1026400070B50D48016821F0F0010160016841F0AA
:102650003001016009480125C0F884511E201EF098
:1026600003FD074C0020C4F8A401052004F5D27432
:102670001EF0FAFC256070BD041C01400080214260
:102680000080234270B512480024016821F0F00157
:102690000160016841F0800101600E4D0120C5F824
:1026A000A4010D4EC6F8840107E0641CE4B2FA2CC4
:1026B00003D9FFF7C5FF012070BD05201EF0D4FC33
:1026C000D5F824010028F0D1C6F8840170BD0000BF
:1026D000041C014000802342008021420348002264
:1026E00002604260472131200EF0F0BD90000020D2
:1026F0001CB510F08BFB0346002000900190054AAA
:102700001121054803F06EF90446012111F0ACFBDC
:1027100020461CBD190802081C3607081CB510F01D
:1027200075FB0346002000900190034A0A210348EC
:1027300003F058F91CBD000025090208B46902081D
:102740001CB510F063FB0346002000900190034A83
:102750000B21034803F046F91CBD0000510B020891
:10276000CC6A020870472DE9FC470E465FEA000973
:102770007FD004F095FB484602F0F8FE009090F8F8
:102780005470D0F85880456BC46C684602F058FF0E
:10279000B8F1000F04D0314648464246904761E008
:1027A000122E18D006DC082E43D0102E3CD0112E4D
:1027B00006D112E0132E21D01D2E43D01E2E3DD067
:1027C000202E4FDB17B1484614F040FCB1B248460A
:1027D00019F0CDFF60B3611C27E04DB3284602F02D
:1027E000C5FE05462146019005F0FCFF4419204630
:1027F00005F0A6FF01462346012210E0C5B1284698
:1028000002F0B4FE05462146019005F0EBFF4419A5
:10281000204605F095FF014623464FF0FF3248461B
:1028200012F0C2FD01A81BE0611E484600F0BEF98F
:1028300018E0BCB1611E484600F0B8F9484614F0F3
:1028400005FC0FE0484602F091FE0090012F12D0E7
:10285000012180F854102146484600F0A7F9684647
:1028600002F0EEFE484610F025FF00E001E006F021
:10287000CBF8BDE8FC87002180F85410EFE77CB569
:1028800045680446284611F067FE0646214628465C
:102890000FF0E9FC002844D020680F283DD004DC6C
:1028A0000B283FD00E2860D147E0A0F58070133888
:1028B00004D0A0F580702D3857D11DE0284611F0C6
:1028C000EFF8284602F052FE009010F8561F81F0F3
:1028D00004010170684602F0B3FE002128461BF097
:1028E000C1F9284602F042FE0090D0F88400002191
:1028F00011F09DF868461DE0E06860B1017A29B1E9
:102900000168284600F0DEF8012100E00221284697
:1029100010F0D5FF29E00321F9E7012128461BF03B
:10292000A1F97CBD284602F021FE0190343002F06E
:1029300073FD01A802F084FE17E0B6B1E0684168BB
:10294000002912DD01681B290FD006DC09290CD0F3
:102950000A290AD00D2904D107E0212905D022290E
:1029600003D02846FFF7FFFE7CBD204610F0DCF8C0
:102970007CBDF0B587B004460DF1080CD4E90567BD
:10298000B0F90850408A8CE8E1000020CDE9001041
:10299000B4F90C00B4F91060C118B4F90A00B4F924
:1029A0000E50104433462A4600F008F8050002D0C5
:1029B000618A00F0E6F807B02846F0BD2DE9F04F37
:1029C00085B01F46DDE91254DDE90E6A904689465E
:1029D000834604F065FA0DF1040C4AF480501F4957
:1029E000603400968CE813003B4642464946584600
:1029F0000FF0E2FF04002AD002F0B8FD102204908C
:102A000011990FF0FDFD0498242215496030FDF75F
:102A1000F2FE049A012082F85500681C00D00120C3
:102A200082F88800002D00DC08252DB215870020D3
:102A30005087506304A86D1C02F002FE2946204610
:102A400019F049FB18B9204610F0A6F8002405F04B
:102A5000DBFF05B02046BDE8F08F00007F280008AE
:102A6000140300202DE9FC4115460E00044627D032
:102A7000002C25D004F014FA204602F077FD002740
:102A800001903770406BB0B102F070FD009006F01D
:102A9000EDFF0146009805F0A5FE0446681E84423D
:102AA00000DD0446224630460099FDF71DFE6846CB
:102AB00002F0C6FD375501A802F0C2FD05F0A4FFE3
:102AC000BDE8FC812DE9F04186B00C46060055D0EA
:102AD00004F0E6F9304602F049FD0090406B98B3EF
:102AE00002F044FD03900098806E05F049F880469E
:102AF000304610F011FB0746039803F01AFE054616
:102B0000009890F8601001F00301012916D0022905
:102B10000DD0416EC06A00680844241A641E0398F0
:102B200006F0A4FF0146002C0FDA002115E0781B07
:102B3000401C00EBD070A4EB6004F0E7406E791B02
:102B4000081A241A641CEAE713E0AC4205DC0246CA
:102B50002146039806F02AFF0146304600F026F889
:102B600003A802F06DFD404605F00AF8304610F06B
:102B7000A1FD684602F064FD05F046FF06B0BDE821
:102B8000F08138B50C4605000FD004F089F92846CD
:102B900002F0ECFC009018B10466284610F08AFDA3
:102BA000684602F04DFD05F02FFF38BD1CB50C4600
:102BB00002F0DCFC0090406BF0B102F0D7FC019019
:102BC00006F054FF009991F8542002B10122002C24
:102BD00000DA0024844200DD0446B1F93800801A8E
:102BE000A04200DA0446C86CA04200D0CC640020A9
:102BF000086501A802F024FD684602F021FD1CBD15
:102C000070B505464FF43026304600F059F80428D8
:102C100011D1094C206940F00200206165612069F2
:102C200040F040002061304600F04AF8216941F64A
:102C3000FD721140216170BD00200240084904204E
:102C4000CA68D20701D001207047CA68520701D56F
:102C500002207047C968C906FBD5032070470000F1
:102C6000002002400248016941F080010161704783
:102C700000200240F0B506464FF400570D46384696
:102C800000F01EF804280CD1064C206940F0010029
:102C900020613580384600F013F82169BA1E1140D2
:102CA0002161F0BD00200240034802494160034910
:102CB000416070472301674500200240AB89EFCD9A
:102CC00000B50346FFF7BAFF02E0FFF7B7FF5B1E50
:102CD000012803D0002B00D1052000BD002BF4D12A
:102CE000FAE72DE9F047044640688EB00027804699
:102CF00002F03CFC0090B0F87CA0D0F86890D0F8CE
:102D00008060D0F88850C06D00B10768684602F056
:102D100097FC05E0696820468847002843D12D6864
:102D2000002DF7D12068172853D00CDC0F283DD098
:102D300004DC0B2877D00D2825D18BE0112810D08A
:102D4000142820D13BE0262846D004DC1E2851D090
:102D5000202818D18AE02A2816D0B0F5107F12D189
:102D600028E04046E56802F001FC0290697A39B932
:102D7000297A012904D130F87C1F41F48071018047
:102D800002A802F05DFC75E0404602F0EFFB009007
:102D9000E16811B1C0F8841002E0D0F88400E0606E
:102DA000684602F04DFC0EB0BDE8F087D7B3404650
:102DB000B8475FE0214640461AF09CFDF3E705A9BD
:102DC000404600F093FBE068069901600799416076
:102DD000E9E7C4F80C90E6E7E0680228E3D1CDF813
:102DE0003080E0680D9027200A900AA9A06811F0B1
:102DF000C3FDD8E7E068012804D00021404600F078
:102E0000DDFAD0E7304610F0D0FC68B1304610F063
:102E100035FF304610F07AFB98B1012130460FF0B3
:102E2000B6FA0EE026E02FE0484610F07BFF06469B
:102E3000404602F09BFB0090C0F88060684602F0BC
:102E4000FFFB0121404600F0B9FA002EABD1002073
:102E5000E060A8E75FEA0A700CD4E068C06848B197
:102E6000007A38B1404610F009FF03E021464046A1
:102E70001AF049F8214640460FF0F5F9002892D0A3
:102E800020460FF051FE8EE7404602F06FFB0090A7
:102E9000703002F0C1FA684673E7F0B587B0B0F958
:102EA00008400DF10C0C0C9E876945688CE8F00019
:102EB000448A0025CDE900150294B0F90C10B0F950
:102EC0001050B0F90E40B0F90A00194410442B46D6
:102ED000224600F003F807B0F0BD00002DE9F04FE6
:102EE0008BB09846DDE9155691468A468346149F75
:102EF0001A9C03F0D5FF3348603445F48055CDE982
:102F00000204CDE9007543464A46514658460FF043
:102F100053FD04004FD002F029FB30220490179992
:102F20000FF06EFB0498282227493430FDF763FC2C
:102F300004981999244F4166A0F87C600026C0F8D7
:102F40008060C666083FC0F888607968C16504A8DB
:102F500002F076FB05A9204600F0C8FA1B4841F2B2
:102F6000827103960094CDE90110BDF91E00BDF9F0
:102F70001A10BDF91C20431ABDF918005B1C121A67
:102F8000521C0FF019FD06467868416820468847B4
:102F9000204602F0EBFA0490866604A802F050FB8B
:102FA00042F20400054202D120460FF090FE204676
:102FB000189900F05FFA05F027FD0BB02046BDE838
:102FC000F08F0000E32C000840030020F5370008D4
:102FD0002DE9F041044694B0006800F0B7F908B15B
:102FE000D94D01E0D84D2C35606815281ED00CDC79
:102FF0000B281FD004DC00287ED005287DD12FE1CE
:103000000E287BD01228F9D141E1162806D01728C6
:1030100008D0182808D01C28F0D109E0E86914B0BD
:10302000BDE8F081286AFAE7686AF8E7A86AF6E777
:103030006869F4E720680B901C200C90206802F06F
:1030400095FA0390016D0BA88847064603A802F085
:10305000F7FA022E0FDB95E807008DE80700D4E9A8
:1030600004023346A16906F0CFFA20698719A069E6
:10307000A0EB06082CE0286804F047FD2169E86908
:103080000A18521E606903F0DFF8A269E869111A94
:10309000491C606903F0D8F8D4E904077F1C39465D
:1030A00003F022F93946A06903F01EF9686804F0BC
:1030B0002CFD20693946401C03F016F9A0693946F9
:1030C000401E03F011F9A0692769A0F10208BF1C96
:1030D000286804F01AFD42463946606903F0B4F8E6
:1030E000686804F012FD606942463946401C03F0EE
:1030F000ABF8686A022802E015E1B0E000E10BDD00
:10310000A86804F002FD61696A6A881C8B18014690
:10311000424638465B1E27E0296AB14226DD6069D7
:10312000022E074600F1020801DB374401E007F1F7
:103130000207206901DB304401E000F1020022694E
:103140003B460A444146A2F1010203F0C1F9022EB6
:1031500002DBA069821B01E0A269921EA069E969F5
:103160003B46401A4146401C03F0B2F9022E02DBF6
:103170006069064401E06669B61CE76928687F1E3D
:1031800004F0C3FC3A463146206903F033F93A466D
:103190003146A06903F02EF9E7696868BF1E04F0A4
:1031A000B4FC20693A463146401C03F023F9A0697B
:1031B0003A463146401E03F01DF9E869022802DC58
:1031C000286A022823DDA86A022802DDE1690F1AB5
:1031D00001E0E769BF1EA86804F097FCE9690229CD
:1031E00009DD20693B46421800F1020C3146604679
:1031F000521E03F06DF9286A022808DDA269E86909
:103200003B46101A3146401C921E03F061F92868B3
:1032100004F07BFCD4E90620216903F015F8686806
:1032200004F073FCD4E906202169401E491C521E9B
:1032300003F00AF8A86A022811DDA1692669E46989
:10324000A1F10208271AA41EB61C7F1CA86804F06E
:103250005CFC234642463946304603F039F971E0BA
:10326000208A00B2ADF81400A18A09B2ADF8161098
:10327000228B12B2ADF81820A38B1BB2ADF81A3016
:103280002C69ED68CDE9005402F078FF5AE0208AFD
:10329000298B0844ADF81400A08AADF81600208BE5
:1032A000298B401AADF81800A08BADF81A002068E1
:1032B00002F05CF90390006FF0B1022004F0CCFC46
:1032C000039890F87C10C1F3C00100EB8100006C02
:1032D00004F01BFC0398406B04F052FC0398006F51
:1032E00002F044F903990990B1F95A2005A902F0B6
:1032F000DFFD09A802F0A4F903A802F0A1F921E07A
:10330000208AADF81400A08AADF81600208BADF825
:103310001800A08BADF81A00A86804F0F6FB05A809
:1033200003F002F90EE0206802F020F9039030F873
:103330005A1F41F00C01018003A802F081F92068B6
:1033400010F022FD00206AE65C06002038B505007A
:103350004FF000040FD003F0A3FD284602F006F959
:10336000009090F87C00000700D50124684602F028
:1033700067F905F049FB204638BDF8B50E46050053
:103380004FF0000411D003F08BFD284602F0EEF858
:103390000090C06D31468068026828469047044618
:1033A000684602F04DF905F02FFB2046F8BD0000FD
:1033B00001480068704700004003002070B50D46CA
:1033C000040009D003F06CFD294620461BF0E2FB07
:1033D000BDE8704005F018BB70BD38B50C4605005F
:1033E00011D003F05DFD284602F0C0F80090816C1A
:1033F000A14203D08464806E10F05CF9684602F04C
:103400001FF905F001FB38BD2DE9FC410D46804652
:1034100003F046FDB8F1000028D002F0A7F80190B3
:10342000C16D8C6800F0C9F807460198456301A892
:1034300002F006F9226801214046904706462268BC
:1034400003214046904705462268002140469047A8
:103450000446404600F097F92B463246394640462E
:10346000009400F020F9404610F024F905F0CCFA61
:10347000BDE8FC817CB50D4604001DD003F010FDB5
:10348000204602F073F80090006F0190684602F049
:10349000D7F8294601A806F0A7FC58B1204602F04B
:1034A00065F8009001990167684602F0C9F8204666
:1034B00010F000F905F0A8FA7CBD38B50C460500FF
:1034C00013D003F0EDFC284602F050F80090B0F95C
:1034D0005A10A14204D0A0F85A40284610F0EAF849
:1034E000684602F0ADF805F08FFA38BD2DE9F34FCC
:1034F00085B000270C46B846059802F037F80090D2
:10350000C06D0121856805982A68904782462A681F
:1035100003210598904704902A6802210598904756
:1035200003902A680021059890470646009810F0FD
:1035300090FE8346009810F093FE8146009890F824
:103540003210890601D5B0F9588000F036F80546EA
:103550000098C06E10B10FF0F6FD07462580678019
:10356000A4F804A0049AABEB020006EB0802401E8C
:103570002A4420813A44E280039BA9EB0302521EB5
:103580006281A4F80CA020827019E681401E60823E
:10359000684602F055F8B4F90C000190B4F9100037
:1035A000029002AA01A9059800F03AF80198A081BA
:1035B0000298208207B0BDE8F08F10B501460020C8
:1035C00091F83220920607D5B1F95400002803D1B2
:1035D000486B03F01FF9801C10BD70B58AB00C4613
:1035E000054601F0C3FF0990C06D866809A802F086
:1035F00027F8009534B1012C06D0022C0BD0032CF7
:1036000004D10AE0182000E0162001907168684695
:1036100088470AB070BD1520F7E71720F5E70000CE
:103620002DE9FC4117468846044601F09FFF0090B3
:10363000C16D056868468E6802F002F832680021A4
:1036400020469047064620460FF007FC27E000BFC3
:1036500001F08CFF0190B0F900102AB2B0F90430EB
:10366000891A9A1AB0F90230A3EB2543B34210D15C
:1036700090F82800000605D53868884209DB491E05
:10368000396006E0D8F80000904202DC521CC8F80D
:10369000002001A801F0D4FF20460FF083FC0400B5
:1036A000D6D1BDE8FC812DE9FF4F83B00E46074619
:1036B000DDF8409001F05AFF0190C16D8D68FFF771
:1036C0007CFF044601A801F0BBFF2A6801213846AF
:1036D000904783462A6803213846904782462A68E5
:1036E0000021384690470546B44207D105998B45DD
:1036F00004D106998A4501D14D4541D0A41B00262D
:10370000B04638460FF0A9FB38E001F02FFF0090DB
:10371000806A010601D5800502E0810528D50006F2
:10372000002825DB24B122461146384610F005F961
:10373000009890F8280000060AD50698A5EB090223
:10374000A0EB0A0004FB16013846761C10F0A8F81E
:103750000098008D80050BD50599A5EB0902ABEB10
:10376000010004FB080108F10108384610F098F840
:10377000684601F065FF38460FF014FC0700C4D11D
:1037800007B0BDE8F08F70B586B0064601F0EEFEDA
:103790000590D0E91A4505A801F052FF54EA05004A
:1037A00026D069463046FFF7A1FEACB1BDF9062030
:1037B000BDF90410204610F037F8BDF90A00BDF934
:1037C0000610421ABDF90800BDF90410521C411A36
:1037D0002046491C10F024FB002D09D0BDF906003D
:1037E000BDF90210421ABDF90410284610F01CF869
:1037F00006B070BD2DE9F0430446406889B0054627
:103800000FF0EEFB814601F0B1FE0290D0F8488047
:10381000D0F88070466E02A801F012FF20681728C9
:1038200053D008DC0E283AD00F2811D014284CD0E1
:1038300015283DD149E01E281ED01F282AD0222855
:1038400040D0312834D10020E06009B0BDE8F083D9
:103850006FF070414046884503D008F06BF802F0E5
:1038600075F8002EF1D0D4E902122068CDE90405E4
:10387000CDE9061204A81FE0E0680028E5D02FB1CA
:10388000AF4203D0384610F0F9F9DEE7284610F0D1
:1038900049FADAE7214648460EF0E5FCD5E7E0684C
:1038A0004168002904DD00680928EFD00A2805D006
:1038B0005EB12046C4F80490B047C6E7284610F031
:1038C00040FAC2E7C4F80C80BFE720460FF02CF99D
:1038D000BBE700008000A0F1C0400029016802D0D1
:1038E00041F0010101E0024A11400160704700000F
:1038F000FEFF0F0010B5D0E901121143D0E90323F8
:103900001A4311434269114382691143C269114349
:10391000026A1143426A1143826A1143C26A114327
:10392000026B114302689200A2F1C04211608168EB
:10393000082907D101688900A1F1C0410A6842F055
:1039400040020A60416BD1E9002342EA03128B680E
:103950008C891B0243EA04431A430B8A42EA03524E
:103960000B7D896942EA03620A4301688900A1F17B
:10397000C0414A60C16AB1F5804F08D000686FF05D
:1039800070418000A0F1C040C0F8041110BD816BEF
:10399000D1E9002342EA03128B680C8A1B0243EA36
:1039A00004531A430B7D896942EA036200680A43A3
:1039B0008000A0F1C040C0F8042110BD3A48416920
:1039C00041F480714161816941F020018161816927
:1039D00041F040018161816941F08001816181692B
:1039E00041F4807181613148016800210160026801
:1039F00042F0BB320260001F026802F0FF22026048
:103A0000026842F0BB120260294802680160026845
:103A100042F0BB320260001F0268264B1A4002606F
:103A20000268254B1A4302602448026892B2026081
:103A30000268234B1A430260001F026802F07F42B3
:103A4000026003681F4A134303601F48436823F45E
:103A500070634360436843F430634360036803F07A
:103A60007F4303600368134303604FF0204001610C
:103A70004161C0F81411016941F48051016101698B
:103A800041F010010161416941F4407141614169B6
:103A90004161416941616FF07041C0F814110169E1
:103AA00041F001010161704700100240041401401F
:103AB0000418014000FFFF0FBB0000B0041C0140D0
:103AC0000000BBBBBBBBBB000020014038B52B488E
:103AD000816941F0800181612948016821F47F41B9
:103AE0000160016841F460510160254808300168B7
:103AF00041F440610160FEF7BBFC224D0024C5F893
:103B0000AC41142005F5D6751DF092FA012028600D
:103B100032201DF08DFA8DF8004001226946002008
:103B200000F0FEF801226946A42000F0F9F8162002
:103B30008DF8000001226946802000F0F1F80C2089
:103B40008DF8000001226946882000F0E9F8022281
:103B50006946A12000F01EF89DF80000302803D12E
:103B60009DF80100032801D0012038BD43F2030174
:103B700005A0FCF7DBFB002038BD00000010024070
:103B8000041C0140008023424354502049443A25FC
:103B9000780D0A002DE9F04115460F460446FEF760
:103BA00029FD7020FEF7F2FCFEF76CFDE0B2FEF797
:103BB000EDFCFEF767FDFEF71DFD7120FEF7E6FC4C
:103BC000FEF760FD00246E1E09E0B44201D0012022
:103BD00000E00020FEF7A0FC3855641CE4B2AC42C3
:103BE000F3D3BDE8F041FEF72BBD00002DE9F14312
:103BF000484F00244FF00A09387882B0401CC0B208
:103C0000B0FBF9F209FB1201434DA046387009B12F
:103C10000A2863D2012202A90220FFF7BBFF9DF808
:103C2000080001075AD000F00F00062856D2FF21E5
:103C30008140C84340F0C00085F820004FF00108E3
:103C4000002695F8201008FA04F0014239D03348D4
:103C50000422694630F81400FFF79CFF95F8300005
:103C60009DF80010C0079DF8010001F00F010ED073
:103C700000EB012105EB4400C1829DF802209DF874
:103C8000031002F00F0201EB022181810FE000EB33
:103C90000120C0F5F07105EB440081819DF8022000
:103CA0009DF8031002F00F0201EB0221C1829DF882
:103CB00000000821B1EB101F03D005EB4400C682C1
:103CC0008681641CE4B2052CBBD3A9894FF001089E
:103CD00019B9E88A08B98DF808603E709DF80800A7
:103CE000C0060ED195F82000010602D520F0800014
:103CF00005E04FF6FF71A981E98200F0E00085F848
:103D000020003878F02801D987F800904046BDE8B7
:103D1000FE8300004E000020580000208C6802083E
:103D20002DE9F04115460E4604460027FEF762FCD9
:103D30007020FEF72BFCFEF7A5FCE0B2FEF726FC98
:103D4000FEF7A0FC002408E0305DFEF71FFCFEF744
:103D500099FC070003D1641CE4B2AC42F4D3FEF733
:103D60006FFC3846BDE8F0812DE9F0430446C56894
:103D700087B090468946002003F0F5FE064625B13F
:103D8000287910B146F0020001E026F0020003F0AD
:103D9000EAFE2069012558B1D4E902128DE8260017
:103DA000039563882288046841464846A0471EE080
:103DB000124F134B214638681B68427CE0689847D5
:103DC00030B9E088012801D0002001E03868806B1C
:103DD000A288E388A1680095CDE90410CDE90232FC
:103DE0000195638822884146484606F081FE07B067
:103DF0003046BDE8F04303F0B6BE000030020020BC
:103E0000280200201CB50024019401AC009400F0AD
:103E1000E7F81CBD2DE9FF4F83B0814606988A461E
:103E2000A0EB0A08109E00200090A2EB0904356860
:103E3000934654EA080018D02046FDF7CCFF074609
:103E40004046FDF7C8FF87420BDA204644468046CD
:103E50004846D14682465846DDF818B00690012003
:103E60000090002C07DD204606E007B04846BDE87C
:103E7000F04F00F03BB96042A0420AD04846D94614
:103E80006442C8F1000883464FF0FF37DDF818A000
:103E900000E001275148B8F1000F11D004EBD471B4
:103EA0004FEA610B01DACBF1000B4C480068807ED1
:103EB00088B3002F02DA30682044306000257BE0B0
:103EC00000990029016821D0897E11B10027804620
:103ED00015E007B05A4649465046BDE8F04F06F097
:103EE000C3BF28466D1C1AF031FF38B9D8F800005E
:103EF00009EB0701406E4268504690477F1CA7427D
:103F0000EFDD6D1E356007B0BDE8F08F8A7E1AB117
:103F10000027804617E019E0486E5A46514603686C
:103F200007B04846BDE8F04F184728466D1C1AF008
:103F30000DFF38B9D8F8001009EB0700496E4A6840
:103F4000514690477F1CA742EFDDDAE700250FE0DE
:103F500008FB05B090FBF4F101EB0A00009951B1A8
:103F60001E4A09EB05011268526E526890476D1C9B
:103F7000A542EDDDC7E7194909EB05030968496E5C
:103F80004A6801461846F1E708FB05B090FBF4F1DA
:103F900001EB0A0001903068384430601AF0D6FE18
:103FA00048B9009890B10D4809EB05010068406ED2
:103FB0004268019890476D1CA542E5DD3068002FEE
:103FC00001DA20443060C01B30609CE7034909EBF4
:103FD00005000968496E4A680199EBE73002002044
:103FE0002DE9FF470F4640491646804609680C9860
:103FF0001D460A7E012A1CD0A8EB0600791B50EA58
:1040000001031CD0A2F101091CF0F2F900F5806057
:10401000824605F0D8FF00FB09F4504605F0D8FFB2
:1040200000FB09F1002C0CDAC4F50070801240424C
:104030000AE00090324639464046FFF7EBFEBDE805
:10404000FF8704F50074A012002904DAC1F500719D
:1040500089124C4202E001F500718C12002804DD47
:10406000411C01EBD171491003E000EBD071491004
:10407000401E00EBD0704210002C04DD601C00EBF1
:10408000D070401003E004EBD4704010641E04EBC9
:10409000D47308EB0104ADF800403C18ADF80240C1
:1040A000A8EB02045B10B21AADF80440ADF808208A
:1040B0003144FC1AEA1AADF80C102844ADF80A2075
:1040C000ADF80E000023ADF806401A4604216846FC
:1040D00000F08CF83946404616F00EF82946304676
:1040E00016F00AF8ABE7000030020020064A136819
:1040F0001A7E012A05D0521E02EBD272521000F035
:1041000005B85A6E52681047300200202DE9F05F62
:104110000646884640F2C32002FB00F14FF47A7055
:1041200091FBF0F702FB02F102EBD27001EB600BA6
:104130001446B118234A301B7F1C1268526E136854
:104140000A4641469847012538E000BF05FB05F0C7
:1041500004FB040159451CDDBC4219DD194B06EB7B
:10416000050AA6EB05091B68AAF1010208EB040188
:104170005B6E09F101001B689847124BAAF101021E
:10418000A8EB04011B6809F101005B6E1B689847EE
:10419000641E0C4B3219301B1B68924608EB05015C
:1041A0005B6E81461B689847064B5246A8EB05019B
:1041B0001B6848465B6E1B6898476D1CBD42C5DD99
:1041C000BDE8F09F3002002070B514460E4605464B
:1041D0000119001B01F09CF822463146284616F0D2
:1041E000B9FABDE8704000F0E7BF00002DE9FF4FCD
:1041F00043F6FF740F46664283B09B46814600211A
:104200000BE000BF09EB8100B0F90200A04200DA28
:104210000446B04200DD0646491CB942F2DB67485D
:104220000068406900280DD0B0F906101A46A1EBCD
:104230000B01B14200DA0E46B0F90200801AA0422A
:1042400000DD0446B4E0DFF878A100200546CAF896
:10425000000088E0781E854201DA6B1C00E0002334
:1042600009EB850C09EB8302BCF90200B2F90210DC
:10427000A04244D1A14215D139F92330059A39F928
:10428000251003EB020C4D4A05981268084404EB14
:104290000B01526E6045136801DA62462AE002465D
:1042A000604627E02846A4464FF000087A1E0BE03F
:1042B00008B1401E00E0781E09EB8003B3F902301C
:1042C000634504D108F101089045F1DB2346A34280
:1042D00048D01A1B39F92500A1EB040C059B92EA82
:1042E0000C0F09D4354A184404EB0B011268526EC6
:1042F00013680246984735E010F034FC32E0A142E2
:1043000030D001DBA04203DDA0422BDBA14229DC3F
:10431000E04688420ADC0346A04223DC0846A1426C
:1043200020DBB8F900C0B2F9001008E00B46A1424A
:1043300018DCA04216DBB2F900C0B8F90010E21A8E
:10434000A1EB0C0151430029A0EB030202DD01EBBC
:10435000620102E0A1EB6201491CC01A91FBF0F07E
:104360006044C9E76D1CBD42FFF674AF059800902C
:1043700004EB0B00019000208046054613E0114934
:10438000B8F1000F31F915A009D0009901EB0A022C
:1043900008440A490968496E0B680199984788F0F2
:1043A000010850466D1C064909688D42E7DB641C14
:1043B000B4427FF748AF07B0BDE8F08F300200206D
:1043C0006C07002078BB002010B5002003F092FBA2
:1043D0006FF07F4003F099FB012003F01FFC0020E9
:1043E00003F02AFC002003F037FC002003F0BBFBA5
:1043F0000448006803F0C4FBBDE81040002003F04F
:10440000DFBB00002C020020F0B5CC78002204F0C5
:104410000F03E40601D58C7823430C784FF00F0C82
:1044200014F0FF0F4FF0010E1BD005680E880EFA36
:1044300002F42640A64210D196000CFA06F725EAAF
:10444000070703FA06F5CE783D43282E02D0482E02
:1044500002D002E0446100E00461521C082AE5D366
:1044600005600A88FF2A1CD94468002202F1080668
:104470000EFA06F50E882E40AE420ED196000CFACA
:1044800006F7BC4303FA06F7CE783C43282E00D14A
:104490004561CE78482E00D10561521C082AE5D32B
:1044A0004460F0BDF0B5144C002801DAE36900E087
:1044B0006368450D2E0185B2C0F30157B540C0F3C6
:1044C0000342032F05D0C6020AD503269640B34304
:1044D00007E023F07062636823F07063636002E0BA
:1044E000AB4343F0706201B12A43002801DAE26174
:1044F000F0BD6260F0BD00000000014002460020F7
:1045000092680A4200D0012070470161704733B5BC
:1045100083B004001BD002F0C3FC204601F026F853
:104520000190456E01A801F08BF8049801F01EF887
:1045300000908460684601F083F8042204A92846AC
:1045400001F0A2F820460FF0B5F804F05DFA05B0CE
:1045500030BD33B583B004001BD002F0A1FC20466F
:1045600001F004F80190856E01A801F069F8049843
:1045700000F0FCFF00908460684601F061F80422BE
:1045800004A9284601F080F820460FF093F804F0C3
:104590003BFA05B030BD2DE9F04104460025D4E9D1
:1045A0000007B0F5407F00D10125214638460DF0C7
:1045B0005AFE064615B1384618F06BFB002E2FD078
:1045C0002068052806D00B280ED00F2806D02628F4
:1045D00021D10EE0384618F05CFB1CE03846E1685B
:1045E000BDE8F04118F014BE3846BDE8F04118F0BF
:1045F000B9BCE06805280ED138460EF02BFDA16845
:10460000884205D038460EF015FDA168884202D1D7
:10461000606819F01FF92046BDE8F0410EF084BA39
:10462000BDE8F081F0B585B0B0F90850468A8469DC
:104630000296CDE903540027CDE90017B0F90C101C
:10464000B0F91050B0F90E40B0F90A001944104406
:104650002B46224600F002F805B0F0BD2DE9F04FE0
:1046600085B09846DDE90E5691468A468346109FEE
:10467000129C02F015FC18486C34CDE90204CDE917
:10468000005643464A46514658460EF095F90400F6
:104690001BD001F036F8054601F033F806462046F7
:1046A00000F064FF0490C0E91956002211990DF042
:1046B000A7FF0498302209493430FCF79CF804988D
:1046C000A0F8787004A800F0BBFF04F09DF905B0D5
:1046D0002046BDE8F08F00009745000868030020E1
:1046E00013B582B0044602F0DBFB204600F03EFF2B
:1046F000009060B1406A00F039FF0146019002234A
:1047000003AA009800F075F901A800F099FF684627
:1047100000F096FF04F078F91FBD00002DE9F0438A
:1047200085B01D4690460F46814602F0B9FB2C200D
:1047300000F029FE060024D0780000F024FE0400DA
:104740000ED0B8F1000F0BD055B1204600F00EFF8F
:104750006A0041460090FBF7C7FF684600F070FF13
:10476000304600F003FF0A49029000F10C02446257
:1047700082E8A202074901600749416002A800F0EF
:104780005FFF04F041F905B03046BDE8F08300005A
:10479000A5C80108BBD30108F5CF010838B50C4600
:1047A000054602F07DFB284600F0E0FE009040B197
:1047B00090F82910A14204D080F8294080680EF0BA
:1047C00079FF684600F03CFF04F01EF938BD38B5AB
:1047D0000C46054602F064FB284600F0C7FE009038
:1047E00040B190F82810A14204D080F82840806899
:1047F0000EF060FF684600F023FF04F005F938BDB5
:104800002DE9F843984615460E46074602F048FB48
:10481000302000F0B8FD040014D000F0A7FE009096
:10482000C0E9057685840A4A4FF07E51C0F81C80A5
:104830008162D2E90012C0E90312064901606846AC
:1048400000F0FEFE04F0E0F82046BDE8F88300002A
:104850009803002093D40108F8B50D4606004FF0E8
:10486000000415D002F01CFB304600F07FFE0090E3
:10487000806A294604461FF0B5FE04D00098856280
:1048800080680EF017FF684600F0DAFE04F0BCF80E
:104890002046F8BDF8B50D4606004FF0000411D0D3
:1048A00002F0FEFA304600F061FE00900469AC426E
:1048B00003D0056180680EF0FDFE684600F0C0FE82
:1048C00004F0A2F82046F8BDF8B50D4606004FF0FA
:1048D000000411D002F0E4FA304600F047FE0090E8
:1048E000C468AC4203D0C56080680EF0E3FE684641
:1048F00000F0A6FE04F088F82046F8BD2DE9F84344
:104900001D46DDF8208016460F46040015D002F043
:10491000C7FA204600F02AFE0090C0F86080476584
:10492000C0E91665684600F08BFE204618F0B1F924
:1049300020460EF0BFFE04F067F8BDE8F883F8B536
:104940000D4606004FF0000411D002F0A9FA3046DF
:1049500000F00CFE0090846CAC4203D085643046BD
:104960000EF0A8FE684600F06BFE04F04DF82046FD
:10497000F8BDF8B50D4606004FF000041BD002F05C
:104980008FFA304600F0F2FD0090B0F8781011F088
:10499000010403D055B921F0010102E035B141F025
:1049A0000101A0F8781030460EF084FE684600F051
:1049B00047FE04F029F82046F8BDF8B50D4606007C
:1049C0004FF0000413D002F06BFA304600F0CEFD39
:1049D000009090F86C40AC4204D080F86C503046A7
:1049E0000EF068FE684600F02BFE04F00DF820463D
:1049F000F8BD2DE9F041044680681D4617460E4675
:104A0000002826D0D4E9040290420ED1521E6A43F7
:104A100071193046FBF7ADFE20692A46401E05FBA2
:104A200000603946FBF7A5FE0EE005FB0013401CB5
:104A300020612A4639461846FBF79BFEE16819B10A
:104A40002046BDE8F0410847A068BDE8F04100F00D
:104A500002B8BDE8F08110B58AB0044600F086FDCA
:104A600009A904AACDE9002105AB089006AA07A967
:104A700016F047FE08A800F0E3FD02A920460EF05C
:104A80003FFABDF8080007990844ADF80800BDF8E2
:104A90000A0006990844ADF80A00BDF80C00059913
:104AA000401AADF80C00BDF80E000499401AADF89C
:104AB0000E0002A920460EF0BDFD0AB010BD000098
:104AC0002DE9FC413548816941F080018161344C18
:104AD000206820F47F402060206840F4605020600F
:104AE0002F4D0835286840F440602860FDF7C0FC71
:104AF0002C4F0026C7F8AC610A2007F5D6771CF0CA
:104B000097FA012038600A201CF092FA206820F4FD
:104B100070602060206840F400602060286820F405
:104B20008060286064201CF083FA0422694648F201
:104B3000401000F04DF88DF8046069461AA0FBF7AC
:104B4000F5FB1CA16846FBF7B7FE10B10120BDE8DC
:104B5000FC8102208DF8000048F2400401226946E1
:104B6000204600F04BF901226946E01D00F030F8C4
:104B70009DF80010602905D210A0FBF7D7FB01209B
:104B800000F016F90A201CF053FA8DF8006001229B
:104B90006946204600F032F90020D8E700100240B4
:104BA000041C0140008023424354502049443A25CC
:104BB000730D0A0039313437000000004465666126
:104BC000756C74205665723A25640D0A0000000069
:104BD0002DE9F04115460F460446FDF70BFD282050
:104BE000FDF7D4FCFDF74EFD200AFDF7CFFCFDF7E5
:104BF00049FDE0B2FDF7CAFCFDF744FDFDF7FAFC04
:104C00002920FDF7C3FCFDF73DFD00246E1E09E0E1
:104C1000B44201D0012000E00020FDF77DFC3855B2
:104C2000641CE4B2AC42F3D3BDE8F041FDF708BD2B
:104C30002DE9F1475A4D00244FF00A0A287883B035
:104C4000401CC0B2B0FBFAF20AFB1201554EA0465E
:104C5000287009B10A2879D248F24E19012203A915
:104C60004846FFF7B5FF9DF80C004FF0000701061E
:104C700003D500F00F01062901D3800606D58DF873
:104C80000470012201A9484600F0B8F89DF80C0014
:104C900001075BD000F00F01062957D2FF208840A2
:104CA0008DF80400C04396F8209040F0C00086F8CC
:104CB0002000B089B082F08AF0834FF0010896F8A6
:104CC000201008FA04F0014225D037480422694632
:104CD00030F81400FFF77CFF96F830009DF80110C3
:104CE000C0079DF8000000EB012106EB44000AD04C
:104CF000C1829DF802109DF8032001EB0221C1F54D
:104D00004871818107E081819DF802109DF80320A0
:104D100001EB0221C182641CE4B2052CCFD32349EC
:104D2000B2894FF001080B8830469A4203D8C28AF4
:104D300049888A4209D99DF80C1001F00F01012918
:104D40000BD9C1898181018BF1822F709DF80C00F4
:104D500000F08F0080280AD018E0818A8181C18B01
:104D6000C18280218DF80C1086F82090EEE796F82D
:104D70002000010602D520F0800005E04FF6FF710B
:104D8000B181F18200F0E00086F820002878F02858
:104D900001D985F800A004B04046BDE8F0870000C6
:104DA0004F000020580000204E690208F007002044
:104DB00008B500218DF800108DF801000E489DF80F
:104DC0000020435C491C1A44C9B28DF80020B82960
:104DD000F5D3D0B2C043401C8DF80000B82206497C
:104DE00048F2470000F00AF80222694648F2FF0044
:104DF00000F004F8002008BD966802082DE9F04193
:104E000015460E4604460027FDF7F4FB2820FDF763
:104E1000BDFBFDF737FC200AFDF7B8FBFDF732FCC0
:104E2000E0B2FDF7B3FBFDF72DFC002408E0305D98
:104E3000FDF7ACFBFDF726FC070003D1641CE4B2D0
:104E4000AC42F4D3FDF7FCFB3846BDE8F08100002E
:104E50002DE9F04FDFF828B191B04FF0FF35DBF8C6
:104E60000030B3F922100691DE69B3F924A0F46989
:104E7000A189814206D8E289824203D3471AD4F835
:104E8000008012E0D4E90181002970D00A888242B2
:104E90006DD84D8885426AD3801A82B2486800EB8B
:104EA0008200B0F90070B0F90250781C5FD0307EFB
:104EB000A27C014600FB02F9207CCDE90710B3F982
:104EC0002A60304606F02AFEC0B20E90DBF80010D1
:104ED00007FB0980A37C8A6B0127CDE90402CDE999
:104EE0000273C869089AC17E807ECDE90001DDE9C0
:104EF0000603514605F0FCFD681C18D046F0020080
:104F000006F00CFEDBF80000A37C05FB0981826B38
:104F1000CDE90273CDE90412C069089AC17E807E92
:104F2000CDE90001DDE90603514605F0E1FDDBF8BE
:104F300000005D46C069417E007E814214D9022E88
:104F400012D086F0040006F0E9FD2868C069027EF0
:104F5000C37E857E02FB03A1437E089A06985344D4
:104F600002FB050206F0D6F80E9806F0D7FDDBF836
:104F70000000627C418C1144418411B0BDE8F08F87
:104F80003002002004480068C069C06909B1027C91
:104F90000A60407C70470000300200200220088038
:104FA0007047C06982898A4202D8C2898A4210D277
:104FB000806880B102888A420DD843888B420AD328
:104FC000406800EB8100A0EB8200B0F900000028EF
:104FD00001DB012070470020704700002DE9F043FD
:104FE0002F4C034687B020681946B0F92A80C06963
:104FF000C06900F082F800284ED041680088181A75
:1050000001EBC0054046AE7806F088FD8146206879
:105010006A680123816BCDE90236CDE90421C169BB
:10502000CB7E8A7ECDE900230B7EB0F924102A784E
:10503000B0F9220005F05CFD2068C069477E067E5D
:10504000B7421DD9C07E47434643B8F1020F17D07F
:1050500001F005FB804601F0CBFA02F056FD216815
:105060002A78CB69B1F92200B1F92410DB7E02FB6A
:105070000302CB19314406F04DF8404602F045FDDD
:10508000484606F04BFD20686A78C369B0F92210E3
:105090009B7E02FB0311418407B0BDE8F083000052
:1050A0003002002030B50E4C05460B4620682946DC
:1050B000C069C06900F021F8002810D0416800885C
:1050C00024682A1A0120E46900EBC200085CA47E6F
:1050D0006043002B03D011F832106143196030BDDA
:1050E0003002002001200880704700B5C06900F040
:1050F00004F8002800D0012000BD06E002888A42A2
:1051000002D842888A4202D280680028F6D17047CD
:105110002DE9F0410025154E154C18E02069C5EB2E
:10512000051700EBC7007022001D3168FBF763FB19
:105130002069002140F8371000EBC70000F10C0196
:105140008161011D0A1DC0E90F126D1C4164A06838
:105150008542E3DB16F0A0FC2169C0EB001001EBF7
:10516000C000001D3060BDE8F0810000300200206A
:105170004005002070B50F490D480860084604F04E
:10518000F3FD0C4C143CA068C0EB0010C500284691
:1051900000F05EF92A460021206104F096FE4FF0EF
:1051A000FF30206003F0B4FCBDE8704016F074BC22
:1051B00025D101085405002010B515F0BDFD0448A7
:1051C000016A04480068416600F10801416110BDB0
:1051D0008C040020300200207CB514460D460646A3
:1051E00001F05EFE0EF0DEFF06440EF0E9FF05441E
:1051F0001648006890F8691021B990F868104E437D
:105200004D434C43301B00F023F8ADF8000030193B
:1052100000F01EF8ADF80400281B00F019F8ADF8F6
:105220000200281900F014F8ADF8060068460FF0E7
:105230001FF806E0224629463046FEF7C5FF0EF06D
:1052400091FF0028F6D103F0DFFB7CBD3002002087
:105250000449096891F8681009B190FBF1F000B2B7
:1052600070470000300200202DE9F041224C054635
:105270000E462068002788B920480068E06110B910
:1052800006F005F8E06100F0E3F8206080B31A4909
:105290001B4824310860084604F066FD1948006880
:1052A000854200DA0546E169731B4A1E2046934297
:1052B00001DD6E18761EAE4201DA2E460127124C31
:1052C0002268516E4B68836301620B490F4B343186
:1052D0000B60516602C880E8620010F0EFF80FF032
:1052E00047FE054821682C3048613846BDE8F0810A
:1052F000FFE70127D2E700008C04002060020020B5
:10530000B1D0010864020020300200207D9F010816
:10531000044A126892F8682090FBF2F091FBF2F1D7
:10532000FFF7A2BF30020020F8B50C0005460FD0F1
:1053300001F0B6FD204600F017F8060010D000F08E
:1053400015F9224600902DB12946FBF7CDF904E06E
:105350000020F8BD002104F0B8FD684600F070F9A7
:1053600003F052FB3046F8BD10B5040009D001F03F
:1053700097FD20460FF014FD044603F045FB204640
:1053800010BD002010BD38B5054601F089FD284646
:10539000FFF7EAFF040009D000F0E8F82A460021F0
:1053A000009004F092FD684600F04AF903F02CFBEF
:1053B000204638BD024A106021F00300506070475B
:1053C000ECB9002010B5040016D001F069FD0B48BF
:1053D000406B10F8341059B1022909D2042101EBB5
:1053E000C401415848680FF0D9FB204619F0D0F9A4
:1053F000BDE8104003F008BB10BD00002CB9002030
:10540000002805D0034AD16B016001B14860D06328
:10541000704700002CB9002010B5044601F040FD93
:105420002068FFF7CFFF00202060BDE8104003F0A8
:10543000EBBA000070B50D460646002405E000BF3B
:1054400006EB8400FFF7E8FF641CAC42F8DB70BD9C
:105450002DE9F041044617F0EFF82848E41C24F049
:105460000305016C2D1DA94200D90D46C46B13E044
:1054700054F8042CAA420ED184B1216809B16268A3
:105480004A60616809B122680A60C26BA24231D1E8
:105490002168C1632EE02468002CE9D18046816B2D
:1054A000C0680F1857F8040C3E1A306838B1002055
:1054B00019F0CAFA57F8040C3E1A3068D0B970686F
:1054C000A84217DB3044441B3046241D19F074FAFF
:1054D000D8F80C10491BC8F80C10D8F8141029443F
:1054E000C8F814107068401B02D031460FF056FB0C
:1054F00044F8045C2046BDE8F08100002CB900208F
:1055000010B5002417F098F80C490F2001EBC002E9
:10551000526C1AB101EBC000406C08E0401EF5D59A
:1055200008E04168A14200D90C46806810B180684B
:105530000028F6D1A4F10C0010BD00002CB9002009
:10554000002138B10449042202EBC000496B08581D
:1055500041680C39084670472CB90020024881691F
:10556000491C8161704700002CB900200549CA69B7
:10557000521CCA61496B01EBC0010A78521C0A70C7
:1055800000F076B82CB900207CB506460C460846DB
:10559000FFF7EAFE050020D0FEB13046FFF7D0FF4E
:1055A000A04200DA044601F07BFC2846FFF7DEFF4C
:1055B00000903046FFF7DAFF01460190224600983E
:1055C000FBF792F8684600F03BF801A800F038F8C5
:1055D0003046FFF7F7FE03F017FA28467CBD0000BF
:1055E00010B501F05DFCFFF78BFF64220849B0F5B0
:1055F000800F04D990FBF2F4086A444303E0096A7F
:105600004143B1FBF2F403F0FFF9204610BD000066
:105610002CB900200549102805D94A68B0EB520F73
:1056200002D3500800E0102088607047ECB90020D9
:1056300002488169491E8161704700002CB9002031
:105640000A4902684B6B52F8082C03EBC20213782C
:10565000022B03D3CB690BB15B1ECB611178491EC2
:105660001170002101600846704700002CB900202D
:10567000002806D00349042202EBC000496B0858F9
:10568000083070472CB900202DE9FC414FF000068E
:105690000B465FEA000834462BD032B1114618465B
:1056A000FFF742FE060000D101244046FFF75EFFEF
:1056B0000090078845686846FFF7C2FFCCB9B9007B
:1056C0002846091DFFF760FF050015D0FFF74EFFC4
:1056D000019040F8276001A8FFF7B2FF4046FFF7AE
:1056E00045FF009045600188491C01806846FFF72E
:1056F000A7FF2046BDE8FC813046FFF763FE01248A
:10570000F7E70820FFF73FBE7CB5050023D0FFF781
:105710002DFF00904068C0B1FFF728FF00240190E2
:1057200005E0019800EB8400FFF776FE641C00980A
:105730000088A042F5DC01A8FFF782FF0098001D59
:10574000FFF76AFE0099002008806846FFF778FF9F
:105750002846FFF737FE7CBD38B5002430B1FFF78F
:1057600005FF009004886846FFF76AFF204638BDB1
:1057700038B50D46002448B1FFF7F8FE29460090E1
:1057800000F016F804466846FFF75AFF204638BD79
:1057900038B50D46002448B1FFF7E8FE29460090D1
:1057A00000F018F804466846FFF74AFF204638BD67
:1057B00038B50D4601880024A94209D9406838B19E
:1057C000FFF7D4FE009050F825406846FFF738FFF9
:1057D000204638BD10B50024FFF7EAFF10B1FFF7EF
:1057E000C5FE0446204610BDF0B52D271C68B0F15B
:1057F000004F08D0002600280DDA651C1D602770B8
:105800004042012408E0651C01261D606FF0004045
:105810002770491E01E00024091BC9B22AB3491EA2
:10582000C9B222E00C46491EC9B2944205D1124CBD
:1058300027781C68651C1D602770104C54F8215097
:1058400090FBF5F4E4B20A2C11D804FB150011B951
:105850000EB1641CE4B20A2C02D10124491CC9B265
:105860001D686F1C30341F602C700029DAD1196854
:1058700000200870F0BD000024020020FCB60708DC
:1058800010B5002807DD0A682B24531C0B60147028
:10589000096800220A7010BD70B514460D46064610
:1058A00001F0FEFA204600F0E7FE0300174804EB83
:1058B000840109D050F8210041688068711A2A1AC1
:1058C000184602F06DF91CE000EB8104A268B242B8
:1058D00001D0012200E00022E368AB4201D00123A5
:1058E00000E000231A430CD0236943B150F8210093
:1058F000816840686A1A311A184602F06DF8C4E9E6
:105900000265BDE8704003F07FB8000050BB002086
:1059100010B5C2B2CBB2D21A00D5524293B25B4399
:10592000C0F30722C1F30724121B00D55242000C1A
:1059300092B2A0EB114002FB023200B2002801DA61
:10594000404200B280B200FB002010BD10B5002123
:10595000084600F073FF43F6FF725042BDE8104066
:1059600013460146AFF300802DE9FC411C46154665
:105970000E46074601F094FA042006F0CFF8804660
:105980001248C068C16C006D0F4406440D440444C5
:10599000ADF80070ADF80450ADF80260ADF8064007
:1059A00068460EF065FC07E023462A463146384635
:1059B00005F0B0FB0EF0D6FB0028F5D1404606F00E
:1059C000ADF803F021F8BDE8FC81000024020020BE
:1059D000B0F90630B0F90420B0F90210B0F90000B7
:1059E000FFF7C2BF2DE9F8431C00DDE90898164611
:1059F0000F46054602D10DF009FA044600962E68BE
:105A000043464A4621462846B047061E39D00DF087
:105A1000F2F98146698A30460CF0B9FC30460EF046
:105A20006AFA48460EF067FA4FF000080CE000BF33
:105A3000CDF8008055F81CCF00231A464946284669
:105A4000E04700B30EF057FA7F1E002FF0DC1D2157
:105A500048460EF056F8601C12D001F021FA0DF005
:105A600019FA30B1FFF704FE8469B44201D0200076
:105A7000F8D1B44202D030460EF054F902F0C4FF1F
:105A80003046BDE8F88330460DF086F80020F8E790
:105A90002DE9F0411C4616460D460746022B02DB57
:105AA0000020BDE8F0811C20FFF7D2FC0028F8D0D0
:105AB0000DB105610AE0094A52F8241009B905E060
:105AC00011460A68002AFBD1096901618461868256
:105AD000002101604160C0E90217E2E748020020AE
