:020000040800F2
:10000000F8B40020C50200086F4800086D2F0008F2
:100010006D480008550B0008018A00080000000028
:100020000000000000000000000000002D02000899
:10003000250E000800000000710200084D4D000868
:10004000DF020008DF020008DF020008DF0200080C
:10005000DF020008DF020008DF020008DF020008FC
:10006000DF020008DF020008DF020008DF020008EC
:10007000DF020008DF020008DF020008DF020008DC
:10008000DF020008DF020008DF020008DF020008CC
:10009000DF020008DF020008DF020008DF020008BC
:1000A000DF020008DF020008DF020008DF020008AC
:1000B000DF020008C57B0008DF020008DF0200083D
:1000C000DF020008DF020008DF020008DF0200088C
:1000D000DF02000865880008DF020008DF02000870
:1000E000DF020008DF020008DF020008DF0200086C
:1000F000DF020008DF020008DF020008DF0200085C
:10010000DF020008DF020008DF020008DF0200084B
:10011000DF020008DF020008DF020008DF0200083B
:10012000DF020008DF020008DF020008DF0200082B
:1001300000F002F800F06BF80AA090E8000C82448E
:100140008344AAF10107DA4501D100F060F8AFF26B
:10015000090EBAE80F0013F0010F18BFFB1A43F0A5
:1001600001031847401E0100601E01000A444FF0C1
:10017000000C10F8013B13F0070408BF10F8014B06
:100180001D1108BF10F8015B641E05D010F8016B4B
:10019000641E01F8016BF9D113F0080F1EBF10F8AF
:1001A000014BAD1C0C1B09D16D1E58BF01F801CBD2
:1001B000FAD505E014F8016B01F8016B6D1EF9D555
:1001C0009142D6D37047000000230024002500266A
:1001D000103A28BF78C1FBD8520728BF30C148BFAA
:1001E0000B607047642900F00D81752900F00A81C9
:1001F000782900F04381632900F09383732900F08C
:100200009883002070471FB51FBD10B510BD00F0CA
:1002100013FC1146FFF7F7FF0CF034FB00F031FC44
:1002200003B4FFF7F2FF03BC0CF038FA224B196855
:100230000868B0E8F00F80F30988BFF36F8F4FF0C4
:10024000000080F311884EF00D0E70470000000092
:1002500006480068006880F3088862B661B6BFF39C
:100260004F8FBFF36F8F00DF00BF00BF08ED00E0CE
:10027000EFF30980BFF36F8F0F4B1A6820E9F00F7F
:10028000106008B54FF0500080F31188BFF34F8F16
:10029000BFF36F8F0DF034FE4FF0000080F3118834
:1002A000BDE8084019680868B0E8F00F80F30988D5
:1002B000BFF36F8F704700BFAC000020EFF30580E5
:1002C000704700000948804709480047FEE7FEE7FD
:1002D000FEE7FEE7FEE7FEE7FEE7FEE7FEE7FEE7F6
:1002E00004480549054A064B70470000614D000867
:1002F00031010008F8AE0020F8B40020F8B000206A
:10030000F8B00020704700000FB4044910B503AAEC
:10031000029800F013FB10BC5DF814FB780000207D
:100320000FB41CB5074B06AA7B446946009005989C
:1003300000F0D5FA0020694600F0E4FA1CBC5DF834
:1003400014FB0000D90500002DE9F0410E460446DB
:10035000002020622046E168884730B3252805D078
:10036000D4E901219047206A401CF2E7E168204669
:1003700000278847050018D0A5F14100192802D8A8
:1003800020354FF400673246294620462760FFF7A4
:1003900029FF40B1012804D0F61D26F007060836D3
:1003A000D8E7361DD6E72846DAE7206ABDE8F081AF
:1003B00070B50C460546012A05D02878800600D580
:1003C000EA69002302E0012305E05B1C934202D2AC
:1003D000E05C0028F9D1A869E618C01AA861286A6B
:1003E000184428622846AFF3008004E0D5E90121D3
:1003F00014F8010B9047B442F8D32846AFF30080BD
:1004000070BD00002DE9F0410646002410687529F2
:10041000314616A510D0AFF30080002802DA404222
:1004200013A507E031688A0701D512A502E0490744
:1004300004D511A5012401E0AFF3008000210A22B8
:1004400006F1240709E0B0FBF2FCB0FBF2F302FB7B
:100450001C00303078541846491C0028F3D123463C
:100460002A463046BDE8F04100F0DBB9000000004C
:100470002D0000002B0000002000000070B5044695
:100480000D4621461068AFF300802188090502D58A
:100490000F4A7A4402E00E4A7A440E32002104F1F7
:1004A000240305E000F00F060009965D5E54491C28
:1004B0000028F7D120780023000704D5702D02D042
:1004C00009B1022311322046BDE8704000F0A9B9FD
:1004D0006A1A010040EA010310B59B070FD1042AF4
:1004E0000DD310C808C9121F9C42F8D020BA19BAFF
:1004F000884201D9012010BD4FF0FF3010BD1AB164
:10050000D30703D0521C07E0002010BD10F8013BB8
:1005100011F8014B1B1B07D110F8013B11F8014BDF
:100520001B1B01D1921EF1D1184610BD40EA0103F8
:10053000024630B59B0710D14FF0013400E008C2ED
:1005400008C91D1B9D4315EAC41FF8D013F0FF0115
:1005500002F8011B0DD01B0AF8E711F8013B002B34
:1005600002F8013B05D011F8013B002B02F8013BDA
:10057000F3D130BD10B5431C02E010F8011B71B17E
:100580008107FAD14FF0013202C88C1A8C4314EA69
:10059000C211F9D0C01A0A0603D0C01E10BDC01A7D
:1005A00010BD0A0401D0801E10BD0902FCD0401EFF
:1005B00010BD032A40F2308010F0030C00F01580CB
:1005C00011F8013BBCF1020F624498BF11F801CB56
:1005D00000F8013B38BF11F8013BA2F1040298BFBB
:1005E00000F801CB38BF00F8013B11F0030300F025
:1005F0006780083AC0F0088051F8043B083A51F887
:1006000004CBA0E80810F5E7121D5CBF51F8043BCD
:1006100040F8043BAFF30080D20724BF11F8013B40
:1006200011F801CB48BF11F8012B24BF00F8013BA2
:1006300000F801CB48BF00F8012B7047431A28BFD0
:100640009A427FF6B6AF032A1044114440F2268046
:1006500010F0030F1EBF11F8013D521E00F8013DBE
:1006600010F0030F7FF4F6AF11F0030300F08B815D
:10067000083AC0F00B8051F8043D083A51F804CD17
:1006800040F8043D40F804CDFFF7F3BF121D5CBFF6
:1006900051F8043D40F8043DAFF30080D20724BF79
:1006A00011F8013D11F801CD48BF11F8012C24BF0C
:1006B00000F8013D00F801CD48BF00F8012C70475B
:1006C00010B5203AC0F00B80B1E81850203AA0E8ED
:1006D0001850B1E81850A0E81850BFF4F5AF5FEA21
:1006E000027C24BFB1E81850A0E8185044BF18C9D4
:1006F00018C0BDE810405FEA827C24BF51F8043B7B
:1007000040F8043B08BF7047D20728BF31F8023BCE
:1007100048BF11F8012B28BF20F8023B48BF00F862
:10072000012B704702F0FF0343EA032242EA024230
:1007300000F055B94FF0000200B5134694469646B6
:10074000203922BFA0E80C50A0E80C50B1F12001E4
:10075000BFF4F7AF090728BFA0E80C5048BF0CC092
:100760005DF804EB890028BF40F8042B08BF7047F0
:1007700048BF20F8022B11F0804F18BF00F8012B62
:10078000704700004FF0013C50F8042B51F8043B37
:100790009A4221D1A2EB0C03934313EACC1317D155
:1007A00050F8042B51F8043B9A4215D1A2EB0C03EC
:1007B000934313EACC130BD150F8042B51F8043BAC
:1007C0009A4209D1A2EB0C03934313EACC13DBD07A
:1007D0004FF00000704700BFD01A01BAB1FA81F1A2
:1007E00001F0180122FA01F0CB40C1F12001DBB287
:1007F000C0B2C01A2CFA01F3D11A914311EAC31105
:10080000E6D17047704770477047704710B500F0E9
:1008100007F9006810BD10B5044600F001F9046046
:1008200010BD2DE9F0470D4699469246044600F169
:1008300024080168880604D5E06921F010012160D0
:1008400000E00120A84201DD471B00E00027A1696C
:100850007A1902EB0900081AA0612078C00602D4B8
:100860002046AFF30080002608E0D4E901211AF801
:1008700006009047206A401C761C20624E45F4DB3F
:100880002078C0060AD52046AFF3008006E0D4E900
:10089000012130209047206A401C2062381EA7F1B9
:1008A0000107F4DC07E0D4E9012118F805009047BE
:1008B000206A401C2062281EA5F10105F3DC2046B9
:1008C000AFF300802078000602D50220BDE8F08753
:1008D0000120FBE701694A1C02610878704700B5F6
:1008E0008FB0CDE901310021059105497944CDE969
:1008F000031011466846FFF727FD0FB000BD00004A
:10090000E5FFFFFF0A6802F8010B0A60704710B5A7
:10091000436913B1AFF3008001E0FFF749FD012007
:1009200010BD127800F124010A7000224A700122E1
:10093000EDE711684FF0FF32E9E70000074B70B5B3
:100940000D467B44FFF7CBFF0446284600F06CF8C9
:1009500010B14FF0FF3070BD204670BD27BF0000C2
:10096000431A28BF9A427FF6ABAE104410F0030F33
:1009700011441EBF11F8013D521E00F8013D10F058
:10098000030F7FF4F6AF103AC0F00A8010B531E9DA
:100990001850103A20E91850BFF4F9AFBDE81040E4
:1009A000530724BF31E9081020E9081044BF51F86B
:1009B000043D40F8043D12F0030F08BF7047D20712
:1009C00028BF31F8023D48BF11F8012C28BF20F89C
:1009D000023D48BF00F8012C70474FF00002042987
:1009E000C0F0128010F0030C3FF4A6AECCF1040C62
:1009F000BCF1020F18BF00F8012BA8BF20F8022B92
:100A0000A1EB0C01FFF798BE5FEAC17C24BF00F8A0
:100A1000012B00F8012B48BF00F8012B70470000A4
:100A20000048704798AE0020007B00F080007047BF
:100A30000048704798AE00207546FFF7F9FFAE46B4
:100A400005006946534620F00700854618B020B5DA
:100A5000FFF746FCBDE820404FF000064FF00007CE
:100A60004FF000084FF0000B21F00701AC46ACE856
:100A7000C009ACE8C009ACE8C009ACE8C0098D46C3
:100A800070470446AFF300802046FFF7C9FB02F031
:100A90008FBA70B515460E46044608E02046641C21
:100AA000A4B200F007F86D1E06F8010BADB2002DE0
:100AB000F4D170BD10B5044602F01EFB200AA0213F
:100AC00001EB4000C0B202F0E3FA02F057FBE0B2E3
:100AD00002F0DEFA02F052FB02F00EFBA12002F05F
:100AE000D7FA02F04BFB002002F09CFA044602F019
:100AF00023FB204610BD70B514460D46064606E0A1
:100B00002978304600F007F8761CB6B26D1C641EDA
:100B1000A4B2F5D270BD70B50D46044602F0ECFAF1
:100B2000200AA02101EB4000C0B202F0B1FA02F0AD
:100B300025FBE0B202F0ACFA02F020FB284602F0FE
:100B4000A7FA02F01BFB02F0F7FABDE870400A209A
:100B50000BF0CABDFEE7000070B50F4C0025C4F8CD
:100B600084510E48016821F0F0010160016841F0F4
:100B700030010160052004F5C2740BF0D1FD084876
:100B8000C0F8A45105200BF0CBFD0120206005200A
:100B90000BF0C6FD256070BD00802142041C0140A1
:100BA000008023421348816941F008018161816915
:100BB00041F0800181611048016821F0F00101607D
:100BC000016841F0300101600C48016821F0F0013A
:100BD0000160016841F03001016007480C30016894
:100BE00041F00201016005480830016841F40071DC
:100BF0000160704700100240000C0140041C0140DD
:100C000070B50F4C0026C4F884610E48016821F0CD
:100C1000F0010160016841F030010160052004F538
:100C2000C2740BF07DFD08480125C0F8A4510520D1
:100C30000BF076FD256005200BF072FD266070BD7F
:100C400000802142041C0140008023422DE9F0472E
:100C5000824618480024016821F0F0010160016813
:100C600041F0800101601E200BF05AFD0025124E5C
:100C7000DFF848902F464FF00108C6F88471052030
:100C80000BF04EFDC6F884816006040ED9F82401ED
:100C900008B1641CE4B26D1CEDB2082DEDD3BAF1BD
:100CA000000F04D0FFF758FF2046BDE8F087FFF79C
:100CB000A7FFF9E7041C0140008021420080234285
:100CC0002DE9F04705461548016821F0F001016063
:100CD000016841F030010160114E0027C6F88471AF
:100CE00005200BF01DFDDFF83C8000244FF00109CA
:100CF000E909C8F8A4116806050EC6F88491052014
:100D00000BF00EFDC6F8847105200BF009FD641C84
:100D1000E4B2082CECD3BDE8F0870000041C0140CD
:100D2000008021420080234270B50F48016821F005
:100D3000F0010160016841F0300101600B4E0120BB
:100D4000C6F8A4010A4DC5F884011E2005F5C27538
:100D500006F5D2760BF0E4FC0024346005200BF09D
:100D6000DFFC2C6070BD0000041C014000802342A9
:100D70000080214270B50D48016821F0F00101604A
:100D8000016841F03001016009480125C0F8845133
:100D90001E200BF0C5FC074C0020C4F8A401052060
:100DA00004F5D2740BF0BCFC256070BD041C01403E
:100DB000008021420080234270B51248002401685F
:100DC00021F0F0010160016841F0800101600E4DE9
:100DD0000120C5F8A4010D4EC6F8840107E0641C8B
:100DE000E4B2FA2C03D9FFF7C5FF012070BD05203E
:100DF0000BF096FCD5F824010028F0D1C6F8840148
:100E000070BD0000041C014000802342008021428C
:100E100003480022026042604721312006F0ECBE08
:100E200068000020704700008000A0F1C040002949
:100E3000016802D041F0010101E0024A1140016065
:100E400070470000FEFF0F0010B5D0E901121143FA
:100E5000D0E903231A4311434269114382691143C4
:100E6000C2691143026A1143426A1143826A114303
:100E7000C26A1143026B114302689200A2F1C042A0
:100E800011608168082907D101688900A1F1C0417A
:100E90000A6842F040020A60416BD1E9002342EA4D
:100EA00003128B688C891B0243EA04431A430B8AA2
:100EB00042EA03520B7D896942EA03620A430168F0
:100EC0008900A1F1C0414A60C16AB1F5804F08D0E4
:100ED00000686FF070418000A0F1C040C0F80411BC
:100EE00010BD816BD1E9002342EA03128B680C8AA2
:100EF0001B0243EA04531A430B7D896942EA0362E9
:100F000000680A438000A0F1C040C0F8042110BD71
:100F10003A48416941F480714161816941F02001A1
:100F20008161816941F040018161816941F0800105
:100F30008161816941F480718161314801680021DA
:100F40000160026842F0BB320260001F026802F0DA
:100F5000FF220260026842F0BB1202602948026868
:100F60000160026842F0BB320260001F0268264B3B
:100F70001A4002600268254B1A4302602448026846
:100F800092B202600268234B1A430260001F02689B
:100F900002F07F42026003681F4A134303601F4848
:100FA000436823F470634360436843F430634360F1
:100FB000036803F07F4303600368134303604FF04B
:100FC000204001614161C0F81411016941F4805170
:100FD0000161016941F010010161416941F4407111
:100FE000416141694161416941616FF07041C0F8FF
:100FF0001411016941F001010161704700100240C4
:10100000041401400418014000FFFF0FBB0000B0B2
:10101000041C01400000BBBBBBBBBB000020014067
:1010200038B52B48816941F0800181612948016808
:1010300021F47F410160016841F46051016025485D
:101040000830016841F440610160FFF7ABFD224DBB
:101050000024C5F8AC41142005F5D6750BF044FB0F
:101060000120286032200BF03FFB8DF80040012268
:101070006946002000F0FEF801226946A42000F035
:10108000F9F816208DF8000001226946802000F052
:10109000F1F80C208DF8000001226946882000F04C
:1010A000E9F802226946A12000F01EF89DF8000030
:1010B000302803D19DF80100032801D0012038BD5C
:1010C00043F2030105A0FFF71FF9002038BD00001F
:1010D00000100240041C0140008023424354502071
:1010E00049443A25780D0A002DE9F04115460F468E
:1010F0000446FFF719FE7020FFF7E2FDFFF75CFEE4
:10110000E0B2FFF7DDFDFFF757FEFFF70DFE7120A0
:10111000FFF7D6FDFFF750FE00246E1E09E0B44233
:1011200001D0012000E00020FFF790FD3855641C3D
:10113000E4B2AC42F3D3BDE8F041FFF71BBE0000C0
:101140002DE9F143484F00244FF00A09387882B066
:10115000401CC0B2B0FBF9F209FB1201434DA0469E
:10116000387009B10A2863D2012202A90220FFF7D0
:10117000BBFF9DF8080001075AD000F00F000628B9
:1011800056D2FF218140C84340F0C00085F82000BE
:101190004FF00108002695F8201008FA04F00142EB
:1011A00039D033480422694630F81400FFF79CFF19
:1011B00095F830009DF80010C0079DF8010001F07F
:1011C0000F010ED000EB012105EB4400C1829DF818
:1011D00002209DF8031002F00F0201EB0221818131
:1011E0000FE000EB0120C0F5F07105EB44008181B8
:1011F0009DF802209DF8031002F00F0201EB02217E
:10120000C1829DF800000821B1EB101F03D005EB4F
:101210004400C6828681641CE4B2052CBBD3A98934
:101220004FF0010819B9E88A08B98DF808603E70D6
:101230009DF80800C0060ED195F82000010602D5E1
:1012400020F0800005E04FF6FF71A981E98200F0EF
:10125000E00085F820003878F02801D987F8009060
:101260004046BDE8FE8300002A0000203400002034
:10127000921201082DE9F04115460E46044600275A
:10128000FFF752FD7020FFF71BFDFFF795FDE0B261
:10129000FFF716FDFFF790FD002408E0305DFFF733
:1012A0000FFDFFF789FD070003D1641CE4B2AC42D7
:1012B000F4D3FFF75FFD3846BDE8F081F0B5CC7898
:1012C000002204F00F03E40601D58C7823430C7848
:1012D0004FF00F0C14F0FF0F4FF0010E1BD00568FC
:1012E0000E880EFA02F42640A64210D196000CFA9F
:1012F00006F725EA070703FA06F5CE783D43282EC0
:1013000002D0482E02D002E0446100E00461521C89
:10131000082AE5D305600A88FF2A1CD94468002200
:1013200002F108060EFA06F50E882E40AE420ED1E6
:1013300096000CFA06F7BC4303FA06F7CE783C4356
:10134000282E00D14561CE78482E00D10561521C6F
:10135000082AE5D34460F0BD0246002092680A42A4
:1013600000D0012070470161704700002DE9FC4169
:101370003548816941F080018161344C206820F456
:101380007F402060206840F4605020602F4D083579
:10139000286840F440602860FFF704FC2C4F0026CA
:1013A000C7F8AC610A2007F5D6770BF09DF901204C
:1013B00038600A200BF098F9206820F470602060F3
:1013C000206840F400602060286820F48060286075
:1013D00064200BF089F90422694648F2401000F0BD
:1013E0004DF88DF8046069461AA0FEF78DFF1CA128
:1013F0006846FFF7C7F910B10120BDE8FC81022063
:101400008DF8000048F2400401226946204600F0B1
:101410004BF901226946E01D00F030F89DF80010FC
:10142000602905D210A0FEF76FFF012000F016F929
:101430000A200BF059F98DF8006001226946204618
:1014400000F032F90020D8E700100240041C0140EF
:10145000008023424354502049443A25730D0A002A
:10146000393134370000000044656661756C7420C2
:101470005665723A25640D0A000000002DE9F0411E
:1014800015460F460446FFF74FFC2820FFF718FCCF
:10149000FFF792FC200AFFF713FCFFF78DFCE0B288
:1014A000FFF70EFCFFF788FCFFF73EFC2920FFF753
:1014B00007FCFFF781FC00246E1E09E0B44201D056
:1014C000012000E00020FFF7C1FB3855641CE4B2A6
:1014D000AC42F3D3BDE8F041FFF74CBC2DE9F14736
:1014E0005A4D00244FF00A0A287883B0401CC0B23D
:1014F000B0FBFAF20AFB1201554EA046287009B162
:101500000A2879D248F24E19012203A94846FFF76A
:10151000B5FF9DF80C004FF00007010603D500F061
:101520000F01062901D3800606D58DF8047001222B
:1015300001A9484600F0B8F89DF80C0001075BD0FF
:1015400000F00F01062957D2FF2088408DF80400D3
:10155000C04396F8209040F0C00086F82000B08983
:10156000B082F08AF0834FF0010896F8201008FA54
:1015700004F0014225D037480422694630F81400AF
:10158000FFF77CFF96F830009DF80110C0079DF82A
:10159000000000EB012106EB44000AD0C1829DF857
:1015A00002109DF8032001EB0221C1F548718181F1
:1015B00007E081819DF802109DF8032001EB0221D4
:1015C000C182641CE4B2052CCFD32349B2894FF009
:1015D00001080B8830469A4203D8C28A49888A4259
:1015E00009D99DF80C1001F00F0101290BD9C1890F
:1015F0008181018BF1822F709DF80C0000F08F002B
:1016000080280AD018E0818A8181C18BC182802123
:101610008DF80C1086F82090EEE796F82000010671
:1016200002D520F0800005E04FF6FF71B181F18214
:1016300000F0E00086F820002878F02801D985F82D
:1016400000A004B04046BDE8F08700002B00002059
:101650003400002054130108C802002008B50021FE
:101660008DF800108DF801000E489DF80020435CB5
:10167000491C1A44C9B28DF80020B829F5D3D0B25C
:10168000C043401C8DF80000B822064948F24700CC
:1016900000F00AF80222694648F2FF0000F004F860
:1016A000002008BD9C1201082DE9F04115460E46A8
:1016B00004460027FFF738FB2820FFF701FBFFF760
:1016C0007BFB200AFFF7FCFAFFF776FBE0B2FFF79F
:1016D000F7FAFFF771FB002408E0305DFFF7F0FA3E
:1016E000FFF76AFB070003D1641CE4B2AC42F4D3F9
:1016F000FFF740FB3846BDE8F08170472DE9F04F19
:10170000DFF828B191B04FF0FF35DBF80030B3F9C6
:1017100022100691DE69B3F924A0F469A1898142FF
:1017200006D8E289824203D3471AD4F8008012E037
:10173000D4E90181002970D00A8882426DD84D8891
:1017400085426AD3801A82B2486800EB8200B0F901
:101750000070B0F90250781C5FD0307EA27C014648
:1017600000FB02F9207CCDE90710B3F92A6030466E
:1017700002F058FDC0B20E90DBF8001007FB0980A4
:10178000A37C8A6B0127CDE90402CDE90273C86905
:10179000089AC17E807ECDE90001DDE9060351464D
:1017A00001F084FE681C18D046F0020002F03AFDF9
:1017B000DBF80000A37C05FB0981826BCDE9027395
:1017C000CDE90412C069089AC17E807ECDE900018E
:1017D000DDE90603514601F069FEDBF800005D46D5
:1017E000C069417E007E814214D9022E12D086F05B
:1017F000040002F017FD2868C069027EC37E857E62
:1018000002FB03A1437E089A0698534402FB05029B
:1018100002F034F90E9802F005FDDBF80000627C5E
:10182000418C1144418411B0BDE8F08F5801002073
:1018300004480068C069C06909B1027C0A60407C44
:101840007047000058010020022008807047C069DE
:1018500082898A4202D8C2898A4210D2806880B1C5
:1018600002888A420DD843888B420AD3406800EB35
:101870008100A0EB8200B0F90000002801DB01200C
:1018800070470020704700002DE9F0410025154EFB
:10189000154C18E02069C5EB051700EBC700702256
:1018A000001D3168FEF70CFF2069002140F8371059
:1018B00000EBC70000F10C018161011D0A1DC0E9A8
:1018C0000F126D1C4164A0688542E3DB09F030FC17
:1018D0002169C0EB001001EBC000001D3060BDE8C5
:1018E000F0810000580100205002002070B50F491F
:1018F0000D480860084601F0EDFA0C4C143CA06855
:10190000C0EB0010C500284600F06AF82A46002106
:10191000206101F0E7FA4FF0FF30206001F08AF912
:10192000BDE8704009F004BC45B500086402002021
:1019300010B5040009D000F03BFB204608F08EF8FB
:10194000044601F03FF9204610BD002010BD38B517
:10195000054600F02DFB2846FFF7EAFF040009D0FA
:1019600000F0B6F82A460021009001F0BBFA684664
:1019700000F0CAF801F026F9204638BD024A10608E
:1019800021F0030050607047ACAC002010B504009B
:1019900016D000F00DFB0B48406B10F8341059B115
:1019A000022909D2042101EBC4014158486808F01A
:1019B0000DF8204609F0FAFDBDE8104001F002B92B
:1019C00010BD0000ECAB0020002805D0034AD16B0D
:1019D000016001B14860D06370470000ECAB0020AB
:1019E0002DE9F041044609F073FC2848E41C24F07A
:1019F0000305016C2D1DA94200D90D46C46B13E0EF
:101A000054F8042CAA420ED184B1216809B162684D
:101A10004A60616809B122680A60C26BA24231D192
:101A20002168C1632EE02468002CE9D18046816BD7
:101A3000C0680F1857F8040C3E1A306838B10020FF
:101A400009F0F0FD57F8040C3E1A3068D0B9706800
:101A5000A84217DB3044441B3046241D09F0C8FD62
:101A6000D8F80C10491BC8F80C10D8F814102944E9
:101A7000C8F814107068401B02D0314607F0A6FF6A
:101A800044F8045C2046BDE8F0810000ECAB002087
:101A900010B5002409F01CFC0C490F2001EBC0021A
:101AA000526C1AB101EBC000406C08E0401EF5D545
:101AB00008E04168A14200D90C46806810B18068F6
:101AC0000028F6D1A4F10C0010BD0000ECAB002002
:101AD0000549CA69521CCA61496B01EBC0010A7809
:101AE000521C0A7000F028B8ECAB00200549102801
:101AF00005D94A68B0EB520F02D3500800E010201D
:101B000088607047ACAC00200A4902684B6B52F801
:101B1000082C03EBC2021378022B03D3CB690BB161
:101B20005B1ECB611178491E1170002101600846CF
:101B300070470000ECAB0020002806D003490422C7
:101B400002EBC000496B085808307047ECAB00202E
:101B500070B514460D46064600F02AFA204600F0FD
:101B6000A5F90300174804EB840109D050F82100BF
:101B700041688068711A2A1A184600F0C7FB1CE0F9
:101B800000EB8104A268B24201D0012200E00022F1
:101B9000E368AB4201D0012300E000231A430CD0DC
:101BA000236943B150F82100816840686A1A311AEC
:101BB000184600F05FFBC4E90265BDE8704001F023
:101BC00001B8000010AE002010B5C2B2CBB2D21ADC
:101BD00000D5524293B25B43C0F30722C1F30724FE
:101BE000121B00D55242000C92B2A0EB114002FB36
:101BF000023200B2002801DA404200B280B200FB9B
:101C0000002010BD10B50021084600F07DF943F614
:101C1000FF725042BDE8104013460146AFF300800A
:101C20002DE9FC411C4615460E46074600F0C0F95A
:101C3000042002F0F7FA80461248C068C16C006DBB
:101C40000F4406440D440444ADF80070ADF8045050
:101C5000ADF80260ADF80640684607F053FC07E0B7
:101C600023462A463146384601F008FF07F00CFCAF
:101C70000028F5D1404602F0D5FA00F0A3FFBDE8F8
:101C8000FC8100004C0100202DE9F0411C46164665
:101C90000D460746022B02DB0020BDE8F0811C2028
:101CA000FFF79EFE0028F8D00DB105610AE0094A51
:101CB00052F8241009B905E011460A68002AFBD140
:101CC0000969016184618682002101604160C0E987
:101CD0000217E2E77001002070B51D46FFF7D4FF40
:101CE000040009D000F00EF8E068006820B903484D
:101CF000006800EB85008465204670BD5801002017
:101D0000FFF762BE70B590B38269022A30DA1E4CCA
:101D100054F8221019B944F8220032E019464B68F1
:101D2000002BFBD106E0CB68C5681B682D68AB4271
:101D300003DD09680029F6D11AE0C1B1CB68C66895
:101D40001B683668B3420CD1838A012B05D008E0AA
:101D50001946DB681B68AB4203DB0B68002BF7D12D
:101D600029B14B6833B118604A68426004E0FFE76C
:101D7000012070BD44F822004860884200D1002153
:101D80000160002070BD00007001002010B503E06C
:101D90000468FFF7B7FF20460028F9D110BD000006
:101DA0000A4A816952F82130834202D1036842F81D
:101DB0002130416809B102680A60016809B14268CE
:101DC0004A600021016041607047000070010020FE
:101DD00000207047022801DB00207047054951F8B8
:101DE000200004E0C16809680029F6D000680028D6
:101DF000F8D170477001002008B50B46002805D0C7
:101E0000009281888268C08800F001F808BD10B592
:101E10000828029C30D008DC04FB01F401280AD019
:101E2000022813D0042804D11CE0102828D0202830
:101E30002CD0002010BD04EBD30003F00701105C90
:101E4000C1F10701C84000F0010010BD04EB930090
:101E50000621105C01EA4301C1F10601C84000F00F
:101E6000030010BD04EB5300D907105C02D000F052
:101E70000F0010BD000910BD04FB0130105C10BD47
:101E8000481004FB003032F8100010BD881004FB2D
:101E9000003052F8200010BD034951F82000C168FD
:101EA0008A6A0821104700007001002000210228E2
:101EB00002D2024951F8201008467047480200201B
:101EC00070B514460D46064600F072F822462946C3
:101ED000304601F02FFE10B1002028602060BDE8E0
:101EE000704000F06FBE0000024951F82000006908
:101EF0000068704770010020024951F82000006915
:101F0000406870477001002070B50D46044600F02F
:101F10004FF8204609F02AF90446284609F02EF920
:101F2000044300F04FFE204670BD00002DE9F04153
:101F30001948016821F001010160184801258560F8
:101F40001749016000681749884200D0FEE700F099
:101F50002FFF154E2E20307000F058FE134809F068
:101F600067F90AF03BFC074601F0FAFD10B101F0F9
:101F700003FE38B901F009FE044601F0FAFD2146DE
:101F800002F04AF90021084600F0D0F907F0B2F853
:101F900075703846BDE8F081002000E00030024056
:101FA000C2A507F4CDB5E8B54C010020B8AC0020BF
:101FB00070B5184CE06820B100F025FE61688842D9
:101FC00004D000F04FFE00F01EFE6060E068401C90
:101FD000E06001281CD109F0ABF805462068854275
:101FE00016D0002813DBFFF7F3FE01462068C0EB94
:101FF0000012206900EBC2025167C5EB0511064AC9
:1020000000EBC100011D1160406FFFF7BFFE2560AE
:1020100070BD0000500200205801002038B50400B7
:102020001CD0FFF7C5FF0E480068006EA04201D12A
:1020300000F031F92046FFF74BFD0090406908B1F0
:1020400000F0AAFD00980068FFF75AFE6846FFF707
:102050005BFD2046FFF79AFC00F0B4FD38BD0000A0
:102060005801002038B505004FF0000411D0FFF7EB
:102070009FFF2846FFF72CFD0090006800698068EC
:10208000804702F0B1FB04466846FFF73DFD00F0D3
:1020900099FD204638BD38B504000ED0FFF788FF03
:1020A0002046FFF715FD00F1180400906846FFF781
:1020B0002BFD00F087FD204638BD002038BD000014
:1020C000F8B50546FFF774FF104E3068046ECDB1C9
:1020D0000CB100F0E0F806F0EDFD2846FFF7F8FC43
:1020E000009031680D660068FFF70CFE6846FFF748
:1020F0000BFD02F0C1F901F0CBFF00BF00F062FD63
:102100002046F8BD00F0C7F8F8E7000058010020AD
:10211000F8B516460F46050012D0FFF7D9FC00901F
:1021200044696846FFF7F0FC2846FFF79BFF03462B
:10213000082800DD2CB132463946284609F0E8FE71
:10214000F8BD3246394628460AF082F8F8BD10B587
:10215000002821D009B30AB3B1F90040B2F9003028
:102160009C4200DA23460380B1F90240B2F9023002
:102170009C4200DA23464380B1F90440B2F90430AE
:102180009C4200DD23468380B1F90610B2F9062097
:10219000914200DC1146C18010BD11460A68026000
:1021A0004968416010BD00280BD003880B440380B0
:1021B000838819448180418811444180C188114439
:1021C000C180704770B50E4D0446D5E900018842C4
:1021D00009D10C49884201D13C3000E00C3807C8D5
:1021E00084E8070006E090E80E0084E80E0008F09E
:1021F000CDFF2860207A002800D0012070BD0000AB
:10220000BC02002038AE00200448D0E90010814212
:1022100001D101207047002070470000BC0200205F
:10222000054A10B50349116009F0C2FDBDE8104030
:1022300000F09CB87D8D000878010020B0F90220E4
:10224000B1F906309A4213DCB1F90220B0F9063038
:102250009A420DDCB0F90020B1F904309A4207DC53
:10226000B1F90010B0F90400814201DC012070478F
:102270000020704770B515460E4604000AD0FFF7DF
:1022800097FE2A463146204609F028FBBDE87040FB
:1022900000F098BC70BD10B5FFF78AFE01F0AEFEED
:1022A00002F0EAF806F012FCBDE8104000F08ABC2B
:1022B00070B50B4D04462868467CFFF779FE022C6A
:1022C00009D22046FFF786FD28B128684474FFF73D
:1022D000E2FF0448046000F075FC304670BD000069
:1022E00058010020EC01002010B50446FFF760FE05
:1022F000204601F0A3FEBDE8104000F063BC0000E2
:1023000001498860704700004C01002070B51446F8
:102310000D460646FFF74CFE22462946304601F0A0
:102320009DFF044600F04EFC204670BD70B50C4683
:102330000546FFF73DFE094822460580084804800F
:1023400008480068417C084850F82100C1680B6AC1
:1023500029469847BDE8704000F034BC8401002055
:10236000860100205801002070010020024800680A
:10237000002800D0004770478C02002002498A687C
:1023800002B98860FFF7F2BF880100202DE9F04F05
:1023900097B01D461646894604464FF00008FE4990
:1023A000DDF888B0DDF880A0C1F80080CDF840806D
:1023B000022828D06A4603AB0BAF0DF1200C032C8A
:1023C0007EDB55D14FEA0C0755F828000DF0A4F933
:1023D0004DF828005AF828000DF09EF903A941F89D
:1023E000280059F828000DF097F90BA941F82800AA
:1023F00056F828000DF090F947F8280008F1010878
:10240000A045E1DBE6E068681F68C01B0DF084F9B9
:102410000446D9E90001081A0DF07EF921460DF0B5
:102420007DF8DE4C0546C4E9000838460DF074F925
:1024300029460DF09DF980F00040C4E90208DAE970
:102440000071C81B0DF068F90546D6E90010401A66
:102450000DF062F929460DF061F805462061384615
:102460000DF05AF929460DF083F980F00040AFE1F4
:10247000002041464CF8201047F8201043F8201067
:1024800042F82010401C0328F4DB002760E000BF66
:1024900055F827000DF040F9119002990CF0D6FF85
:1024A00002905AF827000DF037F9804605990CF094
:1024B000CDFF059059F827000DF02EF9139000E09C
:1024C000BAE10D990CF0C2FF0D9056F827000DF0FF
:1024D00023F912900A990CF0B9FF0A90119801465D
:1024E0000DF046F900990CF0B1FF009041461198AB
:1024F0000DF03EF901990CF0A9FF019003904146BF
:1025000040460DF035F904990CF0A0FF04901399A2
:1025100011980DF02DF90B990CF098FF0B90404697
:1025200013990DF025F90C990CF090FF0C90DDE952
:1025300011010DF01DF908990CF088FF0890404634
:1025400012990DF015F909990CF080FF7F1C099084
:10255000A7429DDB029900980CF0E0FF00900599DE
:1025600001980CF0DBFF0190DDE902100CF0D6FFC2
:102570000390DDE904010CF0D1FF049002990B985F
:102580000CF0CCFF0B9005990C980CF0C7FF0C9049
:10259000029908980CF0C2FF0890059909980CF070
:1025A000BDFF099020460DF0B7F804462146029879
:1025B0000CF0B4FF0290214605980CF0AFFF059097
:1025C00021460D980CF0AAFF0D9021460A980CF0B8
:1025D000A5FF0A90059903980DF096F90646DDE9E6
:1025E000010134460DF090F921460DF0C1F8044682
:1025F000DDE904010DF088F90546029900980DF017
:1026000083F929460DF0B4F821460DF07DF9054611
:1026100010F0FF4F7ED0DDE90C01B04644460DF0CE
:1026200073F9814621460DF0A3F80746DDE9040160
:102630000DF06AF9824654460D990B980DF064F935
:10264000064621460DF094F839460DF05DF929460D
:102650000CF064FF514C2060DDE901010DF054F9EC
:102660000146149030460DF083F806460299009812
:102670000DF04AF90146159048460DF079F83146BB
:102680000DF042F929460CF049FF60600C99009862
:102690000DF06EF806460B9901980DF069F8314679
:1026A0000DF032F905990DF063F807460B99029881
:1026B0000DF05EF806460D9900980DF059F8314678
:1026C0000DF022F904990DF053F806460D99019882
:1026D0000DF04EF881460C9902980DF049F84946E4
:1026E0000DF012F903990DF043F831460CF0AEFEEF
:1026F00039460CF0ABFE29460CF010FFA060DDE976
:10270000090146460DF000F9804631460DF030F8DB
:10271000064600E061E0D1460A9908980DF0F4F809
:10272000074649460DF024F831460DF0EDF82946EC
:102730000CF0F4FEE060384614990DF019F80646E6
:10274000404615990DF014F831460DF0DDF8294694
:102750000CF0E4FE2061099900980DF009F8064696
:10276000089901980DF004F831460DF0CDF805995F
:102770000CF0FEFF0746089902980CF0F9FF064698
:102780000A9900980CF0F4FF31460DF0BDF8049959
:102790000CF0EEFF064603E070020020A4AD00201E
:1027A0000A9901980CF0E4FF8046099902980CF010
:1027B000DFFF41460DF0A8F803990CF0D9FF314630
:1027C0000CF044FE39460CF041FE29460CF0A6FE02
:1027D0001A4960610120086001E0109860B3174C4D
:1027E00021980021C4E9010B084608F005FE0021EC
:1027F000E060084608F02AFE20612198ABF1010153
:10280000401E08F0F9FD60612198ABF10101401E06
:1028100008F01CFEA0616269E168914201DDE2609E
:1028200061612169814201DDA1612061206818B1E7
:10283000002017B0BDE8F08F0120FAE770020020F9
:102840002DE9FE43DFF8B89005000A9ED9F814C0C0
:102850004FF00000CCF3410709F1300439D0012DCD
:1028600002D00120BDE8FE83DFF8948008F1200843
:10287000C8E90012052131EA0C013ED0012F3CD0FD
:10288000C4E90036012199F80030A9404A461942AE
:1028900001D00023137013781943C9B289F80010CE
:1028A0000329DFD1174E3068407C01F05FF90546FF
:1028B0003068407C01F066F9114B0094CDE901507D
:1028C0002833A3F10802A2F108010220FFF75EFD00
:1028D000C8E7DFF82C80032F08F11808C8E90012B8
:1028E00008F1100106D00CF00502012A02D0C1E95E
:1028F0000036C7E7C1E90063C4E7C4E90063C1E784
:10290000980100205801002070B5174C06460D466E
:102910003268E16801208A421EDB296823699942F6
:102920001ADB63699A4217DCA269914214DC2946DA
:10293000304600F099F800280ED133680022002BB1
:1029400001DA326004E061688B4201DB491E3160CC
:102950002B68002B01DA2A6070BDA1688B42FBDB7B
:10296000491E296070BD00007002002070B5254C22
:1029700086B06078F8B100F0C7F8E06000F0C2F807
:10298000E06803902069049000F03EF88DF809009B
:1029900004A903A8FFF7B8FF0025B0B1A07870B371
:1029A00060680090A06801908DF80850684600F0BB
:1029B00037F8A57023E000F0C1F8206100F0A3F81B
:1029C0006078401C607006B070BD039A6068111A90
:1029D00000D54942049BA068181A00D54042A67849
:1029E00016B1084402280ADD62600092A360012645
:1029F00001938DF80860684600F012F8A6706570C3
:102A0000E1E70000980100200148407A704700008B
:102A1000BCAD0020014948617047000098010020CA
:102A20003EB504460C220E49FDF754FD002813D094
:102A30000B4894E80E0080E80E000A48026862B174
:102A400094E80B008DE80B00684601A99047002828
:102A500002D16846FFF7E4FB3EBD2046FAE70000DE
:102A600098AD00206C0200202DE9F0470546224871
:102A70000E460068E0B3D5F8008030680CF04CFEDC
:102A80001E4C814661680CF073FE074640460CF010
:102A900043FE804621680CF06BFE39460CF0D6FCF4
:102AA000A1680CF0D3FC0CF0A5FC154F00223B46AE
:102AB0000CF030F80CF0E2F82860484621690CF080
:102AC00057FE05464046E1680CF052FE29460CF0E0
:102AD000BDFC61690CF0BAFC0CF08CFC00223B469A
:102AE0000CF018F80CF0CAF830600020BDE8F08750
:102AF000FFE70120FAE7000070020020A4AD0020EB
:102B00000000E03F704770470A4810B58088A0F584
:102B1000AA41103908D0A0F5C851633904D0BDE8E6
:102B20001040D02005F090BD034C0020616888471C
:102B3000A08910BDC8020020340000200A4810B54A
:102B40008088A0F5AA41103908D0A0F5C851633992
:102B500004D0BDE81040902005F076BD034C002065
:102B600061688847E08A10BDC80200203400002058
:102B70002DE9F0411E46069C1746884605463A4612
:102B8000A8687F1C3346D0F804C041462846E04779
:102B9000641EF4D1BDE8F08138B50546FFF708FAA8
:102BA0002846FEF795FF00908189491E0CB284816A
:102BB0006846FEF7A9FF14B92846FEF7E7FE00F0C5
:102BC00001F838BD0348C168491EC16001D100F059
:102BD00053B870475002002010B54FF4FA24214634
:102BE000012009F007FF2146FEF7C8FE8020FEF70E
:102BF0007DFFBDE810400148FFF782BBCC1A0108F9
:102C000001200AF0D5BE0BF023BD000010B5032251
:102C1000002101200BF026FA05490028C86006D0E3
:102C20000023BDE810401A4619460BF06DBB10BDDD
:102C30002801002010B501200BF002FA084C0322F5
:102C40000021606001200BF00DFAA060002806D082
:102C50000023BDE810401A4619460BF055BB10BDC5
:102C600028010020034800235A1E194640680BF033
:102C700035BA000028010020034800231A461946EF
:102C800040680BF041BB00002801002010B5082A65
:102C90000EDC0346012A18D0022A56D0042A76D028
:102CA00010F8042B03F8012B491EF9D1012010BDA7
:102CB000102A08DC4FEA000230F8043B22F8023BFD
:102CC000491EF9D1F2E7002010BD10F8042BD207FD
:102CD000120E491E34D010F8044B491E04F00104B2
:102CE00042EA84122CD010F8044B491E04F001046F
:102CF00042EA441224D010F8044B491E04F00104A7
:102D000042EA04121CD010F8044B491E04F00104DE
:102D100042EAC40214D010F8044B491E04F0010426
:102D200042EA84020CD010F8044B491E04F001045E
:102D300042EA440204D010F8044B04F00104224398
:102D400003F8012B0029C0D1B0E710F8042B92073B
:102D5000120E491E15D010F8044B491E04F003044E
:102D600042EA04120DD010F8044B491E04F003048B
:102D700042EA840205D010F8044B04F00304224315
:102D8000491E03F8012B0029DFD18FE7FFE710F878
:102D9000042B1207120E491E05D010F8044B04F044
:102DA0000F042243491E03F8012B0029EFD17DE7D0
:102DB0000B4810B58169002910D101218161FFF70D
:102DC0000BFFFEF793FD01F07BFB054905481C3125
:102DD0000860BDE81040084600F07CB810BD000057
:102DE0004C010020E5B40008B0F90030B1F9002032
:102DF000934200DA0280B0F90230B1F90220934226
:102E000000DA4280B0F90430B1F90420934200DDC9
:102E10008280B0F90620B1F906108A4200DDC18037
:102E2000704770B5B1F90040B2F900309C4200DD46
:102E300023460380B1F90250B2F90240A54200DDF9
:102E40002C464480B1F90460B2F90450AE4200DA75
:102E500035468580B1F90610B2F90620914200DBB3
:102E60001146C1809D4201DBA14201DA002070BD04
:102E7000012070BD70B5FF23B3EB116F29D0C3B231
:102E800000F47F4500F47F04060E5343554354433A
:102E90005643C2F1FF00CAB202FB003201F47F4385
:102EA00003FB005301F47F0505FB0044090E01FB01
:102EB0000065C2F307204FF47F4101EA13220902A3
:102EC00001EA14214FF07F43104303EA054308430E
:102ED000184370BD02494A6942604861704700006A
:102EE0004C01002010B502E000F8011B521E0AB18F
:102EF0008307F9D1930818D001EB014402F00302D3
:102F000004EB042406E010C01B1F10C040F8084B5F
:102F100040F8044C042BF6DA01E010C05B1E002BD5
:102F2000FBD102E000F8011B521E002AFAD110BDAD
:102F300010B5830702D520F8021B521E530811D08A
:102F400001EB0144042B09DB10C01B1F10C0042B34
:102F500040F8084B40F8044CF6DA01E010C05B1E64
:102F6000002BFBD1D20700D0018010BDFEE700008E
:102F700070B50D4C0025C4F898510C48016821F03B
:102F800070410160016841F040510160C4F89C51FA
:102F9000022004F5CC7409F0C3FB0120206002205C
:102FA00009F0BEFB256070BD00802142000C01408D
:102FB00038B50121082001F013FEC020ADF8000053
:102FC00010208DF803000320054C8DF8020069469F
:102FD0002046FEF773F9C0212046FEF7C4F938BD3C
:102FE000000C014070B50D4C0026C4F898610C48E7
:102FF000016821F070410160016841F040510160B9
:103000000125C4F89C51022004F5CC7409F088FB1A
:103010002560022009F084FB266070BD00802142FB
:10302000000C01402DE9F047814617480024016853
:1030300021F070410160016841F000410160134ED0
:10304000254627464FF00108C6F89871022009F07E
:1030500067FBC6F898816006040ED6F81C0108B11B
:10306000641CE4B2012009F05BFB6D1CEDB2082D7D
:10307000EAD3B9F1000F04D0FFF77AFF2046BDE88C
:10308000F087FFF7AFFFF9E7000C01400080214215
:103090002DE9F04105461648016821F070410160B4
:1030A000016841F040510160124E0027C6F8987146
:1030B0003C464FF00108280602D5C6F89C8101E085
:1030C000C6F89C716806050E022009F029FBC6F8B7
:1030D0009881022009F024FBC6F89871022009F0BB
:1030E0001FFB641CE4B2082CE5D3BDE8F0810000AE
:1030F000000C01400080214270B50D48016821F0AC
:1031000070410160016841F040510160094C0120AB
:10311000C4F89C01C4F89801042004F5CC7409F0AB
:10312000FFFA00256560042009F0FAFA256070BDF9
:10313000000C0140008021420E4810B5016821F0CA
:1031400070410160016841F0405101600A4C00206B
:10315000C4F89801C4F89C01042004F5CC7409F06B
:10316000DFFA012020606060BDE81040042009F013
:10317000D7BA0000000C01400080214270B513480E
:103180000024016821F070410160016841F00041B4
:1031900001600F4D0126C5F89C61304609F0C0FA68
:1031A000C5F89861012009F0BBFA07E0641CE4B29D
:1031B000FA2C03D9FFF7C0FF012070BDD5F81C0120
:1031C0000028F3D1C5F8980170BD0000000C014043
:1031D0000080214208B50121442001F001FD1C209E
:1031E000ADF8000048208DF8030069460648FEF758
:1031F00065F80120ADF8000028208DF8030069462D
:103200000248FEF75BF808BD0018014000080140C5
:103210002DE9F0412E4C2F4F2F4D012608B126707D
:1032200001E02078A0B110212846FEF795F8B0B152
:1032300008212846FEF790F888B104212846FEF7B9
:103240008BF860B101213846FEF786F8012806D0D8
:1032500010212846FEF780F8012824D035E00A2006
:1032600009F042FA0020207010212846FEF774F879
:1032700080B108212846FEF76FF870B10421284676
:10328000FEF76AF858B101213846FEF765F80128C3
:1032900007D01AE00120BDE8F0810220FBE70320FF
:1032A000F9E70420F7E708212846FEF755F801283A
:1032B0000BD104212846FEF74FF8012805D1012142
:1032C0003846FEF749F800B926700020E3E7000011
:1032D000240000200008014000180140C0F34511FF
:1032E000C20AC00200EB4110104480B270470000D7
:1032F0002DE9F043174F0646002438887D88454362
:10330000B888A0F5D041043902D1B879012807D096
:103310000021084600F0DCFE01F0C0F80E4815E080
:103320000020B8714FF02A09A7F80A904FF02B0837
:10333000A7F80C80014600F0CBFE0120B871A7F879
:103340000A80A7F80C90E7E70680641CAC42FBD328
:10335000BDE8F083C80200200008006C0449054A5B
:103360000968497C52F8211009690968084700007A
:1033700058010020700100202DE9F04F4A492A230E
:103380002B24898845F2105A4FF4305B4FF4285EA5
:103390004FF448754FF0F00C49F241394FF4A077E3
:1033A00045F210364FF4F07280B13F484FF00108FB
:1033B000494580F806800780A0F802C001D0B142DC
:1033C0003ED12C2505814381848157E036484FF05A
:1033D0000008494580F80680A0F800C0478006D064
:1033E000A1F5D04CBCF1040C01D0B1420CD12C257C
:1033F00005814381A1F5D0438481043B01D0B142D2
:1034000044D10780428041E0514507D1A0F808B07F
:10341000A0F80AE04FF42C5181810EE0A1F5C856C6
:10342000633E06D022210181202141812121818119
:103430002CE02C210181448183810280458025E09C
:10344000A1F5D04CBCF1040C09D051450BD1A0F82A
:1034500008B0A0F80AE04FF42C53838121E02C251A
:103460000581448109E0A1F5C85CBCF1630C12D070
:10347000222303812123438120238381A1F5D0438B
:10348000043B01D0B14201D102804780BDE8F04F3A
:10349000002000F0DFBC4FF02C0CA0F808C04381E6
:1034A000848105804280E9E7C80200202DE9F04FC1
:1034B00005468DB07B48DDF860901A9C00681E467A
:1034C00017464FF0000A78B11B9B199ACDF8089067
:1034D0000593CDE90324DDE91623CDE90023046833
:1034E00033463A46284680E0DDE9160201EB06083D
:1034F00005EB070C1043A8F10108ACF1010C012801
:1035000006D0C9F108000590002002910990C6E09C
:1035100065480268B2F90A30581A002806DD361AE2
:10352000002E63DD1946199B00FB0344B2F90E001F
:10353000A8EB0000002802DD361A002E56DDB2F995
:103540000C00ACEB0000002800DD3F1AB2F9083097
:103550000020AB4235DD581B3F1A4B46B9F1080F2E
:1035600026D006DC012B0BD0022B11D0042B28D146
:1035700016E0102B1ED0182B1FD0202B21D11CE0C1
:1035800020F0070304EBE0041D4400F0070018E0FE
:1035900020F0030304EBA0041D4400F0030010E03E
:1035A00020F0010304EB60041D4400F0010008E07A
:1035B000044404E004EB400401E004EB800405440F
:1035C0000020002F12DD1B9BDDF864C0CDE9040351
:1035D000CDE90069CDE902C4527C34483B4650F83D
:1035E0002200C26854680A462946A0470DB0BDE8CB
:1035F000F08F1799029808440C902B49401E0090B8
:103600000A68B2F90A30834241DCB2F90E1002981E
:1036100081423CDB4FF0000BD84603950A9434E01E
:10362000BBF1000F05D10A984FF0080B10F801AB61
:103630000A900599ABEB090B3AFA01F00AFA09F185
:1036400001F0FF0A04D118490968097C890716D4DA
:1036500015490968C96B0A680B921B9A0AB152F89E
:103660002000086016990398009B4218521E029988
:1036700000F004FA0C490B980968C96B08600399BB
:10368000169808F1010808440390B845C8DB09986A
:10369000401C09900C980290199804440998B04273
:1036A000A7DBA3E780010020580100207001002063
:1036B000F0B40C4612490968B1F90A30A3421CDC87
:1036C000B1F90E30A34218DBB1F90830834200DDB6
:1036D0001846B1F90C30934200DA1A4682420CDBEC
:1036E0004B7C084951F8235013462246E9688E68FE
:1036F00001462846B446F0BC6047F0BC7047000065
:1037000058010020700100202DE9FE4F0026A2EB99
:10371000000882465F1A701E35468946B8F1000FD0
:1037200002DD4FF0010102E003D14FF000010191F1
:1037300002E0C8F100080190002F02DD4FF0010007
:1037400002E003D14FF00000009002E0C7F1000753
:1037500000904046B84501DD044600E03C46601C50
:103760004FF0000B029015E01FFA89F11FFA8AF062
:1037700000F04AF846443D44A64202DD0199361B5A
:103780008A44A54202DD00992D1B89440BF10100FA
:103790001FFA80FB02998B45E6DDBDE8FE8F000035
:1037A0000A46174930B40968B1F90A30934225DC5A
:1037B000B1F90E30934221DBB1F9083083421DDCB0
:1037C000B1F90C30834219DB0B7C0E4CDB0709D0BE
:1037D000497C54F82130D968CC690146A44630BCF4
:1037E00018466047CB6B497C1B6854F82140E16860
:1037F0008D6901462046AC4630BC604730BC7047FE
:10380000580100207001002000B500F061FC00F0BC
:1038100045FE024802490088088000BD26000020BD
:103820000008006C2DE9FC4F80460024154603205B
:103830000F46A0EB450649E0781B81B208EB040A6D
:1038400001901FFA8AF0FFF7DFFF381B81B208EB07
:10385000050900901FFA89F0FFF7D6FF07EB040B6C
:103860001FFA8BF11FFA89F0FFF7CEFF07EB05096E
:103870001FFA89F11FFA8AF0FFF7C6FFA8EB040AC6
:103880001FFA89F11FFA8AF0FFF7BEFFA8EB0509BE
:103890001FFA8BF11FFA89F0FFF7B6FF019881B28A
:1038A0001FFA8AF0FFF7B0FF009881B21FFA89F083
:1038B000FFF7AAFF641C002E03DA06EB8406B61D90
:1038C00004E0601B06EB80066D1E0A36AC42B3DDD9
:1038D000BDE8FC8F2DE9F04FDFF80C81934642469E
:1038E0000B46B8F804500C0ADFF800A19189060ACB
:1038F0005289A5F513470AF10209413F18D0A5F5F1
:10390000A647103F14D0B7F500771CD04746A5F561
:10391000C85CBE793F883F1A7F1EBCF1630C27D07C
:10392000A5F5D04CBCF1040C3AD0012E4AD04AE0A7
:10393000AAF800204A46A9F80060C0B2A9F8000021
:10394000AAF800103AE0AAF80020A9F80060521C7A
:10395000AAF80020C0B2A9F80000AAF80010A9F83F
:103960000040491CAAF80010D8B2A9F8000033E0C2
:1039700006B9B8B2AAF80020050A4A46A9F80050CC
:10398000C7B2A9F80070A9F80050C0B2A9F80000A9
:10399000AAF80010A9F80040D8B2A9F800000DE07C
:1039A000012E00D1B8B2AAF80020050A4A46A9F8AB
:1039B0000050C0B2A9F80000AAF800101480D8B2D4
:1039C000108009E0B8B20146104600F071FDB8F869
:1039D0000C00194600F06CFDB8F80810AAF80010A9
:1039E000A9F800B0BDE8F08FC8020020FE07006C07
:1039F0002DE9F8431F4D1F468046AB88089EA3F56E
:103A0000D040043802D1A879012807D0A2EB0800E1
:103A1000401C85B20C46DFF8609028E02B880846F1
:103A2000991A0024AC713A462A24A3EB08036C814E
:103A30002B27491E5B1EAF8189B29BB20096FFF710
:103A4000D7FF0120A8716F81AC81BDE8F8832146C2
:103A5000404600F03DFB00F021FD0020494602E019
:103A60000E80401C80B2A842FAD3641CA4B2BC42AF
:103A7000EDD9EAE7C80200200008006C38B5134C05
:103A80002468B4F90850854200DD2846B4F90C508A
:103A9000954200DA2A46824217DBB4F90A508D4279
:103AA00000DD2946B4F90E509D4200DA2B468B42C8
:103AB0000BDB0093647C064B53F82440E3681D69DC
:103AC00013460A4601462046A84738BD5801002043
:103AD00070010020082107F079BA0000024809218E
:103AE0000068407C07F072BA58010020092107F0F5
:103AF0006DBA70B500252C462046FEF76BF900B173
:103B00006D1C641C022CF7DB284670BD024800685F
:103B1000407C00F003B800005801002010B5FEF70B
:103B200059F9002805D0C168CA6ABDE810400221D1
:103B3000104710BDF8B515460E460124FEF74AF9A8
:103B4000009058B1C0680421426A6846904703005B
:103B500004D02A4631460098984700242046F8BDF4
:103B60000148006870470000D8010020012107F0DB
:103B70002DBA012007F08EBA014840687047000056
:103B8000D8010020022107F021BA022007F082BAF2
:103B9000AFF300802DE9F041002809D0876837B1E4
:103BA0000D4E716819B10468B4F5807F02DD002004
:103BB000BDE8F0813068844200DD0446002507E05E
:103BC00057F82500FFF7CAFB716841F825006D1C06
:103BD000A542F5DB7068EBE79C0200200449054A2A
:103BE0000968497C52F821100969496808470000B2
:103BF000580100207001002010B500F01F01074A95
:103C0000074BC0F34514C0F3C4201B5D105C515C2E
:103C100000EB032000EB014010BD0000641B010815
:103C2000841B010810B50A4C606860B920688000E8
:103C3000FDF7D6FE606040B104F108010548086058
:103C40000846FFF747F9002010BD012010BD000015
:103C50009C02002059B500082DE9F047FFF749FF05
:103C600007460024DFF860802AE02046FEF7B2F81D
:103C700028B3D8F8000090F8119044742046FFF75C
:103C800029FF082817DC1148114950F82400006961
:103C9000884210D02046FFF729FF0646002508E09D
:103CA000E8B2FFF79BFF0246E9B2204600F0C0FAF7
:103CB0006D1CB542F4DBD8F8001081F81190641C3B
:103CC000BC42D2DBBDE8F087580100207001002023
:103CD000E81E01080346012000E05843491EC9B20E
:103CE000FBD27047034808B50088ADF80000BDF866
:103CF000000008BD0008006C2DE9F0413E4E002494
:103D000025463288824202D972888A4202D800202F
:103D1000BDE8F08100F0DCF9B08849F24138374B5A
:103D200041F6631745F2103145F21052404508D074
:103D3000A0F5D04CBCF1040C03D0884201D0B842AD
:103D400002D14FF02E0C06E0904202D14FF4385CC5
:103D500001E04FF0220CA3F800C0A0F51343203B74
:103D600003D10220401EC0B2FCD2FFF7BBFFB388D4
:103D7000BB42CDD00220401EC0B2FCD2FFF7B2FF42
:103D80000746B088404503D0884201D090420BD10D
:103D90000220401EC0B2FCD2FFF7A4FF0546F8B2D5
:103DA0004FF6FF7303EA0024B088A0F51343253BC8
:103DB0001AD0A0F58A43353B16D01B1D14D0A0F5B0
:103DC0003543053B10D0B3F580530DD0404503D0AB
:103DD000884201D0904209D1F80AC002A10A40EA03
:103DE000411040EAD52093E7384691E73846BDE8D0
:103DF000F041FFF773BA0000C8020020FE07006C14
:103E0000044910B50880052008F08AFCBDE8104080
:103E1000FFF768BFFE07006C0C4A10B5BE21118089
:103E2000941C052121800AF086FF4FF06632084B72
:103E30000AF0D0FF0AF052FF208001202080FF20EE
:103E4000208000202080208010BD0000FE07006C34
:103E500066660440F0B5674E00233146B279898822
:103E600046F6040741F66314012A01D02AB11DE089
:103E7000B9421BD0A14202D118E0A14216D10828B4
:103E800014D2DFE800F00406080A0C0E1012062017
:103E90000CE007200AE0042008E0052006E00120ED
:103EA00004E0002002E0032000E00220A1F5134C12
:103EB00045F2103245F21055BCF1410C07D0B94221
:103EC00005D0914203D0A94201D0A14275D1082862
:103ED00012D2DFE800F0110406080A0C0E1080234D
:103EE0000AE0402308E0C02306E0202304E060232A
:103EF00002E0A02300E0E023A94202D14FF4585091
:103F000000E03620914205D0A94203D0A14201D061
:103F100043F00803B94201D143F00203194600F00F
:103F2000C7FAB288A2420AD098063088718802D5B2
:103F3000884202D303E0884201D9318070802E4844
:103F4000811CAA427289028021D100230B80531C5C
:103F5000038000230B80931C038033885B1E1C0AA4
:103F60000C80D21C0280DAB20A80B289028000235F
:103F70000B80531C038000230B80931C03807388E9
:103F80005B1E1C0A0C80D21C0280D8B212E00022F8
:103F90000A800A803288521E130A0B80D2B20A802D
:103FA000B28902800020088008807088401E020AC2
:103FB0000A80C0B20880F0BDFFE7082812D2DFE80F
:103FC00000F0040608110A0C0E1030230AE010233A
:103FD00008E0202306E0382304E0282302E0182329
:103FE00000E00823BDE8F040032043F4805100F0D6
:103FF0005FBA0000C8020020FE07006C10B50D4C2F
:104000000D492068407C51F8200048B1C16811B1C9
:104010000968042901D00068F7E708B1FDF7C0FE80
:1040200020680021016600F108014161BDE81040EF
:1040300000F02EB8580100207001002001490968E5
:104040004968084798020020044909680A7C520719
:1040500001D5C96B00E0896B0860704758010020EA
:104060007CB5094C05462068417C084850F8210081
:10407000C1680A6B6946904720686A46294608303D
:10408000FEF7CFFE7CBD000058010020700100202B
:104090000448016804484A7C083150F82200C2688C
:1040A000126B104758010020700100200149096877
:1040B0000968084798020020044909680A7C5207E9
:1040C00001D5896B00E0C96B08607047580100207A
:1040D0002DE9F04F4E4F0B463A46BD880C0ADFF8EB
:1040E00034B191895289A5F513464FEA102C0BF192
:1040F000020A413E1DD0A5F5A646103E19D03E4607
:10410000BE4696F806903688A5F5D047A6EB00087F
:10411000A8F10108043F17D0A5F5C857633F28D080
:10412000A5F5AA477646103F51D0B9F1010F63D0EB
:1041300064E0ABF800205246AAF800C0C0B2AAF86A
:104140000000ABF800100FE0B9F1010F01D11FFA28
:1041500088F0ABF80020050A5246AAF80050C0B219
:10416000AAF80000ABF800101480D8B21080BDE8A7
:10417000F08FB9F1000F1BD0ABF800205246AAF81F
:1041800000C0C0B2AAF80000761E300AAAF80000EB
:10419000F0B21080ABF8001011461480D8B2108035
:1041A000BEF80200401E020A0A80C0B20880DEE7A4
:1041B0001FFA88F0ABF8002000265246AAF80060EB
:1041C000AAF80060060AAAF80060C0B2E1E7ABF8FE
:1041D0000020AAF800C0521CABF80020C0B2AAF818
:1041E0000000ABF80010AAF80040491CABF8001022
:1041F000D8B2AAF80000BAE71FFA88F001461046C4
:1042000000F056F9B089BDE8F04F194600F050B9FA
:10421000C8020020FE07006C014AC2E90001704795
:10422000D8010020014909688968084798020020E0
:10423000F8B515460E460124FDF7CCFD009058B1A7
:10424000C0681021426A68469047030004D02A469D
:1042500031460098984700242046F8BDF8B5154629
:104260000E460124FDF7B6FD009058B1C068032149
:10427000426A68469047030004D02A4631460098B7
:10428000984700242046F8BDF8B515460E4601248F
:10429000FDF7A0FD009058B1C0680B21426A684646
:1042A0009047030004D02A463146009898470024DE
:1042B0002046F8BDF8B515460E460124FDF78AFDE7
:1042C000009058B1C0680A21426A684690470300CE
:1042D00004D02A4631460098984700242046F8BD6D
:1042E0002DE9F84F82461F460C468B46580700D0F2
:1042F000012000EBD70079084843203AC0B202F011
:10430000FF090026009041E00C2F10D0102F12D092
:10431000182F3ED1204909EBC90001EB80004FF076
:104320000008855D28060AD51C4802880BE009EBC9
:1043300049001B49F1E71B4901EB0910EFE70A9817
:1043400028B91648428821465046FFF7C3FA680646
:10435000050E1548641CA4B24088A04219D9A4EBEC
:104360000B00B84209D10AF101001FFA80FA0E4889
:104370005C46018851450CD906E008F1010000F0C7
:10438000FF08B8F1080FCDD3761CF6B2009886422C
:10439000BAD3BDE8F88F00003605010826000020DA
:1043A000D2FA000846FF0008C80200202DE9FF4F9E
:1043B00081B00027DDF838B01D46924680463C4665
:1043C000B9464FEA5B0627E0281B401EC1B20A200F
:1043D000FFF780FCBAFBF0F00A21B0FBF1F201FB21
:1043E000120027B9691E8C4201DA48B1012730302A
:1043F000C2B206FB048080B25B46CDF8009006E0B6
:1044000006FB048080B25B462022CDF80090029922
:10441000FFF766FF641CE4B2AC42D5D305B0BDE83B
:10442000F08F2DE9F84F044600F0FF0810190D46F3
:10443000DDE90A761FFA80FA58191FFA80F94FF061
:10444000000B11E0544502D3E819444685B24D45AE
:104450000FD23B4629462046CDF800B0FFF740FF7B
:1044600004EB570084B2761C3278A2F120005E285B
:10447000E8D9BDE8F88F000010B5074C2068006B44
:10448000FEF76CFFFFF718FE2068406BFEF766FF33
:10449000BDE81040FFF7D8BD58010020024803498D
:1044A0000089088070470000C8020020FE07006CE9
:1044B000024A1080901C018070470000FE07006CCB
:1044C0002DE9F84300231A463C493D48FDF704FC1A
:1044D0003C4E002072883188FFF7D6FE7288318802
:1044E0000020FFF7E7FEB08840F2DF14671CA0F55C
:1044F000AA4140F21F354FF44878103921D0A0F579
:10450000C851633927D0A0F5A6414FF4A0781039DF
:1045100031D0A0F5D04104392DD0B07940F63F75A7
:1045200040F65F74E8B30620FEF774FA00219B237F
:10453000F02208460095FEF783F9BC23009442461A
:1045400013E000233A46194618460094FEF778F91E
:1045500000230095F3E700234246194618460095CC
:10456000FEF76EF90023009419E000210120FEF708
:1045700067F9BDE8F883B079E22440F65B76C4259C
:1045800040F6E46910B10620FEF744FA00213346F4
:10459000424608460094FEF753F94B4600953A46CA
:1045A000E3E7FFE70095002132889B230846FEF7EA
:1045B00047F900947288BC23D7E70000C0130108B4
:1045C00084130108C8020020012902D04FF0FF30F7
:1045D00070470020704700002DE9FF4F8DB017464F
:1045E000674ADDF870901E9E209812681D460024D0
:1045F0008AB11D9B1F98CDE90293CDE90460DDE9E6
:104600001A03CDE9000314682B463A460D98A047DB
:1046100011B0BDE8F08F0D9A01EB050802EB070C15
:10462000DDE91A231A43A8F10108ACF1010C012AB3
:1046300006D0C9F108004FF0000B029105909CE0F4
:10464000504A1268B2F90A40631A002B06DDED1ACF
:10465000002DDDDD21461D9C03FB0466B2F90E3002
:10466000A8EB0303002B02DDED1A002DD0DDB2F91B
:104670000C30ACEB0303002B00DDFF1A0D9B1C1A62
:10468000B2F90830A3420DDDA3EB040C0CEB0003E0
:10469000181A20F007000444A7EB0C0706EBE3060A
:1046A00003F00700002FB3DDDDF874C01F9BCDE9D8
:1046B00002C6CDE90403CDE90059527C32483B469D
:1046C00050F82200C26855680A462146A8479FE76D
:1046D0001B99029808440C902A49401E00900A68D1
:1046E000B2F90A30834242DCB2F90E1002988142DC
:1046F0003DDB4FF0000A0D980A96D046039034E057
:10470000BAF1000F05D10A984FF0080A10F8014BD2
:104710000A900599AAEB090A34FA01F004FA09F49F
:10472000E4B204D117490968097C890717D41549EF
:104730000968C96B0A680B921F9A0AB152F82000E7
:10474000086003991A98009B0A18DDE90210521EAE
:10475000FFF794F90B490B980968C96B0860039936
:104760001A9808F1010808440390B845C8DB0C9872
:1047700002901D980BF1010B0644AB45A8DB47E7FF
:10478000800100205801002070010020002818D06E
:10479000410817D0810817D0C10817D0010917D0D8
:1047A000410917D0010A17D0410A17D0010B15D0C3
:1047B000C10B13D0010C11D0810C11D0000E11D0FF
:1047C0002020704701207047022070470320704767
:1047D000042070470520704708207047102070475C
:1047E000122070471820704700B50022FFF7CEFF57
:1047F000012804D0811E062903D808220BE00122DB
:1048000009E0A0F10901072901D8102203E01138BD
:104810000F2800D82022104600BD000038B5012125
:10482000482000F0DDF92024ADF8004010208DF87C
:10483000030003200B4D8DF8020069462846FCF763
:104840003DFD20212846FCF78EFDADF80040064CCA
:1048500069462046FCF732FD20212046FCF783FD07
:1048600038BD0000000C014000180140FEE7704711
:1048700030B50F23C27801780125F2B1144A1268CD
:1048800001F1E02102F4E062C2F5E062120AC2F135
:104890000404D3404278A24084781C40144322018F
:1048A00081F80024007800F01F018D40400980004D
:1048B00000F1E020C0F8005130BD01F01F0085403C
:1048C0004809800000F1E020C0F8805130BD0000B0
:1048D0000CED00E0024908430249086070470000FF
:1048E0000000FA050CED00E038B51E4800258DF8F3
:1048F0000050816941F0800181611B48016821F409
:104900007F410160016841F4605101601648083040
:10491000016841F440610160FCF744F9134CC4F8AC
:10492000AC51642004F5D67407F0DEFE012020604F
:10493000642007F0D9FE012000F002F90122694647
:104940004FF4506000F01AF89DF8001008A0FBF733
:10495000DBFC9DF80000802801D0012038BD00203C
:1049600038BD000000100240041C014000802342BA
:104970004354502049443A25780D0A002DE9F0416E
:1049800015460F460446FCF7CFF9B220FCF798F91C
:10499000FCF712FA200AFCF793F9FCF70DFAE0B2E3
:1049A000FCF78EF9FCF708FAFCF7BEF9B320FCF728
:1049B00087F9FCF701FA00246E1E09E0B44201D029
:1049C000012000E00020FCF741F93855641CE4B2F6
:1049D000AC42F3D3BDE8F041FCF7CCB92DE9F14F7F
:1049E0004F4F00244FF00A08387882B0401CC0B204
:1049F000B0FBF8F208FB12014A4E2546387009B1A7
:104A00000A2871D2012202A90020FFF7B7FF9DF802
:104A10000800C1066CD000F01F0040F0C000DFF8B5
:104A200008A1DFF808B186F820004FF0010996F8D8
:104A3000201009FA04F0014249D03D480422694699
:104A400030F81400FFF79AFF96F830009DF8021036
:104A5000C0079DF8030000EB01201ED00AF06BF99F
:104A600052465B460AF0B6F90AF038F906EB4405FF
:104A7000E8829DF801009DF8001000EB01200AF08B
:104A80005AF92C4A2C4B0AF0A5F900222B4B0AF0BC
:104A9000D5FA0AF023F9A88119E00AF04CF9524638
:104AA0005B460AF097F90AF019F906EB4405A8816C
:104AB0009DF801009DF8001000EB01200AF03BF981
:104AC0001C4A1D4B0AF086F90AF008F9E882641CBA
:104AD000E4B2052CABD30125B28900211AB9F08AC2
:104AE00008B98DF8081039709DF80800C0060ED17D
:104AF00096F82000010602D520F0800005E04FF670
:104B0000FF71B181F18200F0E00086F82000387872
:104B1000F02801D987F800802846BDE8FE8F000004
:104B20002C000020340000207B14AE47E17AD43FF3
:104B30005E130108D881734694F6D23F0000894085
:104B400008B500218DF8001010B180208DF800000C
:104B5000012269464FF4506000F001F808BD2DE9CC
:104B6000F04115460E4604460027FCF7DDF8B2205A
:104B7000FCF7A6F8FCF720F9200AFCF7A1F8FCF7EF
:104B80001BF9E0B2FCF79CF8FCF716F9002408E0EA
:104B9000305DFCF795F8FCF70FF9070003D1641CB2
:104BA000E4B2AC42F4D3FCF7E5F83846BDE8F08156
:104BB000044A0029516901D0014300E08143516159
:104BC0007047000000100240044A0029D16901D05A
:104BD000014300E08143D1617047000000100240B2
:104BE000044A0029916901D0014300E081439161A9
:104BF000704700000010024030B5204A5168204B39
:104C000011F00C0103D0042901D0082901D0036060
:104C100012E05168536801F470114FF0020413F46C
:104C2000803F04EB914102D053689B0301D5154BA3
:104C300000E0134B5943016051680F2303EA11113F
:104C4000114B5C5C0168E14041605468072505EA4E
:104C500014241C5D21FA04F48460546805EAD42409
:104C60001B5DD940C1605268032303EA9232064BB0
:104C70001B1F9A5CB1FBF2F1016130BD00100240D4
:104C800000127A0000093D00800000200CB50022CF
:104C9000264800920192016841F4803101604FF48E
:104CA000A063016801F4003101910099491C009151
:104CB000019911B900999942F3D10168890333D55B
:104CC000012101911A490A6842F010020A600A683B
:104CD00022F003020A600A6842F002020A60416898
:104CE000416041684160416841F4806141604168D0
:104CF00021F47C114160416841F4E8114160016890
:104D000041F08071016001688901FCD5416821F0A2
:104D100003014160416841F0020141604168C1F313
:104D200081010229FAD10CBD01920CBD0010024094
:104D3000002002404FF0E0210428086903D020F051
:104D400004000861704740F00400FAE710B509F06C
:104D500085FC012803D0BDE8104009F05BB910BD07
:104D60000F4810B5016841F00101016041680D4A2A
:104D70001140416001680C4A11400160016821F452
:104D800080210160416821F4FE0141604FF41F0160
:104D90008160FFF77BFF05494FF00060086010BDA0
:104DA000001002400000FFF8FFFFF6FE08ED00E0F3
:104DB0002DE9F04F01210E029FB03046FFF7F8FEBB
:104DC00001214FF4B470FFF70BFF0127ADF83C70E1
:104DD0004FF010088DF83F8003248DF83E400FA956
:104DE000FE48FCF76BFA4CF23370ADF83C00182526
:104DF0008DF83F508DF83E400FA9F948FCF75EFA58
:104E00004FF68070ADF83C008DF83F508DF83E4075
:104E10000FA9F448FCF752FA41F20100ADF83C004A
:104E20008DF83F508DF83E400FA9EF48FCF746FA49
:104E300000200F21CDE918011A901B901C901D90A5
:104E40001090CDE91104CDE91607149006211590B4
:104E5000CDE90010CDE90208139004903101CDE9AD
:104E600008010690059007908900CDE90A010C9091
:104E700017A80D9010A80E906846FBF7E5FF0121DA
:104E80000620FBF7D1FF322007F02EFC0020FEF7B2
:104E9000B7FFD64DD64C49F24139A88046F6040AF0
:104EA00045F2103B45F210574FF6FF78FF2804D328
:104EB000404502D0B0F5134F70D1D3202080FEF7CB
:104EC00011FFA880FEF70EFFA880FEF70BFF08EA8F
:104ED00000204146A880FEF705FFAA881043A8805D
:104EE00048455BD0BF202080FEF7FCFEA880FEF77F
:104EF000F9FEA880FEF7F6FEA880FEF7F3FE01EAB1
:104F00000020A880FEF7EEFEAA881043A880504536
:104F100044D0D4202080FEF7E5FEA880FEF7E2FE14
:104F2000A880FEF7DFFE01EA0020A880FEF7DAFE87
:104F3000AA881043A880584530D04FF45A402080AA
:104F4000FEF7D0FEA8804FF45B402080FEF7CAFE3B
:104F500001EA0020A8804FF45C402080FEF7C2FEEA
:104F6000AA881043A880B0F5004F7DD0B84215D074
:104F7000A1202080FEF7B6FEA880FEF7B3FE01EA6E
:104F80000020A880FEF7AEFEA9880843A0F5AE4138
:104F9000A880613902D141F66310A880A98895A044
:104FA000FBF7B2F9A888924DAD1C48457ED1CF20C1
:104FB000208000202880C120288030202880ED20FB
:104FC00020806420288003202880122028808120CF
:104FD0002880E820208085202880102028807A20C2
:104FE0002880CB202080392028802C202880002079
:104FF00028803420288002202880F720208020204C
:105000002880EA202080002028802880C02020805E
:105010001B202880C120208001202880C5202080DE
:10502000302028802880C7202080B7202880362084
:105030002080482028803A20208055202880B120D8
:105040002080002028801A202880B62020800A2076
:105050002880A2202880F22020800020288026207E
:1050600020800120288000E051E0E02020800F20F7
:1050700028802A20288028202880082028800E20A8
:1050800028800820288054202880A92028804320B8
:1050900028800A2028800F2028800020288028804F
:1050A00028802880E1202080002000E031E0288056
:1050B000152028801720288007202880112028808C
:1050C000062028802B202880562028803C202880FD
:1050D00005202880102028800F2028803F2028804D
:1050E00028800F2028802B202080002028802880E6
:1050F000012028803F2028802A202080002028802E
:1051000028802880EF2028801120208084E0AF8034
:1051100044E7504576D111202080142007F0E4FAAE
:10512000D020208007202880422028801D20288031
:10513000D1202080002028801A2028800920288063
:10514000D22020800120288022202880C02020809A
:10515000102028803B2028800020288002202880E2
:1051600011202880C520208003202880C82020808E
:1051700000202880252028802120288005202880C4
:10518000002028800A20288065202880252028806B
:1051900077202880502028800F2028800020288019
:1051A000F820208001202880FE20208000202880F8
:1051B000022028802020208036202080082028807F
:1051C0003A202080552028802B2020800020288015
:1051D0002880012028803F20288014E0000C014016
:1051E000001401400018014000200140C8020020C6
:1051F000FE07006C204C43442049443A25780D0AB0
:10520000000000000EE02A20208000202880288056
:1052100001202880DF202880782007F065FA2920E7
:1052200001F02DBC58457DD1ED2020800120288043
:10523000FE202880EE202080DE202880212028806B
:10524000F120208001202880DF202080102028806D
:10525000C42020808F202880C62020800020288025
:10526000E220288028802880BF202080AA20288053
:10527000B02020800D202880002028800D2028804C
:1052800000202880112028800020288019202880D4
:105290000020288021202880002028802D202880A0
:1052A000002028803D202880002028805D20288044
:1052B000002028805D20288000202880B1202080C8
:1052C00080202880002028808B20288000202880B3
:1052D0009620288000202880B2202080002028806E
:1052E0002880022028800020288003202880002099
:1052F0002880B320208000202880288028802880D3
:10530000288028802880288028802880288028805D
:10531000288028802880288028802880288028804D
:10532000288000E0FEE3288028802880B4202080A8
:105330008B2028800020288096202880002028802C
:10534000A120288000202880B520208002202880ED
:105350000020288003202880002028800420288026
:1053600000202880B6202080002028802880B720B8
:1053700020800020288028803F202880002028804E
:105380005E2028800020288064202880002028803B
:105390008C20288000202880AC20288000202880B5
:1053A000DC20288000202880702028800020288091
:1053B0009020288000202880EB2028800020288052
:1053C000DC20288000202880B82020800020288031
:1053D0002880288028802880288028802880BA205B
:1053E0002080242028800020288028802880C12038
:1053F0002080202028800020288054202880002021
:105400002880FF20288000202880C22020800A20B9
:105410002880002028800420288000202880C320A5
:1054200020803C202880002028803A2028800020EE
:1054300028803920288000202880372028800020DC
:1054400028803C20288000202880362028800020CA
:10545000288032202880002028802F2028800020CB
:1054600028802C20288000202880292028800020C7
:1054700028802620288000202880242028800020C2
:1054800028802420288000202880232028800020B5
:1054900028803C202880002028803620288000207A
:1054A000288032202880002028802F20288000207B
:1054B00028802C2028800020288029202880002077
:1054C0002880262028800020288024202880002072
:1054D0002880242028800020288023202880002065
:1054E0002880C42020806220288000202880052079
:1054F0002880002028808420288000202880F02018
:105500002880002028801820288000202880A420BF
:105510002880002028801820288000202880502003
:105520002880002028800C20288000202880172038
:105530002880002028809520288000202880F320C3
:10554000288000202880E620288000202880C52090
:1055500020803220288000202880442028800020BD
:105560002880652028800020288076202880002040
:1055700028808820288000202880C62020802020A5
:1055800028800020288017202880002028800120E3
:10559000288000202880C7202080002028802880A4
:1055A00028802880C820208000202880288028800B
:1055B0002880C920208000202880288028802880FA
:1055C000288028802880288028802880288028809B
:1055D0002880288028802880E020208016202880AD
:1055E000002028801C20288000202880212028805E
:1055F000002028803620288000202880462028800F
:1056000000202880522028800020288064202880C4
:10561000002028807A202880002028808B20288065
:10562000002028809920288000202880A820288019
:1056300000202880B920288000202880C4202880CD
:1056400000202880CA20288000202880D22028809E
:1056500000202880D920288000202880E020288071
:1056600000202880F320288000202880E12020804E
:1056700016202880002028801C20288000202880D8
:1056800022202880002028803620288000202880A2
:105690004520288000202880522028800020288053
:1056A00064202880002028807A20288000202880FC
:1056B0008B202880002028809920288000202880A6
:1056C000A820288000202880B92028800020288059
:1056D000C420288000202880CA202880002028801C
:1056E000D220288000202880D820288000202880F0
:1056F000E020288000202880F320288000202880B7
:10570000E220208005202880002028800B2028808F
:10571000002028801B20288000202880342028801A
:105720000020288044202880002028804F202880C6
:10573000002028806120288000202880792028806F
:10574000002028808820288000202880972028801A
:1057500000202880A620288000202880B7202880CC
:1057600000202880C220288000202880C720288090
:1057700000202880D120288000202880D620288062
:1057800000202880DD20288000202880F320288029
:1057900000202880E3202080052028800020288009
:1057A0000A202880002028801C20288000202880B3
:1057B0003320288000202880442028800020288052
:1057C0005020288000202880622028800020288007
:1057D00078202880002028808820288000202880A9
:1057E0009720288000202880A6202880002028805C
:1057F000B720288000202880C22028800020288010
:10580000C720288000202880D120288000202880E0
:10581000D520288000202880DD20288000202880B6
:10582000F320288000202880E42020800120288088
:105830000020288001202880002028800220288045
:10584000002028802A202880002028803C202880D2
:10585000002028804B202880002028805D20288080
:105860000020288074202880002028808420288020
:10587000002028809320288000202880A2202880D3
:1058800000202880B320288000202880BE20288087
:1058900000202880C420288000202880CD20288057
:1058A00000202880D320288000202880DD20288028
:1058B00000202880F320288000202880E5202080F8
:1058C000002028802880288028800220288000202E
:1058D000288029202880002028803C202880002043
:1058E00028804B202880002028805D2028800020F0
:1058F0002880742028800020288084202880002090
:1059000028809320288000202880A2202880002042
:105910002880B320288000202880BE2028800020F6
:105920002880C420288000202880CD2028800020C6
:105930002880D320288000202880DC202880002098
:105940002880F320288000202880E6202080112055
:10595000288000202880342028800020288056209D
:10596000288000202880762028800020288077202A
:105970002880002028806620288000202880882019
:105980002880002028809920288000202880BB20A3
:1059900028800020288099202880002028806620E8
:1059A000288000202880552028800020288055202D
:1059B000288000202880452028800020288043203F
:1059C0002880002028804420288000202880E7208C
:1059D0002080322028800020288055202880002028
:1059E00028807620288000202880662028800020BB
:1059F00028806720288000202880672028800020B9
:105A00002880872028800020288099202880002056
:105A10002880BB2028800020288099202880002012
:105A2000288077202880002028804420288000209B
:105A300028805620288000202880232028800020CD
:105A400028803320288000202880452028800020BE
:105A50002880E82020800020288028809920288025
:105A60000020288087202880002028808820288007
:105A70000020288077202880002028806620288029
:105A8000002028808820288000202880AA202880C4
:105A900000202880BB202880002028809920288092
:105AA000002028806620288000202880552028801B
:105AB000002028805520288000202880442028802D
:105AC000002028804420288000202880552028801D
:105AD00000202880E9202080AA202880002028801B
