:020000040800F2
:10000000E8C50020DD0100080BDC0008E99B0008C2
:1000100009DC0008011C0008292B01080000000071
:100020000000000000000000000000004501000882
:10003000F9210008000000008901000825EA0008F5
:10004000F7010008F7010008F7010008F7010008B0
:10005000F7010008F7010008F7010008F7010008A0
:10006000F7010008F7010008F7010008F701000890
:10007000F7010008F7010008F7010008F701000880
:10008000611F0008911F0008F7010008F701000830
:10009000F7010008F7010008F7010008F701000860
:1000A000F7010008F7010008F7010008F701000850
:1000B000F7010008711A0108251B0108F701000863
:1000C000F7010008F7010008F7010008F701000830
:1000D000F70100085D280108C1280108F7010008A0
:1000E000F7010008F7010008F7010008F701000810
:1000F000F7010008F7010008F7010008F701000800
:10010000F7010008F7010008F7010008F7010008EF
:10011000F7010008F7010008F7010008F7010008DF
:10012000F7010008F7010008F7010008F7010008CF
:10013000DFF80CD000F0E2FF00480047352A020843
:10014000E8C50020224B19680868B0E8F00F80F37A
:100150000988BFF36F8F4FF0000080F311884EF0D5
:100160000D0E70470000000006480068006880F32C
:10017000088862B661B6BFF34F8FBFF36F8F00DFA1
:1001800000BF00BF08ED00E0EFF30980BFF36F8F01
:100190000F4B1A6820E9F00F106008B54FF05000BF
:1001A00080F31188BFF34F8FBFF36F8F24F0C6F930
:1001B0004FF0000080F31188BDE808401968086816
:1001C000B0E8F00F80F30988BFF36F8F704700BF6E
:1001D00014010020EFF305807047000006488047B7
:1001E00006480047FEE7FEE7FEE7FEE7FEE7FEE71C
:1001F000FEE7FEE7FEE7FEE739EA00083101000806
:1002000010B5431A934209D28318881803E010F8F6
:10021000011D03F8011D521EF9D210BD40EA010371
:100220009B0703D009E008C9121F08C0042AFAD2AC
:1002300003E011F8013B00F8013B521EF9D210BD5A
:10024000D2B201E000F8012B491EFBD27047002218
:10025000F6E710B513460A4604461946FFF7F0FFC5
:10026000204610BD421C10F8011B0029FBD1801A4A
:10027000704710B5002200E0521C835C8C5CA342E6
:1002800001D1002BF8D1D8B2E1B2401A10BD30B57F
:1002900004460020034600E05B1C934203D2E05C6E
:1002A000CD5C401BF8D030BD034611F8012B00F89F
:1002B000012B002AF9D11846704700002DE9FF4FA5
:1002C000087881B09946FF2805D0491C2D2804D014
:1002D0000024002308E000230BE00124F9E703EBEE
:1002E000830300EB4303491C0878FF28F7D104B1CE
:1002F0005B4200200090147801462D2C01D02B2C5D
:1003000004D1521C2D2C12D0002400940025167804
:10031000FF2E0ED00A24A0FB04C801FB0481002795
:1003200000FB0711521C16EB0C006941EFE701249A
:10033000EBE7994450EA01020ED00024AA4D26466C
:10034000DFF8A88200F0B5FE82468B46B9F10000C6
:1003500009DAC9F100071BE001980021C0E900118A
:1003600005B0BDE8F08F074612E0F80707D0224637
:100370002B463046414600F0C5FA064688462246DE
:100380002B461046194600F0BDFA04460D467F1074
:10039000002FEAD1B9F1000F324643465046594684
:1003A00002DA00F021FB01E000F0ACFA009A0AB199
:1003B00081F00041019AC2E90001D1E72DE9FF4F28
:1003C0001F468DB0D7E901464FF0FF382E20454635
:1003D0004FF000090B90B9696D1C0E988847396A77
:1003E000824688470028F6D1BAF1FF3F0AD024F4AC
:1003F000D064002E11DDBAF12B0F08D0BAF12D0F09
:100400000BD102E0404611B0ABE744F48064B96917
:100410006D1C0E9888478246761E6946600501D598
:100420002D2000E02B208DF8000001F1010B0DF1D3
:10043000200809E0B9696D1C0E98884782460F981C
:1004400044F40074761E0560002E02DDBAF1300F10
:10045000F0D00B998A453ED144F0800406E00F9914
:10046000681CA9F1010944F400740860B9696D1CA5
:10047000761E0E98884782463028F0D02BE00B99E4
:100480008A4505D1200603D444F08004761E18E086
:10049000504621F013FC08B30DF11301761E44F40D
:1004A00000748B4508D2AAF130000BF8010B20062E
:1004B00007D5A9F1010003E0200602D409F10100EB
:1004C0008146A00502D50F99681C0860B9696D1CAA
:1004D0000E9888478246002ED1DC53E0002E51DD75
:1004E000BAF1650F02D0BAF1450F4BD1A00549D53D
:1004F000B9696D1C24F44074761E0E9888478246B4
:10050000002E0CDD2B2804D0BAF12D0F07D144F4B6
:100510008074B9696D1C0E9888478246761EE00586
:1005200001D52D2100E02B2108F8011BCDF82C80EE
:1005300021E00DF12901761E44F4007488450CD2A7
:10054000AAF1300010F0FF0088F8000002D10B99EA
:10055000884509D908F1010806E0E00501D52448DD
:1005600001E042F20F708146B9696D1C0E98884710
:1005700082460F980560002E04DD504621F09EFB58
:100580000028D6D1F9690E988847FF208BF8000023
:1005900088F800000020069007904B466A4608A99C
:1005A00006A8FFF78BFEA00502D46FF001002AE732
:1005B00014F0240F0AD0E00714D1DDE906123868E0
:1005C000031D3B600068C0E900120BE0DDE9060195
:1005D00000F03CFB0146E00704D13868021D3A6098
:1005E0000068016028460EE7000024400000F03F4C
:1005F000F1D8FFFF70B5064620F058FB04680546A9
:100600000A220021304600F037FC2C6070BDF0B4A7
:1006100080EA0102D40F4200B2EB410F02D202463F
:10062000084611464A0042D0C30DDDB2C1F3C7529D
:10063000AD1A202D35DAC1F3160141F4000204B1E0
:100640005242C5F1200602FA06F12A411044B3EBEA
:10065000D05F23D0C4B1012DA0EBC35009DCF0BCA6
:100660004FF0004202EAC352DBB200F5000000F096
:1006700044BC400000F1807000EBC350A0F18070DA
:1006800040EAD170490009E0490841EAC071A0EB95
:10069000C35000F50000400800EBC350F0BC00F070
:1006A00023BC6142012202EB4101001BF6E7F0BCD2
:1006B000704781F00041AAE780F00040A7E780EA98
:1006C000010210B502F00043400022D04A001FD0C2
:1006D000010E01EB1261C0F35600C2F3560240F462
:1006E000000042F40002A0FB022000047F39140441
:1006F00000D0401C50EA124001D44000491EC2B252
:100700000C0604EBD010401C4008802A02D003E005
:10071000002010BD20F00100002900DA002018435D
:1007200010BD30B480EA010202F0004530F0004212
:1007300021F0004013D090B1C30DD40DC2F31601C7
:10074000C0F31600E41A41F4000140F400027D34C5
:10075000914201D3641C00E04900002C02DA30BC55
:10076000002070474FF400000023914201D3891A02
:10077000034340084FEA4101F7D151B1914202D100
:100780004FF0004105E002D24FF0010101E06FF0AF
:10079000010103EBC450284430BC00F0A5BB42006B
:1007A00005D0C0F3C7525242914201DC002070478D
:1007B00000EBC15070472DE9FE4F804681EA0300EF
:1007C000C00F0C46009021F0004123F00045B8EB2B
:1007D0000200A94105D24046214690461C460B46E0
:1007E000024623F00040104347D0270DC7F30A000C
:1007F000C3F30A510290401A019040286BDAC3F308
:10080000130040F4801B0098924620B10023D2EBE5
:10081000030A63EB0B0B01985946C0F140025046A6
:1008200000F08BFA06460D4650465946019A00F0F4
:10083000A3FA10EB08006141002487EA115284EA10
:10084000E7731A4340D0009A62B3019A012A4FEA33
:10085000075215DC001B61EB02014FF0004202EA77
:100860000752CDE90042001C41F5801132462B466B
:1008700000F080FB03B0BDE8F08F40462146F9E769
:10088000001B61EB0201001C41F5801300185B4165
:100890002018A2F5001747EB030140EAD570B619FE
:1008A0006D4111E06D084FEA360645EAC0754FEA22
:1008B0000752001B61EB0201001C41F58011490841
:1008C0004FEA30000019514132462B4603B0BDE8D3
:1008D000F04F00F040BB0098012240000023D0EB15
:1008E000020263EBE073009821464FEAE074B8EB34
:1008F000000061EB0401E9E783F000435BE781F06E
:10090000004158E72DE9FE4F81EA030404F000445A
:1009100021F0004100944FF0000B23F0004350EA17
:1009200001045ED052EA03045BD0C3F30A54C1F35E
:100930000A552C44A4F2F3340194A0FB0254C1F3F1
:10094000130141F48011C3F3130343F4801301FB3B
:10095000024400FB034E840A970A44EA815447EAA2
:100960008357A4FB076802958D0A05FB07854FEAAC
:10097000932C04FB0C542705029D4FEA065847EAC6
:100980001637B5EB08056EEB070C870E920E47EA9B
:10099000811742EA8312A7FB0201B6EB0B0164EB5D
:1009A00000042B0D43EA0C335E1844EB1C50DA466E
:1009B0005146E7FB0201C5F313044FEA0B3343EA48
:1009C00014534FEA0432019C43EA0603A4F10C04D9
:1009D0000294009CCDE900B400F0CCFA03B0BDE86D
:1009E000F08F00200146F9E72DE9F04D81EA03047C
:1009F00004F0004B21F0004514464FF0000A23F0AC
:100A0000004150EA050220D054EA01021DD0C5F38E
:100A10000A570246C5F31303C1F31300C1F30A5684
:100A200040F4801543F48013A7EB0608101BD6464C
:100A300008F2FD3873EB050002D308F1010801E06C
:100A400092185B41B8F1000F03DA00200146BDE8BF
:100A5000F08D00204FF48011064684460EE0171BEF
:100A600073EB050705D3121B63EB050306434CEA42
:100A7000010C49084FEA300092185B4150EA010727
:100A8000EDD152EA030012D082EA040083EA0501A4
:100A9000084305D0101BAB4106D20122002306E01B
:100AA00000224FF0004302E06FF0010253101AEBF6
:100AB00006004CEB085110EB0A0041EB0B01BDE8BE
:100AC000F04D00F048BAC10F80EAE0700844CA0750
:100AD0009623002100F011BA96230022114600F05F
:100AE0000CBA0EB540F2334102910021CDE900115C
:100AF0000A460B4600F03EFA03B000BD00F000428B
:100B000020F00040C10DC0F3160040F400007F2922
:100B100001DA00207047962903DCC1F19601C84034
:100B200001E096398840002AF4D04042704720F016
:100B30000040C10DC0F3160040F400007F2901DA27
:100B400000207047962903DCC1F19601C840704728
:100B500096398840704770B5C1F30A5201F00045DC
:100B60000024C1F3130140F2FF3341F480119A4293
:100B700001DA002070BD40F233439A42A2F23342C0
:100B800003DC524200F0E8F800E090402C43F1D042
:100B9000404270BDC1F30A5210B5C1F3130140F2D7
:100BA000FF3341F480119A4201DA002010BD40F277
:100BB00033439A42A2F2334203DC524200F0CCF8B3
:100BC00010BD904010BD00F0004230F000400AD04F
:100BD000C10D01F56071C0F3160042EA0151C2086F
:100BE00040071143704700200146704730B5041E8E
:100BF00071F1000404DB4FF00044404264EB01015A
:100C0000141E73F1000405DB1C464FF000435242F2
:100C100063EB04038B4208BF824230BD30B5041E33
:100C200071F1000404DB4FF00044404264EB010129
:100C3000141E73F1000405DB1C464FF000435242C2
:100C400063EB0403994208BF904230BD01F00043BA
:100C500030B421F0004150EA010206D00A0DA2F59D
:100C60006072C1F31301002A02DC30BC002070471F
:100C7000440F44EAC104C100E01830BC00EBC2508C
:100C800000F032B9002801DBC0F10040002901DB8F
:100C9000C1F1004181427047002801DBC0F10040F2
:100CA000002901DBC1F100418842704730B50B4695
:100CB000014600202022012409E021FA02F59D428C
:100CC00005D303FA02F5491B04FA02F52844151E60
:100CD000A2F10102F1DC30BD2DE9F05F05460020F4
:100CE00092469B4688460646814640241BE028469D
:100CF00041464746224600F02FF853465A46C01A4E
:100D0000914110D311461846224600F016F82D1ACC
:100D100067EB01084F4622460120002100F00DF844
:100D200017EB00094E41201EA4F10104DFDC484608
:100D300031462A464346BDE8F09F202A04DB203A8C
:100D400000FA02F1002070479140C2F1200320FA1E
:100D500003F3194390407047202A04DB203A21FA1C
:100D600002F00021704721FA02F3D040C2F12002C4
:100D70009140084319467047202A06DBCB17203ADA
:100D800041FA02F043EAE07306E041FA02F3D04090
:100D9000C2F120029140084319467047426842B1AF
:100DA000016811F8013B23B1521EC0E90012184638
:100DB00070470121C160881E704742685AB1C368FC
:100DC000016843B983688B4205D0491E521CC0E9B3
:100DD0000012002070474FF0FF3070470FB400231F
:100DE00000B589B00CA900910B996FF00042CB605F
:100DF0001E4B06931E4B07930423CDE901321D4A77
:100E0000089202466B460020FFF7D8FA09B05DF859
:100E100014FB70B586B006464FF0FF300091CDE967
:100E20000101002015460C4604903246694604A88C
:100E3000FFF7D4FF03460498211825B108B10A46EC
:100E400000E022462A6000280DD0002B02DD009829
:100E5000884208D0081B0094CDE901043246694657
:100E600004A8FFF7BBFF06B070BD00009D0D000891
:100E7000BB0D0008291100082DE9F04791460F46E7
:100E800080460446002614F8015B2DB100F048F9B5
:100E90000068405DC007F6D12B2D02D02D2D18D053
:100EA000641E4A463946204600F047F927B13968A2
:100EB000A14201D1C7F8008071054FF002040BD5A3
:100EC0004042002803DD1FF0F1FE0460A007BDE8EA
:100ED000F08746F48066E4E70028F8DA1FF0E6FEC3
:100EE00004606FF00040F2E70029A8BF7047401C83
:100EF000490008BF20F00100704710B4B0FA80FC30
:100F000000FA0CF050EA010404BF10BC704749B16C
:100F1000CCF1200421FA04F411FA0CF118BF0121DC
:100F200021430843A3EB0C01CB1D4FEA00614FEABC
:100F3000102042BF002010BC704700EBC35010448B
:100F40000029A4BF10BC7047401C490008BF20F016
:100F5000010010BC704710B5141E73F1000408DACC
:100F6000401C41F1000192185B411A4301D120F06D
:100F7000010010BD2DE9F04D92469B4611B1B1FA2A
:100F800081F202E0B0FA80F220329046FFF7D5FEFF
:100F900004460F4640EA0A0041EA0B0153465A460E
:100FA000084313D0114653EA010019D0C8F140029A
:100FB0005046FFF7D1FE05460E465046594642467A
:100FC000FFF7BBFE084305D0012004E02046394668
:100FD000BDE8F08D0020054346EAE0762C43374318
:100FE0000A986305E40AA0EB08000022FD0A44EA1F
:100FF00047540A3002D500200146E9E701051019DF
:101000006941DDE9084500196941BDE8F04DA2E7F5
:101010002DE9F04D00231A461B1A8A4103DB0020FC
:101020000146BDE8F08DC1F30A52C1F3130141F44A
:1010300080154FF0000BD10702D100186D41521EF0
:101040000027044640F2FF11384601EB620A3E4693
:101050008046024600204FF48011FFF77DFEC21942
:101060007141BB1846EB0100B4EB030C75EB000CAF
:1010700004D3E41A65EB000517460E46241908F15F
:1010800001006D4180463428E3DDF91946EB060086
:10109000091BA84103D24FF0FF32134601E00022A2
:1010A00013461BEB070046EB0A51BDE8F04DFFF776
:1010B00052BF0EB540F2334202920022CDE9002227
:1010C0001346FFF757FF03B000BDC1F30A52C1F347
:1010D000130140F2FF3341F480119A4202DA0020FA
:1010E0000146704740F233439A42A2F2334202DC97
:1010F0005242FFF731BEFFF720BE0000064C074DFD
:1011000006E0E06840F0010394E8070098471034D7
:10111000AC42F6D3FFF710F834C9070854C90708E2
:1011200000487047E0C7070810B50446FFF7F8FF0E
:101130000068005D00F0010010BD2DE9F05F8246FF
:101140000078002715468B460AF10104B94630287D
:1011500001D09DB113E014F8010B0127782803D0CA
:10116000582801D045B10AE00DB1102D07D1002754
:10117000102514F8010B02E0082500E00A250026DE
:10118000B0460EE005FB080005FB06F1012701EB68
:1011900010461FFA80F8B6F5803F00D3B94614F820
:1011A000010B294600F018F80028EBDABBF1000F1C
:1011B00005D00FB1641E00E05446CBF80040B9F1F1
:1011C000000F06D01FF072FD02210160C81EBDE8AD
:1011D000F09F48EA0640FAE73A2800D2303820F07B
:1011E0002002412A01D3A2F13700884201D34FF0F7
:1011F000FF30704770B58C1810F8015B15F00703CD
:1012000001D110F8013B2A1106D110F8012B03E09F
:1012100010F8016B01F8016B5B1EF9D12B0705D4A7
:101220000023521E0DD401F8013BFAE710F8013BF0
:10123000CB1A921C03E013F8015B01F8015B521E0C
:10124000F9D5A142D8D3002070BD00001CB512F022
:1012500013FB0346002000900190034A0421034839
:1012600004F072F91CBD0000990D0208A467030880
:101270000029816802D041F0010101E021F0010163
:10128000816070470D4910B5884202D10121441593
:101290000AE00B49884202D10121041504E0094902
:1012A00088420AD10121CC0320460CF05FFF204682
:1012B000BDE8104000210CF059BF10BD00240140D2
:1012C00000280140003C0140014600208968490790
:1012D00000D501207047C06C80B2704702460020E4
:1012E00012680A4200D00120704701460020896838
:1012F000090700D50120704710B542680E4B0C79E4
:101300001A400B6842EA04221343436082680B4B85
:101310001A40D1E9024323434C7942EA4402134381
:101320008360C26A097C22F47002491EC9B242EA93
:101330000151C16210BD0000FFFEF0FFFDF7F1FF9B
:1013400010B500220421012023F0F8F904490860B7
:1013500020B104A0BDE810401FF084BC06A0F9E74E
:1013600004000020414443CFFBCFA2B6D3C1D0B488
:10137000B4BDA8B3C9B9A600414443CFFBCFA2B6C0
:10138000D3C1D0B4B4BDA8CAA7B0DC0070B50726DD
:1013900009290AD9C568A1F10A0404EB4404A6404E
:1013A000B543A3401D43C56007E0056901EB410457
:1013B000A640B543A3401D4305611F23072A09D258
:1013C000446B521E02EB820293409C4391400C43BB
:1013D000446370BD0D2A09D2046BD21F02EB820256
:1013E00093409C4391400C43046370BDC46A0D3A22
:1013F00002EB820293409C4391400C43C46270BD57
:10140000816841F00801816070470029816802D03D
:1014100041F4A00101E021F4A001816070478168DE
:1014200041F004018160704708B50020184E194F43
:10143000DFF86480DFF86490194C4FF069554FF481
:101440007A7A00900A21012008F0BAFBFFF744FBEA
:101450002946FFF734F9FFF7B6FB00223346FFF7C2
:10146000C3FA3A464346FFF7BFFA00224B46FFF75E
:1014700049FAFFF7EBFB21F061FA0090022300220A
:101480006946206823F0ACFA504622F0AFFDD9E758
:10149000000024404A0C022B8716ED3F00408F408D
:1014A0000400002008F006BE70B515460E4604463E
:1014B00008E02046641CA4B200F007F86D1E06F890
:1014C000010BADB2002DF4D170BD10B5044608F08B
:1014D00095FE200AA02101EB4000C0B208F05AFEA0
:1014E00008F0CEFEE0B208F055FE08F0C9FE08F0A4
:1014F00085FEA12008F04EFE08F0C2FE002008F094
:1015000013FE044608F09AFE204610BD70B514463E
:101510000D46064606E02978304600F007F8761CAE
:10152000B6B26D1C641EA4B2F5D270BD70B50D4686
:10153000044608F063FE200AA02101EB4000C0B27F
:1015400008F028FE08F09CFEE0B208F023FE08F048
:1015500097FE284608F01EFE08F092FE08F06EFE88
:10156000BDE870400A2021F07BB810F1FF4F01D395
:1015700080F000407047002800DC404270470000C7
:1015800030B587B001214FF401700CF0E3FD002469
:101590008DF817400220ADF8140003208DF81600D6
:1015A00005A9184802F0E2FC4FF400400CF0B0FD31
:1015B000154D2846FFF766FE4FF46020CDE9020482
:1015C00001208DF805408DF8100000948DF804403E
:1015D00069462846FFF790FE01212846FFF748FE9E
:1015E0002846FFF70DFF2846FFF77FFE0028FAD1B7
:1015F0002846FFF714FF2846FFF766FE0028FAD1B9
:1016000007B030BD00080140002401401CB5002196
:10161000009103460191034A0421034803F094FF1B
:101620001CBD0000990D0208A46703081CB5002129
:10163000009103460191034A0321034803F084FF0C
:101640001CBD0000D5100208506703081CB500211E
:10165000009103460191034A0421034803F074FFFB
:101660001CBD0000B11102088073020838B545683E
:1016700004460146284611F0D6FA00282BD02068EF
:10168000304A11280DD006DC0B2825D00E2833D087
:101690000F2852D112E0282849D0B0F5107F4CD144
:1016A00008E09268002A16D02146284601B0BDE81D
:1016B00030401047214628465268F7E7284603F095
:1016C00007FD0090406E0468684603F06BFD002C37
:1016D00001D02846A04738BD284603F0F9FC009009
:1016E000683003F04BFC009803216C3003F054FC8D
:1016F000684603F057FD20E0E168486809680D2955
:1017000002D0202913D105E0002810DD28461CF066
:10171000FDF806E0002804DD2846BDE838401CF04E
:10172000F5B82846BDE8384002211CF005B9E0684C
:1017300018B90021284600F0EFF92046BDE83840EE
:1017400011F028BF44030020F0B5044685B080693D
:10175000B4F90850668A0027CDE90265CDE9001783
:101760000490B4F90C00B4F91060C118B4F90A007F
:10177000B4F90E50104433462A4600F007F80546E7
:10178000616800F0D2F905B02846F0BD2DE9F04FB0
:1017900085B01F46DDE911B4DDE90E569046894655
:1017A000824605F02FF916484C34CDE90204CDE904
:1017B00000563B4642464946504611F033FE04006F
:1017C00018D003F085FC10225946049011F0F8FB64
:1017D000049830220B493430FEF712FD094D04996C
:1017E0000C3D2868486604A803F0DCFC28684168C2
:1017F0002046884706F0BAFE05B02046BDE8F08FC7
:101800006D16000850030020F0B5044680688B492F
:1018100089B051F82050606800287DD0052804D098
:1018200006287AD0122879D1AEE0E86900284FD096
:1018300095E80E008DE80F0004F110010FC907F0C4
:10184000CFFC002655F8260005F011FFA169E869D4
:101850000A1A216901446069304404F0A7FAA169B9
:10186000E8690A1A21690144E069801B04F09EFAC4
:10187000E169E8690A1A616901442069304404F0A9
:101880006BFBE169E8690A1A61690144A069801B80
:1018900004F062FB761C022ED4DBA86805F0E7FE9C
:1018A000E069E9696669431A206942183144801C7D
:1018B000521E04F0BFFBE169E869A2690B1A616975
:1018C0000144101A401C921E04F0B4FBEE6913E0B0
:1018D0005FF0000655F8260005F0C9FEE069831B9D
:1018E000A069821B606981192069304404F0D4FA30
:1018F000761C022EEEDB0226D5E90301CDE90001BC
:101900006169E06908444310A069891C821B206951
:10191000304404F0E5F902E089E012E08AE0D5E91C
:101920000501CDE90001E36960690121184401EB7B
:101930006001A0699B1E821B2069304404F0D0F92D
:1019400078E0206803F0C4FB0490206813F03AFBB1
:1019500040B1A06808B1002008E00498006F28B1E9
:10196000012003E00498406F00B10220049901EBCC
:101970008000C56E04A803F015FC00231A46284613
:10198000216803F021FF55E0206803F0A1FB0490DB
:10199000866EEEB3B0F95C70A168D1B3032942D072
:1019A0005FF0000100EB8101406D0C6C05F09AFEC8
:1019B000204605F05CFE05A804F0FEFBBDF81410FF
:1019C000A88B0144ADF81410BDF81810081AADF832
:1019D0001800BDF81600801CADF81600BDF81A00FE
:1019E000801EADF81A000498B0F96020B0F95E10BE
:1019F00005A805F0E9FC04A803F0D4FB022005F0DB
:101A0000DDFE304603F064FB3A4605A9079001E08D
:101A10000BE006E003F0FEFF0DF11C0003F0C2FB3B
:101A200008E00121BEE70221BCE704A8F6E7206830
:101A300012F0E0FE09B00020F0BD000044BE07082F
:101A40002DE9FC4115460E46040022D004F0DAFFD1
:101A5000204603F03DFB0190806E002798B103F013
:101A600037FB0090FEF7FEFB0446681E844200DD53
:101A70000446224630460099FEF7C2FB684603F052
:101A800091FB375500E0377001A803F08BFB06F09F
:101A90006DFDBDE8FC8138B505004FF000040DD0A8
:101AA00004F0B0FF284603F013FB0090408EC0F313
:101AB0000024684603F076FB06F058FD204638BD4A
:101AC00070B516460C46054619463046049A03F092
:101AD0005BFE024621462846BDE8704000F052B841
:101AE00000294FF0100101D011F031B911F082B886
:101AF00038B50D4604000ED004F084FF204603F0F4
:101B0000E7FA00904565684603F04CFB204612F06A
:101B100007FB06F02BFD38BD4FF4807200291146FB
:101B200001D011F014B911F065B82DE9FF410E464E
:101B300005004FF0010421D004F064FF284603F0B3
:101B4000C7FA0190876E01A8009703F02BFB31467E
:101B5000684607F0FBFE78B100980024B84208D030
:101B6000284603F0B5FA01900099816601A803F0B8
:101B700019FB284612F0D4FA06F0F8FC04B020460F
:101B8000BDE8F081F8B515460C46060018D004F003
:101B900039FF304603F09CFA0090032C0BD200EB87
:101BA00084006C3003F0EAF9009800EB8400C5660D
:101BB000304612F0B5FA684603F0F4FA06F0D6FCA7
:101BC000F8BD000010B503220021012022F0B6FD6F
:101BD0000849032208600021012022F0AFFD0649D8
:101BE000032208600021012022F0A8FD03490860BB
:101BF00010BD0000700000201000002074000020C4
:101C0000FEE700000CB504480090044801906846C7
:101C100020F01EFC0CBD0000753502083D3E020898
:101C200070B50F4C0025C4F884510E48016821F0AE
:101C3000F0010160016841F030010160052004F508
:101C4000C27420F029FD0848C0F8A451052020F0F6
:101C500023FD01202060052020F01EFD256070BDC1
:101C600000802142041C0140008023421348816906
:101C700041F008018161816941F080018161104872
:101C8000016821F0F0010160016841F0300101605C
:101C90000C48016821F0F0010160016841F0300159
:101CA000016007480C30016841F0020101600548FD
:101CB0000830016841F40071016070470010024073
:101CC000000C0140041C014070B50F4C0026C4F804
:101CD00084610E48016821F0F0010160016841F063
:101CE00030010160052004F5C27420F0D5FC0848DD
:101CF0000125C0F8A451052020F0CEFC2560052068
:101D000020F0CAFC266070BD00802142041C014006
:101D1000008023422DE9F0478246184800240168DC
:101D200021F0F0010160016841F0800101601E2096
:101D300020F0B2FC0025124EDFF848902F464FF0FD
:101D40000108C6F88471052020F0A6FCC6F884813D
:101D50006006040ED9F8240108B1641CE4B26D1CBD
:101D6000EDB2082DEDD3BAF1000F04D0FFF758FF04
:101D70002046BDE8F087FFF7A7FFF9E7041C014004
:101D800000802142008023422DE9F0470546154896
:101D9000016821F0F0010160016841F0300101604B
:101DA000114E0027C6F88471052020F075FCDFF87D
:101DB0003C8000244FF00109E909C8F8A411680625
:101DC000050EC6F88491052020F066FCC6F88471E3
:101DD000052020F061FC641CE4B2082CECD3BDE8C3
:101DE000F0870000041C0140008021420080234253
:101DF00070B50F48016821F0F0010160016841F001
:101E0000300101600B4E0120C6F8A4010A4DC5F84F
:101E100084011E2005F5C27506F5D27620F03CFC43
:101E200000243460052020F037FC2C6070BD0000D9
:101E3000041C0140008023420080214270B50D48FF
:101E4000016821F0F0010160016841F0300101609A
:101E500009480125C0F884511E2020F01DFC074CC4
:101E60000020C4F8A401052004F5D27420F014FC6D
:101E7000256070BD041C0140008021420080234287
:101E800070B512480024016821F0F001016001687A
:101E900041F0800101600E4D0120C5F8A4010D4EF6
:101EA000C6F8840107E0641CE4B2FA2C03D9FFF7FA
:101EB000C5FF012070BD052020F0EEFBD5F8240100
:101EC0000028F0D1C6F8840170BD0000041C014058
:101ED00000802342008021420348002202604260C9
:101EE000472131200FF038BED00000201CB511F082
:101EF000C3FC0346002000900190054A11210548CB
:101F000003F022FB0446012112F0E4FC20461CBD34
:101F1000191302089C3D07081CB511F0ADFC0346DF
:101F2000002000900190034A0B21034803F00CFBB2
:101F30001CBD000025140208187102081CB511F020
:101F40009BFC0346002000900190034A0B210348AC
:101F500003F0FAFA1CBD0000B11602084C72020828
:101F600010B50A4C4FF4001000F030F84FF40000A8
:101F700000F02CF80021204600F034F8A115616033
:101F80002046BDE81040012100F02CB86C00024052
:101F900010B54FF0007000F019F84FF0006000F03D
:101FA00015F8BDE810400021014800F01BB8000002
:101FB00080000240C10002D5024908607047024912
:101FC000486070470404024000000240C10002D58E
:101FD00002490860704702494860704704040240A3
:101FE000000002400029016802D041F0010102E036
:101FF0004FF6FE72114001607047000001684FF615
:10200000FE72114001600021016041608160C16089
:102010003149314A0839904203D1486840F00F00F5
:1020200006E02D4A1432904204D1486840F0F00096
:1020300048607047284A2832904203D1486840F4EB
:102040007060F5E7244A3C32904203D1486840F47E
:102050007040EDE7204A5032904203D1486840F486
:102060007020E5E71C4A6432904203D1486840F48E
:102070007000DDE7184A7832904203D1486840F09A
:102080007060D5E7154A111F904203D1086840F0EF
:102090000F0006E0114A1432904204D1086840F063
:1020A000F000086070470D4A2832904203D108685A
:1020B00040F47060F5E7094A3C32904203D1086869
:1020C00040F47040EDE7054A50329042EAD108688A
:1020D00040F47020E5E700000800024008040240D8
:1020E000406880B27047002A026801D00A4300E0CD
:1020F0008A430260704730B5026847F6F0739A432E
:102100000C6A8B682343D1E904452C4323438C6933
:102110002343CC6923434C6A23438C6A23431343F0
:102120000360CA6842600A6882604968C16030BD65
:10213000416070472DE9F04101218CB008460BF059
:10214000F1FFDFF8A4804046FFF758FF2848274EEC
:10215000CDE900600024102007010794CDE90207B3
:102160008025CDE904450002CDE908400694694682
:1021700040460A94FFF7BFFF012202214046FFF7C5
:10218000B2FF012208214046FFF7ADFF0121404682
:10219000FFF728FF00214046FFF724FFDFF84880C3
:1021A000A8F114084046FFF729FF124801A900963C
:1021B00081E89100CDE90445A801CDE908400694E5
:1021C0000794694640460A94FFF795FF01220221D1
:1021D0004046FFF788FF012208214046FFF783FFB2
:1021E0000CB0BDE8F08100008000024004440040D3
:1021F000841000208411002070472DE9FC470E4612
:102200005FEA00097FD004F0FDFB484602F060FF62
:10221000009090F85470D0F85880456BC46C6846B4
:1022200002F0C0FFB8F1000F04D0314648464246E4
:10223000904761E0122E18D006DC082E43D0102EF5
:102240003CD0112E06D112E0132E21D01D2E43D0EA
:102250001E2E3DD0202E4FDB17B1484615F02CFC2A
:10226000B1B248461AF0B9FF60B3611C27E04DB324
:10227000284602F02DFF05462146019006F064F83D
:102280004419204606F00EF801462346012210E0CC
:10229000C5B1284602F01CFF05462146019006F014
:1022A00053F84419204605F0FDFF014623464FF040
:1022B000FF32484613F0AEFD01A81BE0611E484600
:1022C00000F026FA18E0BCB1611E484600F020FA82
:1022D000484615F0F1FB0FE0484602F0F9FE009089
:1022E000012F12D0012180F854102146484600F0F9
:1022F0000FFA684602F056FF484611F011FF00E061
:1023000001E006F033F9BDE8FC87002180F85410A5
:10231000EFE77CB545680446284612F053FE0646B2
:102320002146284610F07FFC002844D020680F2862
:102330003DD004DC0B283FD00E2860D147E0A0F54B
:102340008070133804D0A0F580702D3857D11DE06F
:10235000284612F0DBF8284602F0BAFE009010F88A
:10236000561F81F004010170684602F01BFF002136
:1023700028461CF0ADF9284602F0AAFE0090D0F8DD
:102380008400002112F089F868461DE0E06860B121
:10239000017A29B10168284600F0DEF8012100E049
:1023A0000221284611F0C1FF29E00321F9E70121AC
:1023B00028461CF08DF97CBD284602F089FE01906C
:1023C000343002F0DBFD01A802F0ECFE17E0B6B1FC
:1023D000E0684168002912DD01681B290FD006DC86
:1023E00009290CD00A290AD00D2904D107E0212996
:1023F00005D0222903D02846FFF7FFFE7CBD2046EA
:1024000011F0C8F87CBDF0B587B004460DF1080C9A
:10241000D4E90567B0F90850408A8CE8E100002053
:10242000CDE90010B4F90C00B4F91060C118B4F98A
:102430000A00B4F90E50104433462A4600F008F85A
:10244000050002D0618A00F04EF907B02846F0BDC1
:102450002DE9F04F85B01F46DDE91254DDE90E6A23
:1024600090468946834604F0CDFA0DF1040C4AF4F7
:1024700080501F49603400968CE813003B4642466A
:102480004946584610F0CEFF04002AD002F020FE44
:1024900010220490119910F093FD049824221549FC
:1024A0006030FDF7ADFE049A012082F85500681CEB
:1024B00000D0012082F88800002D00DC08252DB214
:1024C000158700205087506304A86D1C02F06AFE37
:1024D000294620461AF035FB18B9204611F092F82B
:1024E000002406F043F805B02046BDE8F08F000058
:1024F00013230008800300202DE9FC4115460E003F
:10250000044627D0002C25D004F07CFA204602F0A7
:10251000DFFD002701903770406BB0B102F0D8FDAD
:10252000009007F055F80146009805F00DFF0446AD
:10253000681E844200DD0446224630460099FDF7BD
:102540005FFE684602F02EFE375501A802F02AFE13
:1025500006F00CF8BDE8FC812DE9F04186B00C4690
:10256000060055D004F04EFA304602F0B1FD00905E
:10257000406B98B302F0ACFD03900098806E05F0BC
:10258000B1F88046304611F0FDFA0746039803F093
:1025900082FE0546009890F8601001F003010129C1
:1025A00016D002290DD0416EC06A00680844241A72
:1025B000641E039807F00CF80146002C0FDA002186
:1025C00015E0781B401C00EBD070A4EB6004F0E732
:1025D000406E791B081A241A641CEAE713E0AC4227
:1025E00005DC02462146039806F092FF014630467C
:1025F00000F08EF803A802F0D5FD404605F072F811
:10260000304611F08DFD684602F0CCFD05F0AEFFBE
:1026100006B0BDE8F0812DE9FC4788465FEA000975
:102620004FF0000652D004F0EDF9484602F050FD9C
:102630000090B0F93850446B684602F0B3FD0027B3
:10264000B8F1000F44D04CB1204602F041FD01909A
:10265000FDF708FE461C01A802F0A4FD404606F066
:10266000B7FF0446A84200DD2C462146404605F04F
:102670006BFE451CA91B48461AF08DFE08B3484660
:1026800002F026FD0090406B02F022FD2A464146F2
:102690000190FDF7B5FD0198284400F8017C0098F1
:1026A000C464B0F938108C4205D190F85410012957
:1026B00001D1641EC46401A802F074FD684602F0F2
:1026C00071FD484611F02CFD05F050FFBDE8FC8778
:1026D000484602F0FDFC0090343002F04FFC0098B8
:1026E0004787C764EAE738B50C4605000FD004F009
:1026F00089F9284602F0ECFC009018B104662846DF
:1027000011F00EFD684602F04DFD05F02FFF38BDBB
:102710001CB50C4602F0DCFC0090406BF0B102F0FE
:10272000D7FC019006F054FF009991F8542002B1B3
:102730000122002C00DA0024844200DD0446B1F9B5
:102740003800801AA04200DA0446C86CA04200D0CB
:10275000CC640020086501A802F024FD684602F060
:1027600021FD1CBD70B505464FF43026304600F003
:1027700059F8042811D1094C206940F00200206169
:102780006561206940F040002061304600F04AF861
:10279000216941F6FD721140216170BD00200240A7
:1027A00008490420CA68D20701D001207047CA68CE
:1027B000520701D502207047C968C906FBD503201E
:1027C00070470000002002400248016941F080018A
:1027D0000161704700200240F0B506464FF40057F3
:1027E0000D46384600F01EF804280CD1064C20692E
:1027F00040F0010020613580384600F013F821696F
:10280000BA1E11402161F0BD002002400348024978
:102810004160034941607047230167450020024041
:10282000AB89EFCD00B50346FFF7BAFF02E0FFF733
:10283000B7FF5B1E012803D0002B00D1052000BD8F
:10284000002BF4D1FAE72DE9F047044640688EB03A
:102850000027804602F03CFC0090B0F87CA0D0F845
:102860006890D0F88060D0F88850C06D00B10768DB
:10287000684602F097FC05E0696820468847002812
:1028800043D12D68002DF7D12068172853D00CDCD8
:102890000F283DD004DC0B2877D00D2825D18BE004
:1028A000112810D0142820D13BE0262846D004DC83
:1028B0001E2851D0202818D18AE02A2816D0B0F539
:1028C000107F12D128E04046E56802F001FC02903A
:1028D000697A39B9297A012904D130F87C1F41F489
:1028E0008071018002A802F05DFC75E0404602F0B4
:1028F000EFFB0090E16811B1C0F8841002E0D0F85D
:102900008400E060684602F04DFC0EB0BDE8F08740
:10291000D7B34046B8475FE0214640461BF020FD54
:10292000F3E705A9404600F093FBE06806990160D3
:1029300007994160E9E7C4F80C90E6E7E0680228EF
:10294000E3D1CDF83080E0680D9027200A900AA9E5
:10295000A06812F047FDD8E7E068012804D0002104
:10296000404600F0DDFAD0E7304611F054FC68B183
:10297000304611F0B9FE304611F0FEFA98B101214F
:10298000304610F0E4F90EE026E02FE0484611F062
:10299000FFFE0646404602F09BFB0090C0F88060B8
:1029A000684602F0FFFB0121404600F0B9FA002E14
:1029B000ABD10020E060A8E75FEA0A700CD4E068C1
:1029C000C06848B1007A38B1404611F08DFE03E08E
:1029D000214640461AF0CDFF2146404610F023F92B
:1029E000002892D0204610F0D5FD8EE7404602F038
:1029F0006FFB0090703002F0C1FA684673E7F0B5E3
:102A000087B0B0F908400DF10C0C0C9E8769456841
:102A10008CE8F000448A0025CDE900150294B0F955
:102A20000C10B0F91050B0F90E40B0F90A0019447A
:102A300010442B46224600F003F807B0F0BD00001A
:102A40002DE9F04F8BB09846DDE9155691468A4640
:102A50008346149F1A9C03F0D5FF3348603445F435
:102A60008055CDE90204CDE9007543464A465146FA
:102A7000584610F0D7FC04004FD002F029FB30225A
:102A80000490179910F09CFA0498282227493430B2
:102A9000FDF7B6FB04981999244F4166A0F87C60B5
:102AA0000026C0F88060C666083FC0F88860796874
:102AB000C16504A802F076FB05A9204600F0C8FA1B
:102AC0001B4841F2827103960094CDE90110BDF9D3
:102AD0001E00BDF91A10BDF91C20431ABDF91800DB
:102AE0005B1C121A521C10F09DFC06467868416867
:102AF00020468847204602F0EBFA0490866604A838
:102B000002F050FB42F20400054202D1204610F0D0
:102B100014FE2046189900F05FFA05F027FD0BB06F
:102B20002046BDE8F08F000047280008AC030020D5
:102B3000593300082DE9F041044694B0006800F0D4
:102B4000B7F908B1D94D01E0D84D2C35606815288A
:102B50001ED00CDC0B281FD004DC00287ED00528FA
:102B60007DD12FE10E287BD01228F9D141E1162822
:102B700006D0172808D0182808D01C28F0D109E062
:102B8000E86914B0BDE8F081286AFAE7686AF8E7F6
:102B9000A86AF6E76869F4E720680B901C200C909F
:102BA000206802F095FA0390016D0BA8884706464D
:102BB00003A802F0F7FA022E0FDB95E807008DE874
:102BC0000700D4E904023346A16906F0CFFA206970
:102BD0008719A069A0EB06082CE0286804F047FDDF
:102BE0002169E8690A18521E606903F0DFF8A269DA
:102BF000E869111A491C606903F0D8F8D4E90407A0
:102C00007F1C394603F022F93946A06903F01EF90A
:102C1000686804F02CFD20693946401C03F016F961
:102C2000A0693946401E03F011F9A0692769A0F197
:102C30000208BF1C286804F01AFD42463946606944
:102C400003F0B4F8686804F012FD60694246394642
:102C5000401C03F0ABF8686A022802E015E1B0E01E
:102C600000E10BDDA86804F002FD61696A6A881C56
:102C70008B180146424638465B1E27E0296AB1425E
:102C800026DD6069022E074600F1020801DB3744A9
:102C900001E007F10207206901DB304401E000F1A7
:102CA000020022693B460A444146A2F1010203F0B8
:102CB000C1F9022E02DBA069821B01E0A269921E0B
:102CC000A069E9693B46401A4146401C03F0B2F94D
:102CD000022E02DB6069064401E06669B61CE76902
:102CE00028687F1E04F0C3FC3A463146206903F091
:102CF00033F93A463146A06903F02EF9E76968686E
:102D0000BF1E04F0B4FC20693A463146401C03F073
:102D100023F9A0693A463146401E03F01DF9E869DF
:102D2000022802DC286A022823DDA86A022802DDC4
:102D3000E1690F1A01E0E769BF1EA86804F097FC7B
:102D4000E969022909DD20693B46421800F1020CBD
:102D500031466046521E03F06DF9286A022808DDEC
:102D6000A269E8693B46101A3146401C921E03F0E6
:102D700061F9286804F07BFCD4E90620216903F09E
:102D800015F8686804F073FCD4E906202169401E38
:102D9000491C521E03F00AF8A86A022811DDA16935
:102DA0002669E469A1F10208271AA41EB61C7F1C3B
:102DB000A86804F05CFC234642463946304603F0DE
:102DC00039F971E0208A00B2ADF81400A18A09B285
:102DD000ADF81610228B12B2ADF81820A38B1BB2DF
:102DE000ADF81A302C69ED68CDE9005402F078FF97
:102DF0005AE0208A298B0844ADF81400A08AADF867
:102E00001600208B298B401AADF81800A08BADF866
:102E10001A00206802F05CF90390006FF0B1022004
:102E200004F0CCFC039890F87C10C1F3C00100EBD7
:102E30008100006C04F01BFC0398406B04F052FC12
:102E40000398006F02F044F903990990B1F95A20F0
:102E500005A902F0DFFD09A802F0A4F903A802F019
:102E6000A1F921E0208AADF81400A08AADF816007F
:102E7000208BADF81800A08BADF81A00A86804F0FC
:102E8000F6FB05A803F002F90EE0206802F020F935
:102E9000039030F85A1F41F00C01018003A802F0A2
:102EA00081F9206811F0A6FC00206AE6C80600201F
:102EB00038B505004FF000040FD003F0A3FD2846FD
:102EC00002F006F9009090F87C00000700D501247C
:102ED000684602F067F905F049FB204638BDF8B5B1
:102EE0000E4605004FF0000411D003F08BFD28467C
:102EF00002F0EEF80090C06D314680680268284606
:102F000090470446684602F04DF905F02FFB204635
:102F1000F8BD00000148006870470000AC030020C5
:102F200070B50D46040009D003F06CFD294620461B
:102F30001CF066FBBDE8704005F018BB70BD38B5ED
:102F40000C46050011D003F05DFD284602F0C0F8E4
:102F50000090816CA14203D08464806E11F0E0F88F
:102F6000684602F01FF905F001FB38BD2DE9FC4170
:102F70000D46804603F046FDB8F1000028D002F06F
:102F8000A7F80190C16D8C6800F0C9F80746019858
:102F9000456301A802F006F92268012140469047E6
:102FA00006462268032140469047054622680021D4
:102FB000404690470446404600F097F92B4632467B
:102FC00039464046009400F020F9404611F0A8F838
:102FD00005F0CCFABDE8FC817CB50D4604001DD09F
:102FE00003F010FD204602F073F80090006F01908E
:102FF000684602F0D7F8294601A806F0A7FC58B1A8
:10300000204602F065F8009001990167684602F0D9
:10301000C9F8204611F084F805F0A8FA7CBD38B54F
:103020000C46050013D003F0EDFC284602F050F8E2
:103030000090B0F95A10A14204D0A0F85A40284696
:1030400011F06EF8684602F0ADF805F08FFA38BD61
:103050002DE9F34F85B000270C46B846059802F0DD
:1030600037F80090C06D0121856805982A6890475F
:1030700082462A6803210598904704902A68022115
:103080000598904703902A680021059890470646C6
:10309000009811F014FE8346009811F017FE814647
:1030A000009890F83210890601D5B0F9588000F0E8
:1030B00036F805460098C06E10B110F07AFD07464C
:1030C00025806780A4F804A0049AABEB020006EB0D
:1030D0000802401E2A4420813A44E280039BA9EB67
:1030E0000302521E6281A4F80CA020827019E681AE
:1030F000401E6082684602F055F8B4F90C00019059
:10310000B4F91000029002AA01A9059800F03AF85B
:103110000198A0810298208207B0BDE8F08F10B519
:103120000146002091F83220920607D5B1F95400EB
:10313000002803D1486B03F01FF9801C10BD70B547
:103140008AB00C46054601F0C3FF0990C06D866841
:1031500009A802F027F8009534B1012C06D0022C02
:103160000BD0032C04D10AE0182000E016200190B7
:103170007168684688470AB070BD1520F7E71720C8
:10318000F5E700002DE9FC4117468846044601F0AA
:103190009FFF0090C16D056868468E6802F002F8D6
:1031A00032680021204690470646204610F08BFBEF
:1031B00027E000BF01F08CFF0190B0F900102AB2A7
:1031C000B0F90430891A9A1AB0F90230A3EB2543FA
:1031D000B34210D190F82800000605D5386888421F
:1031E00009DB491E396006E0D8F80000904202DC95
:1031F000521CC8F8002001A801F0D4FF204610F0AE
:1032000007FC0400D6D1BDE8FC812DE9FF4F83B057
:103210000E460746DDF8409001F05AFF0190C16D5F
:103220008D68FFF77CFF044601A801F0BBFF2A6808
:1032300001213846904783462A6803213846904743
:1032400082462A680021384690470546B44207D195
:1032500005998B4504D106998A4501D14D4541D048
:10326000A41B0026B046384610F02DFB38E001F0D4
:103270002FFF0090806A010601D5800502E08105DC
:1032800028D50006002825DB24B122461146384601
:1032900011F089F8009890F8280000060AD50698E1
:1032A000A5EB0902A0EB0A0004FB16013846761CC8
:1032B00011F02CF80098008D80050BD50599A5EB31
:1032C0000902ABEB010004FB080108F101083846D4
:1032D00011F01CF8684601F065FF384610F098FBC5
:1032E0000700C4D107B0BDE8F08F70B586B00646C0
:1032F00001F0EEFE0590D0E91A4505A801F052FF55
:1033000054EA050026D069463046FFF7A1FEACB16D
:10331000BDF90620BDF90410204610F0BBFFBDF931
:103320000A00BDF90610421ABDF90800BDF90410E3
:10333000521C411A2046491C11F0A8FA002D09D050
:10334000BDF90600BDF90210421ABDF90410284665
:1033500010F0A0FF06B070BD2DE9F04304464068B0
:1033600089B0054610F072FB814601F0B1FE029073
:10337000D0F84880D0F88070466E02A801F012FFA5
:103380002068172853D008DC0E283AD00F2811D017
:1033900014284CD015283DD149E01E281ED01F28E6
:1033A0002AD0222840D0312834D10020E06009B052
:1033B000BDE8F0836FF070414046884503D008F0C7
:1033C00089F802F075F8002EF1D0D4E902122068D5
:1033D000CDE90405CDE9061204A81FE0E068002845
:1033E000E5D02FB1AF4203D0384611F07DF9DEE7CA
:1033F000284611F0CDF9DAE7214648460FF013FCD4
:10340000D5E7E0684168002904DD00680928EFD0AD
:103410000A2805D05EB12046C4F80490B047C6E73C
:10342000284611F0C4F9C2E7C4F80C80BFE7204673
:1034300010F0B0F8BBE700008000A0F1C040002908
:10344000016802D041F0010101E0024A114001602F
:1034500070470000FEFF0F0010B5D0E901121143C4
:10346000D0E903231A43114342691143826911438E
:10347000C2691143026A1143426A1143826A1143CD
:10348000C26A1143026B114302689200A2F1C0426A
:1034900011608168082907D101688900A1F1C04144
:1034A0000A6842F040020A60416BD1E9002342EA17
:1034B00003128B688C891B0243EA04431A430B8A6C
:1034C00042EA03520B7D896942EA03620A430168BA
:1034D0008900A1F1C0414A60C16AB1F5804F08D0AE
:1034E00000686FF070418000A0F1C040C0F8041186
:1034F00010BD816BD1E9002342EA03128B680C8A6C
:103500001B0243EA04531A430B7D896942EA0362B2
:1035100000680A438000A0F1C040C0F8042110BD3B
:103520003A48416941F480714161816941F020016B
:103530008161816941F040018161816941F08001CF
:103540008161816941F480718161314801680021A4
:103550000160026842F0BB320260001F026802F0A4
:10356000FF220260026842F0BB1202602948026832
:103570000160026842F0BB320260001F0268264B05
:103580001A4002600268254B1A4302602448026810
:1035900092B202600268234B1A430260001F026865
:1035A00002F07F42026003681F4A134303601F4812
:1035B000436823F470634360436843F430634360BB
:1035C000036803F07F4303600368134303604FF015
:1035D000204001614161C0F81411016941F480513A
:1035E0000161016941F010010161416941F44071DB
:1035F000416141694161416941616FF07041C0F8C9
:103600001411016941F0010101617047001002408D
:10361000041401400418014000FFFF0FBB0000B07C
:10362000041C01400000BBBBBBBBBB000020014031
:1036300038B52B48816941F08001816129480168D2
:1036400021F47F410160016841F460510160254827
:103650000830016841F440610160FEF707FB224D2C
:103660000024C5F8AC41142005F5D6751EF0F8FF0E
:103670000120286032201EF0F3FF8DF80040012267
:103680006946002000F0FEF801226946A42000F0FF
:10369000F9F816208DF8000001226946802000F01C
:1036A000F1F80C208DF8000001226946882000F016
:1036B000E9F802226946A12000F01EF89DF80000FA
:1036C000302803D19DF80100032801D0012038BD26
:1036D00043F2030105A01DF0C5FA002038BD00002B
:1036E00000100240041C014000802342435450203B
:1036F00049443A25780D0A002DE9F04115460F4658
:103700000446FEF775FB7020FEF73EFBFEF7B8FBA4
:10371000E0B2FEF739FBFEF7B3FBFEF769FB712061
:10372000FEF732FBFEF7ACFB00246E1E09E0B4424C
:1037300001D0012000E00020FEF7ECFA3855641CAF
:10374000E4B2AC42F3D3BDE8F041FEF777BB000032
:103750002DE9F143484F00244FF00A09387882B030
:10376000401CC0B2B0FBF9F209FB1201434DA04668
:10377000387009B10A2863D2012202A90220FFF79A
:10378000BBFF9DF8080001075AD000F00F00062883
:1037900056D2FF218140C84340F0C00085F8200088
:1037A0004FF00108002695F8201008FA04F00142B5
:1037B00039D033480422694630F81400FFF79CFFE3
:1037C00095F830009DF80010C0079DF8010001F049
:1037D0000F010ED000EB012105EB4400C1829DF8E2
:1037E00002209DF8031002F00F0201EB02218181FB
:1037F0000FE000EB0120C0F5F07105EB4400818182
:103800009DF802209DF8031002F00F0201EB022147
:10381000C1829DF800000821B1EB101F03D005EB19
:103820004400C6828681641CE4B2052CBBD3A989FE
:103830004FF0010819B9E88A08B98DF808603E70A0
:103840009DF80800C0060ED195F82000010602D5AB
:1038500020F0800005E04FF6FF71A981E98200F0B9
:10386000E00085F820003878F02801D987F800902A
:103870004046BDE8FE830000920000209800002032
:10388000F06F02082DE9F04115460E460446002768
:10389000FEF7AEFA7020FEF777FAFEF7F1FAE0B223
:1038A000FEF772FAFEF7ECFA002408E0305DFEF74E
:1038B0006BFAFEF7E5FA070003D1641CE4B2AC42F0
:1038C000F4D3FEF7BBFA3846BDE8F0812DE9F043AA
:1038D0000446C56887B090468946002003F0F5FE8F
:1038E000064625B1287910B146F0020001E026F025
:1038F000020003F0EAFE2069012558B1D4E9021262
:103900008DE826000395638822880468414648466E
:10391000A0471EE0124F134B214638681B68427CBB
:10392000E068984730B9E088012801D0002001E024
:103930003868806BA288E388A1680095CDE90410FF
:10394000CDE902320195638822884146484606F057
:103950009FFE07B03046BDE8F04303F0B6BE00005E
:103960009C020020940200201CB50024019401ACAC
:10397000009400F0E7F81CBD2DE9FF4F83B08146AD
:1039800006988A46A0EB0A08109E00200090A2EB41
:1039900009043568934654EA080018D02046FDF71C
:1039A000EAFD07464046FDF7E6FD87420BDA204672
:1039B000444680464846D14682465846DDF818B00F
:1039C000069001200090002C07DD204606E007B09D
:1039D0004846BDE8F04F00F03BB96042A0420AD033
:1039E0004846D9466442C8F1000883464FF0FF3785
:1039F000DDF818A000E001275148B8F1000F11D000
:103A000004EBD4714FEA610B01DACBF1000B4C48A7
:103A10000068807E88B3002F02DA3068204430606E
:103A200000257BE000990029016821D0897E11B131
:103A30000027804615E007B05A4649465046BDE883
:103A4000F04F06F0E1BF28466D1C1BF0B5FE38B9FB
:103A5000D8F8000009EB0701406E426850469047D5
:103A60007F1CA742EFDD6D1E356007B0BDE8F08F0B
:103A70008A7E1AB10027804617E019E0486E5A4640
:103A80005146036807B04846BDE8F04F184728463E
:103A90006D1C1BF091FE38B9D8F8001009EB070037
:103AA000496E4A68514690477F1CA742EFDDDAE72E
:103AB00000250FE008FB05B090FBF4F101EB0A00D4
:103AC000009951B11E4A09EB05011268526E526805
:103AD00090476D1CA542EDDDC7E7194909EB0503C9
:103AE0000968496E4A6801461846F1E708FB05B0C7
:103AF00090FBF4F101EB0A0001903068384430602B
:103B00001BF05AFE48B9009890B10D4809EB050129
:103B10000068406E4268019890476D1CA542E5DD43
:103B20003068002F01DA20443060C01B30609CE711
:103B3000034909EB05000968496E4A680199EBE7FA
:103B40009C0200202DE9FF470F464049164680465B
:103B500009680C981D460A7E012A1CD0A8EB0600B5
:103B6000791B50EA01031CD0A2F101091DF0DEF916
:103B700000F58060824605F0D8FF00FB09F450464E
:103B800005F0D8FF00FB09F1002C0CDAC4F5007039
:103B9000801240420AE00090324639464046FFF724
:103BA000EBFEBDE8FF8704F50074A012002904DADB
:103BB000C1F5007189124C4202E001F500718C12CE
:103BC000002804DD411C01EBD171491003E000EB3A
:103BD000D0714910401E00EBD0704210002C04DD63
:103BE000601C00EBD070401003E004EBD470401078
:103BF000641E04EBD47308EB0104ADF800403C18DC
:103C0000ADF80240A8EB02045B10B21AADF8044014
:103C1000ADF808203144FC1AEA1AADF80C1028441B
:103C2000ADF80A20ADF80E000023ADF806401A46A4
:103C30000421684600F08CF83946404616F092FFA1
:103C40002946304616F08EFFABE700009C020020AC
:103C5000064A13681A7E012A05D0521E02EBD27260
:103C6000521000F005B85A6E526810479C020020AE
:103C70002DE9F05F0646884640F2C32002FB00F1C2
:103C80004FF47A7091FBF0F702FB02F102EBD27075
:103C900001EB600B1446B118234A301B7F1C1268DD
:103CA000526E13680A4641469847012538E000BF26
:103CB00005FB05F004FB040159451CDDBC4219DD80
:103CC000194B06EB050AA6EB05091B68AAF10102D0
:103CD00008EB04015B6E09F101001B689847124B69
:103CE000AAF10102A8EB04011B6809F101005B6E57
:103CF0001B689847641E0C4B3219301B1B68924698
:103D000008EB05015B6E81461B689847064B5246DF
:103D1000A8EB05011B6848465B6E1B6898476D1C45
:103D2000BD42C5DDBDE8F09F9C02002070B5144681
:103D30000E4605460119001B01F09CF8224631464B
:103D4000284617F03DFABDE8704000F0E7BF0000DC
:103D50002DE9FF4F43F6FF740F46664283B09B4642
:103D6000814600210BE000BF09EB8100B0F90200A1
:103D7000A04200DA0446B04200DD0646491CB942C2
:103D8000F2DB67480068406900280DD0B0F90610E2
:103D90001A46A1EB0B01B14200DA0E46B0F902005F
:103DA000801AA04200DD0446B4E0DFF878A10020CC
:103DB0000546CAF8000088E0781E854201DA6B1CCF
:103DC00000E0002309EB850C09EB8302BCF902003B
:103DD000B2F90210A04244D1A14215D139F92330E1
:103DE000059A39F9251003EB020C4D4A0598126823
:103DF000084404EB0B01526E6045136801DA624619
:103E00002AE00246604627E02846A4464FF0000814
:103E10007A1E0BE008B1401E00E0781E09EB80031B
:103E2000B3F90230634504D108F101089045F1DB94
:103E30002346A34248D01A1B39F92500A1EB040CF4
:103E4000059B92EA0C0F09D4354A184404EB0B0188
:103E50001268526E13680246984735E011F0B8FBBD
:103E600032E0A14230D001DBA04203DDA0422BDBD7
:103E7000A14229DCE04688420ADC0346A04223DC5A
:103E80000846A14220DBB8F900C0B2F9001008E0F2
:103E90000B46A14218DCA04216DBB2F900C0B8F90B
:103EA0000010E21AA1EB0C0151430029A0EB030220
:103EB00002DD01EB620102E0A1EB6201491CC01AC4
:103EC00091FBF0F06044C9E76D1CBD42FFF674AF92
:103ED0000598009004EB0B000190002080460546F9
:103EE00013E01149B8F1000F31F915A009D000997C
:103EF00001EB0A0208440A490968496E0B680199F6
:103F0000984788F0010850466D1C064909688D42A3
:103F1000E7DB641CB4427FF748AF07B0BDE8F08F21
:103F20009C020020D807002070BF002010B50020A0
:103F300003F092FB6FF07F4003F099FB012003F048
:103F40001FFC002003F02AFC002003F037FC0020B7
:103F500003F0BBFB0448006803F0C4FBBDE810405D
:103F6000002003F0DFBB000098020020F0B5CC7801
:103F7000002204F00F03E40601D58C7823430C786B
:103F80004FF00F0C14F0FF0F4FF0010E1BD005681F
:103F90000E880EFA02F42640A64210D196000CFAC2
:103FA00006F725EA070703FA06F5CE783D43282EE3
:103FB00002D0482E02D002E0446100E00461521CAD
:103FC000082AE5D305600A88FF2A1CD94468002224
:103FD00002F108060EFA06F50E882E40AE420ED10A
:103FE00096000CFA06F7BC4303FA06F7CE783C437A
:103FF000282E00D14561CE78482E00D10561521C93
:10400000082AE5D34460F0BDF0B5144C002801DA6D
:10401000E36900E06368450D2E0185B2C0F30157E6
:10402000B540C0F30342032F05D0C6020AD50326CC
:104030009640B34307E023F07062636823F0706337
:10404000636002E0AB4343F0706201B12A43002891
:1040500001DAE261F0BD6260F0BD000000000140E5
:104060000246002092680A4200D001207047016198
:10407000704733B583B004001BD002F0C3FC204668
:1040800001F026F80190456E01A801F08BF8049824
:1040900001F01EF800908460684601F083F8042265
:1040A00004A9284601F0A2F8204610F039F804F0DF
:1040B0005DFA05B030BD33B583B004001BD002F00B
:1040C000A1FC204601F004F80190856E01A801F0E2
:1040D00069F8049800F0FCFF00908460684601F0E5
:1040E00061F8042204A9284601F080F8204610F067
:1040F00017F804F03BFA05B030BD2DE9F041044655
:104100000025D4E90007B0F5407F00D10125214604
:1041100038460EF088FD064615B1384619F0EFFA1C
:10412000002E2FD02068052806D00B280ED00F288F
:1041300006D0262821D10EE0384619F0E0FA1CE01E
:104140003846E168BDE8F04119F098BD3846BDE851
:10415000F04119F03DBCE06805280ED138460FF05B
:10416000AFFCA168884205D038460FF099FCA168E1
:10417000884202D160681AF0A3F82046BDE8F041F9
:104180000FF008BABDE8F081F0B585B0B0F908507D
:10419000468A84690296CDE903540027CDE90017C9
:1041A000B0F90C10B0F91050B0F90E40B0F90A0097
:1041B000194410442B46224600F002F805B0F0BD29
:1041C0002DE9F04F85B09846DDE90E5691468A46B6
:1041D0008346109F129C02F015FC18486C34CDE900
:1041E0000204CDE9005643464A46514658460FF070
:1041F00019F904001BD001F036F8054601F033F838
:104200000646204600F064FF0490C0E919560022DB
:1042100011990EF0D5FE0498302209493430FBF78D
:10422000EFFF0498A0F8787004A800F0BBFF04F03A
:104230009DF905B02046BDE8F08F0000FB40000866
:10424000D403002013B582B0044602F0DBFB204605
:1042500000F03EFF009060B1406A00F039FF014677
:104260000190022303AA009800F075F901A800F05C
:1042700099FF684600F096FF04F078F91FBD000032
:104280002DE9F04385B01D4690460F46814602F069
:10429000B9FB2C2000F029FE060024D0780000F0A5
:1042A00024FE04000ED0B8F1000F0BD055B120460B
:1042B00000F00EFF6A0041460090FBF7A1FF684640
:1042C00000F070FF304600F003FF0A49029000F151
:1042D0000C02446282E8A20207490160074941607A
:1042E00002A800F05FFF04F041F905B03046BDE8D8
:1042F000F083000011D3010827DE010861DA01080C
:1043000038B50C46054602F07DFB284600F0E0FE7D
:10431000009040B190F82910A14204D080F82940C3
:1043200080680FF0FDFE684600F03CFF04F01EF9C7
:1043300038BD38B50C46054602F064FB284600F04F
:10434000C7FE009040B190F82810A14204D080F838
:10435000284080680FF0E4FE684600F023FF04F078
:1043600005F938BD2DE9F843984615460E4607462F
:1043700002F048FB302000F0B8FD040014D000F03B
:10438000A7FE0090C0E9057685840A4A4FF07E5169
:10439000C0F81C808162D2E90012C0E9031206490C
:1043A0000160684600F0FEFE04F0E0F82046BDE83B
:1043B000F883000004040020FFDE0108F8B50D4674
:1043C00006004FF0000415D002F01CFB304600F050
:1043D0007FFE0090806A29460446FCF753FC04D017
:1043E0000098856280680FF09BFE684600F0DAFE58
:1043F00004F0BCF82046F8BDF8B50D4606004FF0B5
:10440000000411D002F0FEFA304600F061FE009088
:104410000469AC4203D0056180680FF081FE6846F4
:1044200000F0C0FE04F0A2F82046F8BDF8B50D4635
:1044300006004FF0000411D002F0E4FA304600F01C
:1044400047FE0090C468AC4203D0C56080680FF09E
:1044500067FE684600F0A6FE04F088F82046F8BD26
:104460002DE9F8431D46DDF8208016460F4604006E
:1044700015D002F0C7FA204600F02AFE0090C0F8DE
:1044800060804765C0E91665684600F08BFE2046EF
:1044900019F035F920460FF043FE04F067F8BDE847
:1044A000F883F8B50D4606004FF0000411D002F075
:1044B000A9FA304600F00CFE0090846CAC4203D0A8
:1044C000856430460FF02CFE684600F06BFE04F069
:1044D0004DF82046F8BDF8B50D4606004FF0000433
:1044E0001BD002F08FFA304600F0F2FD0090B0F8D9
:1044F000781011F0010403D055B921F0010102E058
:1045000035B141F00101A0F8781030460FF008FEF7
:10451000684600F047FE04F029F82046F8BDF8B5DB
:104520000D4606004FF0000413D002F06BFA30463F
:1045300000F0CEFD009090F86C40AC4204D080F8C2
:104540006C5030460FF0ECFD684600F02BFE04F096
:104550000DF82046F8BD2DE9F041044680681D465F
:1045600017460E46002826D0D4E9040290420ED108
:10457000521E6A4371193046FBF742FE20692A46F3
:10458000401E05FB00603946FBF73AFE0EE005FBD6
:104590000013401C20612A4639461846FBF730FEBE
:1045A000E16819B12046BDE8F0410847A068BDE8C0
:1045B000F04100F002B8BDE8F08110B58AB00446C1
:1045C00000F086FD09A904AACDE9002105AB0890F9
:1045D00006AA07A917F0CBFD08A800F0E3FD02A981
:1045E00020460FF0C3F9BDF8080007990844ADF85C
:1045F0000800BDF80A0006990844ADF80A00BDF8A5
:104600000C000599401AADF80C00BDF80E00049995
:10461000401AADF80E0002A920460FF041FD0AB085
:1046200010BD00002DE9FC413548816941F0800151
:104630008161344C206820F47F402060206840F481
:10464000605020602F4D0835286840F44060286095
:10465000FDF70CFB2C4F0026C7F8AC610A2007F5CC
:10466000D6771DF0FDFF012038600A201DF0F8FF0D
:10467000206820F470602060206840F400602060B2
:10468000286820F48060286064201DF0E9FF04227F
:10469000694648F2401000F04DF88DF80460694614
:1046A0001AA01CF0DFFA1CA16846FBF7E2FD10B16E
:1046B0000120BDE8FC8102208DF8000048F2400492
:1046C00001226946204600F04BF901226946E01DAF
:1046D00000F030F89DF80010602905D210A01CF001
:1046E000C1FA012000F016F90A201DF0B9FF8DF87B
:1046F000006001226946204600F032F90020D8E728
:1047000000100240041C014000802342435450200A
:1047100049443A25730D0A0039313437000000004E
:1047200044656661756C74205665723A25640D0A9D
:10473000000000002DE9F04115460F460446FDF744
:1047400057FB2820FDF720FBFDF79AFB200AFDF719
:104750001BFBFDF795FBE0B2FDF716FBFDF790FBA9
:10476000FDF746FB2920FDF70FFBFDF789FB002431
:104770006E1E09E0B44201D0012000E00020FDF7E8
:10478000C9FA3855641CE4B2AC42F3D3BDE8F04139
:10479000FDF754BB2DE9F1475A4D00244FF00A0AAA
:1047A000287883B0401CC0B2B0FBFAF20AFB1201B9
:1047B000554EA046287009B10A2879D248F24E1900
:1047C000012203A94846FFF7B5FF9DF80C004FF002
:1047D0000007010603D500F00F01062901D380066A
:1047E00006D58DF80470012201A9484600F0B8F8FA
:1047F0009DF80C0001075BD000F00F01062957D28D
:10480000FF2088408DF80400C04396F8209040F0C7
:10481000C00086F82000B089B082F08AF0834FF0A3
:10482000010896F8201008FA04F0014225D0374814
:104830000422694630F81400FFF77CFF96F8300038
:104840009DF80110C0079DF8000000EB012106EB68
:1048500044000AD0C1829DF802109DF8032001EBAC
:104860000221C1F54871818107E081819DF8021024
:104870009DF8032001EB0221C182641CE4B2052CE7
:10488000CFD32349B2894FF001080B8830469A42B2
:1048900003D8C28A49888A4209D99DF80C1001F0D0
:1048A0000F0101290BD9C1898181018BF1822F7000
:1048B0009DF80C0000F08F0080280AD018E0818A53
:1048C0008181C18BC18280218DF80C1086F82090E7
:1048D000EEE796F82000010602D520F0800005E002
:1048E0004FF6FF71B181F18200F0E00086F8200000
:1048F0002878F02801D985F800A004B04046BDE82A
:10490000F08700009300002098000020B270020899
:104910007408002008B500218DF800108DF8010002
:104920000E489DF80020435C491C1A44C9B28DF81A
:104930000020B829F5D3D0B2C043401C8DF8000048
:10494000B822064948F2470000F00AF802226946F8
:1049500048F2FF0000F004F8002008BDFA6F0208DA
:104960002DE9F04115460E4604460027FDF740FAB2
:104970002820FDF709FAFDF783FA200AFDF704FA6B
:10498000FDF77EFAE0B2FDF7FFF9FDF779FA0024B2
:1049900008E0305DFDF7F8F9FDF772FA070003D182
:1049A000641CE4B2AC42F4D3FDF748FA3846BDE8E3
:1049B000F08100002DE9F04FDFF828B191B04FF001
:1049C000FF35DBF80030B3F922100691DE69B3F948
:1049D00024A0F469A189814206D8E289824203D3E6
:1049E000471AD4F8008012E0D4E90181002970D080
:1049F0000A8882426DD84D8885426AD3801A82B275
:104A0000486800EB8200B0F90070B0F90250781CE1
:104A10005FD0307EA27C014600FB02F9207CCDE90C
:104A20000710B3F92A60304606F048FEC0B20E9077
:104A3000DBF8001007FB0980A37C8A6B0127CDE916
:104A40000402CDE90273C869089AC17E807ECDE96F
:104A50000001DDE90603514605F01AFE681C18D076
:104A600046F0020006F02AFEDBF80000A37C05FBFE
:104A70000981826BCDE90273CDE90412C069089AFD
:104A8000C17E807ECDE90001DDE90603514605F0D7
:104A9000FFFDDBF800005D46C069417E007E81427B
:104AA00014D9022E12D086F0040006F007FE286802
:104AB000C069027EC37E857E02FB03A1437E089A05
:104AC0000698534402FB050206F0F4F80E9806F02F
:104AD000F5FDDBF80000627C418C1144418411B08B
:104AE000BDE8F08F9C02002004480068C069C069DE
:104AF00009B1027C0A60407C704700009C020020E3
:104B0000022008807047C06982898A4202D8C2891F
:104B10008A4210D2806880B102888A420DD84388C8
:104B20008B420AD3406800EB8100A0EB8200B0F911
:104B30000000002801DB01207047002070470000C2
:104B40002DE9F0432F4C034687B020681946B0F991
:104B50002A80C069C06900F082F800284ED0416800
:104B60000088181A01EBC0054046AE7806F0A6FD95
:104B7000814620686A680123816BCDE90236CDE960
:104B80000421C169CB7E8A7ECDE900230B7EB0F97A
:104B900024102A78B0F9220005F07AFD2068C06957
:104BA000477E067EB7421DD9C07E47434643B8F1D3
:104BB000020F17D001F005FB804601F0CBFA02F09E
:104BC00056FD21682A78CB69B1F92200B1F9241089
:104BD000DB7E02FB0302CB19314406F06BF8404642
:104BE00002F045FD484606F069FD20686A78C36911
:104BF000B0F922109B7E02FB0311418407B0BDE88F
:104C0000F08300009C02002030B50E4C05460B4698
:104C100020682946C069C06900F021F8002810D03A
:104C20004168008824682A1A0120E46900EBC20068
:104C3000085CA47E6043002B03D011F8321061435E
:104C4000196030BD9C02002001200880704700B52B
:104C5000C06900F004F8002800D0012000BD06E083
:104C600002888A4202D842888A4202D2806800289A
:104C7000F6D170472DE9F0410025154E154C18E08E
:104C80002069C5EB051700EBC7007022001D3168D5
:104C9000FBF7B6FA2069002140F8371000EBC70097
:104CA00000F10C018161011D0A1DC0E90F126D1C8C
:104CB0004164A0688542E3DB17F024FC2169C0EB66
:104CC000001001EBC000001D3060BDE8F081000065
:104CD0009C020020AC05002070B50F490D4808600B
:104CE000084604F0F3FD0C4C143CA068C0EB001027
:104CF000C500284600F05EF92A460021206104F034
:104D000096FE4FF0FF30206003F0B4FCBDE8704029
:104D100017F0F8BB91DB0108C005002010B516F0B4
:104D200041FD0448016A04480068416600F1080139
:104D3000416110BDF80400209C0200207CB514469F
:104D40000D46064601F05EFE0FF062FF06440FF0CE
:104D50006DFF05441648006890F8691021B990F875
:104D600068104E434D434C43301B00F023F8ADF820
:104D70000000301900F01EF8ADF80400281B00F008
:104D800019F8ADF80200281900F014F8ADF8060083
:104D900068460FF0A3FF06E0224629463046FEF79C
:104DA000C5FF0FF015FF0028F6D103F0DFFB7CBD37
:104DB0009C0200200449096891F8681009B190FB31
:104DC000F1F000B2704700009C0200202DE9F04194
:104DD000224C05460E462068002788B92048006806
:104DE000E06110B906F023F8E06100F0E3F820601C
:104DF00080B31A491B4824310860084604F066FD58
:104E000019480068854200DA0546E169731B4A1EAD
:104E10002046934201DD6E18761EAE4201DA2E4620
:104E20000127124C2268516E4B68836301620B4963
:104E30000F4B34310B60516602C880E8620011F0FC
:104E400073F810F0CBFD054821682C3048613846D6
:104E5000BDE8F081FFE70127D2E70000F804002059
:104E6000CC0200201DDB0108D00200209C020020A3
:104E7000E9A90108044A126892F8682090FBF2F050
:104E800091FBF2F1FFF7A2BF9C020020F8B50C00E5
:104E900005460FD001F0B6FD204600F017F80600D9
:104EA00010D000F015F9224600902DB12946FBF7ED
:104EB000A7F904E00020F8BD002104F0B8FD684621
:104EC00000F070F903F052FB3046F8BD10B5040055
:104ED00009D001F097FD204610F098FC044603F03D
:104EE00045FB204610BD002010BD38B5054601F039
:104EF00089FD2846FFF7EAFF040009D000F0E8F832
:104F00002A460021009004F092FD684600F04AF91C
:104F100003F02CFB204638BD024A106021F003004C
:104F200050607047E4BD002010B5040016D001F0B9
:104F300069FD0B48406B10F8341059B1022909D2B1
:104F4000042101EBC4014158486810F05DFB204684
:104F50001AF054F9BDE8104003F008BB10BD000082
:104F600024BD0020002805D0034AD16B016001B1A7
:104F70004860D0637047000024BD002010B504468F
:104F800001F040FD2068FFF7CFFF00202060BDE862
:104F9000104003F0EBBA000070B50D460646002441
:104FA00005E000BF06EB8400FFF7E8FF641CAC429D
:104FB000F8DB70BD2DE9F041044618F073F828487D
:104FC000E41C24F00305016C2D1DA94200D90D46F7
:104FD000C46B13E054F8042CAA420ED184B12168AA
:104FE00009B162684A60616809B122680A60C26BEF
:104FF000A24231D12168C1632EE02468002CE9D19E
:105000008046816BC0680F1857F8040C3E1A306850
:1050100038B100201AF04EFA57F8040C3E1A3068E6
:10502000D0B97068A84217DB3044441B3046241DB9
:105030001AF0F8F9D8F80C10491BC8F80C10D8F879
:1050400014102944C8F814107068401B02D031466F
:1050500010F0DAFA44F8045C2046BDE8F081000064
:1050600024BD002010B5002418F01CF80C490F20B6
:1050700001EBC002526C1AB101EBC000406C08E0B9
:10508000401EF5D508E04168A14200D90C46806871
:1050900010B180680028F6D1A4F10C0010BD00000A
:1050A00024BD0020002138B10449042202EBC000D5
:1050B000496B085841680C390846704724BD0020E8
:1050C00002488169491C81617047000024BD0020AD
:1050D0000549CA69521CCA61496B01EBC0010A78D3
:1050E000521C0A7000F076B824BD00207CB506463C
:1050F0000C460846FFF7EAFE050020D0FEB1304618
:10510000FFF7D0FFA04200DA044601F07BFC2846FE
:10511000FFF7DEFF00903046FFF7DAFF014601900F
:1051200022460098FBF76CF8684600F03BF801A8AF
:1051300000F038F83046FFF7F7FE03F017FA28467C
:105140007CBD000010B501F05DFCFFF78BFF642211
:105150000849B0F5800F04D990FBF2F4086A444383
:1051600003E0096A4143B1FBF2F403F0FFF9204682
:1051700010BD000024BD00200549102805D94A684B
:10518000B0EB520F02D3500800E010208860704747
:10519000E4BD002002488169491E8161704700001A
:1051A00024BD00200A4902684B6B52F8082C03EB1F
:1051B000C2021378022B03D3CB690BB15B1ECB6108
:1051C0001178491E117000210160084670470000E7
:1051D00024BD0020002806D00349042202EBC000B1
:1051E000496B08580830704724BD00202DE9FC4168
:1051F0004FF000060B465FEA000834462BD032B170
:1052000011461846FFF742FE060000D10124404631
:10521000FFF75EFF0090078845686846FFF7C2FF0A
:10522000CCB9B9002846091DFFF760FF050015D06D
:10523000FFF74EFF019040F8276001A8FFF7B2FF8B
:105240004046FFF745FF009045600188491C0180FA
:105250006846FFF7A7FF2046BDE8FC813046FFF710
:1052600063FE0124F7E70820FFF73FBE7CB5050089
:1052700023D0FFF72DFF00904068C0B1FFF728FF53
:105280000024019005E0019800EB8400FFF776FE12
:10529000641C00980088A042F5DC01A8FFF782FF9B
:1052A0000098001DFFF76AFE0099002008806846FC
:1052B000FFF778FF2846FFF737FE7CBD38B500249E
:1052C00030B1FFF705FF009004886846FFF76AFFDA
:1052D000204638BD38B50D46002448B1FFF7F8FE2A
:1052E0002946009000F016F804466846FFF75AFF7A
:1052F000204638BD38B50D46002448B1FFF7E8FE1A
:105300002946009000F018F804466846FFF74AFF67
:10531000204638BD38B50D4601880024A94209D978
:10532000406838B1FFF7D4FE009050F82540684639
:10533000FFF738FF204638BD10B50024FFF7EAFF1D
:1053400010B1FFF7C5FE0446204610BDF0B52D276D
:105350001C68B0F1004F08D0002600280DDA651C4B
:105360001D6027704042012408E0651C01261D6075
:105370006FF000402770491E01E00024091BC9B2EC
:105380002AB3491EC9B222E00C46491EC9B2944252
:1053900005D1124C27781C68651C1D602770104CC5
:1053A00054F8215090FBF5F4E4B20A2C11D804FB18
:1053B000150011B90EB1641CE4B20A2C02D101240B
:1053C000491CC9B21D686F1C30341F602C70002945
:1053D000DAD1196800200870F0BD000090020020AA
:1053E0007CBE070810B5002807DD0A682B24531C73
:1053F0000B601470096800220A7010BD70B5144665
:105400000D46064601F0FEFA204600F0E7FE0300D6
:10541000174804EB840109D050F8210041688068E6
:10542000711A2A1A184602F06DF91CE000EB81048B
:10543000A268B24201D0012200E00022E368AB4240
:1054400001D0012300E000231A430CD0236943B1AB
:1054500050F82100816840686A1A311A184602F033
:105460006DF8C4E90265BDE8704003F07FB8000044
:1054700048BF002010B5C2B2CBB2D21A00D55242FA
:1054800093B25B43C0F30722C1F30724121B00D57C
:105490005242000C92B2A0EB114002FB023200B269
:1054A000002801DA404200B280B200FB002010BDAB
:1054B00010B50021084600F073FF43F6FF7250421A
:1054C000BDE8104013460146AFF300802DE9FC41D2
:1054D0001C4615460E46074601F094FA042006F0D5
:1054E000EDF880461248C068C16C006D0F44064458
:1054F0000D440444ADF80070ADF80450ADF80260FE
:10550000ADF8064068460FF0E9FB07E023462A465F
:105510003146384605F0CEFB0FF05AFB0028F5D196
:10552000404606F0CBF803F021F8BDE8FC8100000E
:1055300090020020B0F90630B0F90420B0F9021052
:10554000B0F90000FFF7C2BF2DE9F8431C00DDE908
:10555000089816460F46054602D10EF08DF904460E
:1055600000962E6843464A4621462846B047061E06
:1055700039D00EF076F98146698A30460DF0E7FBA6
:1055800030460FF0EEF948460FF0EBF94FF0000807
:105590000CE000BFCDF8008055F81CCF00231A4660
:1055A00049462846E04700B30FF0DBF97F1E002F85
:1055B000F0DC1D2148460EF0DAFF601C12D001F02D
:1055C00021FA0EF09DF930B1FFF704FE8469B44270
:1055D00001D02000F8D1B44202D030460FF0D8F804
:1055E00002F0C4FF3046BDE8F88330460EF00AF8FA
:1055F0000020F8E72DE9F0411C4616460D46074607
:10560000022B02DB0020BDE8F0811C20FFF7D2FC5A
:105610000028F8D00DB105610AE0094A52F82410BB
:1056200009B905E011460A68002AFBD10969016140
:1056300084618682002101604160C0E90217E2E7CF
:10564000B402002070B51D46FFF7D4FF040009D056
:1056500000F00EF8E068006820B90348006800EB2D
:1056600085008465204670BD9C020020FFF77ABC4F
:1056700070B590B38269022A30DA1E4C54F82210B9
:1056800019B944F8220032E019464B68002BFBD1CF
:1056900006E0CB68C5681B682D68AB4203DD09686E
:1056A0000029F6D11AE0C1B1CB68C6681B6836681C
:1056B000B3420CD1838A012B05D008E01946DB6880
:1056C0001B68AB4203DB0B68002BF7D129B14B6899
:1056D00033B118604A68426004E0FFE7012070BD02
:1056E00044F822004860884200D100210160002077
:1056F00070BD0000B402002010B503E00468FFF79D
:10570000B7FF20460028F9D110BD00000A4A816980
:1057100052F82130834202D1036842F821304168B7
:1057200009B102680A60016809B142684A60002153
:105730000160416070470000B40200200020704703
:10574000022801DB00207047054A52F8200004E0DF
:10575000C26812688A42F6D000680028F8D1704703
:10576000B4020020022801DB00207047054951F8EF
:10577000200004E0C16809680029F6D0006800280C
:10578000F8D17047B4020020F8B516460F46050060
:105790004FF0000414D00C20FFF7A7FB04000FD03B
:1057A00001F030F92046FFF793FC06490090C0E96C
:1057B0000015078146816846FFF7F4FC02F0D6FE2B
:1057C0002046F8BD54BE07082DE9F8431D4616468D
:1057D000884604000CD0FFF77BFC00900068076847
:1057E0006846FFF7DFFC2B46324641462046B84765
:1057F000BDE8F88338B504004FF000000AD0204619
:10580000FFF766FC0090006845686846FFF7CAFC31
:105810002046A84738BD38B504004FF000000AD034
:105820002046FFF755FC0090006885686846FFF742
:10583000B9FC2046A84738BD2DE9F041044602F0E6
:1058400002FF06191EE000BF00F0C0FB052F00DDBF
:10585000052701F0D7F811480568FFF731FC2C0047
:1058600017D000BF02F082FE641EFBD1384602F062
:10587000E3FE1DB101F0C6F86D1EFBD1FFF78AFCF7
:1058800002F074FE02F0DFFE371A002FDCDCBDE808
:10589000F081384602F0D0FEF0E70000B8050020A5
:1058A0001FB503ABCDF80CD0FFF750FD684600F0F4
:1058B00019F81FBD002212F073B97FB50C461546CA
:1058C000CDF80CD003A9FFF78DFD002801DD641E83
:1058D000E4B203AB2A462146FFF738FD684600F0E4
:1058E00001F87FBD2DE9FC4706005FD001F08AF882
:1058F00000F08CFC3C4C81462068B0F9228000F01E
:105900001DFD216807468A8CD01B888441E000BFBA
:1059100047F6FF71304603F03FFE824601463046AF
:1059200003F010FE2168054691F82C0000F00300FA
:10593000012841D002283BD000204A8C101A48840C
:10594000ADF800006A1E1044ADF80400888CADF874
:105950000200A9F101010844ADF806006A4651466B
:10596000304603F0A7F82168BDF80200888451464C
:10597000304602F0E9FC064430780A281ED00D2893
:105980001CD0BDF80000216828444884307818B144
:10599000761C30780028BBD12068818C3944818402
:1059A000818D21F00301818502F0E0FDBDE8FC87D7
:1059B00005EBD5704010C0E72846BEE7206890F898
:1059C0002C1001F0030101290BD0022909D0018C10
:1059D000418431780A29D9D1828C02EB0901818472
:1059E000D4E7A0F82280F4E79C02002070B51446AA
:1059F0000D46064601F006F8054800684584848493
:105A00003046FFF76FFFBDE8704002F0AFBD000009
:105A10009C02002047F6FF7300F044B82DE9FF47D1
:105A20001F460C9E90460D46814696B30024009476
:105A3000019400F0E7FFADB128680090686801901C
:105A40001748009901600199416028460EF06AFFED
:105A5000040007D00246294602A803F00AFE02A865
:105A60000EF060FF30461AF0BFF9054671686846CF
:105A700088473B4642466946484603F073F820464D
:105A80000EF050FF28461AF0AFF902F06FFDBDE8A6
:105A9000FF87FFE704B0BDE8F04700F003B800005F
:105AA000D00700202DE9FC411F4690460D46060018
:105AB0004FF000041AD000F0A5FF65B128460EF0A3
:105AC00031FF040007D002462946684603F0D1FDA5
:105AD00068460EF027FF3B4642462946304603F013
