:020000040800F2
:1000000028C60020E9020008E7EE0008D5AE000887
:10001000E5EE0008092F0008053E01080000000079
:100020000000000000000000000000005102000875
:10003000E5340008000000009502000801FD0008FA
:100040000303000803030008030300080303000878
:100050000303000803030008030300080303000868
:100060000303000803030008030300080303000858
:100070000303000803030008030300080303000848
:100080004D3200087D320008030300080303000816
:100090000303000803030008030300080303000828
:1000A0000303000803030008030300080303000818
:1000B000030300084D2D0108012E01080303000869
:1000C00003030008030300080303000803030008F8
:1000D00003030008393B01089D3B010803030008A6
:1000E00003030008030300080303000803030008D8
:1000F00003030008030300080303000803030008C8
:1001000003030008030300080303000803030008B7
:1001100003030008030300080303000803030008A7
:100120000303000803030008030300080303000897
:1001300000F002F800F07CF80AA090E8000C82447D
:100140008344AAF10107DA4501D100F071F8AFF25A
:10015000090EBAE80F0013F0010F18BFFB1A43F0A5
:100160000103184750E7070070E707000A444FF003
:10017000000C10F8013B13F0070408BF10F8014B06
:100180001D1108BF10F8015B641E05D010F8016B4B
:10019000641E01F8016BF9D113F0080F1EBF10F8AF
:1001A000014BAD1C0C1B09D16D1E58BF01F801CBD2
:1001B000FAD505E014F8016B01F8016B6D1EF9D555
:1001C0009142D6D37047000000230024002500266A
:1001D000103A28BF78C1FBD8520728BF30C148BFAA
:1001E0000B607047662926F05A87642900F00E815B
:1001F000752900F00B81782900F04481632900F013
:100200004E86732900F05386002070471FB500F01A
:1002100059FF04000020002125F048FD401C6060CB
:100220000020002125F02CFDE0601FBD10B510BDA1
:1002300001F0BCF81146FFF7E9FF23F017F901F0D0
:100240003BFB03B4FFF7F2FF03BC22F0DCFD000030
:10025000224B19680868B0E8F00F80F30988BFF3F3
:100260006F8F4FF0000080F311884EF00D0E704735
:100270000000000006480068006880F3088862B645
:1002800061B6BFF34F8FBFF36F8F00DF00BF00BFBA
:1002900008ED00E0EFF30980BFF36F8F0F4B1A6892
:1002A00020E9F00F106008B54FF0500080F311887E
:1002B000BFF34F8FBFF36F8F24F026FE4FF0000087
:1002C00080F31188BDE8084019680868B0E8F00FAD
:1002D00080F30988BFF36F8F704700BF14010020BF
:1002E000EFF3058070470000094880470948004740
:1002F000FEE7FEE7FEE7FEE7FEE7FEE7FEE7FEE7D6
:10030000FEE7FEE704480549054A064B7047000032
:1003100015FD00083101000828C0002028C6002073
:1003200028C2002028C20020704700000FB40449F2
:1003300010B503AA029800F0BFFD10BC5DF814FBD5
:10034000E00000200FB41CB5074B06AA7B446946A9
:100350000090059800F081FD0020694600F090FDB6
:100360001CBC5DF814FB0000310B000070B50446A6
:1003700085690068C10601D5302600E02026C00747
:1003800007D070BDD4E9012130469047206A401C57
:1003900020626D1EF6D570BD70B504468569007883
:1003A000C00707D170BDD4E9012120209047206A01
:1003B000401C20626D1EF6D570BD70B50C4605461A
:1003C000012A05D02878800600D5EA69002302E0DA
:1003D000012305E05B1C934202D2E05C0028F9D1C6
:1003E000A869E618C01AA861286A18442862284635
:1003F000FFF7BCFF04E0D5E9012114F8010B904799
:10040000B442F8D32846FFF7C7FF70BD2DE9F0418D
:100410000646002410687529314616A510D0AFF3A2
:100420000080002802DA404213A507E031688A07FD
:1004300001D512A502E0490704D511A5012401E068
:10044000AFF3008000210A2206F1240709E0B0FB87
:10045000F2FCB0FBF2F302FB1C003030785418467B
:10046000491C0028F3D123462A463046BDE8F04116
:1004700000F087BA000000002D0000002B000000F3
:100480002000000070B504460D4621461068AFF309
:1004900000802188090502D50F4A7A4402E00E4AFD
:1004A0007A440E32002104F1240305E000F00F0627
:1004B0000009965D5E54491C0028F7D1207800237E
:1004C000000704D5702D02D009B102231132204655
:1004D000BDE8704000F055BAF6E107002DE9F05F85
:1004E000894604464FF0000ADFF824B1FB44C0F807
:1004F00020A02046E168884700287DD0252806D026
:10050000D4E901219047206A401C2062F1E70025D0
:100510005F462046E16888472028064607DB312EE3
:1005200005D2B81910F8200C08B10543F1E7A80767
:1005300001D525F00405C4F81CA00027C4F818A0B4
:100540002A2E09D0304622F057FC38B304EB870836
:10055000303EC8F8186019E059F8041B204604EB37
:1005600087029161E1688847012F064618D1E0694A
:10057000002820DA25F020051DE0D8F8180000EB4F
:10058000800006EB40003038C8F818002046E168CB
:100590008847064622F030FC0028EED1012F0AD011
:1005A0002E2E08D12046E16888477F1C0646022F80
:1005B00045F02005C4DBA069002803DA404245F07D
:1005C0000105A061E80701D025F01005A6B1A6F14C
:1005D0004100192802D8203645F400654A463146C4
:1005E000204625604D46FFF7FDFD60B1012807D08C
:1005F000ED1D25F0070000E007E000F1080978E7AD
:1006000005F1040975E730467AE7206ABDE8F09FF6
:10061000CCE1070070B5064600F0A4F90468054671
:1006200030460A22002100F0A9FC2C6070BD40EA8F
:10063000010310B59B070FD1042A0DD310C808C9B8
:10064000121F9C42F8D020BA19BA884201D9012061
:1006500010BD4FF0FF3010BD1AB1D30703D0521CAC
:1006600007E0002010BD10F8013B11F8014B1B1BE7
:1006700007D110F8013B11F8014B1B1B01D1921E51
:10068000F1D1184610BD40EA0103024630B59B0780
:1006900010D14FF0013400E008C208C91D1B9D4372
:1006A00015EAC41FF8D013F0FF0102F8011B0DD0AA
:1006B0001B0AF8E711F8013B002B02F8013B05D0BB
:1006C00011F8013B002B02F8013BF3D130BD10B50E
:1006D000431C02E010F8011B71B18107FAD14FF001
:1006E000013202C88C1A8C4314EAC211F9D0C01A24
:1006F0000A0603D0C01E10BDC01A10BD0A0401D0E6
:10070000801E10BD0902FCD0401E10BD032A40F21D
:10071000308010F0030C00F0158011F8013BBCF1A3
:10072000020F624498BF11F801CB00F8013B38BFBB
:1007300011F8013BA2F1040298BF00F801CB38BFC9
:1007400000F8013B11F0030300F06780083AC0F0A5
:10075000088051F8043B083A51F804CBA0E808108F
:10076000F5E7121D5CBF51F8043B40F8043BAFF3C2
:100770000080D20724BF11F8013B11F801CB48BF1C
:1007800011F8012B24BF00F8013B00F801CB48BF52
:1007900000F8012B7047431A28BF9A427FF6B6AF84
:1007A000032A1044114440F2268010F0030F1EBFAC
:1007B00011F8013D521E00F8013D10F0030F7FF4C7
:1007C000F6AF11F0030300F02484083AC0F00B8068
:1007D00051F8043D083A51F804CD40F8043D40F882
:1007E00004CDFFF7F3BF121D5CBF51F8043D40F884
:1007F000043DAFF30080D20724BF11F8013D11F88A
:1008000001CD48BF11F8012C24BF00F8013D00F8CC
:1008100001CD48BF00F8012C704710B5203AC0F058
:100820000B80B1E81850203AA0E81850B1E81850F1
:10083000A0E81850BFF4F5AF5FEA027C24BFB1E82E
:100840001850A0E8185044BF18C918C0BDE810409F
:100850005FEA827C24BF51F8043B40F8043B08BFA8
:100860007047D20728BF31F8023B48BF11F8012B6F
:1008700028BF20F8023B48BF00F8012B704702F068
:10088000FF0343EA032242EA024200F0EEBB4FF0CC
:10089000000200B5134694469646203922BFA0E8D0
:1008A0000C50A0E80C50B1F12001BFF4F7AF0907DC
:1008B00028BFA0E80C5048BF0CC05DF804EB8900CD
:1008C00028BF40F8042B08BF704748BF20F8022B10
:1008D00011F0804F18BF00F8012B70474FF0013C1A
:1008E00050F8042B51F8043B9A4221D1A2EB0C039F
:1008F000934313EACC1317D150F8042B51F8043B5F
:100900009A4215D1A2EB0C03934313EACC130BD1FB
:1009100050F8042B51F8043B9A4209D1A2EB0C0386
:10092000934313EACC13DBD04FF00000704700BFB5
:10093000D01A01BAB1FA81F101F0180122FA01F0DE
:10094000CB40C1F12001DBB2C0B2C01A2CFA01F3D6
:10095000D11A914311EAC311E6D17047704770472D
:100960007047704700487047C8BF002010B5FFF7B8
:10097000F9FF006810BD10B50446FFF7F3FF0460EF
:1009800010BD2DE9F0470D4699469246044600F108
:1009900024080168880604D5E06921F0100121606F
:1009A00000E00120A84201DD471B00E00027A1690B
:1009B0007A1902EB0900081AA0612078C00602D457
:1009C0002046FFF7D3FC002608E0D4E901211AF8FD
:1009D00006009047206A401C761C20624E45F4DBDE
:1009E0002078C0060AD52046FFF7C0FC06E0D4E90F
:1009F000012130209047206A401C2062381EA7F158
:100A00000107F4DC07E0D4E9012118F8050090475C
:100A1000206A401C2062281EA5F10105F3DC204657
:100A2000FFF7BAFC2078000602D50220BDE8F08767
:100A30000120FBE770472DE9FF4F0C461E464FF0A3
:100A4000FF378BB0D2E90001DDF860800A908A465A
:100A5000C1F30A5505B93D46002108464FF0000094
:100A6000BAF1000F00F4400005DA00EB80004FF40B
:100A7000400101EA50004FEA9059B9F1010F00DD41
:100A8000B9460A9850EA4A000ED044F61050A5F232
:100A9000FF3545432F14B8F1000F1ED07542291EB3
:100AA0001EDDC9F100021CE0B8F1010F4FF000009B
:100AB00001D0302103E0F24305E02154401CB04254
:100AC000FBDB30460022002121540B99C1F808803D
:100AD000C1E900200FB0BDE8F08FBD1B6D1CDEE743
:100AE0004A4600DA694206A800F0EEFB06AB93E83E
:100AF000070003AB83E8070050460A9901F01BF991
:100B00008DE80700A0F500501F3800900398002DD5
:100B100009DD42F21F014A46084403A903906846D2
:100B200001F0A5FB08E0A0F500504A461F3803A9D4
:100B30000390684601F0C3FB8DE807000004000C39
:100B400003D04FF0FF30410800E01046B8F1000F2D
:100B500003D00022009215461EE0751E05D400F059
:100B6000B5FA303262556D1EF9D5B34601220843FD
:100B700002D000227F1C04E02078302801D100221E
:100B80007F1E002A099786D01DE0112D07DA00F09C
:100B90009DFA303262556D1C50EA0102F5D10843CE
:100BA00002D00098C8B10EE00021681E05E0235C69
:100BB000625C63542254401E491C8142F7DBAB4601
:100BC000A81B401E0990002004F80B000B98099AFE
:100BD000C0F80880C0E9002B7CE711264FF0000820
:100BE00059E72DE9F04F88460446D21D22F007014F
:100BF00091B0D1E90001CDE90A0121F0A1F9024645
:100C00000B98C00F01D02D2007E02068810701D587
:100C10002B2002E0202101EAC000032A099001D024
:100C2000072A05DB03464146204600F09DFA0BE10A
:100C30002078800601D5E06900E00620B8F1650F54
:100C4000814606D0B8F1660F18D0B8F1670F70D1A1
:100C500031E00020B9F1110F009001DB112301E018
:100C600009F101030AAA01A90CA8FFF7E4FEDDE9D6
:100C70000C70002609F10105834647E001204B4630
:100C800000904FF000470AAA01A90CA8FFF7D3FE75
:100C9000DDE90DB00C995D46002610B909F101009F
:100CA0000D18B9EB050003D4C0F1FF3609F10105B9
:100CB000A5EB09002BE0B9F1010F01DA4FF00109B2
:100CC0000020B9F1110F0090484601DD112300E02A
:100CD00003460AAA01A90CA8FFF7ADFEDDE90C70D6
:100CE0004D4600268346207800070AD4AB4500DA3B
:100CF0005D4601A8012D04DD411911F8011C3029C0
:100D000007D04F4502DA17F1040F04DA01208246BA
:100D10000FE06D1EEEE7002F02DCED1B3E4403E00A
:100D2000781CA84200DD7D1CB81B00F1010A4FF0C1
:100D300000472078000703D4AA4501DB4FF0FF3AB3
:100D40000021B7F1004F0DF143088DF8431024D076
:100D500002202B23002F01DA7F422D230A21021EBD
:100D6000A0F1010000DC5FB197FBF1FC97FBF1F211
:100D700001FB1C7C17460CF1300C08F801CDEEE7A6
:100D8000A8F1010003702188090501D5452100E083
:100D90006521A0F1010800F8011C09980FA9A1EB39
:100DA0000807FF1D00B10120411901EBEA70A1699C
:100DB0003844081A401EA0612078C00602D420469C
:100DC000FFF7D4FA099828B1D4E901219047206AA5
:100DD000401C20622078C00622D52046FFF7C6FAC4
:100DE0001EE0002E04DBB34502DD01A8805D00E0BB
:100DF0003020D4E901219047206A401C2062761CF3
:100E0000AAF101005FEA000A0AD100F05BF9C068AC
:100E10000168405CD4E901219047206A401C2062AF
:100E2000281EA5F10105DCDC07E0D4E9012118F852
:100E3000010B9047206A401C2062381EA7F1010771
:100E4000F3DC2046FFF7A8FA032011B043E60000C8
:100E500001694A1C02610878704700B58FB0CDE97E
:100E600001310021059105497944CDE9031011466E
:100E70006846FFF733FB0FB000BD0000E5FFFFFF42
:100E80000A6802F8010B0A60704710B5436913B194
:100E9000AFF3008001E0FFF790FA012010BD127857
:100EA00000F124010A7000224A700122EDE7116866
:100EB0004FF0FF32E9E70000074B70B50D467B4469
:100EC000FFF7CBFF0446284600F06CFA10B14FF054
:100ED000FF3070BD204670BD1F2402000FB40023F8
:100EE00000B589B00CA900910B99CB60204B7B44D5
:100EF0000693204B7B44079304236FF00042CDE917
:100F000001321D4A7A446B4608920246002026F0C0
:100F10004EF909B05DF814FB70B506464FF0FF308E
:100F200015460C46324686B00091CDE9010169466E
:100F30000020049004A8FFF7D1FF0346049821186D
:100F400025B108B10A4600E022462A6000280DD0EB
:100F5000002B02DD0098884208D03246081B694603
:100F60000094CDE9010404A8FFF7B8FF06B070BDF6
:100F7000F70200000F0300004F0200002DE9F047C8
:100F800091460F4680460446002614F8015B2DB1B9
:100F900000F090F80068405DC007F6D12B2D02D01C
:100FA0002D2D18D0641E4A463946204600F03CF9E3
:100FB00027B13968A14201D1C7F800804FF002047F
:100FC00071050BD54042002803DDFFF7CBFC046020
:100FD000A007BDE8F08746F48066E4E70028F8DA69
:100FE000FFF7C0FC04606FF00040F2E7431A28BF2F
:100FF0009A427FF612AC104410F0030F11441EBF4A
:1010000011F8013D521E00F8013D10F0030F7FF46E
:10101000F6AF103AC0F00A8010B531E91850103A16
:1010200020E91850BFF4F9AFBDE81040530724BFC2
:1010300031E9081020E9081044BF51F8043D40F898
:10104000043D12F0030F08BF7047D20728BF31F8E4
:10105000023D48BF11F8012C28BF20F8023D48BFCF
:1010600000F8012C70474FF000020429C0F01280F4
:1010700010F0030C3FF40DACCCF1040CBCF1020FEA
:1010800018BF00F8012BA8BF20F8022BA1EB0C0120
:10109000FFF7FFBB5FEAC17C24BF00F8012B00F81B
:1010A000012B48BF00F8012B704700000048704733
:1010B000C8BF002010B500F005F8001D10BD00BF2E
:1010C000ED4B020000487047E8BF002030B5B0F19A
:1010D0000A024FEA900E71F100034EEA817EB0EBF6
:1010E0000E0061EB91014FEA101E4EEA017E10EBFB
:1010F0000E0041EB11114FEA102E4EEA016E10EB7B
:101100000E0041EB11214FEA104E4EEA014E10EB5A
:101110000E0041EB1141401841F100014FEAD000AF
:1011200040EA41704FEAD10110EB80054FEA81049B
:1011300044EA907444EB01046D1944EB0404521B1F
:10114000A3414FF0000348BF0A3200D530BD401C18
:1011500041F1000130BD10B50446FFF7ABFF006858
:10116000005D00F0010010BD2DE9F0411F4604466E
:1011700003260168072A01F4006004DB08B116A504
:1011800005E016A503E008B115A500E015A521F0BE
:1011900010002060A069C01EA0610FB1401EA061B8
:1011A0002046FFF7E3F84FB1D4E9012138469047D4
:1011B000206A401C2062C01C206206E0206AFAE718
:1011C000D4E9012115F8010B9047761EF8D220468C
:1011D000FFF7E2F8BDE8F0814E414E006E616E000F
:1011E000494E4600696E6600426842B1016811F8D6
:1011F000013B23B1521EC0E900121846704701217D
:10120000C160881E704742685AB1C368016843B91B
:1012100083688B4205D0491E521CC0E90012002091
:1012200070474FF0FF3070472DE9F05F824615465A
:101230008B4600270AF10104B9460078302801D016
:101240009DB113E014F8010B0127782803D058282A
:1012500001D045B10AE00DB1102D07D1002714F8D7
:10126000010B102502E0082500E00A250026B04603
:101270000EE005FB080005FB06F101271FFA80F8C8
:1012800001EB1046B6F5803F00D3B94614F8010BC8
:10129000294600F0B0F80028EBDABBF1000F05D0CA
:1012A0000FB1641E00E05446CBF80040B9F1000FC6
:1012B00006D0FFF757FB02210160C81EBDE8F09F72
:1012C00048EA0640FAE700002DE9F0478146164655
:1012D0008AB0334878440DC88DE80D003048784412
:1012E000801C03AC0DC884E80D0041F69B30084417
:1012F000372190FBF1F290FBF1F5A5F1800501FBA0
:1013000012041B3C02D56442012000E00020DFF8FB
:1013100090A080460027FA44AAF1BE0A0DE0E0073B
:1013200009D03246684607EB47010AEB810100F01D
:10133000C6FF8DE8070064107F1C002CEFD1184F0A
:101340007F44AC3F18E0E80714D007EB04100DF120
:10135000180A90E80E008AE80E00C068F04201D139
:1013600098190890324606A903A800F0A8FF03AB1D
:1013700083E807006D10641C002DE4D132466946F5
:10138000B8F1000F03A802D000F071FF01E000F0F7
:1013900096FFC9E90001C9F808200AB0BDE8F08746
:1013A00074D40700007B00F0800070477546FFF79B
:1013B0007DFEAE4605006946534620F0070085468F
:1013C00018B020B5FEF79EFFBDE820404FF00006A4
:1013D0004FF000074FF000084FF0000B21F007011D
:1013E000AC46ACE8C009ACE8C009ACE8C009ACE860
:1013F000C0098D4670473A2800D2303820F02002CC
:10140000412A01D3A2F13700884201D34FF0FF30C7
:10141000704700002DE9FF4F064689B00878FF2885
:1014200006D0491C2D2805D000244FF0000908E003
:1014300000200CE00124F8E709EB8903491C00EBCC
:1014400043090878FF28F7D114B1C9F1000081469B
:10145000107800252C46AA4629462D2801D02B2895
:1014600004D1521C2D2813D0002082468B461078C0
:10147000FF280FD04FF0000C0A21521CA5FB017869
:1014800004FB018105FB0C11C5194BEB0104EEE7D0
:101490000120EAE7002108464FF00000BAF1000FF2
:1014A00002D000EB80004008C0F38158B8F1010F72
:1014B00001DD4FF0FF380C9809EB000755EA0400F6
:1014C00009D04FF0020917F5FA7F0BDA4FEACA701C
:1014D000C6E900B012E04FEACA70C6E900B00DB02C
:1014E000BDE8F08FB7F5FA7F0DDDF0487844D0E91C
:1014F0000010C6E9001040EACA707060FFF732FAC7
:10150000C0F80090EBE7391E02DAC8F1000200E0F3
:10151000424600DA794206A8FFF7D6FE06AB93E80A
:10152000070003AB83E8070044F23E005BEA0401D6
:101530000090584604D144F21E012C465D460091AD
:10154000210C0904014306D10099240444EA1544FE
:101550002D041039009104F07F41014306D1009918
:10156000240244EA15642D020839009104F0704108
:10157000014306D10099240144EA15742D01091F85
:10158000009104F04041014306D10099A40044EACF
:101590009574AD00891E009104F00041084304D108
:1015A00000986D196441401E009042466846002F25
:1015B000CDE9014503A902DD00F095FE01E000F050
:1015C0006AFEBAF1000F04460D4601D084F00044D3
:1015D00040F2FF7724F00040284303D0C4F30A50C0
:1015E000B84212D1FFF7BEF9C0F80090C4F30A5018
:1015F000B8420AD1AE487844D0E90010C6E90010DC
:1016000004F000410843706069E7C6E9005466E7EA
:101610002DE9FF4F1F464FF0000A4FF0FF384546B7
:1016200091B0D7E90146CDF83CA0FFF74BFDC0686B
:101630000168405C1090B96912986D1C8847396A3E
:10164000814688470028F6D1B9F1FF3F0AD0002E25
:1016500024F4D06411DDB9F12B0F08D0B9F12D0FAE
:101660000BD102E0404615B03AE744F48064B96912
:1016700012986D1C8847761E8146600504A901D525
:101680002D2000E02B20002E01F1010B0DF1300880
:101690008DF810003FDDB9F1690F08D0B9F1490F9D
:1016A00005D0B9F16E0F02D0B9F14E0F1CD13B46F7
:1016B00001A8009580E85002DDE912126FF00200E7
:1016C00025F079FDC11CCED10EE0B96912986D1CD0
:1016D000884781461398761E44F4007405600F987D
:1016E000401C002E0F9016DDB9F1300FEDD0B9F18E
:1016F000780F02D0B9F1580F0DD10F9801280AD1F7
:101700003B46CDE90054DDE91212001F029625F098
:1017100050FDC11CA7D1109989453ED144F08004E9
:1017200006E01399681CAAF1010A44F400740860E9
:10173000B9696D1C1298761E884730288146F0D012
:101740002BE01099894505D1200603D4761E44F07C
:10175000800418E0484621F04FFB08B3761E0DF1D7
:1017600023018B4544F4007408D2A9F130000BF832
:10177000010B200607D5AAF1010003E0200602D4E0
:101780000AF101008246A00502D51399681C086081
:10179000B96912986D1C88478146002ED1DC53E050
:1017A000002E51DDB9F1650F02D0B9F1450F4BD1D3
:1017B000A00549D5B9696D1C1298761E24F44074B1
:1017C0008847002E81460CDD2B2804D0B9F12D0F5F
:1017D00007D144F48074B96912986D1C8847761E4D
:1017E0008146E00501D52D2100E02B2108F8011BE1
:1017F000CDF8008021E0761E0DF13901884544F4D2
:1018000000740CD2A9F1300010F0FF0088F800003D
:1018100002D10099884509D908F1010806E0E005E0
:1018200001D5244801E042F20F708246B96912984E
:101830006D1C8847814613980560002E04DD4846DC
:1018400021F0DAFA0028D6D1F96912988847FF20EA
:1018500053468BF8000088F8000000200A900B9097
:1018600004AA0CA90AA8FFF7D5FDA00502D46FF0C1
:101870000100F8E614F0240F0AD0E00714D138680C
:10188000DDE90A12031D3B600068C0E900120BE0AD
:101890000AA9684620F078FBE00705D13868009A6D
:1018A000011D3960006802602846DCE6E4D30700C9
:1018B000DAD20700F1D8FFFF0446AFF300802046DC
:1018C000FEF7BFFC2DE9FF4F1F464FF03C0987B0E4
:1018D0004FF00042DDE9141001F10108DDF858A0D5
:1018E00002EA4050039000200490834605460446D7
:1018F0000590B969461E08988847AAF1010A029026
:10190000BAF1000F37DD02982E2815D01021FFF70D
:1019100072FD00282ADB4FF0010B0499014316D019
:10192000B9F1000F0BDB4A46C11700F0F1F905438E
:101930000C43A9F1040905E00120059007E008B176
:1019400045F0010501200490059800B9361DB969DC
:10195000089808F101088847BBF1000FAAF1010AB5
:101960000290CDD00999C1F80080C9E7029870288B
:1019700008D0502806D0F96908988847BBF1000FB5
:1019800014D04FE0002002900120BBF1000F049022
:1019900009D0B969089808F101088847AAF1010936
:1019A000B9F1000F07DCF969089888476FF001006A
:1019B0000BB0BDE8F08F2B2804D02D280CD14FF0B0
:1019C000FF300490B969089808F101088847A9F127
:1019D0000109B9F1000FE6DD411CE4D00A21FFF74F
:1019E0000AFD0028DFDB029908F1010801EB810103
:1019F00000EB41000290B969089888470A21FFF777
:101A0000FAFC099AA9F10109B9F1000FC2F80080A6
:101A100001DD0028E7DAF9690898884704990298F7
:101A200000FB016655EA040004D004F040410900BF
:101A300002D006E0039898E0A40044EA9574AD0053
:101A4000B61E04F00041080002D16D196441761EF3
:101A5000159810F0240F03D04FF00B095C4803E0F9
:101A60004FF028096FF07D008246564507DAAAEB51
:101A700006018944B9F1410F01DD4FF04109012010
:101A80000021A9F1010200F043F9024628400B466B
:101A90002140084301D0012100E00021501E0291A5
:101AA00043F1FF3128402140084301D0012000E0EC
:101AB00000200299834651EA0B014FD000210846CD
:101AC0004FF00000039900F4400039B100EB8000B2
:101AD0004FF4400100EBD07001EA6000801501284E
:101AE00002DD4FF0FF3000E013D0401C36D00298EA
:101AF00060B3BBF1000F0CD14A460120002100F079
:101B000007F928402140084301D0012000E00020CF
:101B1000E0B101204A46002100F0FAF803464019DE
:101B20000A4661412D1A8C4111D3B9F1400F09DDEC
:101B3000159810F0240F02D0AAF1340603E0AAF1A0
:101B4000170600E0761C00254FF0004406E05B1EFF
:101B500042F1FF3220EA030521EA0204CAF1010042
:101B6000B04206DA1B490398084301900020009018
:101B70000EE0039AC4F3D321E80A0A43164940EA67
:101B800044500A433146CDE90002684620F048FA45
:101B9000159810F0240F0BD01598C00715D1386890
:101BA000DDE90012031D3B600068C0E900120CE093
:101BB00002A8694620F0E8F91598C00705D13868F1
:101BC000029A011D3960006802604046F0E600009C
:101BD00002FCFFFF0000F07F0000F03F2DE9FF4F07
:101BE00092461D4685B04FF00041DDE9124BDDE91C
:101BF00014727F1E01EA4B50414940F0FF4940EA10
:101C00000108002122F020004928049102D04E282A
:101C100028D04CE03BA0012607C88DE80700A96941
:101C20000698641C88477F1E014606D41DF80600EE
:101C300018B121F0200181420BD0E969069888474C
:101C4000032E34D0082E32D06FF0010009B0BDE869
:101C5000F08F761C032E01D0082EE0D1601CCAF84C
:101C60000000DCE7A9690698641C88477F1E2AD417
:101C700020F02000412826D1A9690698641C8847D5
:101C80007F1E20D420F020004E281CD1A969069880
:101C9000641C88477F1E48F4002849F48009CAF86C
:101CA000004001D4282806D0E969069888475FEAF1
:101CB000CB7012D022E0A9690698641C88477F1E69
:101CC00001D4002803DAE96906988847BCE7292887
:101CD000F1D1641CCAF80040E9E71BF0240F07D0DB
:101CE00028680499031D2B600068C0E9001805E00E
:101CF0002868021D2A600068C0F800902046A5E709
:101D00000000F07F494E46494E49545900000000FA
:101D1000B2F120030AD5C2F1200301FA02F120FA40
:101D200003F300FA02F041EA0301704700FA03F1FD
:101D30004FF0000070475FEA400C08BF91F0000FC1
:101D40004FEA8C234FEAC12243EA51514FEA1C501B
:101D500018BF00F5F0404FEA300018BF41F00041D5
:101D60005FEA6C5C00F02980BCF1FF3F08BF40F0E7
:101D700080407047130C06BF12044FF0100C4FF058
:101D8000000C130E04BF12020CF1080C130F04BF59
:101D900012010CF1040C930F04BF92000CF1020C21
:101DA000D30F04BF52000CF1010C11464FF000029A
:101DB000A0F11F00A0EB0C00704711F0004F08BF0E
:101DC000704731F000413FF4D5AF0B0C06BF09045A
:101DD0004FF0100C4FF0000C0B0E04BF09020CF179
:101DE000080C0B0F04BF09010CF1040C8B0F04BF8E
:101DF00089000CF1020CCB0F04BF49000CF1010C5F
:101E0000CCF12003A0EB0C0022FA03F302FA0CF24F
:101E100041EA030100F10100704720F07F4C80EAA5
:101E2000030023F07F47ACEB070303F57C5300F07E
:101E3000004003F1FF032DE980494FEA154B09B437
:101E40004FEA144325EA0B4E24EA03480FF2042616
:101E500006EB132749083E785FEA320203FB066768
:101E6000C7F5000707FB06F64FEA54374FEAD64698
:101E700006F1020607FB066CCCF1005C4FEA1C473A
:101E80002CEA074C07FB06F40CFB06F504EB1546A1
:101E90004FEA961634BF00204FF000404FEAD1378A
:101EA00006FB07FC4FEA1C4C0CFB0BF7D21B03FB99
:101EB0000CF761EB07010CFB0EF7B0EB074072EB80
:101EC00017420CFB08F734BFA2EB0742B2EB074204
:101ED00061EB17414FEA0C444FEA910706FB07FC00
:101EE0004FEA1C4C0CFB0BF7B0EBC74072EB5732C0
:101EF00003FB0CF734BFA2EBC742B2EBC74261EB66
:101F000057310CFB0EF7B0EBC70072EB57720CFBAE
:101F100008F734BFA2EBC702B2EBC70261EB5771FF
:101F2000039F4FEA816141EA921104EBCC044FEA2E
:101F3000D1374FEA826206FB07FC42EA90124FEA71
:101F400080604FEA1C4C0CFB0BF7D21B03FB0CF719
:101F500061EB07010CFB0EF7B0EB074072EB174289
:101F60000CFB08F734BFA2EB0742B2EB074261EB70
:101F700017414FEA8C554FEA910704EB9C2406FB6E
:101F800007FC4FEA1C4C0CFB0BF7B0EBC74072EBA5
:101F9000573203FB0CF734BFA2EBC742B2EBC74288
:101FA00061EB57310CFB0EF7B0EBC70072EB5772C9
:101FB0000CFB08F734BFA2EBC702B2EBC70261EB20
:101FC000577115EB4C254FEA816141EA92114FEAB6
:101FD00082624FEAD13742EA901206FB07FC44F1D5
:101FE00000044FEA80604FEA1C4C0CFB0BF7D21B3D
:101FF00003FB0CF761EB07010CFB0EF7B0EB07409E
:1020000072EB17420CFB08F734BFA2EB0742B2EBAE
:10201000074261EB174115EB1C154FEA813141EA8C
:1020200092414FEA823242EA90424FEA80304FEAD0
:102030000C7644F1000448EA03434EEA0B484FF0A3
:10204000000EB2EB080C71EB030724BF6246394661
:102050004EEB0E0E4FF0000B0018524149414BEB76
:102060000B0BB2EB080C71EB03077BF1000B24BFE9
:10207000624639464EEB0E0E4FF0000B00185241EF
:1020800049414BEB0B0BB2EB080C71EB03077BF1F7
:10209000000B24BF624639464EEB0E0E51EA020792
:1020A00018BF46F0010616EB0E7655F1000254F10A
:1020B000000103D5BDE88901BDE80088BDE88901BC
:1020C000BDE80048B619524141EB0101A3F10103FB
:1020D000704780807F7E7D7C7B7A79787776767595
:1020E0007473727171706F6E6E6D6C6C6B6A6A690D
:1020F0006868676666656464636362616160605FA7
:102100005F5E5E5D5D5C5C5B5B5A5A59595858571F
:102110005756565555555454535352525251515087
:1021200050504F4F4F4E4E4D4D4D4C4C4C4B4B4BDA
:102130004A4A4A4949494848484747474746464620
:10214000454545444444444343434342424242415B
:102150004141000046EA0646A3F570534FEA164691
:1021600046EA42564FEAD22242EA415210B54FEABD
:10217000D121A3F1010300F017F820F0004000F195
:10218000010C00F0004701EB00501146BCF5006F58
:1021900040EA070000D210BD02484FF0000140EABB
:1021A000070010BD0000F07F002B26D4770021D05F
:1021B0001CB54FEA370703B44FF010004FF0100181
:1021C0004FF000000FBCBDE810400BF1010BBBF15C
:1021D000010F08BF5FEA170722BF12F1010211F1D8
:1021E00001014FF0004143F1000300F0004043EAD9
:1021F00000007047F9D35708DAE746EA064613F1BC
:10220000400F4FEA16461FDD13F1200FDFBF1643C4
:102210000A46002120335B42C8D0C3F1200746EABA
:10222000064602FA07F74FEA164646EA0706C3F1E2
:10223000200722FA03F201FA07F721FA03F14FF01F
:10224000000342EA0702B1E746EA020646EA06460A
:102250004FEA164646EA0106BCBF46EA0646360C79
:102260004FF000034FF000024FF000019EE72DE910
:10227000C048934630B491E8380007C831EA400CB2
:1022800048BF34EA430C03D5FFF7C7FDFFF78CFFC7
:10229000F0BCBDE800882DE9C048934630B491E811
:1022A000380007C831EA400C48BF34EA430C03D574
:1022B000FFF7B3FDFFF74EFFF0BCBDE800882DE946
:1022C000C048934630B491E8380007C810F0804FFA
:1022D00008BF13F0804F03D100F019F8FFF764FF37
:1022E000F0BCBDE800882DE9C048934630B491E8C1
:1022F000380007C810F0804F08BF13F0804F03D19B
:1023000000F005F8FFF726FFF0BCBDE8008820F0DC
:102310007F4780EA030023F07F4C07EB0C03A3F513
:102320007C5300F00040A3F1FE0392F0000F00F098
:10233000B38095F0000F00F077802DE901494FEA56
:1023400011404FEA144621EA004800FB06FC24EA4B
:10235000064708FB06F607FB08F800FB07F718EB33
:1023600006484CEB164C4FEA124B18EB07484FEA65
:1023700015464CEB174022EA0B4E0BFB06FC25EAF8
:1023800006470EFB06F607FB0EFE0BFB07F71EEBE0
:10239000064E4CEB164C4FF000061EEB074E4CEB76
:1023A000174B18EB0B0840F1000018EB0E0B58EB25
:1023B000000840F100008F1A4FF000013CBFC943F4
:1023C000661B14BFB5EB040C00213CBFC943F61BD0
:1023D0004FEA17444EEA8E0E27EA04454FEA1C479F
:1023E00004FB07622CEA074C05FB07F70CFB05F61C
:1023F00004FB0CFC16EB074642EB174216EB0C46AF
:1024000042EB1C421BEB060658EB0202414146EA36
:102410009E0601D5BDE80189B619524141EB010183
:10242000A3F10103BDE801894FEA14454FEA1147C2
:1024300024EA054621EA074C05FB07F406FB07F7EB
:102440000CFB06F105FB0CFC11EB074144EB1744B8
:102450004FEA124711EB0C4144EB1C4422EA074CB3
:1024600005FB07F206FB07F70CFB06F605FB0CFC69
:1024700016EB074642EB174216EB0C4642EB1C45A7
:102480006A1854F1000148BF7047B619524141EB38
:102490000101A3F10103704795F0000F37D04FEA17
:1024A00011424FEA144721EA024624EA074C02FB94
:1024B00007F106FB07F70CFB06F402FB0CFC14EB20
:1024C000074441EB17414FEA154714EB0C4441EB2D
:1024D0001C4125EA074C02FB07F506FB07F70CFB3E
:1024E00006F602FB0CFC16EB074645EB174516EB10
:1024F0000C4645EB1C42121951F1000148BF7047D0
:10250000B619524141EB0101A3F1010370474FEAB3
:1025100014454FEA114724EA054621EA074C05FB1A
:1025200007F106FB07F70CFB06F24FF0000605FB70
:102530000CFC12EB074241EB174112EB0C4251EB42
:102540001C4148BF7047921841EB0101A3F1010300
:10255000704700001CB512F0FDFA03460020009001
:102560000190034A0421034804F064F91CBD0000F3
:1025700039200208DC8603080029816802D041F076
:10258000010101E021F00101816070470D4910B5A2
:10259000884202D1012144150AE00B49884202D148
:1025A0000121041504E0094988420AD10121CC0324
:1025B00020460CF049FF2046BDE8104000210CF0F9
:1025C00043BF10BD0024014000280140003C0140F1
:1025D000014600208968490700D501207047C06C7A
:1025E00080B270470246002012680A4200D00120E3
:1025F0007047014600208968090700D5012070470F
:1026000010B542680E4B0C791A400B6842EA04225E
:102610001343436082680B4B1A40D1E902432343C2
:102620004C7942EA440213438360C26A097C22F473
:102630007002491EC9B242EA0151C16210BD0000D8
:10264000FFFEF0FFFDF7F1FF10B50022042101208D
:1026500022F05AFD0449086020B104A0BDE81040F2
:10266000FDF764BE06A0F9E704000020414443CF13
:10267000FBCFA2B6D3C1D0B4B4BDA8B3C9B9A6002C
:10268000414443CFFBCFA2B6D3C1D0B4B4BDA8CA96
:10269000A7B0DC0070B5072609290AD9C568A1F1E1
:1026A0000A0404EB4404A640B543A3401D43C5609F
:1026B00007E0056901EB4104A640B543A3401D4373
:1026C00005611F23072A09D2446B521E02EB8202C6
:1026D00093409C4391400C43446370BD0D2A09D242
:1026E000046BD21F02EB820293409C4391400C4347
:1026F000046370BDC46A0D3A02EB820293409C43AE
:1027000091400C43C46270BD816841F00801816052
:1027100070470029816802D041F4A00101E021F452
:10272000A00181607047816841F0040181607047B9
:1027300008B50020184E194FDFF86480DFF8649068
:10274000194C4FF069554FF47A7A00900A21012014
:1027500008F0ACFB24F0E8FA294624F02DFB24F025
:10276000F9F80022334623F0A5FB3A46434623F00E
:10277000A1FB00224B4623F0DDFD23F0ADFA20F053
:10278000E7FD0090022300226946206822F00EFE39
:10279000504622F011F9D9E7000024404A0C022BE0
:1027A0008716ED3F00408F400400002008F0F8BD80
:1027B00070B515460E46044608E02046641CA4B2D7
:1027C00000F007F86D1E06F8010BADB2002DF4D134
:1027D00070BD10B5044608F087FE200AA02101EB69
:1027E0004000C0B208F04CFE08F0C0FEE0B208F0B5
:1027F00047FE08F0BBFE08F077FEA12008F040FE7F
:1028000008F0B4FE002008F005FE044608F08CFE37
:10281000204610BD70B514460D46064606E02978E0
:10282000304600F007F8761CB6B26D1C641EA4B2E8
:10283000F5D270BD70B50D46044608F055FE200A6D
:10284000A02101EB4000C0B208F01AFE08F08EFE95
:10285000E0B208F015FE08F089FE284608F010FEE8
:1028600008F084FE08F060FEBDE870400A2020F009
:10287000D5BB10F1FF4F01D380F000407047002816
:1028800000DC40427047000030B587B001214FF4B2
:1028900001700CF0CDFD00248DF817400220ADF83A
:1028A000140003208DF8160005A9184802F0D4FC86
:1028B0004FF400400CF09AFD154D2846FFF766FED8
:1028C0004FF46020CDE9020401208DF805408DF819
:1028D000100000948DF8044069462846FFF790FEEA
:1028E00001212846FFF748FE2846FFF70DFF28463E
:1028F000FFF77FFE0028FAD12846FFF714FF28468D
:10290000FFF766FE0028FAD107B030BD000801408D
:10291000002401401CB50021009103460191034AA7
:102920000421034803F086FF1CBD00003920020883
:10293000DC8603081CB50021009103460191034A7F
:102940000321034803F076FF1CBD00007523020835
:10295000888603081CB50021009103460191034AB3
:102960000421034803F066FF1CBD00005124020847
:10297000B892020838B5456804460146284611F069
:10298000C0FA00282BD02068304A11280DD006DC70
:102990000B2825D00E2833D00F2852D112E028283A
:1029A00049D0B0F5107F4CD108E09268002A16D0CB
:1029B0002146284601B0BDE8304010472146284650
:1029C0005268F7E7284603F0F9FC0090406E04686F
:1029D000684603F05DFD002C01D02846A04738BDB5
:1029E000284603F0EBFC0090683003F03DFC0098B3
:1029F00003216C3003F046FC684603F049FD20E0FB
:102A0000E168486809680D2902D0202913D105E042
:102A1000002810DD28461CF0E7F806E0002804DD59
:102A20002846BDE838401CF0DFB82846BDE83840ED
:102A300002211CF0EFB8E06818B90021284600F028
:102A4000EFF92046BDE8384011F012BF30030020F6
:102A5000F0B5044685B08069B4F90850668A00274D
:102A6000CDE90265CDE900170490B4F90C00B4F982
:102A70001060C118B4F90A00B4F90E50104433467E
:102A80002A4600F007F80546616800F0D2F905B063
:102A90002846F0BD2DE9F04F85B01F46DDE911B4A1
:102AA000DDE90E5690468946824605F021F9164822
:102AB0004C34CDE90204CDE900563B464246494636
:102AC000504611F01DFE040018D003F077FC1022D0
:102AD0005946049011F0E2FB049830220B4934303F
:102AE000FDF79BFE094D04990C3D2868486604A833
:102AF00003F0CEFC286841682046884706F0ACFE0B
:102B000005B02046BDE8F08F752900083C03002081
:102B1000F0B5044680688B4989B051F82050606850
:102B200000287DD0052804D006287AD0122879D133
:102B3000AEE0E86900284FD095E80E008DE80F0060
:102B400004F110010FC907F0C1FC002655F826005A
:102B500005F003FFA169E8690A1A21690144606967
:102B6000304404F099FAA169E8690A1A216901441C
:102B7000E069801B04F090FAE169E8690A1A61696A
:102B800001442069304404F05DFBE169E8690A1AF8
:102B900061690144A069801B04F054FB761C022E7D
:102BA000D4DBA86805F0D9FEE069E9696669431AD3
:102BB000206942183144801C521E04F0B1FBE169C7
:102BC000E869A2690B1A61690144101A401C921E3F
:102BD00004F0A6FBEE6913E05FF0000655F826004E
:102BE00005F0BBFEE069831BA069821B6069811947
:102BF0002069304404F0C6FA761C022EEEDB022671
:102C0000D5E90301CDE900016169E0690844431099
:102C1000A069891C821B2069304404F0D7F902E0C6
:102C200089E012E08AE0D5E90501CDE90001E36918
:102C300060690121184401EB6001A0699B1E821BA1
:102C40002069304404F0C2F978E0206803F0B6FB54
:102C50000490206813F024FB40B1A06808B1002064
:102C600008E00498006F28B1012003E00498406F49
:102C700000B10220049901EB8000C56E04A803F0A6
:102C800007FC00231A462846216803F013FF55E08D
:102C9000206803F093FB0490866EEEB3B0F95C708D
:102CA000A168D1B3032942D05FF0000100EB81019C
:102CB000406D0C6C05F08CFE204605F04EFE05A81C
:102CC00004F0F0FBBDF81410A88B0144ADF814100B
:102CD000BDF81810081AADF81800BDF81600801CD1
:102CE000ADF81600BDF81A00801EADF81A00049861
:102CF000B0F96020B0F95E1005A805F0DBFC04A86F
:102D000003F0C6FB022005F0CFFE304603F056FB71
:102D10003A4605A9079001E00BE006E003F0F0FF5A
:102D20000DF11C0003F0B4FB08E00121BEE7022115
:102D3000BCE704A8F6E7206812F0CAFE09B000203C
:102D4000F0BD00007CDD07082DE9FC4115460E466C
:102D5000040022D004F0CCFF204603F02FFB0190AA
:102D6000806E002798B103F029FB0090FDF7AFFCBF
:102D70000446681E844200DD04462246304600991F
:102D8000FDF7C4FC684603F083FB375500E037705D
:102D900001A803F07DFB06F05FFDBDE8FC8138B5BE
:102DA00005004FF000040DD004F0A2FF284603F008
:102DB00005FB0090408EC0F30024684603F068FBDA
:102DC00006F04AFD204638BD70B516460C4605464D
:102DD00019463046049A03F04DFE02462146284625
:102DE000BDE8704000F052B800294FF0100101D04A
:102DF00011F01BB911F06CB838B50D4604000ED0B7
:102E000004F076FF204603F0D9FA00904565684645
:102E100003F03EFB204612F0F1FA06F01DFD38BD2E
:102E20004FF480720029114601D011F0FEB811F064
:102E30004FB82DE9FF410E4605004FF0010421D0A7
:102E400004F056FF284603F0B9FA0190876E01A8F6
:102E5000009703F01DFB3146684607F0EDFE78B1A0
:102E600000980024B84208D0284603F0A7FA019041
:102E70000099816601A803F00BFB284612F0BEFA08
:102E800006F0EAFC04B02046BDE8F081F8B515462E
:102E90000C46060018D004F02BFF304603F08EFAE3
:102EA0000090032C0BD200EB84006C3003F0DCF9B3
:102EB000009800EB8400C566304612F09FFA684621
:102EC00003F0E6FA06F0C8FCF8BD000010B50322D6
:102ED0000021012022F018F908490322086000218E
:102EE000012022F011F90649032208600021012087
:102EF00022F00AF90349086010BD000070000020AC
:102F00001000002074000020FEE7000070B50F4C98
:102F10000025C4F884510E48016821F0F0010160D9
:102F2000016841F030010160052004F5C27420F011
:102F300091F80848C0F8A451052020F08BF8012032
:102F40002060052020F086F8256070BD00802142B9
:102F5000041C0140008023421348816941F00801AC
:102F60008161816941F0800181611048016821F02F
:102F7000F0010160016841F0300101600C48016816
:102F800021F0F0010160016841F030010160074863
:102F90000C30016841F00201016005480830016809
:102FA00041F400710160704700100240000C0140C4
:102FB000041C014070B50F4C0026C4F884610E4813
:102FC000016821F0F0010160016841F03001016009
:102FD000052004F5C27420F03DF808480125C0F82A
:102FE000A451052020F036F82560052020F032F8A5
:102FF000266070BD00802142041C014000802342F5
:103000002DE9F047824618480024016821F0F001BC
:103010000160016841F0800101601E2020F01AF873
:103020000025124EDFF848902F464FF00108C6F8F1
:103030008471052020F00EF8C6F884816006040E25
:10304000D9F8240108B1641CE4B26D1CEDB2082D5E
:10305000EDD3BAF1000F04D0FFF758FF2046BDE8CA
:10306000F087FFF7A7FFF9E7041C01400080214229
:10307000008023422DE9F04705461548016821F0FC
:10308000F0010160016841F030010160114E00273C
:10309000C6F8847105201FF0DDFFDFF83C800024B6
:1030A0004FF00109E909C8F8A4116806050EC6F831
:1030B000849105201FF0CEFFC6F8847105201FF013
:1030C000C9FF641CE4B2082CECD3BDE8F087000013
:1030D000041C0140008021420080234270B50F484B
:1030E000016821F0F0010160016841F030010160E8
:1030F0000B4E0120C6F8A4010A4DC5F884011E201C
:1031000005F5C27506F5D2761FF0A4FF00243460E1
:1031100005201FF09FFF2C6070BD0000041C0140C3
:10312000008023420080214270B50D48016821F0E3
:10313000F0010160016841F030010160094801259A
:10314000C0F884511E201FF085FF074C0020C4F8F2
:10315000A401052004F5D2741FF07CFF256070BD2A
:10316000041C0140008021420080234270B51248B7
:103170000024016821F0F0010160016841F0800144
:1031800001600E4D0120C5F8A4010D4EC6F8840162
:1031900007E0641CE4B2FA2C03D9FFF7C5FF012055
:1031A00070BD05201FF056FFD5F824010028F0D18E
:1031B000C6F8840170BD0000041C01400080234259
:1031C00000802142034800220260426047213120F2
:1031D0000FF030BED00000201CB511F0BBFC034640
:1031E000002000900190054A1121054803F022FBC0
:1031F0000446012112F0DCFC20461CBDB925020862
:10320000D45C07081CB511F0A5FC03460020009013
:103210000190034A0B21034803F00CFB1CBD000086
:10322000C5260208509002081CB511F093FC034615
:10323000002000900190034A0B21034803F0FAFAA2
:103240001CBD0000512902088491020810B50A4CE7
:103250004FF4001000F030F84FF4000000F02CF8AC
:103260000021204600F034F8A11561602046BDE839
:103270001040012100F02CB86C00024010B54FF056
:10328000007000F019F84FF0006000F015F8BDE88C
:1032900010400021014800F01BB8000080000240EF
:1032A000C10002D502490860704702494860704772
:1032B0000404024000000240C10002D50249086037
:1032C0007047024948607047040402400000024011
:1032D0000029016802D041F0010102E04FF6FE72C0
:1032E000114001607047000001684FF6FE72114006
:1032F00001600021016041608160C1603149314A53
:103300000839904203D1486840F00F0006E02D4A8A
:103310001432904204D1486840F0F0004860704791
:10332000284A2832904203D1486840F47060F5E79B
:10333000244A3C32904203D1486840F47040EDE7A3
:10334000204A5032904203D1486840F47020E5E7AB
:103350001C4A6432904203D1486840F47000DDE7B3
:10336000184A7832904203D1486840F07060D5E73F
:10337000154A111F904203D1086840F00F0006E083
:10338000114A1432904204D1086840F0F0000860FD
:1033900070470D4A2832904203D1086840F47060AB
:1033A000F5E7094A3C32904203D1086840F4704086
:1033B000EDE7054A50329042EAD1086840F47020A7
:1033C000E5E700000800024008040240406880B2BF
:1033D0007047002A026801D00A4300E08A43026075
:1033E000704730B5026847F6F0739A430C6A8B68F1
:1033F0002343D1E904452C4323438C692343CC69FF
:1034000023434C6A23438C6A234313430360CA68F3
:1034100042600A6882604968C16030BD416070479F
:103420002DE9F04101218CB008460BF0E9FFDFF8EF
:10343000A4804046FFF758FF2848274ECDE900609A
:103440000024102007010794CDE902078025CDE96B
:1034500004450002CDE908400694694640460A94B6
:10346000FFF7BFFF012202214046FFF7B2FF012212
:1034700008214046FFF7ADFF01214046FFF728FF36
:1034800000214046FFF724FFDFF84880A8F1140828
:103490004046FFF729FF124801A9009681E89100F4
:1034A000CDE90445A801CDE9084006940794694692
:1034B00040460A94FFF795FF012202214046FFF79C
:1034C00088FF012208214046FFF783FF0CB0BDE8CA
:1034D000F08100008000024004440040641000209D
:1034E0006411002070472DE9FC470E465FEA000991
:1034F0007FD004F0FDFB484602F060FF009090F89A
:103500005470D0F85880456BC46C684602F0C0FF18
:10351000B8F1000F04D0314648464246904761E07A
:10352000122E18D006DC082E43D0102E3CD0112EBF
:1035300006D112E0132E21D01D2E43D01E2E3DD0D9
:10354000202E4FDB17B1484615F024FCB1B2484697
:103550001AF0B1FF60B3611C27E04DB3284602F0BA
:103560002DFF05462146019006F064F844192046D7
:1035700006F00EF801462346012210E0C5B12846A8
:1035800002F01CFF05462146019006F053F844194D
:10359000204605F0FDFF014623464FF0FF32484626
:1035A00013F0A6FD01A81BE0611E484600F026FAB4
:1035B00018E0BCB1611E484600F020FA484615F0FC
:1035C000E9FB0FE0484602F0F9FE0090012F12D00F
:1035D000012180F854102146484600F00FFA684651
:1035E00002F056FF484611F009FF00E001E006F046
:1035F00033F9BDE8FC87002180F85410EFE77CB573
:1036000045680446284612F04BFE064621462846E9
:1036100010F077FC002844D020680F283DD004DC4F
:103620000B283FD00E2860D147E0A0F580701338FA
:1036300004D0A0F580702D3857D11DE0284612F037
:10364000D3F8284602F0BAFE009010F8561F81F019
:1036500004010170684602F01BFF002128461CF09F
:10366000A5F9284602F0AAFE0090D0F884000021B7
:1036700012F081F868461DE0E06860B1017A29B176
:103680000168284600F0DEF8012100E0022128460A
:1036900011F0B9FF29E00321F9E7012128461CF0C8
:1036A00085F97CBD284602F089FE0190343002F095
:1036B000DBFD01A802F0ECFE17E0B6B1E06841685E
:1036C000002912DD01681B290FD006DC09290CD066
:1036D0000A290AD00D2904D107E0212905D0222981
:1036E00003D02846FFF7FFFE7CBD204611F0C0F84E
:1036F0007CBDF0B587B004460DF1080CD4E9056730
:10370000B0F90850408A8CE8E1000020CDE90010B3
:10371000B4F90C00B4F91060C118B4F90A00B4F996
:103720000E50104433462A4600F008F8050002D037
:10373000618A00F04EF907B02846F0BD2DE9F04F40
:1037400085B01F46DDE91254DDE90E6A90468946D0
:10375000834604F0CDFA0DF1040C4AF480501F4961
:10376000603400968CE813003B4642464946584672
:1037700010F0C6FF04002AD002F020FE10220490B0
:10378000119910F08BFD0498242215496030FDF743
:1037900044F8049A012082F85500681C00D00120EA
:1037A00082F88800002D00DC08252DB21587002046
:1037B0005087506304A86D1C02F06AFE294620461B
:1037C0001AF02DFB18B9204611F08AF8002406F0F3
:1037D00043F805B02046BDE8F08F0000FF35000833
:1037E0006C0300202DE9FC4115460E00044627D04D
:1037F000002C25D004F07CFA204602F0DFFD0027E3
:1038000001903770406BB0B102F0D8FD009007F026
:1038100055F80146009805F00DFF0446681E8442E5
:1038200000DD0446224630460099FCF76FFF6846EB
:1038300002F02EFE375501A802F02AFE06F00CF821
:10384000BDE8FC812DE9F04186B00C46060055D05C
:1038500004F04EFA304602F0B1FD0090406B98B390
:1038600002F0ACFD03900098806E05F0B1F8804640
:10387000304611F0F5FA0746039803F082FE05463C
:10388000009890F8601001F00301012916D0022978
:103890000DD0416EC06A00680844241A641E039863
:1038A00007F00CF80146002C0FDA002115E0781B18
:1038B000401C00EBD070A4EB6004F0E7406E791B75
:1038C000081A241A641CEAE713E0AC4205DC02463D
:1038D0002146039806F092FF0146304600F08EF82C
:1038E00003A802F0D5FD404605F072F8304611F00D
:1038F00085FD684602F0CCFD05F0AEFF06B0BDE8E0
:10390000F0812DE9FC4788465FEA00094FF0000688
:1039100052D004F0EDF9484602F050FD0090B0F9A5
:103920003850446B684602F0B3FD0027B8F1000F31
:1039300044D04CB1204602F041FD0190FCF7C7FE97
:10394000461C01A802F0A4FD404606F0B7FF04465D
:10395000A84200DD2C462146404605F06BFE451C82
:10396000A91B48461AF085FE08B3484602F026FD1A
:103970000090406B02F022FD2A4641460190FCF780
:10398000C5FE0198284400F8017C0098C464B0F991
:1039900038108C4205D190F85410012901D1641ED1
:1039A000C46401A802F074FD684602F071FD484647
:1039B00011F024FD05F050FFBDE8FC87484602F0F9
:1039C000FDFC0090343002F04FFC00984787C7643C
:1039D000EAE738B50C4605000FD004F089F928460F
:1039E00002F0ECFC009018B10466284611F006FDC8
:1039F000684602F04DFD05F02FFF38BD1CB50C46A2
:103A000002F0DCFC0090406BF0B102F0D7FC0190BA
:103A100006F054FF009991F8542002B10122002CC5
:103A200000DA0024844200DD0446B1F93800801A2F
:103A3000A04200DA0446C86CA04200D0CC6400204A
:103A4000086501A802F024FD684602F021FD1CBDB6
:103A500070B505464FF43026304600F059F804287A
:103A600011D1094C206940F0020020616561206994
:103A700040F040002061304600F04AF8216941F6EC
:103A8000FD721140216170BD0020024008490420F0
:103A9000CA68D20701D001207047CA68520701D511
:103AA00002207047C968C906FBD503207047000093
:103AB000002002400248016941F080010161704725
:103AC00000200240F0B506464FF400570D46384638
:103AD00000F01EF804280CD1064C206940F00100CB
:103AE00020613580384600F013F82169BA1E114074
:103AF0002161F0BD002002400348024941600349B2
:103B0000416070472301674500200240AB89EFCD3B
:103B100000B50346FFF7BAFF02E0FFF7B7FF5B1EF1
:103B2000012803D0002B00D1052000BD002BF4D1CB
:103B3000FAE72DE9F047044640688EB0002780463A
:103B400002F03CFC0090B0F87CA0D0F86890D0F86F
:103B50008060D0F88850C06D00B10768684602F0F8
:103B600097FC05E0696820468847002843D12D6806
:103B7000002DF7D12068172853D00CDC0F283DD03A
:103B800004DC0B2877D00D2825D18BE0112810D02C
:103B9000142820D13BE0262846D004DC1E2851D032
:103BA000202818D18AE02A2816D0B0F5107F12D12B
:103BB00028E04046E56802F001FC0290697A39B9D4
:103BC000297A012904D130F87C1F41F480710180E9
:103BD00002A802F05DFC75E0404602F0EFFB0090A9
:103BE000E16811B1C0F8841002E0D0F88400E06010
:103BF000684602F04DFC0EB0BDE8F087D7B34046F2
:103C0000B8475FE0214640461BF018FDF3E705A9E1
:103C1000404600F093FBE068069901600799416017
:103C2000E9E7C4F80C90E6E7E0680228E3D1CDF8B4
:103C30003080E0680D9027200A900AA9A06812F051
:103C40003FFDD8E7E068012804D00021404600F09D
:103C5000DDFAD0E7304611F04CFC68B1304611F087
:103C6000B1FE304611F0F6FA98B10121304610F05D
:103C7000DCF90EE026E02FE0484611F0F7FE06469C
:103C8000404602F09BFB0090C0F88060684602F05E
:103C9000FFFB0121404600F0B9FA002EABD1002015
:103CA000E060A8E75FEA0A700CD4E068C06848B139
:103CB000007A38B1404611F085FE03E021464046C7
:103CC0001AF0C5FF2146404610F01BF9002892D09B
:103CD000204610F0CDFD8EE7404602F06FFB0090CD
:103CE000703002F0C1FA684673E7F0B587B0B0F9FA
:103CF00008400DF10C0C0C9E876945688CE8F000BB
:103D0000448A0025CDE900150294B0F90C10B0F9F1
:103D10001050B0F90E40B0F90A00194410442B4677
:103D2000224600F003F807B0F0BD00002DE9F04F87
:103D30008BB09846DDE9155691468A468346149F16
:103D40001A9C03F0D5FF3348603445F48055CDE923
:103D50000204CDE9007543464A465146584610F0E4
:103D6000CFFC04004FD002F029FB302204901799B9
:103D700010F094FA0498282227493430FCF74DFDBE
:103D800004981999244F4166A0F87C600026C0F879
:103D90008060C666083FC0F888607968C16504A87D
:103DA00002F076FB05A9204600F0C8FA1B4841F254
:103DB000827103960094CDE90110BDF91E00BDF992
:103DC0001A10BDF91C20431ABDF918005B1C121A09
:103DD000521C10F095FC06467868416820468847DA
:103DE000204602F0EBFA0490866604A802F050FB2D
:103DF00042F20400054202D1204610F00CFE20469B
:103E0000189900F05FFA05F027FD0BB02046BDE8D9
:103E1000F08F0000333B000898030020454600085F
:103E20002DE9F041044694B0006800F0B7F908B1FC
:103E3000D94D01E0D84D2C35606815281ED00CDC1A
:103E40000B281FD004DC00287ED005287DD12FE16F
:103E50000E287BD01228F9D141E1162806D0172868
:103E600008D0182808D01C28F0D109E0E86914B05F
:103E7000BDE8F081286AFAE7686AF8E7A86AF6E719
:103E80006869F4E720680B901C200C90206802F011
:103E900095FA0390016D0BA88847064603A802F027
:103EA000F7FA022E0FDB95E807008DE80700D4E94A
:103EB00004023346A16906F0CFFA20698719A06988
:103EC000A0EB06082CE0286804F047FD2169E869AA
:103ED0000A18521E606903F0DFF8A269E869111A36
:103EE000491C606903F0D8F8D4E904077F1C3946FF
:103EF00003F022F93946A06903F01EF9686804F05E
:103F00002CFD20693946401C03F016F9A06939469A
:103F1000401E03F011F9A0692769A0F10208BF1C37
:103F2000286804F01AFD42463946606903F0B4F887
:103F3000686804F012FD606942463946401C03F08F
:103F4000ABF8686A022802E015E1B0E000E10BDDA1
:103F5000A86804F002FD61696A6A881C8B18014632
:103F6000424638465B1E27E0296AB14226DD606979
:103F7000022E074600F1020801DB374401E007F199
:103F80000207206901DB304401E000F102002269F0
:103F90003B460A444146A2F1010203F0C1F9022E58
:103FA00002DBA069821B01E0A269921EA069E96997
:103FB0003B46401A4146401C03F0B2F9022E02DB98
:103FC0006069064401E06669B61CE76928687F1EDF
:103FD00004F0C3FC3A463146206903F033F93A460F
:103FE0003146A06903F02EF9E7696868BF1E04F046
:103FF000B4FC20693A463146401C03F023F9A0691D
:104000003A463146401E03F01DF9E869022802DCF9
:10401000286A022823DDA86A022802DDE1690F1A56
:1040200001E0E769BF1EA86804F097FCE96902296E
:1040300009DD20693B46421800F1020C314660461A
:10404000521E03F06DF9286A022808DDA269E869AA
:104050003B46101A3146401C921E03F061F9286855
:1040600004F07BFCD4E90620216903F015F86868A8
:1040700004F073FCD4E906202169401E491C521E3D
:1040800003F00AF8A86A022811DDA1692669E4692B
:10409000A1F10208271AA41EB61C7F1CA86804F010
:1040A0005CFC234642463946304603F039F971E05C
:1040B000208A00B2ADF81400A18A09B2ADF816103A
:1040C000228B12B2ADF81820A38B1BB2ADF81A30B8
:1040D0002C69ED68CDE9005402F078FF5AE0208A9F
:1040E000298B0844ADF81400A08AADF81600208B87
:1040F000298B401AADF81800A08BADF81A00206883
:1041000002F05CF90390006FF0B1022004F0CCFCE7
:10411000039890F87C10C1F3C00100EB8100006CA3
:1041200004F01BFC0398406B04F052FC0398006FF2
:1041300002F044F903990990B1F95A2005A902F057
:10414000DFFD09A802F0A4F903A802F0A1F921E01B
:10415000208AADF81400A08AADF81600208BADF8C7
:104160001800A08BADF81A00A86804F0F6FB05A8AB
:1041700003F002F90EE0206802F020F9039030F815
:104180005A1F41F00C01018003A802F081F9206858
:1041900011F09EFC00206AE6B406002038B5050048
:1041A0004FF000040FD003F0A3FD284602F006F9FB
:1041B000009090F87C00000700D50124684602F0CA
:1041C00067F905F049FB204638BDF8B50E460500F5
:1041D0004FF0000411D003F08BFD284602F0EEF8FA
:1041E0000090C06D314680680268284690470446BA
:1041F000684602F04DF905F02FFB2046F8BD00009F
:1042000001480068704700009803002070B50D4613
:10421000040009D003F06CFD294620461CF05EFB2B
:10422000BDE8704005F018BB70BD38B50C46050000
:1042300011D003F05DFD284602F0C0F80090816CBB
:10424000A14203D08464806E11F0D8F8684602F071
:104250001FF905F001FB38BD2DE9FC410D468046F4
:1042600003F046FDB8F1000028D002F0A7F8019055
:10427000C16D8C6800F0C9F807460198456301A834
:1042800002F006F92268012140469047064622685E
:10429000032140469047054622680021404690474A
:1042A0000446404600F097F92B46324639464046D0
:1042B000009400F020F9404611F0A0F805F0CCFA87
:1042C000BDE8FC817CB50D4604001DD003F010FD57
:1042D000204602F073F80090006F0190684602F0EB
:1042E000D7F8294601A806F0A7FC58B1204602F0ED
:1042F00065F8009001990167684602F0C9F8204608
:1043000011F07CF805F0A8FA7CBD38B50C46050024
:1043100013D003F0EDFC284602F050F80090B0F9FD
:104320005A10A14204D0A0F85A40284611F066F86D
:10433000684602F0ADF805F08FFA38BD2DE9F34F6D
:1043400085B000270C46B846059802F037F8009073
:10435000C06D0121856805982A68904782462A68C1
:1043600003210598904704902A68022105989047F8
:1043700003902A680021059890470646009811F09E
:104380000CFE8346009811F00FFE8146009890F8CD
:104390003210890601D5B0F9588000F036F805468C
:1043A0000098C06E10B110F072FD0746258067803E
:1043B000A4F804A0049AABEB020006EB0802401E2E
:1043C0002A4420813A44E280039BA9EB0302521E57
:1043D0006281A4F80CA020827019E681401E6082E0
:1043E000684602F055F8B4F90C000190B4F91000D9
:1043F000029002AA01A9059800F03AF80198A0815C
:104400000298208207B0BDE8F08F10B50146002069
:1044100091F83220920607D5B1F95400002803D153
:10442000486B03F01FF9801C10BD70B58AB00C46B4
:10443000054601F0C3FF0990C06D866809A802F027
:1044400027F8009534B1012C06D0022C0BD0032C98
:1044500004D10AE0182000E0162001907168684637
:1044600088470AB070BD1520F7E71720F5E7000070
:104470002DE9FC4117468846044601F09FFF009055
:10448000C16D056868468E6802F002F83268002146
:10449000204690470646204610F083FB27E000BFE9
:1044A00001F08CFF0190B0F900102AB2B0F904308D
:1044B000891A9A1AB0F90230A3EB2543B34210D1FE
:1044C00090F82800000605D53868884209DB491EA7
:1044D000396006E0D8F80000904202DC521CC8F8AF
:1044E000002001A801F0D4FF204610F0FFFB0400DB
:1044F000D6D1BDE8FC812DE9FF4F83B00E460746BB
:10450000DDF8409001F05AFF0190C16D8D68FFF712
:104510007CFF044601A801F0BBFF2A680121384650
:10452000904783462A6803213846904782462A6886
:104530000021384690470546B44207D105998B457E
:1045400004D106998A4501D14D4541D0A41B0026CE
:10455000B046384610F025FB38E001F02FFF009000
:10456000806A010601D5800502E0810528D5000694
:10457000002825DB24B122461146384611F081F887
:10458000009890F8280000060AD50698A5EB0902C5
:10459000A0EB0A0004FB16013846761C11F024F843
:1045A0000098008D80050BD50599A5EB0902ABEBB2
:1045B000010004FB080108F10108384611F014F865
:1045C000684601F065FF384610F090FB0700C4D143
:1045D00007B0BDE8F08F70B586B0064601F0EEFE7C
:1045E0000590D0E91A4505A801F052FF54EA0500EC
:1045F00026D069463046FFF7A1FEACB1BDF90620D2
:10460000BDF90410204610F0B3FFBDF90A00BDF952
:104610000610421ABDF90800BDF90410521C411AD7
:104620002046491C11F0A0FA002D09D0BDF9060062
:10463000BDF90210421ABDF90410284610F098FF87
:1046400006B070BD2DE9F0430446406889B00546C8
:1046500010F06AFB814601F0B1FE0290D0F848806C
:10466000D0F88070466E02A801F012FF206817286B
:1046700053D008DC0E283AD00F2811D014284CD083
:1046800015283DD149E01E281ED01F282AD02228F7
:1046900040D0312834D10020E06009B0BDE8F0837B
:1046A0006FF070414046884503D008F089F802F069
:1046B00075F8002EF1D0D4E902122068CDE9040586
:1046C000CDE9061204A81FE0E0680028E5D02FB16C
:1046D000AF4203D0384611F075F9DEE7284611F0F5
:1046E000C5F9DAE7214648460FF00BFCD5E7E0684C
:1046F0004168002904DD00680928EFD00A2805D0A8
:104700005EB12046C4F80490B047C6E7284611F0D1
:10471000BCF9C2E7C4F80C80BFE7204610F0A8F847
:10472000BBE700008000A0F1C0400029016802D072
:1047300041F0010101E0024A1140016070470000B0
:10474000FEFF0F0010B5D0E901121143D0E9032399
:104750001A4311434269114382691143C2691143EB
:10476000026A1143426A1143826A1143C26A1143C9
:10477000026B114302689200A2F1C042116081688D
:10478000082907D101688900A1F1C0410A6842F0F7
:1047900040020A60416BD1E9002342EA03128B68B0
:1047A0008C891B0243EA04431A430B8A42EA0352F0
:1047B0000B7D896942EA03620A4301688900A1F11D
:1047C000C0414A60C16AB1F5804F08D000686FF0FF
:1047D00070418000A0F1C040C0F8041110BD816B91
:1047E000D1E9002342EA03128B680C8A1B0243EAD8
:1047F00004531A430B7D896942EA036200680A4345
:104800008000A0F1C040C0F8042110BD3A484169C1
:1048100041F480714161816941F0200181618169C8
:1048200041F040018161816941F0800181618169CC
:1048300041F48071816131480168002101600268A2
:1048400042F0BB320260001F026802F0FF220260E9
:10485000026842F0BB1202602948026801600268E7
:1048600042F0BB320260001F0268264B1A40026011
:104870000268254B1A4302602448026892B2026023
:104880000268234B1A430260001F026802F07F4255
:10489000026003681F4A134303601F48436823F400
:1048A00070634360436843F430634360036803F01C
:1048B0007F4303600368134303604FF020400161AE
:1048C0004161C0F81411016941F48051016101692D
:1048D00041F010010161416941F440714161416958
:1048E0004161416941616FF07041C0F81411016983
:1048F00041F00101016170470010024004140140C1
:104900000418014000FFFF0FBB0000B0041C014071
:104910000000BBBBBBBBBB000020014038B52B482F
:10492000816941F0800181612948016821F47F415A
:104930000160016841F46051016025480830016858
:1049400041F440610160FEF707FB224D0024C5F8E9
:10495000AC41142005F5D6751EF060FB01202860DF
:1049600032201EF05BFB8DF80040012269460020DA
:1049700000F0FEF801226946A42000F0F9F81620A4
:104980008DF8000001226946802000F0F1F80C202B
:104990008DF8000001226946882000F0E9F8022223
:1049A0006946A12000F01EF89DF80000302803D1D0
:1049B0009DF80100032801D0012038BD43F2030116
:1049C00005A0FBF7B3FC002038BD0000001002403A
:1049D000041C0140008023424354502049443A259E
:1049E000780D0A002DE9F04115460F460446FEF702
:1049F00075FB7020FEF73EFBFEF7B8FBE0B2FEF75A
:104A000039FBFEF7B3FBFEF769FB7120FEF732FBC3
:104A1000FEF7ACFB00246E1E09E0B44201D0012079
:104A200000E00020FEF7ECFA3855641CE4B2AC421A
:104A3000F3D3BDE8F041FEF777BB00002DE9F14369
:104A4000484F00244FF00A09387882B0401CC0B2A9
:104A5000B0FBF9F209FB1201434DA046387009B1D1
:104A60000A2863D2012202A90220FFF7BBFF9DF8AA
:104A7000080001075AD000F00F00062856D2FF2187
:104A80008140C84340F0C00085F820004FF0010885
:104A9000002695F8201008FA04F0014239D0334876
:104AA0000422694630F81400FFF79CFF95F83000A7
:104AB0009DF80010C0079DF8010001F00F010ED015
:104AC00000EB012105EB4400C1829DF802209DF816
:104AD000031002F00F0201EB022181810FE000EBD5
:104AE0000120C0F5F07105EB440081819DF80220A2
:104AF0009DF8031002F00F0201EB0221C1829DF824
:104B000000000821B1EB101F03D005EB4400C68262
:104B10008681641CE4B2052CBBD3A9894FF001083F
:104B200019B9E88A08B98DF808603E709DF8080048
:104B3000C0060ED195F82000010602D520F08000B5
:104B400005E04FF6FF71A981E98200F0E00085F8E9
:104B500020003878F02801D987F800904046BDE859
:104B6000FE830000920000209C000020288F020895
:104B70002DE9F04115460E4604460027FEF7AEFA31
:104B80007020FEF777FAFEF7F1FAE0B2FEF772FA5C
:104B9000FEF7ECFA002408E0305DFEF76BFAFEF752
:104BA000E5FA070003D1641CE4B2AC42F4D3FEF78B
:104BB000BBFA3846BDE8F0812DE9F0430446C568EC
:104BC00087B090468946002003F0F5FE064625B1E1
:104BD000287910B146F0020001E026F0020003F04F
:104BE000EAFE2069012558B1D4E902128DE82600B9
:104BF000039563882288046841464846A0471EE022
:104C0000124F134B214638681B68427CE068984776
:104C100030B9E088012801D0002001E03868806BBD
:104C2000A288E388A1680095CDE90410CDE902329D
:104C30000195638822884146484606F09FFE07B0EA
:104C40003046BDE8F04303F0B6BE00008802002005
:104C5000800200201CB50024019401AC009400F0F7
:104C6000E7F81CBD2DE9FF4F83B0814606988A46C0
:104C7000A0EB0A08109E00200090A2EB0904356802
:104C8000934654EA080018D02046FDF7F8FD074681
:104C90004046FDF7F4FD87420BDA20464446804645
:104CA0004846D14682465846DDF818B006900120A5
:104CB0000090002C07DD204606E007B04846BDE81E
:104CC000F04F00F03BB96042A0420AD04846D946B6
:104CD0006442C8F1000883464FF0FF37DDF818A0A2
:104CE00000E001275148B8F1000F11D004EBD47156
:104CF0004FEA610B01DACBF1000B4C480068807E73
:104D000088B3002F02DA30682044306000257BE051
:104D100000990029016821D0897E11B100278046C1
:104D200015E007B05A4649465046BDE8F04F06F038
:104D3000E1BF28466D1C1BF0ADFE38B9D8F8000065
:104D400009EB0701406E4268504690477F1CA7421E
:104D5000EFDD6D1E356007B0BDE8F08F8A7E1AB1B9
:104D60000027804617E019E0486E5A46514603680E
:104D700007B04846BDE8F04F184728466D1C1BF0A9
:104D800089FE38B9D8F8001009EB0700496E4A6867
:104D9000514690477F1CA742EFDDDAE700250FE080
:104DA00008FB05B090FBF4F101EB0A00009951B14A
:104DB0001E4A09EB05011268526E526890476D1C3D
:104DC000A542EDDDC7E7194909EB05030968496EFE
:104DD0004A6801461846F1E708FB05B090FBF4F17C
:104DE00001EB0A0001903068384430601BF052FE3D
:104DF00048B9009890B10D4809EB05010068406E74
:104E00004268019890476D1CA542E5DD3068002F8F
:104E100001DA20443060C01B30609CE7034909EB95
:104E200005000968496E4A680199EBE7880200208D
:104E30002DE9FF470F4640491646804609680C9801
:104E40001D460A7E012A1CD0A8EB0600791B50EAF9
:104E500001031CD0A2F101091DF0B8F900F5806032
:104E6000824605F0D8FF00FB09F4504605F0D8FF54
:104E700000FB09F1002C0CDAC4F5007080124042EE
:104E80000AE00090324639464046FFF7EBFEBDE8A7
:104E9000FF8704F50074A012002904DAC1F500713F
:104EA00089124C4202E001F500718C12002804DDE9
:104EB000411C01EBD171491003E000EBD0714910A6
:104EC000401E00EBD0704210002C04DD601C00EB93
:104ED000D070401003E004EBD4704010641E04EB6B
:104EE000D47308EB0104ADF800403C18ADF8024063
:104EF000A8EB02045B10B21AADF80440ADF808202C
:104F00003144FC1AEA1AADF80C102844ADF80A2016
:104F1000ADF80E000023ADF806401A46042168469D
:104F200000F08CF83946404616F08AFF2946304694
:104F300016F086FFABE7000088020020064A1368DF
:104F40001A7E012A05D0521E02EBD272521000F0D6
:104F500005B85A6E52681047880200202DE9F05FAC
:104F60000646884640F2C32002FB00F14FF47A70F7
:104F700091FBF0F702FB02F102EBD27001EB600B48
:104F80001446B118234A301B7F1C1268526E1368F6
:104F90000A4641469847012538E000BF05FB05F069
:104FA00004FB040159451CDDBC4219DD194B06EB1D
:104FB000050AA6EB05091B68AAF1010208EB04012A
:104FC0005B6E09F101001B689847124BAAF10102C0
:104FD000A8EB04011B6809F101005B6E1B68984790
:104FE000641E0C4B3219301B1B68924608EB0501FE
:104FF0005B6E81461B689847064B5246A8EB05013D
:105000001B6848465B6E1B6898476D1CBD42C5DD3A
:10501000BDE8F09F8802002070B514460E46054694
:105020000119001B01F09CF822463146284617F072
:1050300035FABDE8704000F0E7BF00002DE9FF4FF2
:1050400043F6FF740F46664283B09B4681460021BB
:105050000BE000BF09EB8100B0F90200A04200DACA
:105060000446B04200DD0646491CB942F2DB6748FF
:105070000068406900280DD0B0F906101A46A1EB6F
:105080000B01B14200DA0E46B0F90200801AA042CC
:1050900000DD0446B4E0DFF878A100200546CAF838
:1050A000000088E0781E854201DA6B1C00E00023D6
:1050B00009EB850C09EB8302BCF90200B2F902107E
:1050C000A04244D1A14215D139F92330059A39F9CA
:1050D000251003EB020C4D4A05981268084404EBB6
:1050E0000B01526E6045136801DA62462AE00246FF
:1050F000604627E02846A4464FF000087A1E0BE0E1
:1051000008B1401E00E0781E09EB8003B3F90230BD
:10511000634504D108F101089045F1DB2346A34221
:1051200048D01A1B39F92500A1EB040C059B92EA23
:105130000C0F09D4354A184404EB0B011268526E67
:1051400013680246984735E011F0B0FB32E0A14207
:1051500030D001DBA04203DDA0422BDBA14229DCE1
:10516000E04688420ADC0346A04223DC0846A1420E
:1051700020DBB8F900C0B2F9001008E00B46A142EC
:1051800018DCA04216DBB2F900C0B8F90010E21A30
:10519000A1EB0C0151430029A0EB030202DD01EB5E
:1051A000620102E0A1EB6201491CC01A91FBF0F020
:1051B0006044C9E76D1CBD42FFF674AF05980090CE
:1051C00004EB0B00019000208046054613E01149D6
:1051D000B8F1000F31F915A009D0009901EB0A02CE
:1051E00008440A490968496E0B680199984788F094
:1051F000010850466D1C064909688D42E7DB641CB6
:10520000B4427FF748AF07B0BDE8F08F88020020B6
:10521000C407002050BF002010B5002003F092FB0F
:105220006FF07F4003F099FB012003F01FFC00208A
:1052300003F02AFC002003F037FC002003F0BBFB46
:105240000448006803F0C4FBBDE81040002003F0F0
:10525000DFBB000084020020F0B5CC78002204F00F
:105260000F03E40601D58C7823430C784FF00F0C24
:1052700014F0FF0F4FF0010E1BD005680E880EFAD8
:1052800002F42640A64210D196000CFA06F725EA51
:10529000070703FA06F5CE783D43282E02D0482EA4
:1052A00002D002E0446100E00461521C082AE5D308
:1052B00005600A88FF2A1CD94468002202F108060A
:1052C0000EFA06F50E882E40AE420ED196000CFA6C
:1052D00006F7BC4303FA06F7CE783C43282E00D1EC
:1052E0004561CE78482E00D10561521C082AE5D3CD
:1052F0004460F0BDF0B5144C002801DAE36900E029
:105300006368450D2E0185B2C0F30157B540C0F367
:105310000342032F05D0C6020AD503269640B343A5
:1053200007E023F07062636823F07063636002E05B
:10533000AB4343F0706201B12A43002801DAE26115
:10534000F0BD6260F0BD0000000001400246002098
:1053500092680A4200D0012070470161704733B55E
:1053600083B004001BD002F0C3FC204601F026F8F5
:105370000190456E01A801F08BF8049801F01EF829
:1053800000908460684601F083F8042204A928464E
:1053900001F0A2F8204610F031F804F05DFA05B0F3
:1053A00030BD33B583B004001BD002F0A1FC204611
:1053B00001F004F80190856E01A801F069F80498E5
:1053C00000F0FCFF00908460684601F061F8042260
:1053D00004A9284601F080F8204610F00FF804F0E8
:1053E0003BFA05B030BD2DE9F04104460025D4E973
:1053F0000007B0F5407F00D10125214638460EF068
:1054000080FD064615B1384619F0E7FA002E2FD078
:105410002068052806D00B280ED00F2806D0262895
:1054200021D10EE0384619F0D8FA1CE03846E16880
:10543000BDE8F04119F090BD3846BDE8F04119F0E3
:1054400035BCE06805280ED138460FF0A7FCA168EE
:10545000884205D038460FF091FCA168884202D1FD
:1054600060681AF09BF82046BDE8F0410FF000BAE2
:10547000BDE8F081F0B585B0B0F90850468A84697E
:105480000296CDE903540027CDE90017B0F90C10BE
:10549000B0F91050B0F90E40B0F90A0019441044A8
:1054A0002B46224600F002F805B0F0BD2DE9F04F82
:1054B00085B09846DDE90E5691468A468346109F90
:1054C000129C02F015FC18486C34CDE90204CDE9B9
:1054D000005643464A46514658460FF011F904001B
:1054E0001BD001F036F8054601F033F80646204699
:1054F00000F064FF0490C0E91956002211990EF0E3
:10550000CDFE0498302209493430FBF786F904981F
:10551000A0F8787004A800F0BBFF04F09DF905B076
:105520002046BDE8F08F0000E7530008C0030020CC
:1055300013B582B0044602F0DBFB204600F03EFFCC
:10554000009060B1406A00F039FF014601900223EB
:1055500003AA009800F075F901A800F099FF6846C9
:1055600000F096FF04F078F91FBD00002DE9F0432C
:1055700085B01D4690460F46814602F0B9FB2C20AF
:1055800000F029FE060024D0780000F024FE04007C
:105590000ED0B8F1000F0BD055B1204600F00EFF31
:1055A0006A0041460090FBF7B1F8684600F070FFD2
:1055B000304600F003FF0A49029000F10C024462F9
:1055C00082E8A202074901600749416002A800F091
:1055D0005FFF04F041F905B03046BDE8F0830000FC
:1055E000EDE5010803F101083DED010838B50C4671
:1055F000054602F07DFB284600F0E0FE009040B139
:1056000090F82910A14204D080F8294080680FF05A
:10561000F5FE684600F03CFF04F01EF938BD38B5D1
:105620000C46054602F064FB284600F0C7FE0090D9
:1056300040B190F82810A14204D080F8284080683A
:105640000FF0DCFE684600F023FF04F005F938BDDA
:105650002DE9F843984615460E46074602F048FBEA
:10566000302000F0B8FD040014D000F0A7FE009038
:10567000C0E9057685840A4A4FF07E51C0F81C8047
:105680008162D2E90012C0E903120649016068464E
:1056900000F0FEFE04F0E0F82046BDE8F8830000CC
:1056A000F0030020DBF10108F8B50D4606004FF0CD
:1056B000000415D002F01CFB304600F07FFE009085
:1056C000806A2946044621F0A7FA04D00098856232
:1056D00080680FF093FE684600F0DAFE04F0BCF834
:1056E0002046F8BDF8B50D4606004FF0000411D075
:1056F00002F0FEFA304600F061FE00900469AC4210
:1057000003D0056180680FF079FE684600F0C0FEA6
:1057100004F0A2F82046F8BDF8B50D4606004FF09B
:10572000000411D002F0E4FA304600F047FE009089
:10573000C468AC4203D0C56080680FF05FFE684665
:1057400000F0A6FE04F088F82046F8BD2DE9F843E5
:105750001D46DDF8208016460F46040015D002F0E5
:10576000C7FA204600F02AFE0090C0F86080476526
:10577000C0E91665684600F08BFE204619F02DF949
:1057800020460FF03BFE04F067F8BDE8F883F8B55B
:105790000D4606004FF0000411D002F0A9FA304681
:1057A00000F00CFE0090846CAC4203D0856430465F
:1057B0000FF024FE684600F06BFE04F04DF8204622
:1057C000F8BDF8B50D4606004FF000041BD002F0FE
:1057D0008FFA304600F0F2FD0090B0F8781011F02A
:1057E000010403D055B921F0010102E035B141F0C7
:1057F0000101A0F8781030460FF000FE684600F076
:1058000047FE04F029F82046F8BDF8B50D4606001D
:105810004FF0000413D002F06BFA304600F0CEFDDA
:10582000009090F86C40AC4204D080F86C50304648
:105830000FF0E4FD684600F02BFE04F00DF8204662
:10584000F8BD2DE9F041044680681D4617460E4616
:10585000002826D0D4E9040290420ED1521E6A4399
:1058600071193046FAF797FF20692A46401E05FB5A
:1058700000603946FAF78FFF0EE005FB0013401C6D
:1058800020612A4639461846FAF785FFE16819B1C2
:105890002046BDE8F0410847A068BDE8F04100F0AF
:1058A00002B8BDE8F08110B58AB0044600F086FD6C
:1058B00009A904AACDE9002105AB089006AA07A909
:1058C00017F0C3FD08A800F0E3FD02A920460FF081
:1058D000BBF9BDF8080007990844ADF80800BDF809
:1058E0000A0006990844ADF80A00BDF80C000599B5
:1058F000401AADF80C00BDF80E000499401AADF83E
:105900000E0002A920460FF039FD0AB010BD0000BC
:105910002DE9FC413548816941F080018161344CB9
:10592000206820F47F402060206840F460502060B0
:105930002F4D0835286840F440602860FDF70CFBC7
:105940002C4F0026C7F8AC610A2007F5D6771DF06A
:1059500065FB012038600A201DF060FB206820F400
:1059600070602060206840F400602060286820F4A7
:105970008060286064201DF051FB0422694648F2D3
:10598000401000F04DF88DF8046069461AA0FAF74F
:10599000CDFC1CA16846FAF7A1FF10B10120BDE8BB
:1059A000FC8102208DF8000048F240040122694683
:1059B000204600F04BF901226946E01D00F030F866
:1059C0009DF80010602905D210A0FAF7AFFC012065
:1059D00000F016F90A201DF021FB8DF8006001226D
:1059E0006946204600F032F90020D8E70010024056
:1059F000041C0140008023424354502049443A256E
:105A0000730D0A00393134370000000044656661C7
:105A1000756C74205665723A25640D0A000000000A
:105A20002DE9F04115460F460446FDF757FB2820A7
:105A3000FDF720FBFDF79AFB200AFDF71BFBFDF7A6
:105A400095FBE0B2FDF716FBFDF790FBFDF746FB7B
:105A50002920FDF70FFBFDF789FB00246E1E09E0EE
:105A6000B44201D0012000E00020FDF7C9FA38550A
:105A7000641CE4B2AC42F3D3BDE8F041FDF754BB83
:105A80002DE9F1475A4D00244FF00A0A287883B0D7
:105A9000401CC0B2B0FBFAF20AFB1201554EA04600
:105AA000287009B10A2879D248F24E19012203A9B7
:105AB0004846FFF7B5FF9DF80C004FF000070106C0
:105AC00003D500F00F01062901D3800606D58DF815
:105AD0000470012201A9484600F0B8F89DF80C00B6
