:020000040800F2
:1000000090B80020C50200083BA100085D7F0008F1
:1000100039A10008E91300085DE9000800000000AC
:100020000000000000000000000000002D02000899
:10003000B9160008000000007102000865AB000856
:10004000DF020008DF020008DF020008DF0200080C
:10005000DF020008DF020008DF020008DF020008FC
:10006000DF020008DF020008DF020008DF020008EC
:10007000DF020008DF020008DF020008DF020008DC
:10008000DF020008DF020008DF020008DF020008CC
:10009000DF020008DF020008DF020008DF020008BC
:1000A000DF020008DF020008DF020008DF020008AC
:1000B000DF02000821DB0008DF020008DF02000881
:1000C000DF020008DF020008DF020008DF0200088C
:1000D000DF020008C1E70008DF020008DF020008B5
:1000E000DF020008DF020008DF020008DF0200086C
:1000F000DF020008DF020008DF020008DF0200085C
:10010000DF020008DF020008DF020008DF0200084B
:10011000DF020008DF020008DF020008DF0200083B
:10012000DF020008DF020008DF020008DF0200082B
:1001300000F002F800F06BF80AA090E8000C82448E
:100140008344AAF10107DA4501D100F060F8AFF26B
:10015000090EBAE80F0013F0010F18BFFB1A43F0A5
:1001600001031847A0EC0600C0EC06000A444FF05B
:10017000000C10F8013B13F0070408BF10F8014B06
:100180001D1108BF10F8015B641E05D010F8016B4B
:10019000641E01F8016BF9D113F0080F1EBF10F8AF
:1001A000014BAD1C0C1B09D16D1E58BF01F801CBD2
:1001B000FAD505E014F8016B01F8016B6D1EF9D555
:1001C0009142D6D37047000000230024002500266A
:1001D000103A28BF78C1FBD8520728BF30C148BFAA
:1001E0000B607047642900F0D980752900F0D68033
:1001F000782900F00F81632900F00F84732900F043
:100200001484002070471FB51FBD10B510BD00F04D
:100210008FFC1146FFF7F7FF1BF030FB00F0ADFC41
:1002200003B4FFF7F2FF03BC1BF059F9224B196826
:100230000868B0E8F00F80F30988BFF36F8F4FF0C4
:10024000000080F311884EF00D0E70470000000092
:1002500006480068006880F3088862B661B6BFF39C
:100260004F8FBFF36F8F00DF00BF00BF08ED00E0CE
:10027000EFF30980BFF36F8F0F4B1A6820E9F00F7F
:10028000106008B54FF0500080F31188BFF34F8F16
:10029000BFF36F8F1CF05AFE4FF0000080F31188FF
:1002A000BDE8084019680868B0E8F00F80F30988D5
:1002B000BFF36F8F704700BFBC000020EFF30580D5
:1002C000704700000948804709480047FEE7FEE7FD
:1002D000FEE7FEE7FEE7FEE7FEE7FEE7FEE7FEE7F6
:1002E00004480549054A064B7047000079AB0008F1
:1002F0003101000890B2002090B8002090B4002096
:1003000090B40020704700000FB4044910B503AA50
:10031000029800F08FFB10BC5DF814FB88000020F1
:100320000FB41CB5074B06AA7B446946009005989C
:1003300000F051FB0020694600F060FB1CBC5DF83A
:1003400014FB0000D106000070B50C460546012ADA
:1003500005D02878800600D5EA69002302E0012351
:1003600005E05B1C934202D2E05C0028F9D1A86949
:10037000E618C01AA861286A184428622846AFF314
:10038000008004E0D5E9012114F8010B9047B44244
:10039000F8D32846AFF3008070BD00002DE9F0418E
:1003A0000646002410687529314616A510D0AFF313
:1003B0000080002802DA404213A507E031688A076E
:1003C00001D512A502E0490704D511A5012401E0D9
:1003D000AFF3008000210A2206F1240709E0B0FBF8
:1003E000F2FCB0FBF2F302FB1C00303078541846EC
:1003F000491C0028F3D123462A463046BDE8F04187
:1004000000F08BBA000000002D0000002B0000005F
:100410002000000070B504460D4621461068AFF379
:1004200000802188090502D50F4A7A4402E00E4A6D
:100430007A440E32002104F1240305E000F00F0697
:100440000009965D5E54491C0028F7D120780023EE
:10045000000704D5702D02D009B1022311322046C5
:10046000BDE8704000F059BAC6E806002DE9F04733
:100470004FF0000A89460446C0F820A02046E168F3
:100480008847002876D0252806D0D4E90121904756
:10049000206A401C2062F1E7E16820460026884778
:1004A000C4F81CA005460027C4F818A02A2D09D0BE
:1004B00028461BF00DF838B304EB8708303DC8F828
:1004C000185019E059F8041B204604EB870291618B
:1004D000E1688847012F054618D1E069002820DA35
:1004E00026F020061DE0D8F8180000EB800005EB90
:1004F00040003038C8F818002046E16888470546B3
:100500001AF0E6FF0028EED1012F0AD02E2D08D1D7
:100510002046E16888477F1C0546022F46F02006EA
:10052000C4DBA069002803DA404246F00106A0615E
:10053000F00701D026F010066C2D0AD0682D08D0E7
:100540004C2D39D06A2D35D0742D35D07A2D33D03D
:1005500016E0E1682F4620468847B84205460AD192
:100560006C2F27D04FF48060E1680643204688470F
:10057000054605E027E06C2F1AD04FF48070064343
:100580000DB3A5F14100192802D8203546F40066C4
:100590004A462946204626604E46FFF723FE80B194
:1005A00001280BD0F61D26F0070000F1080965E7C9
:1005B0004020E4E78020D7E70020D5E706F10409D2
:1005C0005CE7284661E7206ABDE8F08740EA01035E
:1005D00010B59B070FD1042A0DD310C808C9121FEC
:1005E0009C42F8D020BA19BA884201D9012010BD26
:1005F0004FF0FF3010BD1AB1D30703D0521C07E0F3
:10060000002010BD10F8013B11F8014B1B1B07D156
:1006100010F8013B11F8014B1B1B01D1921EF1D1C7
:10062000184610BD40EA0103024630B59B0710D1C1
:100630004FF0013400E008C208C91D1B9D4315EAB4
:10064000C41FF8D013F0FF0102F8011B0DD01B0AE4
:10065000F8E711F8013B002B02F8013B05D011F837
:10066000013B002B02F8013BF3D130BD10B5431C18
:1006700002E010F8011B71B18107FAD14FF001328D
:1006800002C88C1A8C4314EAC211F9D0C01A0A06A7
:1006900003D0C01E10BDC01A10BD0A0401D0801EB8
:1006A00010BD0902FCD0401E10BD032A40F230806C
:1006B00010F0030C00F0158011F8013BBCF1020FA3
:1006C000624498BF11F801CB00F8013B38BF11F824
:1006D000013BA2F1040298BF00F801CB38BF00F83B
:1006E000013B11F0030300F06780083AC0F0088076
:1006F00051F8043B083A51F804CBA0E80810F5E79C
:10070000121D5CBF51F8043B40F8043BAFF300807E
:10071000D20724BF11F8013B11F801CB48BF11F8F3
:10072000012B24BF00F8013B00F801CB48BF00F8C3
:10073000012B7047431A28BF9A427FF6B6AF032AAF
:100740001044114440F2268010F0030F1EBF11F830
:10075000013D521E00F8013D10F0030F7FF4F6AF8B
:1007600011F0030300F08B81083AC0F00B8051F8C0
:10077000043D083A51F804CD40F8043D40F804CD5A
:10078000FFF7F3BF121D5CBF51F8043D40F8043D74
:10079000AFF30080D20724BF11F8013D11F801CD5D
:1007A00048BF11F8012C24BF00F8013D00F801CD2D
:1007B00048BF00F8012C704710B5203AC0F00B80FC
:1007C000B1E81850203AA0E81850B1E81850A0E855
:1007D0001850BFF4F5AF5FEA027C24BFB1E81850AF
:1007E000A0E8185044BF18C918C0BDE810405FEA1F
:1007F000827C24BF51F8043B40F8043B08BF70479B
:10080000D20728BF31F8023B48BF11F8012B28BF9F
:1008100020F8023B48BF00F8012B704702F0FF03AD
:1008200043EA032242EA024200F055B94FF00002C7
:1008300000B5134694469646203922BFA0E80C50D6
:10084000A0E80C50B1F12001BFF4F7AF090728BFB1
:10085000A0E80C5048BF0CC05DF804EB890028BF2D
:1008600040F8042B08BF704748BF20F8022B11F056
:10087000804F18BF00F8012B704700004FF0013C7B
:1008800050F8042B51F8043B9A4221D1A2EB0C03FF
:10089000934313EACC1317D150F8042B51F8043BBF
:1008A0009A4215D1A2EB0C03934313EACC130BD15C
:1008B00050F8042B51F8043B9A4209D1A2EB0C03E7
:1008C000934313EACC13DBD04FF00000704700BF16
:1008D000D01A01BAB1FA81F101F0180122FA01F03F
:1008E000CB40C1F12001DBB2C0B2C01A2CFA01F337
:1008F000D11A914311EAC311E6D17047704770478E
:100900007047704710B500F007F9006810BD10B5CA
:10091000044600F001F9046010BD2DE9F0470D46D2
:1009200099469246044600F124080168880604D5D9
:10093000E06921F01001216000E00120A84201DD02
:10094000471B00E00027A1697A1902EB0900081A89
:10095000A0612078C00602D42046AFF300800026B4
:1009600008E0D4E901211AF806009047206A401CEB
:10097000761C20624E45F4DB2078C0060AD520465E
:10098000AFF3008006E0D4E9012130209047206ACF
:10099000401C2062381EA7F10107F4DC07E0D4E90F
:1009A000012118F805009047206A401C2062281E8B
:1009B000A5F10105F3DC2046AFF3008020780006A6
:1009C00002D50220BDE8F0870120FBE701694A1C3F
:1009D00002610878704700B58FB0CDE90131002180
:1009E000059105497944CDE9031011466846FFF7A2
:1009F0003DFD0FB000BD0000E5FFFFFF0A6802F8F3
:100A0000010B0A60704710B5436913B1AFF3008062
:100A100001E0FFF799FC012010BD127800F12401DC
:100A20000A7000224A700122EDE711684FF0FF3290
:100A3000E9E70000074B70B50D467B44FFF7CBFF9D
:100A40000446284600F06CF810B14FF0FF3070BD3E
:100A5000204670BD27AE0100431A28BF9A427FF698
:100A6000ABAE104410F0030F11441EBF11F8013D4E
:100A7000521E00F8013D10F0030F7FF4F6AF103A5C
:100A8000C0F00A8010B531E91850103A20E918502A
:100A9000BFF4F9AFBDE81040530724BF31E9081097
:100AA00020E9081044BF51F8043D40F8043D12F01D
:100AB000030F08BF7047D20728BF31F8023D48BF77
:100AC00011F8012C28BF20F8023D48BF00F8012C86
:100AD00070474FF000020429C0F0128010F0030CA0
:100AE0003FF4A6AECCF1040CBCF1020F18BF00F825
:100AF000012BA8BF20F8022BA1EB0C01FFF798BE39
:100B00005FEAC17C24BF00F8012B00F8012B48BF2D
:100B100000F8012B704700000048704730B20020F9
:100B2000007B00F0800070470048704730B2002022
:100B30007546FFF7F9FFAE4605006946534620F0BB
:100B40000700854618B020B5FFF7CAFBBDE8204076
:100B50004FF000064FF000074FF000084FF0000B79
:100B600021F00701AC46ACE8C009ACE8C009ACE82C
:100B7000C009ACE8C0098D4670470446AFF3008059
:100B80002046FFF74DFB00001CB50EF02FFC03467E
:100B9000002000900190034A0421034803F0A4FAC6
:100BA0001CBD00005DAF01081C8F0608002981688C
:100BB00002D041F0010101E021F0010181607047A4
:100BC0000D4910B5884202D1012144150AE00B49B4
:100BD000884202D10121041504E0094988420AD162
:100BE0000121CC03204609F077FC2046BDE81040E7
:100BF000002109F071BC10BD002401400028014013
:100C0000003C0140014600208968490700D50120C9
:100C10007047C06C80B270470246002012680A42DA
:100C200000D001207047014600208968090700D5DF
:100C30000120704710B542680E4B0C791A400B68C2
:100C400042EA04221343436082680B4B1A40D1E905
:100C5000024323434C7942EA440213438360C26A4D
:100C6000097C22F47002491EC9B242EA0151C162F4
:100C700010BD0000FFFEF0FFFDF7F1FF10B50421ED
:100C8000002208461CF014FA0149086010BD00005B
:100C90000400002070B5072609290AD9C568A1F10A
:100CA0000A0404EB4404A640B543A3401D43C560B9
:100CB00007E0056901EB4104A640B543A3401D438D
:100CC00005611F23072A09D2446B521E02EB8202E0
:100CD00093409C4391400C43446370BD0D2A09D25C
:100CE000046BD21F02EB820293409C4391400C4361
:100CF000046370BDC46A0D3A02EB820293409C43C8
:100D000091400C43C46270BD816841F0080181606C
:100D100070470029816802D041F4A00101E021F46C
:100D2000A00181607047816841F0040181607047D3
:100D300008B50020124C451E4FF4FA7600900A21A7
:100D4000012007F0F7F8009000232A466946206842
:100D50001CF000FB0146206850B10AA0FFF7D4FA4E
:100D60000DA00099FFF7D0FA30461BF047FE02E0D5
:100D70000EA0FFF7C9FA0A201BF040FEDFE70000D3
:100D800004000020414443CFFBCFA2B7A2CBCDB398
:100D9000C9B9A60D0A000000B7A2CBCDB5C4CFFBE0
:100DA000CFA2CAC725640D0A00000000414443CF0A
:100DB000FBCFA2B7A2CBCDCAA7B0DC203A256C648A
:100DC0000000000007F030BB70B515460E46044623
:100DD00008E02046641CA4B200F007F86D1E06F877
:100DE000010BADB2002DF4D170BD10B5044607F073
:100DF000BFFB200AA02101EB4000C0B207F084FB3A
:100E000007F0F8FBE0B207F07FFB07F0F3FB07F019
:100E1000AFFBA12007F078FB07F0ECFB002007F008
:100E20003DFB044607F0C4FB204610BD70B51446D8
:100E30000D46064606E02978304600F007F8761C95
:100E4000B6B26D1C641EA4B2F5D270BD70B50D466D
:100E5000044607F08DFB200AA02101EB4000C0B240
:100E600007F052FB07F0C6FBE0B207F04DFB07F0BE
:100E7000C1FB284607F048FB07F0BCFB07F098FBD6
:100E8000BDE870400A201AF0BDBB002800DC4042DB
:100E90007047000030B587B001214FF4017009F0B0
:100EA0000FFB00248DF817400220ADF8140003203A
:100EB0008DF8160005A9184801F048FF4FF40040CE
:100EC00009F0DCFA154D2846FFF77AFE4FF4602052
:100ED000CDE9020401208DF805408DF81000009442
:100EE0008DF8044069462846FFF7A4FE01212846F4
:100EF000FFF75CFE2846FFF707FF2846FFF793FE43
:100F00000028FAD12846FFF70EFF2846FFF77AFEA1
:100F10000028FAD107B030BD00080140002401408C
:100F20001CB50021009103460191034A04210348A6
:100F300003F0DAF81CBD00005DAF01081C8F060845
:100F40001CB50021009103460191034A0321034887
:100F500003F0CAF81CBD000009B20108C88E0608DB
:100F60001CB50021009103460191034A0421034866
:100F700003F0BAF81CBD000025B30108E80402081C
:100F800038B545680446014628460DF066FD002840
:100F90002BD02068304A11280DD006DC0B2825D034
:100FA0000E2833D00F2852D112E0282849D0B0F5AE
:100FB000107F4CD108E09268002A16D021462846BE
:100FC00001B0BDE830401047214628465268F7E797
:100FD000284602F057FE0090406E0468684602F012
:100FE000BBFE002C01D02846A04738BD284602F0A1
:100FF00049FE0090683002F09BFD009803216C30A0
:1010000002F0A4FD684602F0A7FE20E0E16848680F
:1010100009680D2902D0202913D105E0002810DD30
:10102000284617F074FA06E0002804DD2846BDE8DB
:10103000384017F06CBA2846BDE83840022117F056
:101040007CBAE06818B90021284600F097F92046DC
:10105000BDE838400EF07CB82C020020F0B5044604
:1010600085B08069B4F90850668A0027CDE9026529
:10107000CDE900170490B4F90C00B4F91060C11860
:10108000B4F90A00B4F90E50104433462A4600F071
:1010900007F80546616800F07AF905B02846F0BD0A
:1010A0002DE9F04F85B01F46DDE911B4DDE90E569C
:1010B00090468946824604F059F916484C34CDE9E9
:1010C0000204CDE900563B464246494650460DF0E3
:1010D00087FF040018D002F0D5FD10225946049075
:1010E0000DF0E4FD049830220B493430FFF764FB27
:1010F000094D04990C3D2868486604A802F02CFEAE
:10110000286841682046884705F034FE05B020462F
:10111000BDE8F08F810F000838020020F0B50446CA
:1011200080688B4989B051F82050606800287DD0D4
:10113000052804D006287AD0122879D1AEE0E869D3
:1011400000284FD095E80E008DE80F0004F1100143
:101150000FC906F05DFA002655F8260004F025FFB9
:10116000A169E8690A1A216901446069304403F001
:1011700067FBA169E8690A1A21690144E069801BDB
:1011800003F05EFBE169E8690A1A616901442069BC
:10119000304403F02BFCE169E8690A1A61690144F3
:1011A000A069801B03F022FC761C022ED4DBA86809
:1011B00004F0FBFEE069E9696669431A2069421898
:1011C0003144801C521E03F06DFCE169E869A2699C
:1011D0000B1A61690144101A401C921E03F062FC54
:1011E000EE6913E05FF0000655F8260004F0DDFE1E
:1011F000E069831BA069821B606981192069304402
:1012000003F094FB761C022EEEDB0226D5E90301E7
:10121000CDE900016169E06908444310A069891CB7
:10122000821B2069304403F0A5FA02E089E012E055
:101230008AE0D5E90501CDE90001E3696069012192
:10124000184401EB6001A0699B1E821B2069304499
:1012500003F090FA78E0206802F014FD0490206812
:101260000FF098FB40B1A06808B1002008E0049896
:10127000006F28B1012003E00498406F00B1022004
:10128000049901EB8000C56E04A802F065FD0023FF
:101290001A462846216803F047F855E0206802F016
:1012A000F1FC0490866EEEB3B0F95C70A168D1B326
:1012B000032942D05FF0000100EB8101406D0C6C0E
:1012C00004F0A2FE204604F070FE05A803F0ACFC7A
:1012D000BDF81410A88B0144ADF81410BDF8181017
:1012E000081AADF81800BDF81600801CADF81600FD
:1012F000BDF81A00801EADF81A000498B0F96020FD
:10130000B0F95E1005A804F00CFD04A802F024FD5D
:10131000022004F0E5FE304602F0B4FC3A4605A98E
:10132000079001E00BE006E003F002F90DF11C006C
:1013300002F012FD08E00121BEE70221BCE704A88B
:10134000F6E720680EF092FF09B00020F0BD000023
:10135000F8E3060838B50D4604000ED004F006F890
:10136000204602F08FFC00904565684602F0F4FCD0
:1013700020460EF075FC05F0FDFC38BD4FF4807280
:101380000029114601D00DF0FCBB0DF04DBB2DE93D
:10139000FF410E4605004FF0010421D003F0E6FFA7
:1013A000284602F06FFC0190876E01A8009702F0BA
:1013B000D3FC3146684606F083FC78B100980024DF
:1013C000B84208D0284602F05DFC01900099816681
:1013D00001A802F0C1FC28460EF042FC05F0CAFC50
:1013E00004B02046BDE8F081FEE7000070B50F4C68
:1013F0000025C4F884510E48016821F0F001016015
:10140000016841F030010160052004F5C2741AF052
:1014100015F90848C0F8A45105201AF00FF9012069
:10142000206005201AF00AF9256070BD0080214275
:10143000041C0140008023421348816941F00801E7
:101440008161816941F0800181611048016821F06A
:10145000F0010160016841F0300101600C48016851
:1014600021F0F0010160016841F03001016007489E
:101470000C30016841F00201016005480830016844
:1014800041F400710160704700100240000C0140FF
:10149000041C014070B50F4C0026C4F884610E484E
:1014A000016821F0F0010160016841F03001016044
:1014B000052004F5C2741AF0C1F808480125C0F8E7
:1014C000A45105201AF0BAF8256005201AF0B6F8E4
:1014D000266070BD00802142041C01400080234230
:1014E0002DE9F047824618480024016821F0F001F8
:1014F0000160016841F0800101601E201AF09EF831
:101500000025124EDFF848902F464FF00108C6F82C
:10151000847105201AF092F8C6F884816006040EE2
:10152000D9F8240108B1641CE4B26D1CEDB2082D99
:10153000EDD3BAF1000F04D0FFF758FF2046BDE805
:10154000F087FFF7A7FFF9E7041C01400080214264
:10155000008023422DE9F04705461548016821F037
:10156000F0010160016841F030010160114E002777
:10157000C6F8847105201AF061F8DFF83C80002479
:101580004FF00109E909C8F8A4116806050EC6F86C
:10159000849105201AF052F8C6F8847105201AF0DB
:1015A0004DF8641CE4B2082CECD3BDE8F0870000D1
:1015B000041C0140008021420080234270B50F4886
:1015C000016821F0F0010160016841F03001016023
:1015D0000B4E0120C6F8A4010A4DC5F884011E2057
:1015E00005F5C27506F5D2761AF028F800243460A5
:1015F00005201AF023F82C6070BD0000041C014087
:10160000008023420080214270B50D48016821F01E
:10161000F0010160016841F03001016009480125D5
:10162000C0F884511E201AF009F8074C0020C4F8B5
:10163000A401052004F5D2741AF000F8256070BDED
:10164000041C0140008021420080234270B51248F2
:101650000024016821F0F0010160016841F080017F
:1016600001600E4D0120C5F8A4010D4EC6F884019D
:1016700007E0641CE4B2FA2C03D9FFF7C5FF012090
:1016800070BD052019F0DAFFD5F824010028F0D14B
:10169000C6F8840170BD0000041C01400080234294
:1016A000008021420348002202604260472131202D
:1016B0000CF050BA7800002070472DE9F04704463E
:1016C00040688EB00027804602F0DCFA0090B0F847
:1016D0007CA0D0F86890D0F88060D0F88850C06DB9
:1016E00000B10768684602F037FB05E069682046EC
:1016F0008847002843D12D68002DF7D1206817288E
:1017000053D00CDC0F283DD004DC0B2877D00D28FB
:1017100025D18BE0112810D0142820D13BE02628B9
:1017200046D004DC1E2851D0202818D18AE02A286F
:1017300016D0B0F5107F12D128E04046E56802F0DF
:10174000A1FA0290697A39B9297A012904D130F8CD
:101750007C1F41F48071018002A802F0FDFA75E05F
:10176000404602F08FFA0090E16811B1C0F8841091
:1017700002E0D0F88400E060684602F0EDFA0EB0B6
:10178000BDE8F087D7B34046B8475FE02146404602
:1017900017F0DCFBF3E705A9404600F05BFBE068CF
:1017A0000699016007994160E9E7C4F80C90E6E703
:1017B000E0680228E3D1CDF83080E0680D90272062
:1017C0000A900AA9A0680FF0DFFAD8E7E0680128BC
:1017D00004D00021404600F0BCFAD0E730460EF0BD
:1017E000A8FA68B130460EF0BBFC30460EF064F942
:1017F00098B1012130460DF0C4F90EE026E02FE04B
:1018000048460EF001FD0646404602F03BFA0090C5
:10181000C0F88060684602F09FFA0121404600F05F
:1018200098FA002EABD10020E060A8E75FEA0A70CA
:101830000CD4E068C06848B1007A38B140460EF078
:101840008FFC03E02146404616F094FE21464046B8
:101850000DF003F9002892D020460DF079FC8EE7B8
:10186000404602F00FFA0090703002F061F96846CD
:1018700073E7F0B587B0B0F908400DF10C0C0C9E81
:10188000876945688CE8F000448A0025CDE9001599
:101890000294B0F90C10B0F91050B0F90E40B0F944
:1018A0000A00194410442B46224600F003F807B002
:1018B000F0BD00002DE9F04F8BB09846DDE91556DC
:1018C00091468A468346149F1A9C03F04FFD334885
:1018D000603445F48055CDE90204CDE900754346F6
:1018E0004A46514658460DF07BFB04004FD002F0AB
:1018F000C9F93022049017990DF0D8F904982822DC
:1019000027493430FEF758FF04981999244F41664F
:10191000A0F87C600026C0F88060C666083FC0F86A
:1019200088607968C16504A802F016FA05A9204606
:1019300000F090FA1B4841F2827103960094CDE9C1
:101940000110BDF91E00BDF91A10BDF91C20431A83
:10195000BDF918005B1C121A521C0DF041FB064623
:101960007868416820468847204602F08BF9049049
:10197000866604A802F0F0F942F20400054202D1A2
:1019800020460DF095FC2046189900F027FA05F046
:10199000F1F90BB02046BDE8F08F0000BB1600083F
:1019A000700200205D2100082DE9F041044694B04A
:1019B000006800F0B7F908B1D94D01E0D84D2C35D9
:1019C000606815281ED00CDC0B281FD004DC002812
:1019D0007ED005287DD12FE10E287BD01228F9D1A9
:1019E00041E1162806D0172808D0182808D01C284E
:1019F000F0D109E0E86914B0BDE8F081286AFAE79F
:101A0000686AF8E7A86AF6E76869F4E720680B9067
:101A10001C200C90206802F035F90390016D0BA892
:101A20008847064603A802F097F9022E0FDB95E8D7
:101A300007008DE80700D4E904023346A16905F0E8
:101A4000ADFD20698719A069A0EB06082CE0286885
:101A500004F0ABFA2169E8690A18521E606902F0C5
:101A6000EFFEA269E869111A491C606902F0E8FEFC
:101A7000D4E904077F1C394602F032FF3946A069D9
:101A800002F02EFF686804F090FA20693946401C85
:101A900002F026FFA0693946401E02F021FFA0692E
:101AA0002769A0F10208BF1C286804F07EFA4246AC
:101AB0003946606902F0C4FE686804F076FA60692D
:101AC00042463946401C02F0BBFE686A022802E02A
:101AD00015E1B0E000E10BDDA86804F066FA616989
:101AE0006A6A881C8B180146424638465B1E27E00E
:101AF000296AB14226DD6069022E074600F102081C
:101B000001DB374401E007F10207206901DB3044C3
:101B100001E000F1020022693B460A444146A2F17D
:101B2000010202F0BFFF022E02DBA069821B01E06E
:101B3000A269921EA069E9693B46401A4146401CD1
:101B400002F0B0FF022E02DB6069064401E0666924
:101B5000B61CE76928687F1E04F027FA3A4631462A
:101B6000206902F043FF3A463146A06902F03EFF89
:101B7000E7696868BF1E04F018FA20693A463146E2
:101B8000401C02F033FFA0693A463146401E02F085
:101B90002DFFE869022802DC286A022823DDA86AF2
:101BA000022802DDE1690F1A01E0E769BF1EA8689B
:101BB00004F0FBF9E969022909DD20693B46421876
:101BC00000F1020C31466046521E02F06BFF286A9B
:101BD000022808DDA269E8693B46101A3146401C1C
:101BE000921E02F05FFF286804F0DFF9D4E90620B6
:101BF000216902F025FE686804F0D7F9D4E90620CF
:101C00002169401E491C521E02F01AFEA86A0228D1
:101C100011DDA1692669E469A1F10208271AA41E51
:101C2000B61C7F1CA86804F0C0F92346424639461A
:101C3000304602F037FF71E0208A00B2ADF81400A0
:101C4000A18A09B2ADF81610228B12B2ADF8182095
:101C5000A38B1BB2ADF81A302C69ED68CDE90054A6
:101C600002F088FD5AE0208A298B0844ADF8140060
:101C7000A08AADF81600208B298B401AADF8180009
:101C8000A08BADF81A00206801F0FCFF0390006FF4
:101C9000F0B1022004F024FA039890F87C10C1F30C
:101CA000C00100EB8100006C04F07FF90398406BE9
:101CB00004F0AAF90398006F01F0E4FF039909907A
:101CC000B1F95A2005A902F033FC09A802F044F842
:101CD00003A802F041F821E0208AADF81400A08AA0
:101CE000ADF81600208BADF81800A08BADF81A00E7
:101CF000A86804F05AF905A802F000FF0EE0206879
:101D000001F0C0FF039030F85A1F41F00C01018030
:101D100003A802F021F820680EF0A8FA00206AE675
:101D20000805002038B505004FF000040FD003F07F
:101D30001DFB284601F0A6FF009090F87C000007EC
:101D400000D50124684602F007F805F013F8204694
:101D500038BD70B50D46040009D003F007FB2946D5
:101D6000204617F0A7FEBDE8704005F003B870BD2F
:101D70002DE9FC410D46804603F0F8FAB8F1000069
:101D800028D001F07FFF0190C16D8C6800F0C9F888
:101D900007460198456301A801F0DEFF2268012192
:101DA0004046904706462268032140469047054634
:101DB00022680021404690470446404600F097F9CB
:101DC0002B46324639464046009400F020F9404602
:101DD0000DF046FF04F0CEFFBDE8FC817CB50D465A
:101DE00004001DD003F0C2FA204601F04BFF009022
:101DF000006F0190684601F0AFFF294601A805F089
:101E00005FFF58B1204601F03DFF00900199016746
:101E1000684601F0A1FF20460DF022FF04F0AAFF62
:101E20007CBD38B50C46050013D003F09FFA284658
:101E300001F028FF0090B0F95A10A14204D0A0F898
:101E40005A4028460DF00CFF684601F085FF04F06B
:101E500091FF38BD2DE9F34F85B000270C46B846F9
:101E6000059801F00FFF0090C06D0121856805986D
:101E70002A68904782462A68032105989047049073
:101E80002A6802210598904703902A680021059846
:101E90009047064600980EF0FAFB834600980EF035
:101EA000FDFB8146009890F83210890601D5B0F903
:101EB000588000F036F805460098C06E10B10DF05D
:101EC00017FC074625806780A4F804A0049AABEBB2
:101ED000020006EB0802401E2A4420813A44E280B8
:101EE000039BA9EB0302521E6281A4F80CA020827E
:101EF0007019E681401E6082684601F02DFFB4F93A
:101F00000C000190B4F91000029002AA01A90598F2
:101F100000F03AF80198A0810298208207B0BDE84D
:101F2000F08F10B50146002091F83220920607D5B7
:101F3000B1F95400002803D1486B02F005FF801C62
:101F400010BD70B58AB00C46054601F09BFE0990A5
:101F5000C06D866809A801F0FFFE009534B1012C20
:101F600006D0022C0BD0032C04D10AE0182000E08C
:101F7000162001907168684688470AB070BD152028
:101F8000F7E71720F5E700002DE9FC4117468846E2
:101F9000044601F077FE0090C16D056868468E68C2
:101FA00001F0DAFE326800212046904706462046BE
:101FB0000DF043FA27E000BF01F064FE0190B0F994
:101FC00000102AB2B0F90430891A9A1AB0F9023016
:101FD000A3EB2543B34210D190F82800000605D5A5
:101FE0003868884209DB491E396006E0D8F80000ED
:101FF000904202DC521CC8F8002001A801F0ACFE9F
:1020000020460DF0BFFA0400D6D1BDE8FC812DE9D1
:10201000FF4F83B00E460746DDF8409001F032FED8
:102020000190C16D8D68FFF77CFF044601A801F0A7
:1020300093FE2A6801213846904783462A68032187
:102040003846904782462A68002138469047054620
:10205000B44207D105998B4504D106998A4501D12F
:102060004D4541D0A41B0026B04638460DF0E5F999
:1020700038E001F007FE0090806A010601D5800576
:1020800002E0810528D50006002825DB24B1224680
:10209000114638460DF0D3FE009890F8280000064F
:1020A0000AD50698A5EB0902A0EB0A0004FB16016D
:1020B0003846761C0DF076FE0098008D80050BD515
:1020C0000599A5EB0902ABEB010004FB080108F13F
:1020D000010838460DF066FE684601F03DFE3846C0
:1020E0000DF050FA0700C4D107B0BDE8F08F70B50D
:1020F00086B0064601F0C6FD0590D0E91A4505A850
:1021000001F02AFE54EA050026D069463046FFF762
:10211000A1FEACB1BDF90620BDF9041020460DF0BA
:1021200014FEBDF90A00BDF90610421ABDF90800F7
:10213000BDF90410521C411A2046491C0EF0E2F869
:10214000002D09D0BDF90600BDF90210421ABDF9F3
:10215000041028460DF0F9FD06B070BD2DE9F043DE
:102160000446406889B005460DF02AFA814601F020
:1021700089FD0290D0F84880D0F88070466E02A8A1
:1021800001F0EAFD2068172853D008DC0E283AD069
:102190000F2811D014284CD015283DD149E01E2815
:1021A0001ED01F282AD0222840D0312834D1002028
:1021B000E06009B0BDE8F0836FF0704140468845AB
:1021C00003D007F0E5FA01F04DFF002EF1D0D4E97D
:1021D00002122068CDE90405CDE9061204A81FE02B
:1021E000E0680028E5D02FB1AF4203D038460DF0AB
:1021F000B7FFDEE728460EF007F8DAE72146484643
:102200000CF02BFCD5E7E0684168002904DD00688C
:102210000928EFD00A2805D05EB12046C4F8049002
:10222000B047C6E728460DF0FEFFC2E7C4F80C80B1
:10223000BFE720460CF08CFFBBE700008000A0F158
:10224000C0400029016802D041F0010101E0024ACA
:102250001140016070470000FEFF0F0010B5D0E98B
:1022600001121143D0E903231A4311434269114378
:1022700082691143C2691143026A1143426A1143E0
:10228000826A1143C26A1143026B114302689200D1
:10229000A2F1C04211608168082907D10168890054
:1022A000A1F1C0410A6842F040020A60416BD1E9E5
:1022B000002342EA03128B688C891B0243EA044321
:1022C0001A430B8A42EA03520B7D896942EA036290
:1022D0000A4301688900A1F1C0414A60C16AB1F5B1
:1022E000804F08D000686FF070418000A0F1C040BE
:1022F000C0F8041110BD816BD1E9002342EA03123A
:102300008B680C8A1B0243EA04531A430B7D8969CC
:1023100042EA036200680A438000A0F1C040C0F8AE
:10232000042110BD3A48416941F4807141618169DD
:1023300041F020018161816941F040018161816941
:1023400041F080018161816941F48071816131488E
:10235000016800210160026842F0BB320260001F88
:10236000026802F0FF220260026842F0BB120260C3
:10237000294802680160026842F0BB320260001F17
:102380000268264B1A4002600268254B1A4302601D
:102390002448026892B202600268234B1A4302602A
:1023A000001F026802F07F42026003681F4A134365
:1023B00003601F48436823F470634360436843F439
:1023C00030634360036803F07F4303600368134393
:1023D00003604FF0204001614161C0F814110169B0
:1023E00041F480510161016941F0100101614169CD
:1023F00041F44071416141694161416941616FF05E
:102400007041C0F81411016941F001010161704788
:1024100000100240041401400418014000FFFF0FA7
:10242000BB0000B0041C01400000BBBBBBBBBB0039
:102430000020014038B52B48816941F0800181615D
:102440002948016821F47F410160016841F460512D
:10245000016025480830016841F440610160FEF7E1
:10246000EBFF224D0024C5F8AC41142005F5D675CC
:1024700019F0C8F801202860322019F0C3F88DF84F
:10248000004001226946002000F0FEF80122694662
:10249000A42000F0F9F816208DF80000012269460A
:1024A000802000F0F1F80C208DF800000122694630
:1024B000882000F0E9F802226946A12000F01EF809
:1024C0009DF80000302803D19DF80100032801D0B9
:1024D000012038BD43F2030105A0FDF715FF0020E0
:1024E00038BD000000100240041C0140008023425F
:1024F0004354502049443A25780D0A002DE9F04113
:1025000015460F460446FFF759F87020FFF722F8EA
:10251000FFF79CF8E0B2FFF71DF8FFF797F8FFF719
:102520004DF87120FFF716F8FFF790F800246E1EA3
:1025300009E0B44201D0012000E00020FEF7D0FF06
:102540003855641CE4B2AC42F3D3BDE8F041FFF768
:102550005BB800002DE9F143484F00244FF00A0911
:10256000387882B0401CC0B2B0FBF9F209FB12010E
:10257000434DA046387009B10A2863D2012202A94E
:102580000220FFF7BBFF9DF8080001075AD000F0BA
:102590000F00062856D2FF218140C84340F0C000FA
:1025A00085F820004FF00108002695F8201008FA61
:1025B00004F0014239D033480422694630F814004F
:1025C000FFF79CFF95F830009DF80010C0079DF8BC
:1025D000010001F00F010ED000EB012105EB4400DA
:1025E000C1829DF802209DF8031002F00F0201EB5A
:1025F000022181810FE000EB0120C0F5F07105EBB5
:10260000440081819DF802209DF8031002F00F0222
:1026100001EB0221C1829DF800000821B1EB101FDF
:1026200003D005EB4400C6828681641CE4B2052C0D
:10263000BBD3A9894FF0010819B9E88A08B98DF808
:1026400008603E709DF80800C0060ED195F8200085
:10265000010602D520F0800005E04FF6FF71A98148
:10266000E98200F0E00085F820003878F02801D9F0
:1026700087F800904046BDE8FE8300003A00002045
:1026800044000020C20302082DE9F04115460E4621
:1026900004460027FEF792FF7020FEF75BFFFEF76F
:1026A000D5FFE0B2FEF756FFFEF7D0FF002408E0AA
:1026B000305DFEF74FFFFEF7C9FF070003D1641C32
:1026C000E4B2AC42F4D3FEF79FFF3846BDE8F08198
:1026D0002DE9F0430446C56887B09046894600203E
:1026E00003F086FC064625B1287910B146F00200B9
:1026F00001E026F0020003F07BFC2069012558B1BF
:10270000D4E902128DE826000395638822880468C4
:1027100041464846A0471EE0124F134B21463868F9
:102720001B68427CE068984730B9E088012801D0F6
:10273000002001E03868806BA288E388A1680095DA
:10274000CDE90410CDE90232019563882288414623
:10275000484606F0FBF807B03046BDE8F04303F00A
:1027600047BC0000940100208C0100201CB500240F
:10277000019401AC009400F0E7F81CBD2DE9FF4F77
:1027800083B0814606988A46A0EB0A08109E002076
:102790000090A2EB09043568934654EA080018D06B
:1027A0002046FEF772FB07464046FEF76EFB874267
:1027B0000BDA2046444680464846D1468246584673
:1027C000DDF818B0069001200090002C07DD2046AF
:1027D00006E007B04846BDE8F04F00F03BB9604264
:1027E000A0420AD04846D9466442C8F10008834650
:1027F0004FF0FF37DDF818A000E001275148B8F18D
:10280000000F11D004EBD4714FEA610B01DACBF168
:10281000000B4C480068807E88B3002F02DA3068D5
:102820002044306000257BE000990029016821D018
:10283000897E11B10027804615E007B05A46494607
:102840005046BDE8F04F06F03DBA28466D1C17F023
:102850000DFA38B9D8F8000009EB0701406E42685C
:10286000504690477F1CA742EFDD6D1E356007B0D4
:10287000BDE8F08F8A7E1AB10027804617E019E084
:10288000486E5A465146036807B04846BDE8F04FC7
:10289000184728466D1C17F0E9F938B9D8F8001028
:1028A00009EB0700496E4A68514690477F1CA742D2
:1028B000EFDDDAE700250FE008FB05B090FBF4F14F
:1028C00001EB0A00009951B11E4A09EB050112689B
:1028D000526E526890476D1CA542EDDDC7E719495D
:1028E00009EB05030968496E4A6801461846F1E795
:1028F00008FB05B090FBF4F101EB0A000190306891
:102900003844306017F0B2F948B9009890B10D48DA
:1029100009EB05010068406E4268019890476D1C04
:10292000A542E5DD3068002F01DA20443060C01B8D
:1029300030609CE7034909EB05000968496E4A6865
:102940000199EBE7940100202DE9FF470F4640492C
:102950001646804609680C981D460A7E012A1CD03E
:10296000A8EB0600791B50EA01031CD0A2F1010973
:1029700018F0D2FB00F58060824605F090FA00FB6B
:1029800009F4504605F090FA00FB09F1002C0CDA2E
:10299000C4F50070801240420AE000903246394689
:1029A0004046FFF7EBFEBDE8FF8704F50074A01278
:1029B000002904DAC1F5007189124C4202E001F5E8
:1029C00000718C12002804DD411C01EBD17149100B
:1029D00003E000EBD0714910401E00EBD0704210B4
:1029E000002C04DD601C00EBD070401003E004EB11
:1029F000D4704010641E04EBD47308EB0104ADF8EE
:102A000000403C18ADF80240A8EB02045B10B21A7B
:102A1000ADF80440ADF808203144FC1AEA1AADF8CC
:102A20000C102844ADF80A20ADF80E000023ADF8D4
:102A300006401A460421684600F07AF839464046B6
:102A400013F0CCF82946304613F0C8F8ABE7000085
:102A500094010020064A13681A7E012A05D0521EEE
:102A600002EBD272521000F005B85A6E526810474D
:102A7000940100202DE9F05F0646884640F2C3200D
:102A800002FB00F14FF47A7091FBF0F702FB02F1C8
:102A900002EBD27001EB600B1446B118234A301BD5
:102AA0007F1C1268526E13680A46414698470125FA
:102AB00038E000BF05FB05F004FB040159451CDDAF
:102AC000BC4219DD194B06EB050AA6EB05091B688C
:102AD000AAF1010208EB04015B6E09F101001B6819
:102AE0009847124BAAF10102A8EB04011B6809F1F7
:102AF00001005B6E1B689847641E0C4B3219301B3B
:102B00001B68924608EB05015B6E81461B6898477F
:102B1000064B5246A8EB05011B6848465B6E1B68D6
:102B200098476D1CBD42C5DDBDE8F09F94010020B3
:102B30002DE9FF4F43F6FF740F46664283B09B4674
:102B4000814600210BE000BF09EB8100B0F90200D3
:102B5000A04200DA0446B04200DD0646491CB942F4
:102B6000F2DB67480068406900280DD0B0F9061014
:102B70001A46A1EB0B01B14200DA0E46B0F9020091
:102B8000801AA04200DD0446B4E0DFF878A10020FE
:102B90000546CAF8000088E0781E854201DA6B1C01
:102BA00000E0002309EB850C09EB8302BCF902006D
:102BB000B2F90210A04244D1A14215D139F9233013
:102BC000059A39F9251003EB020C4D4A0598126855
:102BD000084404EB0B01526E6045136801DA62464B
:102BE0002AE00246604627E02846A4464FF0000847
:102BF0007A1E0BE008B1401E00E0781E09EB80034E
:102C0000B3F90230634504D108F101089045F1DBC6
:102C10002346A34248D01A1B39F92500A1EB040C26
:102C2000059B92EA0C0F09D4354A184404EB0B01BA
:102C30001268526E13680246984735E00EF09AF912
:102C400032E0A14230D001DBA04203DDA0422BDB09
:102C5000A14229DCE04688420ADC0346A04223DC8C
:102C60000846A14220DBB8F900C0B2F9001008E024
:102C70000B46A14218DCA04216DBB2F900C0B8F93D
:102C80000010E21AA1EB0C0151430029A0EB030252
:102C900002DD01EB620102E0A1EB6201491CC01AF6
:102CA00091FBF0F06044C9E76D1CBD42FFF674AFC4
:102CB0000598009004EB0B0001900020804605462B
:102CC00013E01149B8F1000F31F915A009D00099AE
:102CD00001EB0A0208440A490968496E0B68019928
:102CE000984788F0010850466D1C064909688D42D6
:102CF000E7DB641CB4427FF748AF07B0BDE8F08F54
:102D000094010020B0050020B8B1002010B50020CB
:102D100003F040F96FF07F4003F047F9012003F022
:102D2000C1F9002003F0CCF9002003F0D9F900200C
:102D300003F05EF90448006803F066F9BDE810404E
:102D4000002003F081B9000090010020F0B5CC789C
:102D5000002204F00F03E40601D58C7823430C789D
:102D60004FF00F0C14F0FF0F4FF0010E1BD0056851
:102D70000E880EFA02F42640A64210D196000CFAF4
:102D800006F725EA070703FA06F5CE783D43282E15
:102D900002D0482E02D002E0446100E00461521CDF
:102DA000082AE5D305600A88FF2A1CD94468002256
:102DB00002F108060EFA06F50E882E40AE420ED13C
:102DC00096000CFA06F7BC4303FA06F7CE783C43AC
:102DD000282E00D14561CE78482E00D10561521CC5
:102DE000082AE5D34460F0BD0246002092680A42FA
:102DF00000D0012070470161704733B583B00400F3
:102E00001BD002F0B3FA204600F03CFF0190456E63
:102E100001A800F0A1FF049800F034FF0090846046
:102E2000684600F099FF042204A9284600F0B8FF84
:102E300020460CF015FF03F09DFF05B030BD33B503
:102E400083B004001BD002F091FA204600F01AFF74
:102E50000190856E01A800F07FFF049800F012FF3A
:102E600000908460684600F077FF042204A9284699
:102E700000F096FF20460CF0F3FE03F07BFF05B058
:102E800030BD2DE9F04104460025D4E90007B0F536
:102E9000407F00D10125214638460BF0DEFD064675
:102EA00015B1384615F067FA002E2FD02068052896
:102EB00006D00B280ED00F2806D0262821D10EE0F0
:102EC000384615F058FA1CE03846E168BDE8F04194
:102ED00015F0CABC3846BDE8F04115F07ABBE06891
:102EE00005280ED138460CF0A5FBA168884205D014
:102EF00038460CF08FFBA168884202D1606815F05B
:102F0000D5FF2046BDE8F0410CF022B9BDE8F081C4
:102F1000F0B585B0B0F90850468A84690296CDE9CB
:102F200003540027CDE90017B0F90C10B0F9105088
:102F3000B0F90E40B0F90A00194410442B4622465D
:102F400000F002F805B0F0BD2DE9F04F85B09846CD
:102F5000DDE90E5691468A468346109F129C02F088
:102F600005FA18486C34CDE90204CDE90056434611
:102F70004A46514658460CF033F804001BD000F086
:102F80004CFF054600F049FF0646204600F07AFE59
:102F90000490C0E91956002211990BF087FE04989D
:102FA000302209493430FDF707FC0498A0F8787006
:102FB00004A800F0D1FE03F0DDFE05B02046BDE818
:102FC000F08F0000832E00089802002013B582B015
:102FD000044602F0CBF9204600F054FE009060B1A8
:102FE000406A00F04FFE01460190022303AA0098B8
:102FF00000F043F901A800F0AFFE684600F0ACFE17
:1030000003F0B8FE1FBD00002DE9F04385B01D465A
:1030100090460F46814602F0A9F92C2000F03FFDB2
:10302000060024D0780000F03AFD04000ED0B8F17C
:10303000000F0BD055B1204600F024FE6A00414637
:103040000090FDF732FB684600F086FE304600F047
:1030500019FE0A49029000F10C02446282E8A202C1
:10306000074901600749416002A800F075FE03F0BE
:1030700081FE05B03046BDE8F0830000F17F010815
:10308000138A0108638601082DE9F843984615461E
:103090000E46074602F06AF9302000F000FD0400F9
:1030A00014D000F0EFFD0090C0E9057685840A4A4F
:1030B0004FF07E51C0F81C808162D2E90012C0E955
:1030C000031206490160684600F046FE03F052FE16
:1030D0002046BDE8F8830000C8020020EB8A010802
:1030E000F8B50D4606004FF0000415D002F03EF989
:1030F000304600F0C7FD0090806A294604461BF068
:1031000033FB04D00098856280680CF0A9FD684606
:1031100000F022FE03F02EFE2046F8BDF8B50D4665
:1031200006004FF0000411D002F020F9304600F004
:10313000A9FD00900469AC4203D0056180680CF0E1
:103140008FFD684600F008FE03F014FE2046F8BD2F
:10315000F8B50D4606004FF0000411D002F006F954
:10316000304600F08FFD0090C468AC4203D0C560CB
:1031700080680CF075FD684600F0EEFD03F0FAFD86
:103180002046F8BD2DE9F8431D46DDF8208016469F
:103190000F46040015D002F0E9F8204600F072FD59
:1031A0000090C0F860804765C0E91665684600F089
:1031B000D3FD204615F0DFF820460CF051FD03F05A
:1031C000D9FDBDE8F883F8B50D4606004FF00004C0
:1031D00011D002F0CBF8304600F054FD0090846C22
:1031E000AC4203D0856430460CF03AFD684600F0EE
:1031F000B3FD03F0BFFD2046F8BDF8B50D4606004F
:103200004FF000041BD002F0B1F8304600F03AFD58
:103210000090B0F8781011F0010403D055B921F0F6
:10322000010102E035B141F00101A0F8781030460B
:103230000CF016FD684600F08FFD03F09BFD204664
:10324000F8BDF8B50D4606004FF0000413D002F0AB
:103250008DF8304600F016FD009090F86C40AC42BE
:1032600004D080F86C5030460CF0FAFC684600F050
:1032700073FD03F07FFD2046F8BD2DE9F0410446C3
:1032800080681D4617460E46002826D0D4E9040261
:1032900090420ED1521E6A4371193046FDF74AFA28
:1032A00020692A46401E05FB00603946FDF742FAB8
:1032B0000EE005FB0013401C20612A4639461846E3
:1032C000FDF738FAE16819B12046BDE8F04108473A
:1032D000A068BDE8F04100F002B8BDE8F08110B58B
:1032E0008AB0044600F0CEFC09A904AACDE9002169
:1032F00005AB089006AA07A913F05FFE08A800F026
:103300002BFD02A920460CF0EBF8BDF80800079948
:103310000844ADF80800BDF80A0006990844ADF865
:103320000A00BDF80C000599401AADF80C00BDF874
:103330000E000499401AADF80E0002A920460CF0C8
:103340004FFC0AB010BD00002DE9FC4135488169F1
:1033500041F080018161344C206820F47F4020607E
:10336000206840F4605020602F4D0835286840F4F4
:1033700040602860FEF760F82C4F0026C7F8AC616B
:103380000A2007F5D67718F03DF9012038600A20A9
:1033900018F038F9206820F470602060206840F44C
:1033A00000602060286820F480602860642018F0A5
:1033B00029F90422694648F2401000F04DF88DF8D2
:1033C000046069461AA0FCF79FFF1CA16846FDF740
:1033D00055FA10B10120BDE8FC8102208DF80000F3
:1033E00048F2400401226946204600F04BF90122D0
:1033F0006946E01D00F030F89DF80010602905D204
:1034000010A0FCF781FF012000F016F90A2018F047
:10341000F9F88DF8006001226946204600F032F983
:103420000020D8E700100240041C01400080234225
:103430004354502049443A25730D0A00393134373A
:103440000000000044656661756C74205665723A30
:1034500025640D0A000000002DE9F04115460F46D5
:103460000446FEF7ABF82820FEF774F8FEF7EEF8F6
:10347000200AFEF76FF8FEF7E9F8E0B2FEF76AF807
:10348000FEF7E4F8FEF79AF82920FEF763F8FEF756
:10349000DDF800246E1E09E0B44201D0012000E0F6
:1034A0000020FEF71DF83855641CE4B2AC42F3D39B
:1034B000BDE8F041FEF7A8B82DE9F1475A4D0024C8
:1034C0004FF00A0A287883B0401CC0B2B0FBFAF271
:1034D0000AFB1201554EA046287009B10A2879D27C
:1034E00048F24E19012203A94846FFF7B5FF9DF89F
:1034F0000C004FF00007010603D500F00F0106296C
:1035000001D3800606D58DF80470012201A9484632
:1035100000F0B8F89DF80C0001075BD000F00F0137
:10352000062957D2FF2088408DF80400C04396F842
:10353000209040F0C00086F82000B089B082F08A68
:10354000F0834FF0010896F8201008FA04F00142C9
:1035500025D037480422694630F81400FFF77CFF75
:1035600096F830009DF80110C0079DF8000000EBB0
:10357000012106EB44000AD0C1829DF802109DF89B
:10358000032001EB0221C1F54871818107E08181AF
:103590009DF802109DF8032001EB0221C182641CFA
:1035A000E4B2052CCFD32349B2894FF001080B8830
:1035B00030469A4203D8C28A49888A4209D99DF87E
:1035C0000C1001F00F0101290BD9C1898181018BF8
:1035D000F1822F709DF80C0000F08F0080280AD037
:1035E00018E0818A8181C18BC18280218DF80C1005
:1035F00086F82090EEE796F82000010602D520F02C
:10360000800005E04FF6FF71B181F18200F0E0002B
:1036100086F820002878F02801D985F800A004B0A9
:103620004046BDE8F08700003B0000204400002039
:10363000840402082C06002008B500218DF8001033
:103640008DF801000E489DF80020435C491C1A4487
:10365000C9B28DF80020B829F5D3D0B2C043401CC0
:103660008DF80000B822064948F2470000F00AF839
:103670000222694648F2FF0000F004F8002008BD6D
:10368000CC0302082DE9F04115460E4604460027FA
:10369000FDF794FF2820FDF75DFFFDF7D7FF200A17
:1036A000FDF758FFFDF7D2FFE0B2FDF753FFFDF73E
:1036B000CDFF002408E0305DFDF74CFFFDF7C6FFAD
:1036C000070003D1641CE4B2AC42F4D3FDF79CFFC5
:1036D0003846BDE8F08100002DE9F04FDFF828B151
:1036E00091B04FF0FF35DBF80030B3F922100691AE
:1036F000DE69B3F924A0F469A189814206D8E28980
:10370000824203D3471AD4F8008012E0D4E9018141
:10371000002970D00A8882426DD84D8885426AD3CC
:10372000801A82B2486800EB8200B0F90070B0F9EC
:103730000250781C5FD0307EA27C014600FB02F96B
:10374000207CCDE90710B3F92A60304606F014F961
:10375000C0B20E90DBF8001007FB0980A37C8A6BD7
:103760000127CDE90402CDE90273C869089AC17E38
:10377000807ECDE90001DDE90603514605F0E6F85B
:10378000681C18D046F0020006F0F6F8DBF80000DE
:10379000A37C05FB0981826BCDE90273CDE904129C
:1037A000C069089AC17E807ECDE90001DDE906038B
:1037B000514605F0CBF8DBF800005D46C069417E5C
:1037C000007E814214D9022E12D086F0040006F049
:1037D000D3F82868C069027EC37E857E02FB03A100
:1037E000437E089A0698534402FB050205F0C0FB8D
:1037F0000E9806F0C1F8DBF80000627C418C1144A1
:10380000418411B0BDE8F08F9401002004480068A5
:10381000C069C06909B1027C0A60407C7047000041
:1038200094010020022008807047C06982898A4282
:1038300002D8C2898A4210D2806880B102888A4246
:103840000DD843888B420AD3406800EB8100A0EB7F
:103850008200B0F90000002801DB01207047002041
:10386000704700002DE9F0432F4C034687B02068D5
:103870001946B0F92A80C069C06900F082F80028B2
:103880004ED041680088181A01EBC0054046AE785A
:1038900006F072F8814620686A680123816BCDE9E1
:1038A0000236CDE90421C169CB7E8A7ECDE90023B1
:1038B0000B7EB0F924102A78B0F9220005F046F802
:1038C0002068C069477E067EB7421DD9C07E474347
:1038D0004643B8F1020F17D001F0ABF9804601F072
:1038E00071F902F062FB21682A78CB69B1F92200F4
:1038F000B1F92410DB7E02FB0302CB19314405F041
:1039000037FB404602F051FB484606F035F8206888
:103910006A78C369B0F922109B7E02FB03114184CF
:1039200007B0BDE8F08300009401002030B50E4CD4
:1039300005460B4620682946C069C06900F021F899
:10394000002810D04168008824682A1A0120E46900
:1039500000EBC200085CA47E6043002B03D011F88A
:1039600032106143196030BD9401002001200880AD
:10397000704700B5C06900F004F8002800D00120AD
:1039800000BD06E002888A4202D842888A4202D2FA
:1039900080680028F6D170472DE9F0410025154ECA
:1039A000154C18E02069C5EB051700EBC700702225
:1039B000001D3168FCF700FF2069002140F8371036
:1039C00000EBC70000F10C018161011D0A1DC0E977
:1039D0000F126D1C4164A0688542E3DB13F09AFC72
:1039E0002169C0EB001001EBC000001D3060BDE894
:1039F000F081000094010020F003002070B50F4911
:103A00000D480860084604F053F90C4C143CA068BB
:103A1000C0EB0010C500284600F0A6F82A46002199
:103A2000206104F0BEF94FF0FF30206003F0F6F99A
:103A3000BDE8704013F06EBC7D87010804040020CF
:103A4000F8B50C0005460FD001F090FC204600F0C0
:103A500017F8060010D000F015F9224600902DB19D
:103A60002946FCF722FE04E00020F8BD002104F006
:103A700098F9684600F070F903F07CF93046F8BD1B
:103A800010B5040009D001F071FC20460DF020FBB8
:103A9000044603F06FF9204610BD002010BD38B574
:103AA000054601F063FC2846FFF7EAFF040009D051
:103AB00000F0E8F82A460021009004F072F9684608
:103AC00000F04AF903F056F9204638BD024A10606A
:103AD00021F00300506070472CB0002010B50400A6
:103AE00016D001F043FC0B48406B10F8341059B16C
:103AF000022909D2042101EBC401415848680DF0A4
:103B000055FA204615F0E0FDBDE8104003F032B94B
:103B100010BD00006CAF0020002805D0034AD16B17
:103B2000016001B14860D063704700006CAF0020B5
:103B300010B5044601F01AFC2068FFF7CFFF002003
:103B40002060BDE8104003F015B9000070B50D46C7
:103B50000646002405E000BF06EB8400FFF7E8FFFF
:103B6000641CAC42F8DB70BD2DE9F041044614F052
:103B700063F92848E41C24F00305016C2D1DA942BB
:103B800000D90D46C46B13E054F8042CAA420ED1A0
:103B900084B1216809B162684A60616809B122682C
:103BA0000A60C26BA24231D12168C1632EE0246851
:103BB000002CE9D18046816BC0680F1857F8040CBF
:103BC0003E1A306838B1002015F0CEFE57F8040CCC
:103BD0003E1A3068D0B97068A84217DB3044441BE5
:103BE0003046241D15F078FED8F80C10491BC8F893
:103BF0000C10D8F814102944C8F814107068401B31
:103C000002D031460DF0D2F944F8045C2046BDE8FC
:103C1000F08100006CAF002010B5002414F00CF906
:103C20000C490F2001EBC002526C1AB101EBC0002D
:103C3000406C08E0401EF5D508E04168A14200D97B
:103C40000C46806810B180680028F6D1A4F10C0001
:103C500010BD00006CAF0020002138B104490422DF
:103C600002EBC000496B085841680C3908467047A0
:103C70006CAF002002488169491C816170470000D7
:103C80006CAF00200549CA69521CCA61496B01EB3F
:103C9000C0010A78521C0A7000F076B86CAF0020A0
:103CA0007CB506460C460846FFF7EAFE050020D024
:103CB000FEB13046FFF7D0FFA04200DA044601F023
:103CC00055FB2846FFF7DEFF00903046FFF7DAFF8E
:103CD0000146019022460098FCF7E7FC684600F098
:103CE0003BF801A800F038F83046FFF7F7FE03F084
:103CF00041F828467CBD000010B501F037FBFFF706
:103D00008BFF64220849B0F5800F04D990FBF2F4D0
:103D1000086A444303E0096A4143B1FBF2F403F04B
:103D200029F8204610BD00006CAF0020054910287E
:103D300005D94A68B0EB520F02D3500800E01020BA
:103D4000886070472CB0002002488169491E81615B
:103D5000704700006CAF00200A4902684B6B52F8B4
:103D6000082C03EBC2021378022B03D3CB690BB1EF
:103D70005B1ECB611178491E11700021016008465D
:103D8000704700006CAF0020002806D003490422D1
:103D900002EBC000496B0858083070476CAF002038
:103DA0002DE9FC414FF000060B465FEA000834465F
:103DB0002BD032B111461846FFF742FE060000D163
:103DC00001244046FFF75EFF00900788456868467B
:103DD000FFF7C2FFCCB9B9002846091DFFF760FF05
:103DE000050015D0FFF74EFF019040F8276001A8AD
:103DF000FFF7B2FF4046FFF745FF0090456001889E
:103E0000491C01806846FFF7A7FF2046BDE8FC81FA
:103E10003046FFF763FE0124F7E70820FFF73FBEB7
:103E20007CB5050023D0FFF72DFF00904068C0B19E
:103E3000FFF728FF0024019005E0019800EB8400C3
:103E4000FFF776FE641C00980088A042F5DC01A80C
:103E5000FFF782FF0098001DFFF76AFE009900201F
:103E600008806846FFF778FF2846FFF737FE7CBDDD
:103E700038B5002430B1FFF705FF0090048868468C
:103E8000FFF76AFF204638BD38B50D46002448B11B
:103E9000FFF7F8FE2946009000F016F80446684641
:103EA000FFF75AFF204638BD38B50D46002448B10B
:103EB000FFF7E8FE2946009000F018F8044668462F
:103EC000FFF74AFF204638BD38B50D46018800246B
:103ED000A94209D9406838B1FFF7D4FE009050F8E4
:103EE00025406846FFF738FF204638BD10B500244E
:103EF000FFF7EAFF10B1FFF7C5FE0446204610BDEC
:103F0000F0B52D271C68B0F1004F08D0002600281E
:103F10000DDA651C1D6027704042012408E0651C15
:103F200001261D606FF000402770491E01E000244B
:103F3000091BC9B22AB3491EC9B222E00C46491E68
:103F4000C9B2944205D1124C27781C68651C1D60CB
:103F50002770104C54F8215090FBF5F4E4B20A2C71
:103F600011D804FB150011B90EB1641CE4B20A2C7F
:103F700002D10124491CC9B21D686F1C30341F6076
:103F80002C700029DAD1196800200870F0BD0000FB
:103F90008801002024E4060810B5002807DD0A681F
:103FA0002B24531C0B601470096800220A7010BD8A
:103FB00070B514460D46064601F0D8F9204600F0CB
:103FC00045FE0300174804EB840109D050F8210096
:103FD00041688068711A2A1A184602F025F81CE018
:103FE00000EB8104A268B24201D0012200E000226D
:103FF000E368AB4201D0012300E000231A430CD058
:10400000236943B150F82100816840686A1A311A67
:10401000184601F03FFFC4E90265BDE8704002F0B8
:10402000A9BE000090B1002010B5C2B2CBB2D21A26
:1040300000D5524293B25B43C0F30722C1F3072479
:10404000121B00D55242000C92B2A0EB114002FBB1
:10405000023200B2002801DA404200B280B200FB16
:10406000002010BD10B50021084600F081FE43F687
:10407000FF725042BDE8104013460146AFF3008086
:104080002DE9FC411C4615460E46074601F06EF927
:10409000042005F071FC80461248C068C16C006DB8
:1040A0000F4406440D440444ADF80070ADF80450CC
:1040B000ADF80260ADF8064068460CF0F7FA07E08C
:1040C00023462A463146384604F052FF0CF084FA63
:1040D0000028F5D1404605F04FFC02F04BFEBDE84C
:1040E000FC810000880100202DE9F8431C00DDE977
:1040F000089816460F46054602D10BF077F904469C
:1041000000962E6843464A4621462846B047061E7A
:1041100039D00BF060F98146698A30460AF031FDEA
:1041200030460CF023F948460CF020F94FF0000817
:104130000CE000BFCDF8008055F81CCF00231A46D4
:1041400049462846E04700B30CF010F97F1E002FC7
:10415000F0DC1D2148460BF046FF601C12D001F038
:1041600005F90BF087F930B1FFF70EFE8469B44210
:1041700001D02000F8D1B44202D030460CF044F80F
:1041800002F0F8FD3046BDE8F88330460BF018F831
:104190000020F8E72DE9F0411C4616460D4607467B
:1041A000022B02DB0020BDE8F0811C20FFF7DCFCC5
:1041B0000028F8D00DB105610AE0094A52F8241030
:1041C00009B905E011460A68002AFBD109690161B5
:1041D00084618682002101604160C0E90217E2E744
:1041E000AC01002070B51D46FFF7D4FF040009D0D4
:1041F00000F00EF8E068006820B90348006800EBA2
:1042000085008465204670BD94010020FFF784BCC2
:1042100070B590B38269022A30DA1E4C54F822102D
:1042200019B944F8220032E019464B68002BFBD143
:1042300006E0CB68C5681B682D68AB4203DD0968E2
:104240000029F6D11AE0C1B1CB68C6681B68366890
:10425000B3420CD1838A012B05D008E01946DB68F4
:104260001B68AB4203DB0B68002BF7D129B14B680D
:1042700033B118604A68426004E0FFE7012070BD76
:1042800044F822004860884200D1002101600020EB
:1042900070BD0000AC01002010B503E00468FFF71A
:1042A000B7FF20460028F9D110BD00000A4A8169F5
:1042B00052F82130834202D1036842F8213041682C
:1042C00009B102680A60016809B142684A600021C8
:1042D0000160416070470000AC0100200020704781
:1042E000022801DB00207047054A52F8200004E054
:1042F000C26812688A42F6D000680028F8D1704778
:10430000AC010020022801DB00207047054951F86C
:10431000200004E0C16809680029F6D00068002880
:10432000F8D17047AC0100202DE9F8431D46164630
:10433000884604000CD0FFF7A5FC009000680768D1
:104340006846FFF709FD2B46324641462046B847EE
:10435000BDE8F8832DE9F041044602F048FD061956
:104360001EE000BF00F07CFB052F00DD052700F0FC
:10437000FDFF11480568FFF77DFC2C0017D000BF3A
:1043800002F0F8FC641EFBD1384602F029FD1DB195
:1043900000F0ECFF6D1EFBD1FFF7D6FC02F0EAFC4B
:1043A00002F025FD371A002FDCDCBDE8F08138462D
:1043B00002F016FDF0E70000FC0300201FB503AB80
:1043C000CDF80CD0FFF79CFD684600F019F81FBD32
:1043D00000220EF0BFBE7FB50C461546CDF80CD0BE
:1043E00003A9FFF7D9FD002801DD641EE4B203AB89
:1043F0002A462146FFF784FD684600F001F87FBD9C
:104400002DE9FC4706005FD000F0B0FF00F036FC5D
:104410003C4C81462068B0F9228000F077FC21688E
:1044200007468A8CD01B888441E000BF47F6FF71A5
:10443000304603F0B1FA82460146304603F082FA74
:104440002168054691F82C0000F00300012841D0B6
:1044500002283BD000204A8C101A4884ADF8000096
:104460006A1E1044ADF80400888CADF80200A9F172
:1044700001010844ADF806006A465146304602F094
:104480009DFE2168BDF8020088845146304602F046
:104490005FFB064430780A281ED00D281CD0BDF8DA
:1044A0000000216828444884307818B1761C3078A0
:1044B0000028BBD12068818C39448184818D21F012
:1044C0000301818502F056FCBDE8FC8705EBD57041
:1044D0004010C0E72846BEE7206890F82C1001F095
:1044E000030101290BD0022909D0018C41843178C4
:1044F0000A29D9D1828C02EB09018184D4E7A0F882
:104500002280F4E79401002070B514460D4606465B
:1045100000F02CFF05480068458484843046FFF78E
:104520006FFFBDE8704002F025BC00009401002040
:1045300047F6FF73AFF300802DE9FC411F4690461C
:104540000D4606004FF000041AD000F00FFF65B1D1
:1045500028460BF0FBFE040007D0024629466846B9
:1045600003F079FA68460BF0F1FE3B4642462946D5
:10457000304602F07BFE20460BF0E8FE02F0FAFB2C
:10458000BDE8FC812DE9FF4F87B0904689460700C2
:104590007DD000F0EBFED9F80040D9F8045021B2EC
:1045A00028B2401A401C029000F068FB064618F042
:1045B0000C0F1ED038460A9A029902F0E5FB08F06B
:1045C0000C01042904D0082902D00C2911D104E0DF
:1045D000291400FB1610401C09E02114C1EB2542F0
:1045E00000FB1620401C00EBD07001EB600060F374
:1045F0001F4448460BF0AAFE5FEA000B09D00246B2
:10460000494604A8CDE9044503F025FA04A80BF0B7
:104610009DFEA6F1010A38460A9A029903F090FB22
:1046200003900AEB244060F31F45CDE9004538466E
:10463000039903F087F918F003010ED001292CD05B
:1046400002290ED1B9F90420B9F90010521A101A32
:1046500000EBD07001EB600001E0B9F80000ADF8AC
:1046600000006A463846039902F0A8FD38460A9AC7
:10467000029903F05BFB074406EB244060F31F4400
:1046800038780028C7D158460BF060FE00E001E002
:1046900002F070FB0BB0BDE8F08FB9F80410081AF7
:1046A000401CDCE77CB514460D46064600F05EFE75
:1046B00011480068C16C006D0D4404443188681EC7
:1046C0000844ADF80400ADF800507188601E08443D
:1046D000ADF80600ADF8024068460BF0E7FF06E0D3
:1046E000224629463046FDF7F3FF0BF075FF002800
:1046F000F6D102F03FFB7CBD940100202DE9F04F84
:1047000087B09B46DDE9109892460C46054600F0BE
:104710002DFE16480168C86C096D47190E1900EB8B
:104720000A0501EB0B04ADF81070ADF81450ADF8AC
:104730001260ADF8164004A80BF0B8FF88B1DFF89E
:1047400030B04FF0000ACDE90098CDE902BA2B460F
:1047500022463946304610F049FF0BF03DFF002855
:10476000F1D102F007FB07B0BDE8F08F9401002003
:10477000C58C00082DE9F04F87B09B46DDE9109805
:1047800092460C46054600F0F1FD16480168C86CDB
:10479000096D47190E1900EB0A0501EB0B04ADF882
:1047A0001070ADF81450ADF81260ADF8164004A8C2
:1047B0000BF07CFF88B1DFF830B04FF0010ACDE993
:1047C0000098CDE902BA23462A463146384610F011
:1047D0000DFF0BF001FF0028F1D102F0CBFA07B07A
:1047E000BDE8F08F94010020518B00082DE9FE4FA9
:1047F0009846DDE90D6514468A4683460C9F00F015
:10480000B5FD0E480068C16C01EB0409016D002084
:1048100001EB08040BF04AFF0AE00097CDE90165BF
:1048200023464A465146584610F0A0FF0BF0D4FEEE
:104830000028F2D1BDE8FE4F02F09CBA940100209E
:104840002DE9FC4114460D46064600F08FFD114F40
:104850003968C86C096D054404440E44ADF8005035
:10486000ADF80440ADF80260ADF8066068460BF0A4
:104870001DFF08E0386822463146406E036828462E
:1048800098470BF0A9FE0028F4D102F073FABDE8B6
:10489000FC810000940100202DE9F0411C461546E2
:1048A0000E46074600F062FD0C480168C86C096DB1
:1048B000074405440E440C4400200BF0F7FE07E0CB
:1048C00023462A4631463846FDF750FF0BF084FE5A
:1048D0000028F5D1BDE8F04102F04CBA9401002067
:1048E0007CB50C46064600F041FD0F4D2868C16CB2
:1048F000006D0E440444ADF80460ADF80060ADF8FE
:104900000640ADF8024068460BF0D0FE07E028688C
:104910002146406E4268304690470BF05DFE00280D
:10492000F5D102F027FA7CBD940100202DE9FC416D
:104930001C4616460D46074600F018FD1A48016849
:10494000087ECA6C096D17440D440C44401E391A88
:104950001644ADF800103118ADF80410291A20449F
:10496000ADF80600ADF8021068460BF09FFE15E0AA
:1049700032462946384604F0EBF83246214638469E
:1049800004F0E6F8621E691C384604F09BF9621ECA
:10499000691C304604F096F90BF01EFE0028E7D1A2
:1049A00002F0E8F9BDE8FC819401002070B58EB0FA
:1049B00015460E46044600F0D9FC214606A803F031
:1049C00046F9BDF81A30642B0CD1002000900AABD8
:1049D00001AA214606A802F0D3FB2A46314601A8C7
:1049E000FFF760FE02F0C6F90EB070BD7CB514464C
:1049F0000D46064600F0BAFC0F480068C16C006D19
:104A00000E4405440444ADF80060ADF80460ADF810
:104A10000250ADF8064068460BF048FE06E022461C
:104A20002946304604F04EF90BF0D6FD0028F6D1A9
:104A300002F0A0F97CBD00009401002070B50C4686
:104A4000054600F00DF910B10121C0E9001400F095
:104A50008DFC28460BF042FDBDE8704002F08AB99B
:104A600010B5002400E0012400F004F80028FAD179
:104A7000204610BD094810B50068002410B18047D9
:104A800000B101240AF026FC00B1012404480068AA
:104A900010B1804700B10124204610BDB8010020AC
:104AA000B40100202DE9FC411C4615460E46074680
:104AB00000F05CFC10480068C16C006D0F440644B7
:104AC0000D440444ADF80070ADF80450ADF8026038
:104AD000ADF8064068460BF0E9FD07E023462A469C
:104AE0003146384604F044FA0BF076FD0028F5D143
:104AF00002F040F9BDE8FC8194010020B0F90630D5
:104B0000B0F90420B0F90210B0F90000FFF7CABFF5
:104B100008B50B46002805D0009281888268C088BD
:104B200000F001F808BD10B50828029C30D008DC60
:104B300004FB01F401280AD0022813D0042804D170
:104B40001CE0102828D020282CD0002010BD04EB19
:104B5000D30003F00701105CC1F10701C84000F069
:104B6000010010BD04EB93000621105C01EA430133
:104B7000C1F10601C84000F0030010BD04EB530072
:104B8000D907105C02D000F00F0010BD000910BD65
:104B900004FB0130105C10BD481004FB003032F8FB
:104BA000100010BD881004FB003052F8200010BD2A
:104BB000034951F82000C1688A6A082110470000A3
:104BC000AC01002010B500F0D1FB04F001FA04F0B4
:104BD000E1FA044602F0CEF8204610BD10B50446B6
:104BE00000F0C4FB054800210068C0694268204607
:104BF0009047044602F0BEF8204610BD9401002004
:104C000070B50C46054600F0B1FB06482146006829
:104C1000C069426828469047044602F0ABF8204637
:104C200070BD000094010020002801D00AF0B0BB44
:104C3000704710B500F09AFB04F0D2F904F0AAFA1C
:104C4000044602F097F8204610BD0000002102281B
:104C500002D2024951F8201008467047CC030020C8
:104C60001FB500210191029103912A21009169460B
:104C70000BF0AAF9039804B010BD000010B500F0C5
:104C800075FB04480068C069447E02F073F8204652
:104C900010BD00009401002010B500F067FB02F089
:104CA00047FE044602F066F8204610BD70B5144673
:104CB0000D46064600F05AFB22462946304604F0CF
:104CC000FBF910B1002028602060BDE8704002F0C0
:104CD00051B8000010B500F049FB03480068847E1D
:104CE00002F048F8204610BD9401002070B50C4633
:104CF000054600F03BFB2146284602F069FEBDE870
:104D0000704002F037B802F072B8000010B500240D
:104D100000F02CFB0B48006890F82C1001F00C01FF
:104D2000042904D0082906D00C2907D103E0C06962
:104D3000047E641E02E0C069007E440802F01AF896
:104D4000204610BD94010020017EC07E484370477C
:104D5000024951F82000006900687047AC0100204A
:104D6000024951F82000006940687047AC010020FA
:104D700070B50D46044600F0F9FA204612F094FB97
:104D80000446284612F098FB044301F0F3FF204646
:104D900070BD00002DE9F0411948016821F00101C2
:104DA00001601848012585601749016000681749AE
:104DB000884200D0FEE702F013F9154E2E20307025
:104DC00002F018F8134812F0BDFE16F095FC0746E5
:104DD00004F09AF910B104F0ABF938B904F0B1F964
:104DE000044604F09AF9214604F0C0FD002108466B
:104DF00001F038F90AF08AFE75703846BDE8F08196
:104E0000002000E000300240C2A507F4CDB5E8B5AF
:104E10008801002038B000201CB5CDE900016946AA
:104E2000014800F003F81CBD7D5100082DE9F8434E
:104E30001E46174688468146012500F097FA48F23B
:104E4000C440FEF72CFE040009D03B4642464946CA
:104E500000960EF07DFA05462046FEF73FFE01F073
:104E600089FF2846BDE8F883F8B50546FEF70AFF36
:104E7000009000F5E04090F820636846FEF76CFF74
:104E8000002410E001232246194628460CF010FCAD
:104E900030B908232246022128460CF009FC08B14B
:104EA0000120F8BD641CB442ECDB0020F8BD00001A
:104EB0002DE9F04300F5E0448146D4F89004A1B018
:104EC0004FF00108002538B194F81004F0B300BF8A
:104ED000D4F8880430B32BE094F811040028484635
:104EE00003D013F0FDF890B915E00DF0C7FE70B9CE
:104EF000D4F82814D4F88C0488420CDC694648465F
:104F000014F0F6FB18B99DF80000D92803D0012051
:104F100021B0BDE8F08384F81084D4F82804C4F8E4
:104F20009004D5E7D4F88404FEF7ACFEC4F88804F6
:104F30000746D4F87C04FEF7A5FE2090B8B1002601
:104F4000D4F82004B0420FDD209800E011E000EB1F
:104F5000C61180226846FBF7A8FB3946684612F066
:104F6000D9FA761C4037EBE720A8FEF7F5FE84F867
:104F7000105494F8120405281CD2DFE800F02B2707
:104F80000B0F030094F89004C0070BD148460CF0B7
:104F9000C3FF0DE048460CF0B7FE09E094F890041A
:104FA000C00702D084F89C8404E048460CF0C6FD9B
:104FB00084F89C54D4F89004401EC4F89004D4F8AB
:104FC0008C04401EC4F88C040020A1E748460CF075
:104FD000F9FCEDE7D4F89014D4F82804461AD4F874
:104FE0009404FEF74FFE0090D4F8881401EBC6023B
:104FF000D4F8141409E000BF52F8043B40F8043B15
:1050000052F83C3B40F8043B491E0029F4DC68465A
:10501000FEF7A2FECCE7000070B500F5E0440546BF
:1050200094F82003042834D0284612F059FF28B100
:1050300094F8200384F83103002132E094F87823B7
:105040002AB1002194F87B331BB1012002E0012139
:10505000F8E7002094F87963B2421AD809B1C6B9CA
:1050600003E094F83123012A13D118B194F87A237C
:105070009A420ED121B108B10E4905E00E4903E074
:1050800008B10E4900E00E4928460DF079FF0028CE
:10509000CAD0012070BD681800F5E04080F83213D6
:1050A000491C94F831038842F5DC28460CF0F8F8E6
:1050B000002070BD312C0108492B0108A12A0108EC
:1050C000292801082DE9F04100F5E0440546D4F80F
:1050D000880420B147F288402844FEF73DFED4F80A
:1050E000940408B1FEF7FAFCD4F8980408B1FEF76E
:1050F000F5FCD4F87C0408B1FEF7F0FCD4F8840485
:1051000008B1FEF7EBFC00260FE000BF05EB061729
:1051100007F5E047D7F8C80308B1FEF7DFFCD7F87A
:10512000880308B1FEF7DAFC761C94F82003B0423D
:10513000ECDCD4F80C0408B1FEF7D0FCD4F8800401
:10514000002803D0BDE8F041FEF7C8BCBDE8F081FF
:10515000026811441378016003EB032000EB034065
:10516000704730B5026802EB810113785478957866
:10517000016043EA042040EA054030BD30B50546F1
:1051800000206C68E41A002C07DD944201DD104613
:1051900000E020462A681A440A6030BDF8B50C4683
:1051A000064600F03BF8054654B13046FEF76AFD6E
:1051B0000090818A2160C08A60606846FEF7CCFD5D
:1051C0002846F8BD38B5054600F028F8040023D17C
:1051D000284612F0F1FC04001ED12846FEF752FDCD
:1051E00047F211410090095C81B10CF005F8040010
:1051F0000FD1009800F5004090F8A00448B9684627
:10520000FEF7AAFD28460DF03BFE38BD12F068FE01
:1052100004466846FEF7A0FD204638BD7FB5002550
:10522000FEF730FD01260090044680F820601A4801
:1052300060600020E06102A9204612F0CAF820BB9D
:10524000626803A920469047F8B99DF80800FF2836
:105250001BD19DF80C00D82817D18DF8040001A9A6
:10526000009814F045FA80B99DF80400C02808D0D1
:10527000C12806D0C22809D1009800F5E04080F886
:105280001164009811F04BFF00B101256846FEF74C
:1052900063FD04B0284670BDD37301082DE9F843BF
:1052A00000F500410446D1F8A824D1F8AC0404F577
:1052B000E0451044C1F8AC04002015E095F8212326
:1052C000D1F8AC34022A08D1221802F5E04292F853
:1052D0002523C2F1030293FBF2F304EB800202F5F3
:1052E0000042401CC2F8B03495F820238242E5DC2D
:1052F000002628E004EB061847F27C3108EB010792
:10530000F868FEF7BFFC0090BA6839684A437968CC
:105310004A43002102F045FD6846FEF71DFD47F2B5
:10532000BC3108EB0107F868FEF7ACFC0090BA68E6
:1053300039684A4379684A43002102F032FD6846E1
:10534000FEF70AFD761C95F82003B042D2DC47F246
:10535000FC3010220021204402F023FDE08AC5F831
:105360008C040020C5F89004BDE8F88370B5184C93
:10537000E06820B101F039FD6168884204D001F095
:1053800065FD01F032FD6060E068401CE0600128CE
:105390001CD111F0BFFF05462068854216D00028B9
:1053A00013DBFEF79BFF01462068C0EB001220696B
:1053B00000EBC2025167C5EB0511064A00EBC100C4
:1053C000011D1160406FFEF767FF256070BD000092
:1053D000F00300209401002010B5011E01DD0246FB
:1053E00000E04A42064B012053F82040944202D884
:1053F000401C0A28F8DB002900DA401C10BD000020
:1054000024E406081CB5040004D10E480068046EAC
:10541000002C16D0FFF7AAFF2046FEF733FC0090C1
:1054200044696846FEF798FC4CB12046FEF72AFC1A
:10543000019081688968884701A8FEF78DFC01F01A
:1054400099FC1CBD9401002001490A4600F002B8F5
:1054500001F0FFFF2DE9F04387B015460C465FEAE7
:10546000000846D0FFF782FF002000F0C1FD814612
:1054700021480068066E4046FEF704FC0090006874
:10548000806900F02FFD074640F6FF70C44204D14A
:105490000098B0F90440B0F906500098611E0289E6
:1054A000ADF804401144ADF808104189681E084465
:1054B000ADF80650ADF80A0009F0FEFC6846FEF7AC
:1054C0004BFC01A80BF0F2F806E02A4621464046C4
:1054D00000F0DCFB0BF080F80028F6D1384600F035
:1054E00001FD304600F0DEF9484600F081FD01F094
:1054F00041FC07B0BDE8F083940100202DE9FE4F88
:10550000984691468A46834600270C9EFFF72EFF59
:10551000184819490068407C51F82040E168096842
:10552000042903D02468002CF8D100E01CB9FEF750
:10553000E9FE041E1BD0E0680121C26A20469047A4
:10554000050011D02469A0688047401C02D10B4C93
:1055500046F001060096CDE9015443464A465146BD
:10556000584600F033FA074601F004FC3846BDE81F
:10557000FE8F000094010020AC01002048DA0608EC
:1055800038B504001CD0FFF7F1FE0E480068006E2D
:10559000A04201D100F098FC2046FEF773FB00907A
:1055A000406908B101F0CFFB00980068FEF72EFEBD
:1055B0006846FEF7D1FB2046FEF790FA01F0DAFBD1
:1055C00038BD0000940100202DE9FF4F83B09A46BA
:1055D0008B460746FFF7CAFEDFF83891D9F800007E
:1055E000447C4D4800570128204606DD03F092FD1B
:1055F0000546204603F0A2FD05E003F073FD0546D5
:10560000204603F075FD04461FB302A901A8FFF769
:105610006DFBB7F90000002800DA0020B7F902603E
:105620008046002E00DA002601984119B7F90400DF
:10563000491E12F007FF054602980119B7F9060046
:10564000491E12F0FFFEA5EB0802841B521C641CCD
:1056500003E04FF0000846462A46BAF1000F01D198
:10566000C4F1000A002A51DD002C4FDD1098009093
:10567000534631464046FFF741FF5FEA000A10D02B
:1056800000F0CAF80746A04206D0D9F80000806CA6
:1056900010B132210BF0A4FB504600F003F90025B5
:1056A00023E059460598884701F064FB012007B0C4
:1056B000BDE8F08F611BB94202DA504600F0D6F81F
:1056C0003DB172194146504600F014F95046FFF7BB
:1056D00099FE5946059888471048016809B100208D
:1056E00088475046FFF7B0FE3D44A542E2DB5046F6
:1056F000FFF746FF002000F0D5F8A74206D0D9F802
:105700000000806C10B133210BF06AFB01F032FB1A
:105710000020CCE794010020CC0100206004002090
:1057200038B505004FF0000411D0FFF71FFE2846E2
:10573000FEF7A8FA0090006800698068804704F0CE
:1057400023FC04466846FEF707FB01F013FB2046E6
:1057500038BD38B504000ED0FFF708FE2046FEF72E
:1057600091FA00F1180400906846FEF7F5FA01F08E
:1057700001FB204638BD002038BD000038B5044686
:105780000025FFF7F3FD1CB908480068046E44B11A
:105790002046FEF777FA0090B0F904506846FEF70D
:1057A000DBFA01F0E7FA284638BD0000940100203A
:1057B00038B504460025FFF7D9FD1CB90848006834
:1057C000046E44B12046FEF75DFA0090B0F908502F
:1057D0006846FEF7C1FA01F0CDFA284638BD000050
:1057E0009401002038B504460025FFF7BFFD1CB921
:1057F00008480068046E44B12046FEF743FA009062
:10580000B0F906506846FEF7A7FA01F0B3FA284649
:1058100038BD00009401002038B504460025FFF78C
:10582000A5FD1CB908480068046E44B12046FEF787
:1058300029FA0090B0F90A506846FEF78DFA01F097
:1058400099FA284638BD00009401002070B505463D
:10585000002428460CF0C0FE641C18B1BDE870405E
:1058600000F07AB8052CF4DB70BD000038B50C46AA
:10587000050004D10A480068056E002D0FD0FFF71F
:1058800075FD2846FEF7FEF90090B0F90A10A14216
:1058900000DD44816846FEF75FFA01F06BFA38BD1F
:1058A00094010020F8B50546FFF760FD104E306802
:1058B000046ECDB10CB100F007FB09F039FC2846AD
:1058C000FEF7E0F9009031680D660068FEF7A0FC75
:1058D0006846FEF741FA04F09FF903F083FF00BF2A
:1058E00001F048FA2046F8BD00F0EEFAF8E70000B3
:1058F000940100207CB515460E46040004D11548DD
:105900000068046E002C24D0FFF730FD2046FEF71F
:10591000B9F92DB20090C58034B2848003F062FFE3
:105920000098406980B1FEF7ADF9009A0190B2F994
:1059300008108180B2F90A20C28011B10AB1048036
:10594000458001A8FEF708FA6846FEF705FA01F05F
:1059500011FA7CBD9401002001490A4600F002B80A
:1059600001F0FFFF7FB515460C4606002DD0FFF76E
:10597000FDFC3046FEF786F940F6FF710190CC42FF
:1059800003D1B0F90440B0F906500289611E1144F8
:10599000ADF80840ADF80C104189681E0844ADF818
:1059A0000E00ADF80A5001A8FEF7D6F902A80AF0D9
:1059B0007DFE06E02A462146304600F04FF90AF007
:1059C0000BFE0028F6D101F0D5F97FBD2DE9FF4F80
:1059D000DFF8E8B083B01C46DBF80010DDE91060AA
:1059E00092464FF000084B7C42461299FEF7D2FBDC
:1059F000050060D028698068804704F0C5FA8146B8
:105A00000AFB09F1C91DCF08FEF776F9F10705D1A8
:105A1000C11700EB9170801000EB4000002C09DCF6
:105A20001FB11838B0FBF7F000E000206442A0423C
:105A300000DC0446F00707D10090DDE903012346AE
:105A4000524601F005F98046002C03DC2846FEF79B
:105A5000DDFB30E004FB07F01830F10702D0FEF761
:105A60000FF801E0FEF71BF806001CD0FEF70AF95C
:105A700001900560039981800499C180A0F808A075
:105A80004481C0F81480C0E9037901A8FEF764F9E5
:105A90001298AE602861DBF80000407CA8613046B7
:105AA00007B0BDE8F08F2846FEF7B0FBB8F1000064
:105AB00001D0FEF713F80020F2E700009401002067
:105AC0000149086070470000600400202DE9F74F8D
:105AD0008EB0144689460E98FEF7D4F80990B0F9B6
